{"abi":[{"type":"function","name":"LIGHT_CLIENT","inputs":[],"outputs":[{"name":"","type":"address","internalType":"contract BitcoinLightClient"}],"stateMutability":"view"},{"type":"function","name":"SYSTEM_CALLER","inputs":[],"outputs":[{"name":"","type":"address","internalType":"address"}],"stateMutability":"view"},{"type":"function","name":"acceptOwnership","inputs":[],"outputs":[],"stateMutability":"nonpayable"},{"type":"function","name":"batchWithdraw","inputs":[{"name":"txIds","type":"bytes32[]","internalType":"bytes32[]"},{"name":"outputIds","type":"uint32[]","internalType":"uint32[]"}],"outputs":[],"stateMutability":"payable"},{"type":"function","name":"declareWithdrawFiller","inputs":[{"name":"withdrawTp","type":"tuple","internalType":"struct Bridge.TransactionParams","components":[{"name":"version","type":"bytes4","internalType":"bytes4"},{"name":"flag","type":"bytes2","internalType":"bytes2"},{"name":"vin","type":"bytes","internalType":"bytes"},{"name":"vout","type":"bytes","internalType":"bytes"},{"name":"witness","type":"bytes","internalType":"bytes"},{"name":"locktime","type":"bytes4","internalType":"bytes4"},{"name":"intermediate_nodes","type":"bytes","internalType":"bytes"},{"name":"block_height","type":"uint256","internalType":"uint256"},{"name":"index","type":"uint256","internalType":"uint256"}]},{"name":"inputIndex","type":"uint256","internalType":"uint256"},{"name":"withdrawId","type":"uint256","internalType":"uint256"}],"outputs":[],"stateMutability":"nonpayable"},{"type":"function","name":"deposit","inputs":[{"name":"moveTp","type":"tuple","internalType":"struct Bridge.TransactionParams","components":[{"name":"version","type":"bytes4","internalType":"bytes4"},{"name":"flag","type":"bytes2","internalType":"bytes2"},{"name":"vin","type":"bytes","internalType":"bytes"},{"name":"vout","type":"bytes","internalType":"bytes"},{"name":"witness","type":"bytes","internalType":"bytes"},{"name":"locktime","type":"bytes4","internalType":"bytes4"},{"name":"intermediate_nodes","type":"bytes","internalType":"bytes"},{"name":"block_height","type":"uint256","internalType":"uint256"},{"name":"index","type":"uint256","internalType":"uint256"}]}],"outputs":[],"stateMutability":"nonpayable"},{"type":"function","name":"depositAmount","inputs":[],"outputs":[{"name":"","type":"uint256","internalType":"uint256"}],"stateMutability":"view"},{"type":"function","name":"depositScript","inputs":[],"outputs":[{"name":"","type":"bytes","internalType":"bytes"}],"stateMutability":"view"},{"type":"function","name":"getWithdrawalCount","inputs":[],"outputs":[{"name":"","type":"uint256","internalType":"uint256"}],"stateMutability":"view"},{"type":"function","name":"initialize","inputs":[{"name":"_depositScript","type":"bytes","internalType":"bytes"},{"name":"_scriptSuffix","type":"bytes","internalType":"bytes"},{"name":"_depositAmount","type":"uint256","internalType":"uint256"}],"outputs":[],"stateMutability":"nonpayable"},{"type":"function","name":"initialized","inputs":[],"outputs":[{"name":"","type":"bool","internalType":"bool"}],"stateMutability":"view"},{"type":"function","name":"isOperatorMalicious","inputs":[{"name":"","type":"uint256","internalType":"uint256"}],"outputs":[{"name":"","type":"bool","internalType":"bool"}],"stateMutability":"view"},{"type":"function","name":"kickoffScript","inputs":[],"outputs":[{"name":"","type":"bytes","internalType":"bytes"}],"stateMutability":"view"},{"type":"function","name":"markMaliciousOperator","inputs":[{"name":"kickoff2Tp","type":"tuple","internalType":"struct Bridge.TransactionParams","components":[{"name":"version","type":"bytes4","internalType":"bytes4"},{"name":"flag","type":"bytes2","internalType":"bytes2"},{"name":"vin","type":"bytes","internalType":"bytes"},{"name":"vout","type":"bytes","internalType":"bytes"},{"name":"witness","type":"bytes","internalType":"bytes"},{"name":"locktime","type":"bytes4","internalType":"bytes4"},{"name":"intermediate_nodes","type":"bytes","internalType":"bytes"},{"name":"block_height","type":"uint256","internalType":"uint256"},{"name":"index","type":"uint256","internalType":"uint256"}]}],"outputs":[],"stateMutability":"nonpayable"},{"type":"function","name":"operator","inputs":[],"outputs":[{"name":"","type":"address","internalType":"address"}],"stateMutability":"view"},{"type":"function","name":"owner","inputs":[],"outputs":[{"name":"","type":"address","internalType":"address"}],"stateMutability":"view"},{"type":"function","name":"pendingOwner","inputs":[],"outputs":[{"name":"","type":"address","internalType":"address"}],"stateMutability":"view"},{"type":"function","name":"renounceOwnership","inputs":[],"outputs":[],"stateMutability":"nonpayable"},{"type":"function","name":"scriptSuffix","inputs":[],"outputs":[{"name":"","type":"bytes","internalType":"bytes"}],"stateMutability":"view"},{"type":"function","name":"setDepositScript","inputs":[{"name":"_depositScript","type":"bytes","internalType":"bytes"},{"name":"_scriptSuffix","type":"bytes","internalType":"bytes"}],"outputs":[],"stateMutability":"nonpayable"},{"type":"function","name":"setKickoffScript","inputs":[{"name":"_kickoffScript","type":"bytes","internalType":"bytes"}],"outputs":[],"stateMutability":"nonpayable"},{"type":"function","name":"setOperator","inputs":[{"name":"_operator","type":"address","internalType":"address"}],"outputs":[],"stateMutability":"nonpayable"},{"type":"function","name":"spentTxIds","inputs":[{"name":"","type":"bytes32","internalType":"bytes32"}],"outputs":[{"name":"","type":"uint256","internalType":"uint256"}],"stateMutability":"view"},{"type":"function","name":"transferOwnership","inputs":[{"name":"newOwner","type":"address","internalType":"address"}],"outputs":[],"stateMutability":"nonpayable"},{"type":"function","name":"withdraw","inputs":[{"name":"txId","type":"bytes32","internalType":"bytes32"},{"name":"outputId","type":"uint32","internalType":"uint32"}],"outputs":[],"stateMutability":"payable"},{"type":"function","name":"withdrawFillers","inputs":[{"name":"","type":"uint256","internalType":"uint256"}],"outputs":[{"name":"","type":"uint256","internalType":"uint256"}],"stateMutability":"view"},{"type":"function","name":"withdrawalUTXOs","inputs":[{"name":"","type":"uint256","internalType":"uint256"}],"outputs":[{"name":"txId","type":"bytes32","internalType":"bytes32"},{"name":"outputId","type":"uint32","internalType":"uint32"}],"stateMutability":"view"},{"type":"event","name":"Deposit","inputs":[{"name":"txId","type":"bytes32","indexed":false,"internalType":"bytes32"},{"name":"recipient","type":"address","indexed":false,"internalType":"address"},{"name":"timestamp","type":"uint256","indexed":false,"internalType":"uint256"},{"name":"depositId","type":"uint256","indexed":false,"internalType":"uint256"}],"anonymous":false},{"type":"event","name":"DepositScriptUpdate","inputs":[{"name":"depositScript","type":"bytes","indexed":false,"internalType":"bytes"},{"name":"scriptSuffix","type":"bytes","indexed":false,"internalType":"bytes"}],"anonymous":false},{"type":"event","name":"Initialized","inputs":[{"name":"version","type":"uint64","indexed":false,"internalType":"uint64"}],"anonymous":false},{"type":"event","name":"KickoffScriptUpdate","inputs":[{"name":"kickoffScript","type":"bytes","indexed":false,"internalType":"bytes"}],"anonymous":false},{"type":"event","name":"MaliciousOperatorMarked","inputs":[{"name":"operatorId","type":"uint256","indexed":false,"internalType":"uint256"}],"anonymous":false},{"type":"event","name":"OperatorUpdated","inputs":[{"name":"oldOperator","type":"address","indexed":false,"internalType":"address"},{"name":"newOperator","type":"address","indexed":false,"internalType":"address"}],"anonymous":false},{"type":"event","name":"OwnershipTransferStarted","inputs":[{"name":"previousOwner","type":"address","indexed":true,"internalType":"address"},{"name":"newOwner","type":"address","indexed":true,"internalType":"address"}],"anonymous":false},{"type":"event","name":"OwnershipTransferred","inputs":[{"name":"previousOwner","type":"address","indexed":true,"internalType":"address"},{"name":"newOwner","type":"address","indexed":true,"internalType":"address"}],"anonymous":false},{"type":"event","name":"WithdrawFillerDeclared","inputs":[{"name":"withdrawId","type":"uint256","indexed":false,"internalType":"uint256"},{"name":"withdrawFillerId","type":"uint256","indexed":false,"internalType":"uint256"}],"anonymous":false},{"type":"event","name":"Withdrawal","inputs":[{"name":"utxo","type":"tuple","indexed":false,"internalType":"struct Bridge.UTXO","components":[{"name":"txId","type":"bytes32","internalType":"bytes32"},{"name":"outputId","type":"uint32","internalType":"uint32"}]},{"name":"index","type":"uint256","indexed":false,"internalType":"uint256"},{"name":"timestamp","type":"uint256","indexed":false,"internalType":"uint256"}],"anonymous":false},{"type":"error","name":"InvalidInitialization","inputs":[]},{"type":"error","name":"NotInitializing","inputs":[]},{"type":"error","name":"OwnableInvalidOwner","inputs":[{"name":"owner","type":"address","internalType":"address"}]},{"type":"error","name":"OwnableUnauthorizedAccount","inputs":[{"name":"account","type":"address","internalType":"address"}]}],"bytecode":{"object":"0x6080604052348015600f57600080fd5b5061318c8061001f6000396000f3fe60806040526004361061019c5760003560e01c8063b3ab15fb116100ec578063d761753e1161008a578063e613ae0011610064578063e613ae0014610485578063ebcb0cf3146104a0578063f2fde38b146104c0578063f8e655d2146104e057600080fd5b8063d761753e14610428578063dd95c7c614610450578063e30c39781461047057600080fd5b8063c045577b116100c6578063c045577b146103c0578063c46aef1e146103ed578063d30db94914610402578063d62239f91461041557600080fd5b8063b3ab15fb1461036b578063b93780f61461038b578063bafa9eb2146103a057600080fd5b806366f4ed4611610159578063781952a811610133578063781952a81461030a57806379ba50971461031f57806387f8bf56146103345780638da5cb5b1461035657600080fd5b806366f4ed46146102a8578063715018a6146102d557806374ab4a83146102ea57600080fd5b8063158ef93e146101a157806341260137146101d0578063419759f5146101f2578063471ba1e314610216578063570ca735146102505780635e3cc74014610288575b600080fd5b3480156101ad57600080fd5b506000546101bb9060ff1681565b60405190151581526020015b60405180910390f35b3480156101dc57600080fd5b506101f06101eb366004612904565b610500565b005b3480156101fe57600080fd5b5061020860015481565b6040519081526020016101c7565b34801561022257600080fd5b5061023661023136600461297b565b610702565b6040805192835263ffffffff9091166020830152016101c7565b34801561025c57600080fd5b50600254610270906001600160a01b031681565b6040516001600160a01b0390911681526020016101c7565b34801561029457600080fd5b506101f06102a33660046129ad565b610736565b3480156102b457600080fd5b506102086102c336600461297b565b60066020526000908152604090205481565b3480156102e157600080fd5b506101f0610a77565b3480156102f657600080fd5b506101f06103053660046129e9565b610a8b565b34801561031657600080fd5b50602754610208565b34801561032b57600080fd5b506101f0610c49565b34801561034057600080fd5b50610349610c91565b6040516101c79190612a5a565b34801561036257600080fd5b50610270610d1f565b34801561037757600080fd5b506101f0610386366004612a8d565b610d54565b34801561039757600080fd5b50610349610db7565b3480156103ac57600080fd5b506101bb6103bb36600461297b565b610dc4565b3480156103cc57600080fd5b506102086103db36600461297b565b60286020526000908152604090205481565b3480156103f957600080fd5b50610349610def565b6101f0610410366004612afa565b610dfc565b6101f0610423366004612b82565b610fe1565b34801561043457600080fd5b5061027073deaddeaddeaddeaddeaddeaddeaddeaddeaddead81565b34801561045c57600080fd5b506101f061046b3660046129ad565b61110d565b34801561047c57600080fd5b50610270611466565b34801561049157600080fd5b506102706001603160981b0181565b3480156104ac57600080fd5b506101f06104bb366004612bae565b61148f565b3480156104cc57600080fd5b506101f06104db366004612a8d565b611503565b3480156104ec57600080fd5b506101f06104fb366004612bef565b611588565b3373deaddeaddeaddeaddeaddeaddeaddeaddeaddead146105685760405162461bcd60e51b815260206004820152601f60248201527f63616c6c6572206973206e6f74207468652073797374656d2063616c6c65720060448201526064015b60405180910390fd5b60005460ff16156105bb5760405162461bcd60e51b815260206004820152601f60248201527f436f6e747261637420697320616c726561647920696e697469616c697a656400604482015260640161055f565b8060000361060b5760405162461bcd60e51b815260206004820152601a60248201527f4465706f73697420616d6f756e742063616e6e6f742062652030000000000000604482015260640161055f565b600084900361062c5760405162461bcd60e51b815260040161055f90612c52565b6000805460ff191660011790556003610646858783612d22565b506004610654838583612d22565b506001819055600280546001600160a01b03191673deaddeaddeaddeaddeaddeaddeaddeaddeaddead908117909155604080516000815260208101929092527ffbe5b6cbafb274f445d7fed869dc77a838d8243a22c460de156560e8857cad03910160405180910390a17f80bd1fdfe157286ce420ee763f91748455b249605748e5df12dad9844402bafc858585856040516106f39493929190612e0a565b60405180910390a15050505050565b6027818154811061071257600080fd5b60009182526020909120600290910201805460019091015490915063ffffffff1682565b61073f81611602565b50600061078c6107526060840184612e3c565b8080601f016020809104026020016040519081016040528093929190818152602001838380828437600092019190915250611a1692505050565b9150600090506107e96107a26060850185612e3c565b8080601f0160208091040260200160405190810160405280939291908181526020018383808284376000920191909152506107e4925060019150869050612e98565b611a2d565b90506000806107f783611ba5565b80602001905181019061080a9190612eab565b60008181526006602052604081205492945090925061086961082f6080890189612e3c565b8080601f01602080910402602001604051908101604052809392919081815260200183838082843760009201829052509250611c27915050565b9050600061087682611a16565b915050806003146108c15760405162461bcd60e51b8152602060048201526015602482015274496e76616c6964207769746e657373206974656d7360581b604482015260640161055f565b60006108ce836001611d01565b90506000602980546108df90612c9f565b9150600090506108f0838284611e81565b9050610986816029805461090390612c9f565b80601f016020809104026020016040519081016040528092919081815260200182805461092f90612c9f565b801561097c5780601f106109515761010080835404028352916020019161097c565b820191906000526020600020905b81548152906001019060200180831161095f57829003601f168201915b5050505050611f44565b6109cb5760405162461bcd60e51b8152602060048201526016602482015275125b9d985b1a59081ada58dadbd999881cd8dc9a5c1d60521b604482015260640161055f565b60008681526028602052604090205415806109fc57506109ea8861201b565b60008781526028602052604090205414155b15610a375760016007896103e88110610a1757610a17612ecf565b602091828204019190066101000a81548160ff0219169083151502179055505b6040518881527ff918cdaebea74c5a8c3b02d7404c162f507551b158202cedcba9b6a74eabdff29060200160405180910390a15050505050505050505050565b610a7f612028565b610a89600061205a565b565b610a9483611602565b506000610ae3610aa76040860186612e3c565b8080601f016020809104026020016040519081016040528093929190818152602001838380828437600092019190915250879250612096915050565b90506000610af0826121e9565b90506000610afd836121f6565b60e01c9050600060278581548110610b1757610b17612ecf565b600091825260209182902060408051808201909152600290920201805480835260019091015463ffffffff1692820192909252915083148015610b6957508163ffffffff16816020015163ffffffff16145b610ba95760405162461bcd60e51b81526020600482015260116024820152706e6f74206d61746368696e67205554584f60781b604482015260640161055f565b6000610bbb61075260608a018a612e3c565b915060009050610bd16107a260608b018b612e3c565b90506000610be6610be183611ba5565b612203565b9050610bf18161201b565b6000898152602860209081526040918290209290925580518a81529182018390527feedf47c2f61b040827944fd45e44ef6d742354b34e1af7dd99a56f444ec79347910160405180910390a150505050505050505050565b3380610c53611466565b6001600160a01b031614610c855760405163118cdaa760e01b81526001600160a01b038216600482015260240161055f565b610c8e8161205a565b50565b60048054610c9e90612c9f565b80601f0160208091040260200160405190810160405280929190818152602001828054610cca90612c9f565b8015610d175780601f10610cec57610100808354040283529160200191610d17565b820191906000526020600020905b815481529060010190602001808311610cfa57829003601f168201915b505050505081565b6000807f9016d09d72d40fdae2fd8ceac6b6234c7706214fd39c1cd1e609a0528c1993005b546001600160a01b031692915050565b610d5c612028565b600280546001600160a01b0319166001600160a01b0383169081179091556040805182815260208101929092527ffbe5b6cbafb274f445d7fed869dc77a838d8243a22c460de156560e8857cad03910160405180910390a150565b60038054610c9e90612c9f565b6007816103e88110610dd557600080fd5b60209182820401919006915054906101000a900460ff1681565b60298054610c9e90612c9f565b828114610e3d5760405162461bcd60e51b815260206004820152600f60248201526e098cadccee8d040dad2e6dac2e8c6d608b1b604482015260640161055f565b600154610e4b908490612ee5565b3414610e935760405162461bcd60e51b8152602060048201526017602482015276125b9d985b1a59081dda5d1a191c985dc8185b5bdd5b9d604a1b604482015260640161055f565b60275460005b84811015610fd95760006040518060400160405280888885818110610ec057610ec0612ecf565b905060200201358152602001868685818110610ede57610ede612ecf565b9050602002016020810190610ef39190612efc565b63ffffffff9081169091526027805460018101825560009190915282517f98a476f1687bc3d60a2da2adbcba2c46958e61fa2fb4042cd7bc5816a710195b60029092029182015560208301517f98a476f1687bc3d60a2da2adbcba2c46958e61fa2fb4042cd7bc5816a710195c909101805463ffffffff19169190921617905590507fe32f1dd44d4768b5cc8efdffee252f9da4f2cc539a5d1908c2772f181dd363ce81610fa18486612f17565b604080518351815260209384015163ffffffff169381019390935282015242606082015260800160405180910390a150600101610e99565b505050505050565b600154341461102c5760405162461bcd60e51b8152602060048201526017602482015276125b9d985b1a59081dda5d1a191c985dc8185b5bdd5b9d604a1b604482015260640161055f565b60408051808201825283815263ffffffff83811660208084019182526027805460018101825560009190915284517f98a476f1687bc3d60a2da2adbcba2c46958e61fa2fb4042cd7bc5816a710195b6002830290810182905584517f98a476f1687bc3d60a2da2adbcba2c46958e61fa2fb4042cd7bc5816a710195c909101805463ffffffff1916918716919091179055865190815292519093169082015292830181905242606084015290917fe32f1dd44d4768b5cc8efdffee252f9da4f2cc539a5d1908c2772f181dd363ce906080015b60405180910390a150505050565b6002546001600160a01b031633146111675760405162461bcd60e51b815260206004820152601a60248201527f63616c6c6572206973206e6f7420746865206f70657261746f72000000000000604482015260640161055f565b600061117282611602565b600081815260066020526040902054909150156111c65760405162461bcd60e51b81526020600482015260126024820152711d1e125908185b1c9958591e481cdc195b9d60721b604482015260640161055f565b6005600081546111d590612f2a565b91829055506000828152600660205260408120919091556111fc61082f6080850185612e3c565b9050600061120982611a16565b915050806003146112545760405162461bcd60e51b8152602060048201526015602482015274496e76616c6964207769746e657373206974656d7360581b604482015260640161055f565b6000611261836001611d01565b905060006003805461127290612c9f565b915060009050611283838284611e81565b9050611296816003805461090390612c9f565b6112db5760405162461bcd60e51b8152602060048201526016602482015275125b9d985b1a590819195c1bdcda5d081cd8dc9a5c1d60521b604482015260640161055f565b600061130f600480546112ed90612c9f565b86516112f99250612e98565b6004805461130690612c9f565b87929150611e81565b9050611322816004805461090390612c9f565b6113665760405162461bcd60e51b8152602060048201526015602482015274092dcecc2d8d2c840e6c6e4d2e0e840e6eaccccd2f605b1b604482015260640161055f565b600061137185612219565b600554604080518b81526001600160a01b038416602082015242818301526060810192909252519192507f6849bd31a1772b1b6992f1f328cce6888b435faff25d13805baee12a8a944bbe919081900360800190a16001546040516000916001600160a01b038416918381818185875af1925050503d8060008114611412576040519150601f19603f3d011682016040523d82523d6000602084013e611417565b606091505b505090508061145a5760405162461bcd60e51b815260206004820152600f60248201526e151c985b9cd9995c8819985a5b1959608a1b604482015260640161055f565b50505050505050505050565b6000807f237e158222e3e6968b72b9db0d8043aacf074ad9f650f0d1606b4d82ee432c00610d44565b611497612028565b60008190036114b85760405162461bcd60e51b815260040161055f90612c52565b60296114c5828483612d22565b507f66841b70bca78b2e8e50e96d6e5cf90c507e0570d7f08b7cec950c97852b6df982826040516114f7929190612f43565b60405180910390a15050565b61150b612028565b7f237e158222e3e6968b72b9db0d8043aacf074ad9f650f0d1606b4d82ee432c0080546001600160a01b0319166001600160a01b038316908117825561154f610d1f565b6001600160a01b03167f38d16b8cac22d99fc7c124b9cd0de2d3fa1faef420bfe791d8c362d765e2270060405160405180910390a35050565b611590612028565b60008390036115b15760405162461bcd60e51b815260040161055f90612c52565b60036115be848683612d22565b5060046115cc828483612d22565b507f80bd1fdfe157286ce420ee763f91748455b249605748e5df12dad9844402bafc848484846040516110ff9493929190612e0a565b6000806116616116156020850185612f57565b6116256040860160208701612f81565b6116326040870187612e3c565b61163f6060890189612e3c565b61164c60808b018b612e3c565b61165c60c08d0160a08e01612f57565b61224f565b90506116ad6116736040850185612e3c565b8080601f01602080910402602001604051908101604052809392919081815260200183838082843760009201919091525061229792505050565b6116f95760405162461bcd60e51b815260206004820152601d60248201527f56696e206973206e6f742070726f7065726c7920666f726d6174746564000000604482015260640161055f565b6117436117096060850185612e3c565b8080601f01602080910402602001604051908101604052809392919081815260200183838082843760009201919091525061233b92505050565b61178f5760405162461bcd60e51b815260206004820152601e60248201527f566f7574206973206e6f742070726f7065726c7920666f726d61747465640000604482015260640161055f565b60006117a16107526040860186612e3c565b915050806001146117ed5760405162461bcd60e51b815260206004820152601660248201527513db9b1e481bdb99481a5b9c1d5d08185b1b1bddd95960521b604482015260640161055f565b6118396117fd6080860186612e3c565b8080601f0160208091040260200160405190810160405280939291908181526020018383808284376000920191909152508592506123d2915050565b61188f5760405162461bcd60e51b815260206004820152602160248201527f5769746e657373206973206e6f742070726f7065726c7920666f726d617474656044820152601960fa1b606482015260840161055f565b6001603160981b01634ffd344a60e0860135846118af60c0890189612e3c565b8961010001356040518663ffffffff1660e01b81526004016118d5959493929190612fab565b602060405180830381865afa1580156118f2573d6000803e3d6000fd5b505050506040513d601f19601f820116820180604052508101906119169190612fdd565b6119625760405162461bcd60e51b815260206004820152601b60248201527f5472616e73616374696f6e206973206e6f7420696e20626c6f636b0000000000604482015260640161055f565b6000611a0d6119746020870187612f57565b6119816040880188612e3c565b8080601f0160208091040260200160405190810160405280939291908181526020018383808284376000920191909152506119c3925050506060890189612e3c565b8080601f016020809104026020016040519081016040528093929190818152602001838380828437600092019190915250611a089250505060c08a0160a08b01612f57565b612447565b95945050505050565b600080611a24836000612463565b91509150915091565b6060600080611a3b85611a16565b909250905060018201611a605760405162461bcd60e51b815260040161055f90612fff565b808410611aa35760405162461bcd60e51b81526020600482015260116024820152702b37baba103932b0b21037bb32b9393ab760791b604482015260640161055f565b600080611ab1846001612f17565b905060005b86811015611b2f57611ac88883612605565b92506000198303611b1b5760405162461bcd60e51b815260206004820152601a60248201527f42616420566172496e7420696e207363726970745075626b6579000000000000604482015260640161055f565b611b258383612f17565b9150600101611ab6565b50611b3a8782612605565b91506000198203611b8d5760405162461bcd60e51b815260206004820152601a60248201527f42616420566172496e7420696e207363726970745075626b6579000000000000604482015260640161055f565b611b98878284611e81565b9450505050505b92915050565b606081600981518110611bba57611bba612ecf565b6020910101516001600160f81b031916603560f91b14611be857505060408051602081019091526000815290565b600082600a81518110611bfd57611bfd612ecf565b01602001516001600160f81b031981169150611c20908490600b9060f81c611e81565b9392505050565b606060008060005b84811015611ca057611c418683612669565b92506000198303611c8c5760405162461bcd60e51b815260206004820152601560248201527442616420566172496e7420696e207769746e65737360581b604482015260640161055f565b611c968383612f17565b9150600101611c2f565b50611cab8582612669565b91506000198203611cf65760405162461bcd60e51b815260206004820152601560248201527442616420566172496e7420696e207769746e65737360581b604482015260640161055f565b611a0d858284611e81565b6060600080611d0f85611a16565b909250905060018201611d345760405162461bcd60e51b815260040161055f90612fff565b808410611d765760405162461bcd60e51b815260206004820152601060248201526f2b34b7103932b0b21037bb32b9393ab760811b604482015260640161055f565b600080611d84846001612f17565b905060005b86811015611e0f57611d9b8883612463565b909550925060018301611de55760405162461bcd60e51b815260206004820152601260248201527142616420566172496e7420696e206974656d60701b604482015260640161055f565b82611df1866001612f17565b611dfb9190612f17565b611e059083612f17565b9150600101611d89565b50611e1a8782612463565b909450915060018201611e645760405162461bcd60e51b815260206004820152601260248201527142616420566172496e7420696e206974656d60701b604482015260640161055f565b611b9881611e728685612f17565b611e7d906001612f17565b8991905b606081600003611ea05750604080516020810190915260008152611c20565b6000611eac8385612f17565b90508381118015611ebe575080855110155b611f005760405162461bcd60e51b8152602060048201526013602482015272536c696365206f7574206f6620626f756e647360681b604482015260640161055f565b604051915082604083010160405282825283850182038460208701018481015b80821015611f3957815183830152602082019150611f20565b505050509392505050565b81518151600091908114611f5c576000915050611b9f565b60206000805b838311611f925750508481015184820151602090920191808214611f8d576000945050505050611b9f565b611f62565b6000611f9f602085612e98565b90505b8481101561200d57868181518110611fbc57611fbc612ecf565b602001015160f81c60f81b6001600160f81b031916888281518110611fe357611fe3612ecf565b01602001516001600160f81b0319161461200557600095505050505050611b9f565b600101611fa2565b506001979650505050505050565b6000611b9f826001612f17565b33612031610d1f565b6001600160a01b031614610a895760405163118cdaa760e01b815233600482015260240161055f565b7f237e158222e3e6968b72b9db0d8043aacf074ad9f650f0d1606b4d82ee432c0080546001600160a01b03191681556120928261270b565b5050565b60606000806120a485611a16565b9092509050600182016120c95760405162461bcd60e51b815260040161055f90612fff565b80841061210b5760405162461bcd60e51b815260206004820152601060248201526f2b34b7103932b0b21037bb32b9393ab760811b604482015260640161055f565b600080612119846001612f17565b905060005b8681101561219157612130888361277c565b9250600019830361217d5760405162461bcd60e51b815260206004820152601760248201527642616420566172496e7420696e2073637269707453696760481b604482015260640161055f565b6121878383612f17565b915060010161211e565b5061219c878261277c565b91506000198203611b8d5760405162461bcd60e51b815260206004820152601760248201527642616420566172496e7420696e2073637269707453696760481b604482015260640161055f565b6020810151600090611b9f565b6000611b9f8260206127c5565b600081806020019051810190611b9f9190613041565b6000806003805461222990612c9f565b91506000905061223b84836014611e81565b6122449061305a565b60601c949350505050565b60006122898a8a8a8a8a8a8a8a8a604051602001612275999897969594939291906130ad565b6040516020818303038152906040526127d4565b9a9950505050505050505050565b60008060006122a584611a16565b90925090508015806122b8575060001982145b156122c7575060009392505050565b60006122d4836001612f17565b905060005b8281101561232e57855182106122f55750600095945050505050565b6000612301878461277c565b90506000198103612319575060009695505050505050565b6123238184612f17565b9250506001016122d9565b5093519093149392505050565b600080600061234984611a16565b909250905080158061235c575060001982145b1561236b575060009392505050565b6000612378836001612f17565b905060005b8281101561232e57855182106123995750600095945050505050565b60006123a58784612605565b905060001981036123bd575060009695505050505050565b6123c78184612f17565b92505060010161237d565b6000816000036123e457506000611b9f565b6000805b8381101561243b578451821061240357600092505050611b9f565b600061240f8684612669565b905060001981036124265760009350505050611b9f565b6124308184612f17565b9250506001016123e8565b50835114905092915050565b6000611a0d858585856040516020016122759493929190613116565b600080600061247285856127fb565b90508060ff166000036124a757600085858151811061249357612493612ecf565b016020015190935060f81c91506125fe9050565b836124b3826001613173565b60ff166124c09190612f17565b855110156124d757600019600092509250506125fe565b60008160ff1660020361251b576125106124fc6124f5876001612f17565b88906127c5565b62ffff0060e882901c1660f89190911c1790565b61ffff1690506125f4565b8160ff1660040361256a5761255d6125376124f5876001612f17565b60d881901c63ff00ff001662ff00ff60e89290921c9190911617601081811b91901c1790565b63ffffffff1690506125f4565b8160ff166008036125f4576125e86125866124f5876001612f17565b60c01c64ff000000ff600882811c91821665ff000000ff009390911b92831617601090811b6001600160401b031666ff00ff00ff00ff9290921667ff00ff00ff00ff009093169290921790911c65ffff0000ffff1617602081811c91901b1790565b6001600160401b031690505b60ff909116925090505b9250929050565b6000612612826009612f17565b835110156126235750600019611b9f565b60008061263a85612635866008612f17565b612463565b9092509050600182016126535760001992505050611b9f565b8061265f836009612f17565b611a0d9190612f17565b60008060006126788585612463565b9092509050600182016126915760001992505050611b9f565b60008061269f846001612f17565b905060005b83811015612700576126ba88612635848a612f17565b9095509250600183016126d65760001995505050505050611b9f565b826126e2866001612f17565b6126ec9190612f17565b6126f69083612f17565b91506001016126a4565b509695505050505050565b7f9016d09d72d40fdae2fd8ceac6b6234c7706214fd39c1cd1e609a0528c19930080546001600160a01b031981166001600160a01b03848116918217845560405192169182907f8be0079c531659141344cd1fd0a4f28419497f9722a3daafe3b4186f6b6457e090600090a3505050565b600080600061278b8585612881565b9092509050600182016127a45760001992505050611b9f565b806127b0836025612f17565b6127ba9190612f17565b611a0d906004612f17565b6000611c208383016020015190565b60006020600083516020850160025afa50602060006020600060025afa5050600051919050565b600082828151811061280f5761280f612ecf565b016020015160f81c60ff0361282657506008611b9f565b82828151811061283857612838612ecf565b016020015160f81c60fe0361284f57506004611b9f565b82828151811061286157612861612ecf565b016020015160f81c60fd0361287857506002611b9f565b50600092915050565b60008061288f836025612f17565b845110156128a45750600019905060006125fe565b6000806128b686612635876024612f17565b9097909650945050505050565b60008083601f8401126128d557600080fd5b5081356001600160401b038111156128ec57600080fd5b6020830191508360208285010111156125fe57600080fd5b60008060008060006060868803121561291c57600080fd5b85356001600160401b0381111561293257600080fd5b61293e888289016128c3565b90965094505060208601356001600160401b0381111561295d57600080fd5b612969888289016128c3565b96999598509660400135949350505050565b60006020828403121561298d57600080fd5b5035919050565b600061012082840312156129a757600080fd5b50919050565b6000602082840312156129bf57600080fd5b81356001600160401b038111156129d557600080fd5b6129e184828501612994565b949350505050565b6000806000606084860312156129fe57600080fd5b83356001600160401b03811115612a1457600080fd5b612a2086828701612994565b9660208601359650604090950135949350505050565b60005b83811015612a51578181015183820152602001612a39565b50506000910152565b6020815260008251806020840152612a79816040850160208701612a36565b601f01601f19169190910160400192915050565b600060208284031215612a9f57600080fd5b81356001600160a01b0381168114611c2057600080fd5b60008083601f840112612ac857600080fd5b5081356001600160401b03811115612adf57600080fd5b6020830191508360208260051b85010111156125fe57600080fd5b60008060008060408587031215612b1057600080fd5b84356001600160401b03811115612b2657600080fd5b612b3287828801612ab6565b90955093505060208501356001600160401b03811115612b5157600080fd5b612b5d87828801612ab6565b95989497509550505050565b803563ffffffff81168114612b7d57600080fd5b919050565b60008060408385031215612b9557600080fd5b82359150612ba560208401612b69565b90509250929050565b60008060208385031215612bc157600080fd5b82356001600160401b03811115612bd757600080fd5b612be3858286016128c3565b90969095509350505050565b60008060008060408587031215612c0557600080fd5b84356001600160401b03811115612c1b57600080fd5b612c27878288016128c3565b90955093505060208501356001600160401b03811115612c4657600080fd5b612b5d878288016128c3565b6020808252601e908201527f4465706f736974207363726970742063616e6e6f7420626520656d7074790000604082015260600190565b634e487b7160e01b600052604160045260246000fd5b600181811c90821680612cb357607f821691505b6020821081036129a757634e487b7160e01b600052602260045260246000fd5b601f821115612d1d57806000526020600020601f840160051c81016020851015612cfa5750805b601f840160051c820191505b81811015612d1a5760008155600101612d06565b50505b505050565b6001600160401b03831115612d3957612d39612c89565b612d4d83612d478354612c9f565b83612cd3565b6000601f841160018114612d815760008515612d695750838201355b600019600387901b1c1916600186901b178355612d1a565b600083815260209020601f19861690835b82811015612db25786850135825560209485019460019092019101612d92565b5086821015612dcf5760001960f88860031b161c19848701351681555b505060018560011b0183555050505050565b81835281816020850137506000828201602090810191909152601f909101601f19169091010190565b604081526000612e1e604083018688612de1565b8281036020840152612e31818587612de1565b979650505050505050565b6000808335601e19843603018112612e5357600080fd5b8301803591506001600160401b03821115612e6d57600080fd5b6020019150368190038213156125fe57600080fd5b634e487b7160e01b600052601160045260246000fd5b81810381811115611b9f57611b9f612e82565b60008060408385031215612ebe57600080fd5b505080516020909101519092909150565b634e487b7160e01b600052603260045260246000fd5b8082028115828204841417611b9f57611b9f612e82565b600060208284031215612f0e57600080fd5b611c2082612b69565b80820180821115611b9f57611b9f612e82565b600060018201612f3c57612f3c612e82565b5060010190565b6020815260006129e1602083018486612de1565b600060208284031215612f6957600080fd5b81356001600160e01b031981168114611c2057600080fd5b600060208284031215612f9357600080fd5b81356001600160f01b031981168114611c2057600080fd5b858152846020820152608060408201526000612fcb608083018587612de1565b90508260608301529695505050505050565b600060208284031215612fef57600080fd5b81518015158114611c2057600080fd5b60208082526022908201527f52656164206f76657272756e20647572696e6720566172496e742070617273696040820152616e6760f01b606082015260800190565b60006020828403121561305357600080fd5b5051919050565b805160208201516bffffffffffffffffffffffff198116919060148210156130a6576bffffffffffffffffffffffff196bffffffffffffffffffffffff198360140360031b1b82161692505b5050919050565b6001600160e01b03198a1681526001600160f01b031989166004820152868860068301376000878201600681016000815287898237506000908701600601908152848682376001600160e01b031993909316929093019182525060040198975050505050505050565b6001600160e01b0319851681528351600090613139816004850160208901612a36565b845190830190613150816004840160208901612a36565b6001600160e01b0319949094169301600481019390935250506008019392505050565b60ff8181168382160190811115611b9f57611b9f612e8256","linkReferences":{}},"methodIdentifiers":{"LIGHT_CLIENT()":"e613ae00","SYSTEM_CALLER()":"d761753e","acceptOwnership()":"79ba5097","batchWithdraw(bytes32[],uint32[])":"d30db949","declareWithdrawFiller((bytes4,bytes2,bytes,bytes,bytes,bytes4,bytes,uint256,uint256),uint256,uint256)":"74ab4a83","deposit((bytes4,bytes2,bytes,bytes,bytes,bytes4,bytes,uint256,uint256))":"dd95c7c6","depositAmount()":"419759f5","depositScript()":"b93780f6","getWithdrawalCount()":"781952a8","initialize(bytes,bytes,uint256)":"41260137","initialized()":"158ef93e","isOperatorMalicious(uint256)":"bafa9eb2","kickoffScript()":"c46aef1e","markMaliciousOperator((bytes4,bytes2,bytes,bytes,bytes,bytes4,bytes,uint256,uint256))":"5e3cc740","operator()":"570ca735","owner()":"8da5cb5b","pendingOwner()":"e30c3978","renounceOwnership()":"715018a6","scriptSuffix()":"87f8bf56","setDepositScript(bytes,bytes)":"f8e655d2","setKickoffScript(bytes)":"ebcb0cf3","setOperator(address)":"b3ab15fb","spentTxIds(bytes32)":"66f4ed46","transferOwnership(address)":"f2fde38b","withdraw(bytes32,uint32)":"d62239f9","withdrawFillers(uint256)":"c045577b","withdrawalUTXOs(uint256)":"471ba1e3"},"id":48}