{"abi":[{"type":"function","name":"LIGHT_CLIENT","inputs":[],"outputs":[{"name":"","type":"address","internalType":"contract BitcoinLightClient"}],"stateMutability":"view"},{"type":"function","name":"SYSTEM_CALLER","inputs":[],"outputs":[{"name":"","type":"address","internalType":"address"}],"stateMutability":"view"},{"type":"function","name":"acceptOwnership","inputs":[],"outputs":[],"stateMutability":"nonpayable"},{"type":"function","name":"batchWithdraw","inputs":[{"name":"txIds","type":"bytes32[]","internalType":"bytes32[]"},{"name":"outputIds","type":"bytes4[]","internalType":"bytes4[]"}],"outputs":[],"stateMutability":"payable"},{"type":"function","name":"declareWithdrawFiller","inputs":[{"name":"withdrawTp","type":"tuple","internalType":"struct Bridge.TransactionParams","components":[{"name":"version","type":"bytes4","internalType":"bytes4"},{"name":"flag","type":"bytes2","internalType":"bytes2"},{"name":"vin","type":"bytes","internalType":"bytes"},{"name":"vout","type":"bytes","internalType":"bytes"},{"name":"witness","type":"bytes","internalType":"bytes"},{"name":"locktime","type":"bytes4","internalType":"bytes4"},{"name":"intermediate_nodes","type":"bytes","internalType":"bytes"},{"name":"block_height","type":"uint256","internalType":"uint256"},{"name":"index","type":"uint256","internalType":"uint256"}]},{"name":"inputIndex","type":"uint256","internalType":"uint256"},{"name":"withdrawId","type":"uint256","internalType":"uint256"}],"outputs":[],"stateMutability":"nonpayable"},{"type":"function","name":"deposit","inputs":[{"name":"moveTp","type":"tuple","internalType":"struct Bridge.TransactionParams","components":[{"name":"version","type":"bytes4","internalType":"bytes4"},{"name":"flag","type":"bytes2","internalType":"bytes2"},{"name":"vin","type":"bytes","internalType":"bytes"},{"name":"vout","type":"bytes","internalType":"bytes"},{"name":"witness","type":"bytes","internalType":"bytes"},{"name":"locktime","type":"bytes4","internalType":"bytes4"},{"name":"intermediate_nodes","type":"bytes","internalType":"bytes"},{"name":"block_height","type":"uint256","internalType":"uint256"},{"name":"index","type":"uint256","internalType":"uint256"}]}],"outputs":[],"stateMutability":"nonpayable"},{"type":"function","name":"depositAmount","inputs":[],"outputs":[{"name":"","type":"uint256","internalType":"uint256"}],"stateMutability":"view"},{"type":"function","name":"getWithdrawalCount","inputs":[],"outputs":[{"name":"","type":"uint256","internalType":"uint256"}],"stateMutability":"view"},{"type":"function","name":"initialize","inputs":[{"name":"_scriptPrefix","type":"bytes","internalType":"bytes"},{"name":"_scriptSuffix","type":"bytes","internalType":"bytes"},{"name":"_depositAmount","type":"uint256","internalType":"uint256"}],"outputs":[],"stateMutability":"nonpayable"},{"type":"function","name":"initialized","inputs":[],"outputs":[{"name":"","type":"bool","internalType":"bool"}],"stateMutability":"view"},{"type":"function","name":"isOperatorMalicious","inputs":[{"name":"","type":"uint256","internalType":"uint256"}],"outputs":[{"name":"","type":"bool","internalType":"bool"}],"stateMutability":"view"},{"type":"function","name":"markMaliciousOperator","inputs":[{"name":"slashOrTakeTp","type":"tuple","internalType":"struct Bridge.TransactionParams","components":[{"name":"version","type":"bytes4","internalType":"bytes4"},{"name":"flag","type":"bytes2","internalType":"bytes2"},{"name":"vin","type":"bytes","internalType":"bytes"},{"name":"vout","type":"bytes","internalType":"bytes"},{"name":"witness","type":"bytes","internalType":"bytes"},{"name":"locktime","type":"bytes4","internalType":"bytes4"},{"name":"intermediate_nodes","type":"bytes","internalType":"bytes"},{"name":"block_height","type":"uint256","internalType":"uint256"},{"name":"index","type":"uint256","internalType":"uint256"}]}],"outputs":[],"stateMutability":"nonpayable"},{"type":"function","name":"operator","inputs":[],"outputs":[{"name":"","type":"address","internalType":"address"}],"stateMutability":"view"},{"type":"function","name":"owner","inputs":[],"outputs":[{"name":"","type":"address","internalType":"address"}],"stateMutability":"view"},{"type":"function","name":"pendingOwner","inputs":[],"outputs":[{"name":"","type":"address","internalType":"address"}],"stateMutability":"view"},{"type":"function","name":"renounceOwnership","inputs":[],"outputs":[],"stateMutability":"nonpayable"},{"type":"function","name":"scriptPrefix","inputs":[],"outputs":[{"name":"","type":"bytes","internalType":"bytes"}],"stateMutability":"view"},{"type":"function","name":"scriptSuffix","inputs":[],"outputs":[{"name":"","type":"bytes","internalType":"bytes"}],"stateMutability":"view"},{"type":"function","name":"setDepositScript","inputs":[{"name":"_scriptPrefix","type":"bytes","internalType":"bytes"},{"name":"_scriptSuffix","type":"bytes","internalType":"bytes"}],"outputs":[],"stateMutability":"nonpayable"},{"type":"function","name":"setOperator","inputs":[{"name":"_operator","type":"address","internalType":"address"}],"outputs":[],"stateMutability":"nonpayable"},{"type":"function","name":"setSlashOrTakeScript","inputs":[{"name":"_slashOrTakeScript","type":"bytes","internalType":"bytes"}],"outputs":[],"stateMutability":"nonpayable"},{"type":"function","name":"slashOrTakeScript","inputs":[],"outputs":[{"name":"","type":"bytes","internalType":"bytes"}],"stateMutability":"view"},{"type":"function","name":"transferOwnership","inputs":[{"name":"newOwner","type":"address","internalType":"address"}],"outputs":[],"stateMutability":"nonpayable"},{"type":"function","name":"txIdToDepositId","inputs":[{"name":"","type":"bytes32","internalType":"bytes32"}],"outputs":[{"name":"","type":"uint256","internalType":"uint256"}],"stateMutability":"view"},{"type":"function","name":"withdraw","inputs":[{"name":"txId","type":"bytes32","internalType":"bytes32"},{"name":"outputId","type":"bytes4","internalType":"bytes4"}],"outputs":[],"stateMutability":"payable"},{"type":"function","name":"withdrawFillers","inputs":[{"name":"","type":"uint256","internalType":"uint256"}],"outputs":[{"name":"","type":"uint256","internalType":"uint256"}],"stateMutability":"view"},{"type":"function","name":"withdrawalUTXOs","inputs":[{"name":"","type":"uint256","internalType":"uint256"}],"outputs":[{"name":"txId","type":"bytes32","internalType":"bytes32"},{"name":"outputId","type":"bytes4","internalType":"bytes4"}],"stateMutability":"view"},{"type":"event","name":"Deposit","inputs":[{"name":"wtxId","type":"bytes32","indexed":false,"internalType":"bytes32"},{"name":"txId","type":"bytes32","indexed":false,"internalType":"bytes32"},{"name":"recipient","type":"address","indexed":false,"internalType":"address"},{"name":"timestamp","type":"uint256","indexed":false,"internalType":"uint256"},{"name":"depositId","type":"uint256","indexed":false,"internalType":"uint256"}],"anonymous":false},{"type":"event","name":"DepositScriptUpdate","inputs":[{"name":"scriptPrefix","type":"bytes","indexed":false,"internalType":"bytes"},{"name":"scriptSuffix","type":"bytes","indexed":false,"internalType":"bytes"}],"anonymous":false},{"type":"event","name":"Initialized","inputs":[{"name":"version","type":"uint64","indexed":false,"internalType":"uint64"}],"anonymous":false},{"type":"event","name":"MaliciousOperatorMarked","inputs":[{"name":"operatorId","type":"uint256","indexed":false,"internalType":"uint256"}],"anonymous":false},{"type":"event","name":"OperatorUpdated","inputs":[{"name":"oldOperator","type":"address","indexed":false,"internalType":"address"},{"name":"newOperator","type":"address","indexed":false,"internalType":"address"}],"anonymous":false},{"type":"event","name":"OwnershipTransferStarted","inputs":[{"name":"previousOwner","type":"address","indexed":true,"internalType":"address"},{"name":"newOwner","type":"address","indexed":true,"internalType":"address"}],"anonymous":false},{"type":"event","name":"OwnershipTransferred","inputs":[{"name":"previousOwner","type":"address","indexed":true,"internalType":"address"},{"name":"newOwner","type":"address","indexed":true,"internalType":"address"}],"anonymous":false},{"type":"event","name":"SlashOrTakeScriptUpdate","inputs":[{"name":"slashOrTakeScript","type":"bytes","indexed":false,"internalType":"bytes"}],"anonymous":false},{"type":"event","name":"WithdrawFillerDeclared","inputs":[{"name":"withdrawId","type":"uint256","indexed":false,"internalType":"uint256"},{"name":"withdrawFillerId","type":"uint256","indexed":false,"internalType":"uint256"}],"anonymous":false},{"type":"event","name":"Withdrawal","inputs":[{"name":"utxo","type":"tuple","indexed":false,"internalType":"struct Bridge.UTXO","components":[{"name":"txId","type":"bytes32","internalType":"bytes32"},{"name":"outputId","type":"bytes4","internalType":"bytes4"}]},{"name":"index","type":"uint256","indexed":false,"internalType":"uint256"},{"name":"timestamp","type":"uint256","indexed":false,"internalType":"uint256"}],"anonymous":false},{"type":"error","name":"InvalidInitialization","inputs":[]},{"type":"error","name":"NotInitializing","inputs":[]},{"type":"error","name":"OwnableInvalidOwner","inputs":[{"name":"owner","type":"address","internalType":"address"}]},{"type":"error","name":"OwnableUnauthorizedAccount","inputs":[{"name":"account","type":"address","internalType":"address"}]}],"bytecode":{"object":"0x6080604052348015600f57600080fd5b506131fe8061001f6000396000f3fe60806040526004361061019c5760003560e01c80638786dba7116100ec578063d761753e1161008a578063e613ae0011610064578063e613ae0014610489578063f119a9bd146104a4578063f2fde38b146104c4578063f8e655d2146104e457600080fd5b8063d761753e1461042c578063dd95c7c614610454578063e30c39781461047457600080fd5b8063a41c5cf3116100c6578063a41c5cf3146103aa578063b3ab15fb146103bf578063bafa9eb2146103df578063c045577b146103ff57600080fd5b80638786dba71461036d57806387f8bf56146103805780638da5cb5b1461039557600080fd5b8063570ca73511610159578063715018a611610133578063715018a61461030e57806374ab4a8314610323578063781952a81461034357806379ba50971461035857600080fd5b8063570ca735146102945780635d3e3176146102cc5780635e3cc740146102ee57600080fd5b806311e53a01146101a1578063158ef93e146101e1578063198546231461020b5780634126013714610220578063419759f514610240578063471ba1e314610256575b600080fd5b3480156101ad57600080fd5b506101ce6101bc36600461296a565b60066020526000908152604090205481565b6040519081526020015b60405180910390f35b3480156101ed57600080fd5b506000546101fb9060ff1681565b60405190151581526020016101d8565b61021e6102193660046129c7565b610504565b005b34801561022c57600080fd5b5061021e61023b366004612a77565b6106dd565b34801561024c57600080fd5b506101ce60015481565b34801561026257600080fd5b5061027661027136600461296a565b6108da565b604080519283526001600160e01b03199091166020830152016101d8565b3480156102a057600080fd5b506002546102b4906001600160a01b031681565b6040516001600160a01b0390911681526020016101d8565b3480156102d857600080fd5b506102e161090b565b6040516101d89190612b12565b3480156102fa57600080fd5b5061021e610309366004612b5e565b610999565b34801561031a57600080fd5b5061021e610cf4565b34801561032f57600080fd5b5061021e61033e366004612b9a565b610d08565b34801561034f57600080fd5b506027546101ce565b34801561036457600080fd5b5061021e610edb565b61021e61037b366004612c04565b610f23565b34801561038c57600080fd5b506102e161104a565b3480156103a157600080fd5b506102b4611057565b3480156103b657600080fd5b506102e161108c565b3480156103cb57600080fd5b5061021e6103da366004612c30565b611099565b3480156103eb57600080fd5b506101fb6103fa36600461296a565b6110fc565b34801561040b57600080fd5b506101ce61041a36600461296a565b60286020526000908152604090205481565b34801561043857600080fd5b506102b473deaddeaddeaddeaddeaddeaddeaddeaddeaddead81565b34801561046057600080fd5b5061021e61046f366004612b5e565b611127565b34801561048057600080fd5b506102b4611582565b34801561049557600080fd5b506102b46001603160981b0181565b3480156104b057600080fd5b5061021e6104bf366004612c59565b6115ab565b3480156104d057600080fd5b5061021e6104df366004612c30565b61161f565b3480156104f057600080fd5b5061021e6104ff366004612c9a565b6116a4565b82811461054a5760405162461bcd60e51b815260206004820152600f60248201526e098cadccee8d040dad2e6dac2e8c6d608b1b60448201526064015b60405180910390fd5b600154610558908490612d13565b34146105a05760405162461bcd60e51b8152602060048201526017602482015276125b9d985b1a59081dda5d1a191c985dc8185b5bdd5b9d604a1b6044820152606401610541565b60275460005b848110156106d557600060405180604001604052808888858181106105cd576105cd612d2a565b9050602002013581526020018686858181106105eb576105eb612d2a565b90506020020160208101906106009190612d40565b6001600160e01b03191690526027805460018101825560009190915281517f98a476f1687bc3d60a2da2adbcba2c46958e61fa2fb4042cd7bc5816a710195b60029092029182015560208201517f98a476f1687bc3d60a2da2adbcba2c46958e61fa2fb4042cd7bc5816a710195c909101805463ffffffff191660e09290921c91909117905590507f3311a04a346a103ac115cca33028a2bc82f1964805860d0d3fc84a2772496ada816106b48486612d5b565b426040516106c493929190612d6e565b60405180910390a1506001016105a6565b505050505050565b3373deaddeaddeaddeaddeaddeaddeaddeaddeaddead146107405760405162461bcd60e51b815260206004820152601f60248201527f63616c6c6572206973206e6f74207468652073797374656d2063616c6c6572006044820152606401610541565b60005460ff16156107935760405162461bcd60e51b815260206004820152601f60248201527f436f6e747261637420697320616c726561647920696e697469616c697a6564006044820152606401610541565b806000036107e35760405162461bcd60e51b815260206004820152601a60248201527f4465706f73697420616d6f756e742063616e6e6f7420626520300000000000006044820152606401610541565b60008490036108045760405162461bcd60e51b815260040161054190612d9c565b6000805460ff19166001179055600361081e858783612e6c565b50600461082c838583612e6c565b506001819055600280546001600160a01b03191673deaddeaddeaddeaddeaddeaddeaddeaddeaddead908117909155604080516000815260208101929092527ffbe5b6cbafb274f445d7fed869dc77a838d8243a22c460de156560e8857cad03910160405180910390a17f80bd1fdfe157286ce420ee763f91748455b249605748e5df12dad9844402bafc858585856040516108cb9493929190612f54565b60405180910390a15050505050565b602781815481106108ea57600080fd5b60009182526020909120600290910201805460019091015490915060e01b82565b6029805461091890612de9565b80601f016020809104026020016040519081016040528092919081815260200182805461094490612de9565b80156109915780601f1061096657610100808354040283529160200191610991565b820191906000526020600020905b81548152906001019060200180831161097457829003601f168201915b505050505081565b6109a28161171e565b50600090506109f16109b76060840184612f86565b8080601f016020809104026020016040519081016040528093929190818152602001838380828437600092019190915250611a4192505050565b915060009050610a4e610a076060850185612f86565b8080601f016020809104026020016040519081016040528093929190818152602001838380828437600092019190915250610a49925060019150869050612fcc565b611a58565b90506000610a5b82611bd0565b90506000610a73610a6e83836020611c52565b611d15565b90506000610a94610a6e6020808651610a8c9190612fcc565b869190611c52565b600083815260066020526040812054919250610af0610ab660808a018a612f86565b8080601f01602080910402602001604051908101604052809392919081815260200183838082843760009201829052509250611d9a915050565b90506000610aff826001611e7d565b9050600060298054610b1090612de9565b915060009050610b21838284611c52565b9050610bb78160298054610b3490612de9565b80601f0160208091040260200160405190810160405280929190818152602001828054610b6090612de9565b8015610bad5780601f10610b8257610100808354040283529160200191610bad565b820191906000526020600020905b815481529060010190602001808311610b9057829003601f168201915b5050505050612001565b610c035760405162461bcd60e51b815260206004820152601a60248201527f496e76616c696420736c6173684f7254616b65207363726970740000000000006044820152606401610541565b60008581526028602052604081205490811580610c285750610c24886120d8565b8214155b905080610c775760405162461bcd60e51b815260206004820152601960248201527f4f70657261746f72206973206e6f74206d616c6963696f7573000000000000006044820152606401610541565b60016007896103e88110610c8d57610c8d612d2a565b602091828204019190066101000a81548160ff0219169083151502179055507ff918cdaebea74c5a8c3b02d7404c162f507551b158202cedcba9b6a74eabdff288604051610cdd91815260200190565b60405180910390a150505050505050505050505050565b610cfc6120e5565b610d066000612117565b565b610d118361171e565b5060009050610d62610d266040860186612f86565b8080601f016020809104026020016040519081016040528093929190818152602001838380828437600092019190915250879250612153915050565b90506000610d6f826122a6565b90506000610d7c836122b3565b9050600060278581548110610d9357610d93612d2a565b60009182526020918290206040805180820190915260029290920201805480835260019091015460e01b6001600160e01b03191692820192909252915083148015610df55750816001600160e01b03191681602001516001600160e01b031916145b610e355760405162461bcd60e51b81526020600482015260116024820152706e6f74206d61746368696e67205554584f60781b6044820152606401610541565b6000610e476109b760608a018a612f86565b915060009050610e5d610a0760608b018b612f86565b90506000610e6a82611bd0565b90506000610e7782611d15565b9050610e82816120d8565b60008a8152602860209081526040918290209290925580518b81529182018390527feedf47c2f61b040827944fd45e44ef6d742354b34e1af7dd99a56f444ec79347910160405180910390a15050505050505050505050565b3380610ee5611582565b6001600160a01b031614610f175760405163118cdaa760e01b81526001600160a01b0382166004820152602401610541565b610f2081612117565b50565b6001543414610f6e5760405162461bcd60e51b8152602060048201526017602482015276125b9d985b1a59081dda5d1a191c985dc8185b5bdd5b9d604a1b6044820152606401610541565b6040805180820182528381526001600160e01b03198316602082019081526027805460018101825560009190915282517f98a476f1687bc3d60a2da2adbcba2c46958e61fa2fb4042cd7bc5816a710195b600283029081019190915591517f98a476f1687bc3d60a2da2adbcba2c46958e61fa2fb4042cd7bc5816a710195c909201805463ffffffff191660e09390931c9290921790915591519091907f3311a04a346a103ac115cca33028a2bc82f1964805860d0d3fc84a2772496ada9061103c90849084904290612d6e565b60405180910390a150505050565b6004805461091890612de9565b6000807f9016d09d72d40fdae2fd8ceac6b6234c7706214fd39c1cd1e609a0528c1993005b546001600160a01b031692915050565b6003805461091890612de9565b6110a16120e5565b600280546001600160a01b0319166001600160a01b0383169081179091556040805182815260208101929092527ffbe5b6cbafb274f445d7fed869dc77a838d8243a22c460de156560e8857cad03910160405180910390a150565b6007816103e8811061110d57600080fd5b60209182820401919006915054906101000a900460ff1681565b6002546001600160a01b031633146111815760405162461bcd60e51b815260206004820152601a60248201527f63616c6c6572206973206e6f7420746865206f70657261746f720000000000006044820152606401610541565b60008061118d8361171e565b91509150806001146111da5760405162461bcd60e51b815260206004820152601660248201527513db9b1e481bdb99481a5b9c1d5d08185b1b1bddd95960521b6044820152606401610541565b60006112856111ec6020860186612d40565b6111f96040870187612f86565b8080601f01602080910402602001604051908101604052809392919081815260200183838082843760009201919091525061123b925050506060880188612f86565b8080601f0160208091040260200160405190810160405280939291908181526020018383808284376000920191909152506112809250505060c0890160a08a01612d40565b6122c0565b600081815260066020526040902054909150156112d95760405162461bcd60e51b81526020600482015260126024820152711d1e125908185b1c9958591e481cdc195b9d60721b6044820152606401610541565b6005600081546112e890612fdf565b918290555060008281526006602052604081209190915561130f610ab66080870187612f86565b9050600061131c82611a41565b915050806003146113675760405162461bcd60e51b8152602060048201526015602482015274496e76616c6964207769746e657373206974656d7360581b6044820152606401610541565b6000611374836001611e7d565b905060006003805461138590612de9565b915060009050611396838284611c52565b90506113a98160038054610b3490612de9565b6113ee5760405162461bcd60e51b8152602060048201526016602482015275125b9d985b1a590819195c1bdcda5d081cd8dc9a5c1d60521b6044820152606401610541565b60006114226004805461140090612de9565b865161140c9250612fcc565b6004805461141990612de9565b87929150611c52565b90506114358160048054610b3490612de9565b6114795760405162461bcd60e51b8152602060048201526015602482015274092dcecc2d8d2c840e6c6e4d2e0e840e6eaccccd2f605b1b6044820152606401610541565b6000611484856122f0565b600554604080518d8152602081018c90526001600160a01b038416818301524260608201526080810192909252519192507fa82453ca34121b3ecb910d957824e27c5dc6465315949facd15fb72886490058919081900360a00190a16001546040516000916001600160a01b038416918381818185875af1925050503d806000811461152c576040519150601f19603f3d011682016040523d82523d6000602084013e611531565b606091505b50509050806115745760405162461bcd60e51b815260206004820152600f60248201526e151c985b9cd9995c8819985a5b1959608a1b6044820152606401610541565b505050505050505050505050565b6000807f237e158222e3e6968b72b9db0d8043aacf074ad9f650f0d1606b4d82ee432c0061107c565b6115b36120e5565b60008190036115d45760405162461bcd60e51b815260040161054190612d9c565b60296115e1828483612e6c565b507f8578c80bdea3ff51431011ed88db9cb415de2cf64f9ed5e7137288268cbdeb2c8282604051611613929190612ff8565b60405180910390a15050565b6116276120e5565b7f237e158222e3e6968b72b9db0d8043aacf074ad9f650f0d1606b4d82ee432c0080546001600160a01b0319166001600160a01b038316908117825561166b611057565b6001600160a01b03167f38d16b8cac22d99fc7c124b9cd0de2d3fa1faef420bfe791d8c362d765e2270060405160405180910390a35050565b6116ac6120e5565b60008390036116cd5760405162461bcd60e51b815260040161054190612d9c565b60036116da848683612e6c565b5060046116e8828483612e6c565b507f80bd1fdfe157286ce420ee763f91748455b249605748e5df12dad9844402bafc8484848460405161103c9493929190612f54565b6000808061177e6117326020860186612d40565b611742604087016020880161300c565b61174f6040880188612f86565b61175c60608a018a612f86565b61176960808c018c612f86565b61177960c08e0160a08f01612d40565b612326565b90506117ca6117906040860186612f86565b8080601f01602080910402602001604051908101604052809392919081815260200183838082843760009201919091525061235a92505050565b6118165760405162461bcd60e51b815260206004820152601d60248201527f56696e206973206e6f742070726f7065726c7920666f726d61747465640000006044820152606401610541565b6118606118266060860186612f86565b8080601f0160208091040260200160405190810160405280939291908181526020018383808284376000920191909152506123fe92505050565b6118ac5760405162461bcd60e51b815260206004820152601e60248201527f566f7574206973206e6f742070726f7065726c7920666f726d617474656400006044820152606401610541565b60006118be6109b76040870187612f86565b915061190e90506118d26080870187612f86565b8080601f016020809104026020016040519081016040528093929190818152602001838380828437600092019190915250859250612495915050565b6119645760405162461bcd60e51b815260206004820152602160248201527f5769746e657373206973206e6f742070726f7065726c7920666f726d617474656044820152601960fa1b6064820152608401610541565b6001603160981b01634ffd344a60e08701358461198460c08a018a612f86565b8a61010001356040518663ffffffff1660e01b81526004016119aa959493929190613036565b602060405180830381865afa1580156119c7573d6000803e3d6000fd5b505050506040513d601f19601f820116820180604052508101906119eb9190613068565b611a375760405162461bcd60e51b815260206004820152601b60248201527f5472616e73616374696f6e206973206e6f7420696e20626c6f636b00000000006044820152606401610541565b9094909350915050565b600080611a4f83600061250a565b91509150915091565b6060600080611a6685611a41565b909250905060018201611a8b5760405162461bcd60e51b81526004016105419061308a565b808410611ace5760405162461bcd60e51b81526020600482015260116024820152702b37baba103932b0b21037bb32b9393ab760791b6044820152606401610541565b600080611adc846001612d5b565b905060005b86811015611b5a57611af388836126ac565b92506000198303611b465760405162461bcd60e51b815260206004820152601a60248201527f42616420566172496e7420696e207363726970745075626b65790000000000006044820152606401610541565b611b508383612d5b565b9150600101611ae1565b50611b6587826126ac565b91506000198203611bb85760405162461bcd60e51b815260206004820152601a60248201527f42616420566172496e7420696e207363726970745075626b65790000000000006044820152606401610541565b611bc3878284611c52565b9450505050505b92915050565b606081600981518110611be557611be5612d2a565b6020910101516001600160f81b031916603560f91b14611c1357505060408051602081019091526000815290565b600082600a81518110611c2857611c28612d2a565b01602001516001600160f81b031981169150611c4b908490600b9060f81c611c52565b9392505050565b606081600003611c715750604080516020810190915260008152611c4b565b6000611c7d8385612d5b565b90508381118015611c8f575080855110155b611cd15760405162461bcd60e51b8152602060048201526013602482015272536c696365206f7574206f6620626f756e647360681b6044820152606401610541565b604051915082604083010160405282825283850182038460208701018481015b80821015611d0a57815183830152602082019150611cf1565b505050509392505050565b60008151600003611d2857506000919050565b81516020811115611d865760405162461bcd60e51b815260206004820152602260248201527f42797465732063616e6e6f74206265206d6f7265207468616e20333220627974604482015261657360f01b6064820152608401610541565b60209283015192036008029190911c919050565b606060008060005b84811015611e1357611db48683612710565b92506000198303611dff5760405162461bcd60e51b815260206004820152601560248201527442616420566172496e7420696e207769746e65737360581b6044820152606401610541565b611e098383612d5b565b9150600101611da2565b50611e1e8582612710565b91506000198203611e695760405162461bcd60e51b815260206004820152601560248201527442616420566172496e7420696e207769746e65737360581b6044820152606401610541565b611e74858284611c52565b95945050505050565b6060600080611e8b85611a41565b909250905060018201611eb05760405162461bcd60e51b81526004016105419061308a565b808410611ef25760405162461bcd60e51b815260206004820152601060248201526f2b34b7103932b0b21037bb32b9393ab760811b6044820152606401610541565b600080611f00846001612d5b565b905060005b86811015611f8b57611f17888361250a565b909550925060018301611f615760405162461bcd60e51b815260206004820152601260248201527142616420566172496e7420696e206974656d60701b6044820152606401610541565b82611f6d866001612d5b565b611f779190612d5b565b611f819083612d5b565b9150600101611f05565b50611f96878261250a565b909450915060018201611fe05760405162461bcd60e51b815260206004820152601260248201527142616420566172496e7420696e206974656d60701b6044820152606401610541565b611bc381611fee8685612d5b565b611ff9906001612d5b565b899190611c52565b81518151600091908114612019576000915050611bca565b60206000805b83831161204f575050848101518482015160209092019180821461204a576000945050505050611bca565b61201f565b600061205c602085612fcc565b90505b848110156120ca5786818151811061207957612079612d2a565b602001015160f81c60f81b6001600160f81b0319168882815181106120a0576120a0612d2a565b01602001516001600160f81b031916146120c257600095505050505050611bca565b60010161205f565b506001979650505050505050565b6000611bca826001612d5b565b336120ee611057565b6001600160a01b031614610d065760405163118cdaa760e01b8152336004820152602401610541565b7f237e158222e3e6968b72b9db0d8043aacf074ad9f650f0d1606b4d82ee432c0080546001600160a01b031916815561214f826127b2565b5050565b606060008061216185611a41565b9092509050600182016121865760405162461bcd60e51b81526004016105419061308a565b8084106121c85760405162461bcd60e51b815260206004820152601060248201526f2b34b7103932b0b21037bb32b9393ab760811b6044820152606401610541565b6000806121d6846001612d5b565b905060005b8681101561224e576121ed8883612823565b9250600019830361223a5760405162461bcd60e51b815260206004820152601760248201527642616420566172496e7420696e2073637269707453696760481b6044820152606401610541565b6122448383612d5b565b91506001016121db565b506122598782612823565b91506000198203611bb85760405162461bcd60e51b815260206004820152601760248201527642616420566172496e7420696e2073637269707453696760481b6044820152606401610541565b6020810151600090611bca565b6000611bca82602061286c565b6000611e74858585856040516020016122dc94939291906130cc565b60405160208183030381529060405261287b565b6000806003805461230090612de9565b91506000905061231284836014611c52565b61231b90613129565b60601c949350505050565b600061234c8a8a8a8a8a8a8a8a8a6040516020016122dc9998979695949392919061317c565b9a9950505050505050505050565b600080600061236884611a41565b909250905080158061237b575060001982145b1561238a575060009392505050565b6000612397836001612d5b565b905060005b828110156123f157855182106123b85750600095945050505050565b60006123c48784612823565b905060001981036123dc575060009695505050505050565b6123e68184612d5b565b92505060010161239c565b5093519093149392505050565b600080600061240c84611a41565b909250905080158061241f575060001982145b1561242e575060009392505050565b600061243b836001612d5b565b905060005b828110156123f1578551821061245c5750600095945050505050565b600061246887846126ac565b90506000198103612480575060009695505050505050565b61248a8184612d5b565b925050600101612440565b6000816000036124a757506000611bca565b6000805b838110156124fe57845182106124c657600092505050611bca565b60006124d28684612710565b905060001981036124e95760009350505050611bca565b6124f38184612d5b565b9250506001016124ab565b50835114905092915050565b600080600061251985856128a2565b90508060ff1660000361254e57600085858151811061253a5761253a612d2a565b016020015190935060f81c91506126a59050565b8361255a8260016131e5565b60ff166125679190612d5b565b8551101561257e57600019600092509250506126a5565b60008160ff166002036125c2576125b76125a361259c876001612d5b565b889061286c565b62ffff0060e882901c1660f89190911c1790565b61ffff16905061269b565b8160ff16600403612611576126046125de61259c876001612d5b565b60d881901c63ff00ff001662ff00ff60e89290921c9190911617601081811b91901c1790565b63ffffffff16905061269b565b8160ff1660080361269b5761268f61262d61259c876001612d5b565b60c01c64ff000000ff600882811c91821665ff000000ff009390911b92831617601090811b6001600160401b031666ff00ff00ff00ff9290921667ff00ff00ff00ff009093169290921790911c65ffff0000ffff1617602081811c91901b1790565b6001600160401b031690505b60ff909116925090505b9250929050565b60006126b9826009612d5b565b835110156126ca5750600019611bca565b6000806126e1856126dc866008612d5b565b61250a565b9092509050600182016126fa5760001992505050611bca565b80612706836009612d5b565b611e749190612d5b565b600080600061271f858561250a565b9092509050600182016127385760001992505050611bca565b600080612746846001612d5b565b905060005b838110156127a757612761886126dc848a612d5b565b90955092506001830161277d5760001995505050505050611bca565b82612789866001612d5b565b6127939190612d5b565b61279d9083612d5b565b915060010161274b565b509695505050505050565b7f9016d09d72d40fdae2fd8ceac6b6234c7706214fd39c1cd1e609a0528c19930080546001600160a01b031981166001600160a01b03848116918217845560405192169182907f8be0079c531659141344cd1fd0a4f28419497f9722a3daafe3b4186f6b6457e090600090a3505050565b60008060006128328585612928565b90925090506001820161284b5760001992505050611bca565b80612857836025612d5b565b6128619190612d5b565b611e74906004612d5b565b6000611c4b8383016020015190565b60006020600083516020850160025afa50602060006020600060025afa5050600051919050565b60008282815181106128b6576128b6612d2a565b016020015160f81c60ff036128cd57506008611bca565b8282815181106128df576128df612d2a565b016020015160f81c60fe036128f657506004611bca565b82828151811061290857612908612d2a565b016020015160f81c60fd0361291f57506002611bca565b50600092915050565b600080612936836025612d5b565b8451101561294b5750600019905060006126a5565b60008061295d866126dc876024612d5b565b9097909650945050505050565b60006020828403121561297c57600080fd5b5035919050565b60008083601f84011261299557600080fd5b5081356001600160401b038111156129ac57600080fd5b6020830191508360208260051b85010111156126a557600080fd5b600080600080604085870312156129dd57600080fd5b84356001600160401b038111156129f357600080fd5b6129ff87828801612983565b90955093505060208501356001600160401b03811115612a1e57600080fd5b612a2a87828801612983565b95989497509550505050565b60008083601f840112612a4857600080fd5b5081356001600160401b03811115612a5f57600080fd5b6020830191508360208285010111156126a557600080fd5b600080600080600060608688031215612a8f57600080fd5b85356001600160401b03811115612aa557600080fd5b612ab188828901612a36565b90965094505060208601356001600160401b03811115612ad057600080fd5b612adc88828901612a36565b96999598509660400135949350505050565b60005b83811015612b09578181015183820152602001612af1565b50506000910152565b6020815260008251806020840152612b31816040850160208701612aee565b601f01601f19169190910160400192915050565b60006101208284031215612b5857600080fd5b50919050565b600060208284031215612b7057600080fd5b81356001600160401b03811115612b8657600080fd5b612b9284828501612b45565b949350505050565b600080600060608486031215612baf57600080fd5b83356001600160401b03811115612bc557600080fd5b612bd186828701612b45565b9660208601359650604090950135949350505050565b80356001600160e01b031981168114612bff57600080fd5b919050565b60008060408385031215612c1757600080fd5b82359150612c2760208401612be7565b90509250929050565b600060208284031215612c4257600080fd5b81356001600160a01b0381168114611c4b57600080fd5b60008060208385031215612c6c57600080fd5b82356001600160401b03811115612c8257600080fd5b612c8e85828601612a36565b90969095509350505050565b60008060008060408587031215612cb057600080fd5b84356001600160401b03811115612cc657600080fd5b612cd287828801612a36565b90955093505060208501356001600160401b03811115612cf157600080fd5b612a2a87828801612a36565b634e487b7160e01b600052601160045260246000fd5b8082028115828204841417611bca57611bca612cfd565b634e487b7160e01b600052603260045260246000fd5b600060208284031215612d5257600080fd5b611c4b82612be7565b80820180821115611bca57611bca612cfd565b835181526020938401516001600160e01b031916938101939093526040830191909152606082015260800190565b6020808252601e908201527f4465706f736974207363726970742063616e6e6f7420626520656d7074790000604082015260600190565b634e487b7160e01b600052604160045260246000fd5b600181811c90821680612dfd57607f821691505b602082108103612b5857634e487b7160e01b600052602260045260246000fd5b601f821115612e6757806000526020600020601f840160051c81016020851015612e445750805b601f840160051c820191505b81811015612e645760008155600101612e50565b50505b505050565b6001600160401b03831115612e8357612e83612dd3565b612e9783612e918354612de9565b83612e1d565b6000601f841160018114612ecb5760008515612eb35750838201355b600019600387901b1c1916600186901b178355612e64565b600083815260209020601f19861690835b82811015612efc5786850135825560209485019460019092019101612edc565b5086821015612f195760001960f88860031b161c19848701351681555b505060018560011b0183555050505050565b81835281816020850137506000828201602090810191909152601f909101601f19169091010190565b604081526000612f68604083018688612f2b565b8281036020840152612f7b818587612f2b565b979650505050505050565b6000808335601e19843603018112612f9d57600080fd5b8301803591506001600160401b03821115612fb757600080fd5b6020019150368190038213156126a557600080fd5b81810381811115611bca57611bca612cfd565b600060018201612ff157612ff1612cfd565b5060010190565b602081526000612b92602083018486612f2b565b60006020828403121561301e57600080fd5b81356001600160f01b031981168114611c4b57600080fd5b858152846020820152608060408201526000613056608083018587612f2b565b90508260608301529695505050505050565b60006020828403121561307a57600080fd5b81518015158114611c4b57600080fd5b60208082526022908201527f52656164206f76657272756e20647572696e6720566172496e742070617273696040820152616e6760f01b606082015260800190565b6001600160e01b03198516815283516000906130ef816004850160208901612aee565b845190830190613106816004840160208901612aee565b6001600160e01b0319949094169301600481019390935250506008019392505050565b805160208201516bffffffffffffffffffffffff19811691906014821015613175576bffffffffffffffffffffffff196bffffffffffffffffffffffff198360140360031b1b82161692505b5050919050565b6001600160e01b03198a1681526001600160f01b031989166004820152868860068301376000878201600681016000815287898237506000908701600601908152848682376001600160e01b031993909316929093019182525060040198975050505050505050565b60ff8181168382160190811115611bca57611bca612cfd56","linkReferences":{}},"methodIdentifiers":{"LIGHT_CLIENT()":"e613ae00","SYSTEM_CALLER()":"d761753e","acceptOwnership()":"79ba5097","batchWithdraw(bytes32[],bytes4[])":"19854623","declareWithdrawFiller((bytes4,bytes2,bytes,bytes,bytes,bytes4,bytes,uint256,uint256),uint256,uint256)":"74ab4a83","deposit((bytes4,bytes2,bytes,bytes,bytes,bytes4,bytes,uint256,uint256))":"dd95c7c6","depositAmount()":"419759f5","getWithdrawalCount()":"781952a8","initialize(bytes,bytes,uint256)":"41260137","initialized()":"158ef93e","isOperatorMalicious(uint256)":"bafa9eb2","markMaliciousOperator((bytes4,bytes2,bytes,bytes,bytes,bytes4,bytes,uint256,uint256))":"5e3cc740","operator()":"570ca735","owner()":"8da5cb5b","pendingOwner()":"e30c3978","renounceOwnership()":"715018a6","scriptPrefix()":"a41c5cf3","scriptSuffix()":"87f8bf56","setDepositScript(bytes,bytes)":"f8e655d2","setOperator(address)":"b3ab15fb","setSlashOrTakeScript(bytes)":"f119a9bd","slashOrTakeScript()":"5d3e3176","transferOwnership(address)":"f2fde38b","txIdToDepositId(bytes32)":"11e53a01","withdraw(bytes32,bytes4)":"8786dba7","withdrawFillers(uint256)":"c045577b","withdrawalUTXOs(uint256)":"471ba1e3"},"id":45}