{"abi":[{"type":"function","name":"DEPOSIT_AMOUNT","inputs":[],"outputs":[{"name":"","type":"uint256","internalType":"uint256"}],"stateMutability":"view"},{"type":"function","name":"LIGHT_CLIENT","inputs":[],"outputs":[{"name":"","type":"address","internalType":"contract BitcoinLightClient"}],"stateMutability":"view"},{"type":"function","name":"SYSTEM_CALLER","inputs":[],"outputs":[{"name":"","type":"address","internalType":"address"}],"stateMutability":"view"},{"type":"function","name":"acceptOwnership","inputs":[],"outputs":[],"stateMutability":"nonpayable"},{"type":"function","name":"batchWithdraw","inputs":[{"name":"txIds","type":"bytes32[]","internalType":"bytes32[]"},{"name":"outputIds","type":"uint32[]","internalType":"uint32[]"}],"outputs":[],"stateMutability":"payable"},{"type":"function","name":"declareWithdrawFiller","inputs":[{"name":"tp","type":"tuple","internalType":"struct Bridge.TransactionParams","components":[{"name":"version","type":"bytes4","internalType":"bytes4"},{"name":"flag","type":"bytes2","internalType":"bytes2"},{"name":"vin","type":"bytes","internalType":"bytes"},{"name":"vout","type":"bytes","internalType":"bytes"},{"name":"witness","type":"bytes","internalType":"bytes"},{"name":"locktime","type":"bytes4","internalType":"bytes4"},{"name":"intermediate_nodes","type":"bytes","internalType":"bytes"},{"name":"block_height","type":"uint256","internalType":"uint256"},{"name":"index","type":"uint256","internalType":"uint256"}]},{"name":"inputIndex","type":"uint256","internalType":"uint256"},{"name":"outputIndex","type":"uint256","internalType":"uint256"},{"name":"withdrawId","type":"uint256","internalType":"uint256"}],"outputs":[],"stateMutability":"nonpayable"},{"type":"function","name":"deposit","inputs":[{"name":"tp","type":"tuple","internalType":"struct Bridge.TransactionParams","components":[{"name":"version","type":"bytes4","internalType":"bytes4"},{"name":"flag","type":"bytes2","internalType":"bytes2"},{"name":"vin","type":"bytes","internalType":"bytes"},{"name":"vout","type":"bytes","internalType":"bytes"},{"name":"witness","type":"bytes","internalType":"bytes"},{"name":"locktime","type":"bytes4","internalType":"bytes4"},{"name":"intermediate_nodes","type":"bytes","internalType":"bytes"},{"name":"block_height","type":"uint256","internalType":"uint256"},{"name":"index","type":"uint256","internalType":"uint256"}]}],"outputs":[],"stateMutability":"nonpayable"},{"type":"function","name":"depositScript","inputs":[],"outputs":[{"name":"","type":"bytes","internalType":"bytes"}],"stateMutability":"view"},{"type":"function","name":"getWithdrawalCount","inputs":[],"outputs":[{"name":"","type":"uint256","internalType":"uint256"}],"stateMutability":"view"},{"type":"function","name":"initialize","inputs":[{"name":"_depositScript","type":"bytes","internalType":"bytes"},{"name":"_scriptSuffix","type":"bytes","internalType":"bytes"},{"name":"_requiredSigsCount","type":"uint256","internalType":"uint256"}],"outputs":[],"stateMutability":"nonpayable"},{"type":"function","name":"initialized","inputs":[],"outputs":[{"name":"","type":"bool","internalType":"bool"}],"stateMutability":"view"},{"type":"function","name":"isOperatorMalicious","inputs":[{"name":"","type":"uint256","internalType":"uint256"}],"outputs":[{"name":"","type":"bool","internalType":"bool"}],"stateMutability":"view"},{"type":"function","name":"kickoffRoots","inputs":[{"name":"","type":"uint256","internalType":"uint256"}],"outputs":[{"name":"","type":"bytes32","internalType":"bytes32"}],"stateMutability":"view"},{"type":"function","name":"markMaliciousOperator","inputs":[{"name":"proofToKickoffRoot","type":"bytes","internalType":"bytes"},{"name":"tp","type":"tuple","internalType":"struct Bridge.TransactionParams","components":[{"name":"version","type":"bytes4","internalType":"bytes4"},{"name":"flag","type":"bytes2","internalType":"bytes2"},{"name":"vin","type":"bytes","internalType":"bytes"},{"name":"vout","type":"bytes","internalType":"bytes"},{"name":"witness","type":"bytes","internalType":"bytes"},{"name":"locktime","type":"bytes4","internalType":"bytes4"},{"name":"intermediate_nodes","type":"bytes","internalType":"bytes"},{"name":"block_height","type":"uint256","internalType":"uint256"},{"name":"index","type":"uint256","internalType":"uint256"}]},{"name":"inputIndex","type":"uint256","internalType":"uint256"},{"name":"depositId","type":"uint256","internalType":"uint256"},{"name":"operatorId","type":"uint256","internalType":"uint256"}],"outputs":[],"stateMutability":"nonpayable"},{"type":"function","name":"operator","inputs":[],"outputs":[{"name":"","type":"address","internalType":"address"}],"stateMutability":"view"},{"type":"function","name":"operatorAddresses","inputs":[{"name":"","type":"uint256","internalType":"uint256"}],"outputs":[{"name":"","type":"bytes32","internalType":"bytes32"}],"stateMutability":"view"},{"type":"function","name":"owner","inputs":[],"outputs":[{"name":"","type":"address","internalType":"address"}],"stateMutability":"view"},{"type":"function","name":"pendingOwner","inputs":[],"outputs":[{"name":"","type":"address","internalType":"address"}],"stateMutability":"view"},{"type":"function","name":"renounceOwnership","inputs":[],"outputs":[],"stateMutability":"nonpayable"},{"type":"function","name":"requiredSigsCount","inputs":[],"outputs":[{"name":"","type":"uint256","internalType":"uint256"}],"stateMutability":"view"},{"type":"function","name":"scriptSuffix","inputs":[],"outputs":[{"name":"","type":"bytes","internalType":"bytes"}],"stateMutability":"view"},{"type":"function","name":"setDepositScript","inputs":[{"name":"_depositScript","type":"bytes","internalType":"bytes"},{"name":"_scriptSuffix","type":"bytes","internalType":"bytes"},{"name":"_requiredSigsCount","type":"uint256","internalType":"uint256"}],"outputs":[],"stateMutability":"nonpayable"},{"type":"function","name":"setOperator","inputs":[{"name":"_operator","type":"address","internalType":"address"}],"outputs":[],"stateMutability":"nonpayable"},{"type":"function","name":"spentWtxIds","inputs":[{"name":"","type":"bytes32","internalType":"bytes32"}],"outputs":[{"name":"","type":"bool","internalType":"bool"}],"stateMutability":"view"},{"type":"function","name":"transferOwnership","inputs":[{"name":"newOwner","type":"address","internalType":"address"}],"outputs":[],"stateMutability":"nonpayable"},{"type":"function","name":"withdraw","inputs":[{"name":"txId","type":"bytes32","internalType":"bytes32"},{"name":"outputId","type":"uint32","internalType":"uint32"}],"outputs":[],"stateMutability":"payable"},{"type":"function","name":"withdrawFillers","inputs":[{"name":"","type":"uint256","internalType":"uint256"}],"outputs":[{"name":"","type":"bytes32","internalType":"bytes32"}],"stateMutability":"view"},{"type":"function","name":"withdrawalUTXOs","inputs":[{"name":"","type":"uint256","internalType":"uint256"}],"outputs":[{"name":"txId","type":"bytes32","internalType":"bytes32"},{"name":"outputId","type":"uint32","internalType":"uint32"}],"stateMutability":"view"},{"type":"event","name":"Deposit","inputs":[{"name":"wtxId","type":"bytes32","indexed":false,"internalType":"bytes32"},{"name":"recipient","type":"address","indexed":false,"internalType":"address"},{"name":"timestamp","type":"uint256","indexed":false,"internalType":"uint256"}],"anonymous":false},{"type":"event","name":"DepositScriptUpdate","inputs":[{"name":"depositScript","type":"bytes","indexed":false,"internalType":"bytes"},{"name":"scriptSuffix","type":"bytes","indexed":false,"internalType":"bytes"},{"name":"requiredSigsCount","type":"uint256","indexed":false,"internalType":"uint256"}],"anonymous":false},{"type":"event","name":"Initialized","inputs":[{"name":"version","type":"uint64","indexed":false,"internalType":"uint64"}],"anonymous":false},{"type":"event","name":"MaliciousOperatorMarked","inputs":[{"name":"operatorId","type":"uint256","indexed":false,"internalType":"uint256"}],"anonymous":false},{"type":"event","name":"OperatorUpdated","inputs":[{"name":"oldOperator","type":"address","indexed":false,"internalType":"address"},{"name":"newOperator","type":"address","indexed":false,"internalType":"address"}],"anonymous":false},{"type":"event","name":"OwnershipTransferStarted","inputs":[{"name":"previousOwner","type":"address","indexed":true,"internalType":"address"},{"name":"newOwner","type":"address","indexed":true,"internalType":"address"}],"anonymous":false},{"type":"event","name":"OwnershipTransferred","inputs":[{"name":"previousOwner","type":"address","indexed":true,"internalType":"address"},{"name":"newOwner","type":"address","indexed":true,"internalType":"address"}],"anonymous":false},{"type":"event","name":"WithdrawFillerDeclared","inputs":[{"name":"withdrawId","type":"uint256","indexed":false,"internalType":"uint256"},{"name":"withdrawFillerAddress","type":"bytes32","indexed":false,"internalType":"bytes32"}],"anonymous":false},{"type":"event","name":"Withdrawal","inputs":[{"name":"utxo","type":"tuple","indexed":false,"internalType":"struct Bridge.UTXO","components":[{"name":"txId","type":"bytes32","internalType":"bytes32"},{"name":"outputId","type":"uint32","internalType":"uint32"}]},{"name":"index","type":"uint256","indexed":false,"internalType":"uint256"},{"name":"timestamp","type":"uint256","indexed":false,"internalType":"uint256"}],"anonymous":false},{"type":"error","name":"InvalidInitialization","inputs":[]},{"type":"error","name":"NotInitializing","inputs":[]},{"type":"error","name":"OwnableInvalidOwner","inputs":[{"name":"owner","type":"address","internalType":"address"}]},{"type":"error","name":"OwnableUnauthorizedAccount","inputs":[{"name":"account","type":"address","internalType":"address"}]}],"bytecode":{"object":"0x6080604052348015600f57600080fd5b5061332e8061001f6000396000f3fe6080604052600436106101b75760003560e01c80639f963f59116100ec578063d62239f91161008a578063e30c397811610064578063e30c3978146104eb578063e613ae0014610500578063ec6925a71461051b578063f2fde38b1461053657600080fd5b8063d62239f914610490578063d761753e146104a3578063dd95c7c6146104cb57600080fd5b8063bafa9eb2116100c6578063bafa9eb214610410578063c045577b14610430578063ca46f45e1461045d578063d30db9491461047d57600080fd5b80639f963f59146103bb578063b3ab15fb146103db578063b93780f6146103fb57600080fd5b80637792a0351161015957806387f8bf561161013357806387f8bf56146103445780638afbfff8146103665780638da5cb5b146103865780639773ea901461039b57600080fd5b80637792a035146102ed578063781952a81461031a57806379ba50971461032f57600080fd5b8063471ba1e311610195578063471ba1e314610231578063570ca7351461026b5780635e0e5b3e146102a8578063715018a6146102d857600080fd5b8063158ef93e146101bc57806341260137146101eb57806343e316871461020d575b600080fd5b3480156101c857600080fd5b506000546101d69060ff1681565b60405190151581526020015b60405180910390f35b3480156101f757600080fd5b5061020b610206366004612a88565b610556565b005b34801561021957600080fd5b5061022360015481565b6040519081526020016101e2565b34801561023d57600080fd5b5061025161024c366004612aff565b61079a565b6040805192835263ffffffff9091166020830152016101e2565b34801561027757600080fd5b506000546102909061010090046001600160a01b031681565b6040516001600160a01b0390911681526020016101e2565b3480156102b457600080fd5b506101d66102c3366004612aff565b60046020526000908152604090205460ff1681565b3480156102e457600080fd5b5061020b6107ce565b3480156102f957600080fd5b50610223610308366004612aff565b60286020526000908152604090205481565b34801561032657600080fd5b50602554610223565b34801561033b57600080fd5b5061020b6107e2565b34801561035057600080fd5b5061035961082a565b6040516101e29190612b18565b34801561037257600080fd5b50610223610381366004612aff565b6108b8565b34801561039257600080fd5b506102906108d9565b3480156103a757600080fd5b5061020b6103b6366004612b7f565b61090e565b3480156103c757600080fd5b5061020b6103d6366004612a88565b610c17565b3480156103e757600080fd5b5061020b6103f6366004612bd2565b610d19565b34801561040757600080fd5b50610359610d8a565b34801561041c57600080fd5b506101d661042b366004612aff565b610d97565b34801561043c57600080fd5b5061022361044b366004612aff565b60276020526000908152604090205481565b34801561046957600080fd5b5061020b610478366004612c11565b610dc2565b61020b61048b366004612d51565b611001565b61020b61049e366004612dd9565b6111e9565b3480156104af57600080fd5b5061029073deaddeaddeaddeaddeaddeaddeaddeaddeaddead81565b3480156104d757600080fd5b5061020b6104e6366004612e05565b611319565b3480156104f757600080fd5b506102906119ba565b34801561050c57600080fd5b506102906001603160981b0181565b34801561052757600080fd5b50610223662386f26fc1000081565b34801561054257600080fd5b5061020b610551366004612bd2565b6119e3565b3373deaddeaddeaddeaddeaddeaddeaddeaddeaddead146105be5760405162461bcd60e51b815260206004820152601f60248201527f63616c6c6572206973206e6f74207468652073797374656d2063616c6c65720060448201526064015b60405180910390fd5b60005460ff16156106115760405162461bcd60e51b815260206004820152601f60248201527f436f6e747261637420697320616c726561647920696e697469616c697a65640060448201526064016105b5565b806000036106615760405162461bcd60e51b815260206004820152601a60248201527f566572696669657220636f756e742063616e6e6f74206265203000000000000060448201526064016105b5565b60008490036106b25760405162461bcd60e51b815260206004820152601e60248201527f4465706f736974207363726970742063616e6e6f7420626520656d707479000060448201526064016105b5565b6000805460ff1916600117905560026106cc858783612ebc565b5060036106da838583612ebc565b50600181905560008054610100600160a81b03191674deaddeaddeaddeaddeaddeaddeaddeaddeaddead001781556040805191825273deaddeaddeaddeaddeaddeaddeaddeaddeaddead60208301527ffbe5b6cbafb274f445d7fed869dc77a838d8243a22c460de156560e8857cad03910160405180910390a17f89ed79f38bee253aee2fb8d52df0d71b4aaf0843800d093a499a55eeca455c34858585858560405161078b959493929190612fa4565b60405180910390a15050505050565b602581815481106107aa57600080fd5b60009182526020909120600290910201805460019091015490915063ffffffff1682565b6107d6611a68565b6107e06000611a9a565b565b33806107ec6119ba565b6001600160a01b03161461081e5760405163118cdaa760e01b81526001600160a01b03821660048201526024016105b5565b61082781611a9a565b50565b6003805461083790612e39565b80601f016020809104026020016040519081016040528092919081815260200182805461086390612e39565b80156108b05780601f10610885576101008083540402835291602001916108b0565b820191906000526020600020905b81548152906001019060200180831161089357829003601f168201915b505050505081565b602681815481106108c857600080fd5b600091825260209091200154905081565b6000807f9016d09d72d40fdae2fd8ceac6b6234c7706214fd39c1cd1e609a0528c1993005b546001600160a01b031692915050565b600061096f6109206020870187612fde565b6109306040880160208901613008565b61093d6040890189613032565b61094a60608b018b613032565b61095760808d018d613032565b8d60a001602081019061096a9190612fde565b611ad6565b90506109bb6109816040870187613032565b8080601f016020809104026020016040519081016040528093929190818152602001838380828437600092019190915250611b1e92505050565b6109d75760405162461bcd60e51b81526004016105b590613078565b610a216109e76060870187613032565b8080601f016020809104026020016040519081016040528093929190818152602001838380828437600092019190915250611bc292505050565b610a3d5760405162461bcd60e51b81526004016105b5906130af565b6001603160981b01634ffd344a60e087013583610a5d60c08a018a613032565b8a61010001356040518663ffffffff1660e01b8152600401610a839594939291906130e6565b602060405180830381865afa158015610aa0573d6000803e3d6000fd5b505050506040513d601f19601f82011682018060405250810190610ac49190613118565b610ae05760405162461bcd60e51b81526004016105b59061313a565b60258281548110610af357610af3613171565b6000918252602090912060029091020154610b58610b53610b176040890189613032565b8080601f0160208091040260200160405190810160405280939291908181526020018383808284376000920191909152508a9250611c59915050565b611dc4565b14610b6257600080fd5b6000610bb0610b746060880188613032565b8080601f016020809104026020016040519081016040528093929190818152602001838380828437600092019190915250889250611e24915050565b90506000610bc0610b5383611f84565b60008581526027602090815260409182902083905581518781529081018390529192507fb2c7793eb7d7c2be0868a9902be1c405515e6a3edc15cf5472687c9abbbcbce7910160405180910390a150505050505050565b610c1f611a68565b80600003610c6f5760405162461bcd60e51b815260206004820152601a60248201527f566572696669657220636f756e742063616e6e6f74206265203000000000000060448201526064016105b5565b6000849003610cc05760405162461bcd60e51b815260206004820152601e60248201527f4465706f736974207363726970742063616e6e6f7420626520656d707479000060448201526064016105b5565b6002610ccd858783612ebc565b506003610cdb838583612ebc565b5060018190556040517f89ed79f38bee253aee2fb8d52df0d71b4aaf0843800d093a499a55eeca455c349061078b9087908790879087908790612fa4565b610d21611a68565b60008054610100600160a81b0319166101006001600160a01b038481168281029390931793849055604080519290940416815260208101919091527ffbe5b6cbafb274f445d7fed869dc77a838d8243a22c460de156560e8857cad03910160405180910390a150565b6002805461083790612e39565b6005816103e88110610da857600080fd5b60209182820401919006915054906101000a900460ff1681565b6000610dd46109206020870187612fde565b9050610de66109816040870187613032565b610e025760405162461bcd60e51b81526004016105b590613078565b610e126109e76060870187613032565b610e2e5760405162461bcd60e51b81526004016105b5906130af565b6001603160981b01634ffd344a60e087013583610e4e60c08a018a613032565b8a61010001356040518663ffffffff1660e01b8152600401610e749594939291906130e6565b602060405180830381865afa158015610e91573d6000803e3d6000fd5b505050506040513d601f19601f82011682018060405250810190610eb59190613118565b610ed15760405162461bcd60e51b81526004016105b59061313a565b6000610ee6610b53610b176040890189613032565b9050600060268581548110610efd57610efd613171565b90600052602060002001549050610f1682828a87612006565b610f525760405162461bcd60e51b815260206004820152600d60248201526c24b73b30b634b210383937b7b360991b60448201526064016105b5565b6000858152602760205260409020541580610f89575060008481526028602090815260408083205488845260279092529091205414155b15610fc45760016005856103e88110610fa457610fa4613171565b602091828204019190066101000a81548160ff0219169083151502179055505b6040518481527ff918cdaebea74c5a8c3b02d7404c162f507551b158202cedcba9b6a74eabdff29060200160405180910390a15050505050505050565b8281146110425760405162461bcd60e51b815260206004820152600f60248201526e098cadccee8d040dad2e6dac2e8c6d608b1b60448201526064016105b5565b61105383662386f26fc1000061319d565b341461109b5760405162461bcd60e51b8152602060048201526017602482015276125b9d985b1a59081dda5d1a191c985dc8185b5bdd5b9d604a1b60448201526064016105b5565b60255460005b848110156111e157600060405180604001604052808888858181106110c8576110c8613171565b9050602002013581526020018686858181106110e6576110e6613171565b90506020020160208101906110fb91906131b4565b63ffffffff9081169091526025805460018101825560009190915282517f401968ff42a154441da5f6c4c935ac46b8671f0e062baaa62a7545ba53bb6e4c60029092029182015560208301517f401968ff42a154441da5f6c4c935ac46b8671f0e062baaa62a7545ba53bb6e4d909101805463ffffffff19169190921617905590507fe32f1dd44d4768b5cc8efdffee252f9da4f2cc539a5d1908c2772f181dd363ce816111a984866131cf565b604080518351815260209384015163ffffffff169381019390935282015242606082015260800160405180910390a1506001016110a1565b505050505050565b662386f26fc1000034146112395760405162461bcd60e51b8152602060048201526017602482015276125b9d985b1a59081dda5d1a191c985dc8185b5bdd5b9d604a1b60448201526064016105b5565b60408051808201825283815263ffffffff83811660208084019182526025805460018101825560009190915284517f401968ff42a154441da5f6c4c935ac46b8671f0e062baaa62a7545ba53bb6e4c6002830290810182905584517f401968ff42a154441da5f6c4c935ac46b8671f0e062baaa62a7545ba53bb6e4d909101805463ffffffff1916918716919091179055865190815292519093169082015292830181905242606084015290917fe32f1dd44d4768b5cc8efdffee252f9da4f2cc539a5d1908c2772f181dd363ce9060800160405180910390a150505050565b60005461010090046001600160a01b031633146113785760405162461bcd60e51b815260206004820152601a60248201527f63616c6c6572206973206e6f7420746865206f70657261746f7200000000000060448201526064016105b5565b60006113d161138a6020840184612fde565b61139a6040850160208601613008565b6113a76040860186613032565b6113b46060880188613032565b6113c160808a018a613032565b61096a60c08c0160a08d01612fde565b60008181526004602052604090205490915060ff16156114295760405162461bcd60e51b81526020600482015260136024820152721ddd1e125908185b1c9958591e481cdc195b9d606a1b60448201526064016105b5565b60008181526004602052604090819020805460ff191660011790556114549061098190840184613032565b6114705760405162461bcd60e51b81526004016105b590613078565b6114806109e76060840184613032565b61149c5760405162461bcd60e51b81526004016105b5906130af565b60006114e86114ae6040850185613032565b8080601f01602080910402602001604051908101604052809392919081815260200183838082843760009201919091525061204492505050565b915050806001146115345760405162461bcd60e51b815260206004820152601660248201527513db9b1e481bdb99481a5b9c1d5d08185b1b1bddd95960521b60448201526064016105b5565b6115806115446080850185613032565b8080601f01602080910402602001604051908101604052809392919081815260200183838082843760009201919091525085925061205b915050565b6115d65760405162461bcd60e51b815260206004820152602160248201527f5769746e657373206973206e6f742070726f7065726c7920666f726d617474656044820152601960fa1b60648201526084016105b5565b6001603160981b01634ffd344a60e0850135846115f660c0880188613032565b8861010001356040518663ffffffff1660e01b815260040161161c9594939291906130e6565b602060405180830381865afa158015611639573d6000803e3d6000fd5b505050506040513d601f19601f8201168201806040525081019061165d9190613118565b6116795760405162461bcd60e51b81526004016105b59061313a565b60006116c561168b6080860186613032565b8080601f016020809104026020016040519081016040528093929190818152602001838380828437600092018290525092506120d0915050565b905060006116d282612044565b91505060015460026116e491906131cf565b811461172a5760405162461bcd60e51b8152602060048201526015602482015274496e76616c6964207769746e657373206974656d7360581b60448201526064016105b5565b6000611738836001546121b3565b905060006002805461174990612e39565b91506000905061175a838284612333565b90506117f0816002805461176d90612e39565b80601f016020809104026020016040519081016040528092919081815260200182805461179990612e39565b80156117e65780601f106117bb576101008083540402835291602001916117e6565b820191906000526020600020905b8154815290600101906020018083116117c957829003601f168201915b50505050506123f6565b6118355760405162461bcd60e51b8152602060048201526016602482015275125b9d985b1a590819195c1bdcda5d081cd8dc9a5c1d60521b60448201526064016105b5565b60006118646118458460146131cf565b6118508560146131cf565b865161185c91906131e2565b869190612333565b9050611877816003805461176d90612e39565b6118bb5760405162461bcd60e51b8152602060048201526015602482015274092dcecc2d8d2c840e6c6e4d2e0e840e6eaccccd2f605b1b60448201526064016105b5565b60006118c6856124cd565b604080518b81526001600160a01b0383166020820152428183015290519192507f182fa52899142d44ff5c45a6354d3b3e868d5b07db6a65580b39bd321bdaf8ac919081900360600190a16000816001600160a01b0316662386f26fc1000060405160006040518083038185875af1925050503d8060008114611965576040519150601f19603f3d011682016040523d82523d6000602084013e61196a565b606091505b50509050806119ad5760405162461bcd60e51b815260206004820152600f60248201526e151c985b9cd9995c8819985a5b1959608a1b60448201526064016105b5565b5050505050505050505050565b6000807f237e158222e3e6968b72b9db0d8043aacf074ad9f650f0d1606b4d82ee432c006108fe565b6119eb611a68565b7f237e158222e3e6968b72b9db0d8043aacf074ad9f650f0d1606b4d82ee432c0080546001600160a01b0319166001600160a01b0383169081178255611a2f6108d9565b6001600160a01b03167f38d16b8cac22d99fc7c124b9cd0de2d3fa1faef420bfe791d8c362d765e2270060405160405180910390a35050565b33611a716108d9565b6001600160a01b0316146107e05760405163118cdaa760e01b81523360048201526024016105b5565b7f237e158222e3e6968b72b9db0d8043aacf074ad9f650f0d1606b4d82ee432c0080546001600160a01b0319168155611ad282612503565b5050565b6000611b108a8a8a8a8a8a8a8a8a604051602001611afc999897969594939291906131f5565b604051602081830303815290604052612574565b9a9950505050505050505050565b6000806000611b2c84612044565b9092509050801580611b3f575060001982145b15611b4e575060009392505050565b6000611b5b8360016131cf565b905060005b82811015611bb55785518210611b7c5750600095945050505050565b6000611b88878461259b565b90506000198103611ba0575060009695505050505050565b611baa81846131cf565b925050600101611b60565b5093519093149392505050565b6000806000611bd084612044565b9092509050801580611be3575060001982145b15611bf2575060009392505050565b6000611bff8360016131cf565b905060005b82811015611bb55785518210611c205750600095945050505050565b6000611c2c87846125e4565b90506000198103611c44575060009695505050505050565b611c4e81846131cf565b925050600101611c04565b6060600080611c6785612044565b909250905060018201611c8c5760405162461bcd60e51b81526004016105b59061325e565b808410611cce5760405162461bcd60e51b815260206004820152601060248201526f2b34b7103932b0b21037bb32b9393ab760811b60448201526064016105b5565b600080611cdc8460016131cf565b905060005b86811015611d5457611cf3888361259b565b92506000198303611d405760405162461bcd60e51b815260206004820152601760248201527642616420566172496e7420696e2073637269707453696760481b60448201526064016105b5565b611d4a83836131cf565b9150600101611ce1565b50611d5f878261259b565b91506000198203611dac5760405162461bcd60e51b815260206004820152601760248201527642616420566172496e7420696e2073637269707453696760481b60448201526064016105b5565b611db7878284612333565b9450505050505b92915050565b6000808251118015611dd857506020825111155b611e1c5760405162461bcd60e51b8152602060048201526015602482015274092dcecc2d8d2c840e6deeae4c6ca40d8cadccee8d605b1b60448201526064016105b5565b506020015190565b6060600080611e3285612044565b909250905060018201611e575760405162461bcd60e51b81526004016105b59061325e565b808410611e9a5760405162461bcd60e51b81526020600482015260116024820152702b37baba103932b0b21037bb32b9393ab760791b60448201526064016105b5565b600080611ea88460016131cf565b905060005b86811015611f2657611ebf88836125e4565b92506000198303611f125760405162461bcd60e51b815260206004820152601a60248201527f42616420566172496e7420696e207363726970745075626b657900000000000060448201526064016105b5565b611f1c83836131cf565b9150600101611ead565b50611f3187826125e4565b91506000198203611dac5760405162461bcd60e51b815260206004820152601a60248201527f42616420566172496e7420696e207363726970745075626b657900000000000060448201526064016105b5565b606081600981518110611f9957611f99613171565b6020910101516001600160f81b031916603560f91b14611fc757505060408051602081019091526000815290565b600082600a81518110611fdc57611fdc613171565b01602001516001600160f81b031981169150611fff908490600b9060f81c612333565b9392505050565b60008385148015612015575081155b801561202057508251155b1561202d5750600161203c565b61203985848685612648565b90505b949350505050565b6000806120528360006126f2565b91509150915091565b60008160000361206d57506000611dbe565b6000805b838110156120c4578451821061208c57600092505050611dbe565b60006120988684612894565b905060001981036120af5760009350505050611dbe565b6120b981846131cf565b925050600101612071565b50835114905092915050565b606060008060005b84811015612149576120ea8683612894565b925060001983036121355760405162461bcd60e51b815260206004820152601560248201527442616420566172496e7420696e207769746e65737360581b60448201526064016105b5565b61213f83836131cf565b91506001016120d8565b506121548582612894565b9150600019820361219f5760405162461bcd60e51b815260206004820152601560248201527442616420566172496e7420696e207769746e65737360581b60448201526064016105b5565b6121aa858284612333565b95945050505050565b60606000806121c185612044565b9092509050600182016121e65760405162461bcd60e51b81526004016105b59061325e565b8084106122285760405162461bcd60e51b815260206004820152601060248201526f2b34b7103932b0b21037bb32b9393ab760811b60448201526064016105b5565b6000806122368460016131cf565b905060005b868110156122c15761224d88836126f2565b9095509250600183016122975760405162461bcd60e51b815260206004820152601260248201527142616420566172496e7420696e206974656d60701b60448201526064016105b5565b826122a38660016131cf565b6122ad91906131cf565b6122b790836131cf565b915060010161223b565b506122cc87826126f2565b9094509150600182016123165760405162461bcd60e51b815260206004820152601260248201527142616420566172496e7420696e206974656d60701b60448201526064016105b5565b611db78161232486856131cf565b61232f9060016131cf565b8991905b6060816000036123525750604080516020810190915260008152611fff565b600061235e83856131cf565b90508381118015612370575080855110155b6123b25760405162461bcd60e51b8152602060048201526013602482015272536c696365206f7574206f6620626f756e647360681b60448201526064016105b5565b604051915082604083010160405282825283850182038460208701018481015b808210156123eb578151838301526020820191506123d2565b505050509392505050565b8151815160009190811461240e576000915050611dbe565b60206000805b838311612444575050848101518482015160209092019180821461243f576000945050505050611dbe565b612414565b60006124516020856131e2565b90505b848110156124bf5786818151811061246e5761246e613171565b602001015160f81c60f81b6001600160f81b03191688828151811061249557612495613171565b01602001516001600160f81b031916146124b757600095505050505050611dbe565b600101612454565b506001979650505050505050565b600080600280546124dd90612e39565b9150600090506124ef84836014612333565b6124f8906132a0565b60601c949350505050565b7f9016d09d72d40fdae2fd8ceac6b6234c7706214fd39c1cd1e609a0528c19930080546001600160a01b031981166001600160a01b03848116918217845560405192169182907f8be0079c531659141344cd1fd0a4f28419497f9722a3daafe3b4186f6b6457e090600090a3505050565b60006020600083516020850160025afa50602060006020600060025afa5050600051919050565b60008060006125aa8585612936565b9092509050600182016125c35760001992505050611dbe565b806125cf8360256131cf565b6125d991906131cf565b6121aa9060046131cf565b60006125f18260096131cf565b835110156126025750600019611dbe565b600080612619856126148660086131cf565b6126f2565b9092509050600182016126325760001992505050611dbe565b8061263e8360096131cf565b6121aa91906131cf565b60006020845161265891906132f3565b156126655750600061203c565b83516000036126765750600061203c565b818560005b86518110156126e55761268f6002846132f3565b6001036126b3576126ac6126a68883016020015190565b83612978565b91506126cc565b6126c9826126c48984016020015190565b612978565b91505b60019290921c916126de6020826131cf565b905061267b565b5090931495945050505050565b60008060006127018585612984565b90508060ff1660000361273657600085858151811061272257612722613171565b016020015190935060f81c915061288d9050565b83612742826001613315565b60ff1661274f91906131cf565b85511015612766576000196000925092505061288d565b60008160ff166002036127aa5761279f61278b6127848760016131cf565b8890612a0a565b62ffff0060e882901c1660f89190911c1790565b61ffff169050612883565b8160ff166004036127f9576127ec6127c66127848760016131cf565b60d881901c63ff00ff001662ff00ff60e89290921c9190911617601081811b91901c1790565b63ffffffff169050612883565b8160ff16600803612883576128776128156127848760016131cf565b60c01c64ff000000ff600882811c91821665ff000000ff009390911b92831617601090811b6001600160401b031666ff00ff00ff00ff9290921667ff00ff00ff00ff009093169290921790911c65ffff0000ffff1617602081811c91901b1790565b6001600160401b031690505b60ff909116925090505b9250929050565b60008060006128a385856126f2565b9092509050600182016128bc5760001992505050611dbe565b6000806128ca8460016131cf565b905060005b8381101561292b576128e588612614848a6131cf565b9095509250600183016129015760001995505050505050611dbe565b8261290d8660016131cf565b61291791906131cf565b61292190836131cf565b91506001016128cf565b509695505050505050565b6000806129448360256131cf565b8451101561295957506000199050600061288d565b60008061296b866126148760246131cf565b9097909650945050505050565b6000611fff8383612a19565b600082828151811061299857612998613171565b016020015160f81c60ff036129af57506008611dbe565b8282815181106129c1576129c1613171565b016020015160f81c60fe036129d857506004611dbe565b8282815181106129ea576129ea613171565b016020015160f81c60fd03612a0157506002611dbe565b50600092915050565b6000611fff8383016020015190565b60008260005281602052602060006040600060025afa50602060006020600060025afa505060005192915050565b60008083601f840112612a5957600080fd5b5081356001600160401b03811115612a7057600080fd5b60208301915083602082850101111561288d57600080fd5b600080600080600060608688031215612aa057600080fd5b85356001600160401b03811115612ab657600080fd5b612ac288828901612a47565b90965094505060208601356001600160401b03811115612ae157600080fd5b612aed88828901612a47565b96999598509660400135949350505050565b600060208284031215612b1157600080fd5b5035919050565b602081526000825180602084015260005b81811015612b465760208186018101516040868401015201612b29565b506000604082850101526040601f19601f83011684010191505092915050565b60006101208284031215612b7957600080fd5b50919050565b60008060008060808587031215612b9557600080fd5b84356001600160401b03811115612bab57600080fd5b612bb787828801612b66565b97602087013597506040870135966060013595509350505050565b600060208284031215612be457600080fd5b81356001600160a01b0381168114611fff57600080fd5b634e487b7160e01b600052604160045260246000fd5b600080600080600060a08688031215612c2957600080fd5b85356001600160401b03811115612c3f57600080fd5b8601601f81018813612c5057600080fd5b80356001600160401b03811115612c6957612c69612bfb565b604051601f8201601f19908116603f011681016001600160401b0381118282101715612c9757612c97612bfb565b6040528181528282016020018a1015612caf57600080fd5b8160208401602083013760006020838301015280975050505060208601356001600160401b03811115612ce157600080fd5b612ced88828901612b66565b959895975050505060408401359360608101359360809091013592509050565b60008083601f840112612d1f57600080fd5b5081356001600160401b03811115612d3657600080fd5b6020830191508360208260051b850101111561288d57600080fd5b60008060008060408587031215612d6757600080fd5b84356001600160401b03811115612d7d57600080fd5b612d8987828801612d0d565b90955093505060208501356001600160401b03811115612da857600080fd5b612db487828801612d0d565b95989497509550505050565b803563ffffffff81168114612dd457600080fd5b919050565b60008060408385031215612dec57600080fd5b82359150612dfc60208401612dc0565b90509250929050565b600060208284031215612e1757600080fd5b81356001600160401b03811115612e2d57600080fd5b61203c84828501612b66565b600181811c90821680612e4d57607f821691505b602082108103612b7957634e487b7160e01b600052602260045260246000fd5b601f821115612eb757806000526020600020601f840160051c81016020851015612e945750805b601f840160051c820191505b81811015612eb45760008155600101612ea0565b50505b505050565b6001600160401b03831115612ed357612ed3612bfb565b612ee783612ee18354612e39565b83612e6d565b6000601f841160018114612f1b5760008515612f035750838201355b600019600387901b1c1916600186901b178355612eb4565b600083815260209020601f19861690835b82811015612f4c5786850135825560209485019460019092019101612f2c565b5086821015612f695760001960f88860031b161c19848701351681555b505060018560011b0183555050505050565b81835281816020850137506000828201602090810191909152601f909101601f19169091010190565b606081526000612fb8606083018789612f7b565b8281036020840152612fcb818688612f7b565b9150508260408301529695505050505050565b600060208284031215612ff057600080fd5b81356001600160e01b031981168114611fff57600080fd5b60006020828403121561301a57600080fd5b81356001600160f01b031981168114611fff57600080fd5b6000808335601e1984360301811261304957600080fd5b8301803591506001600160401b0382111561306357600080fd5b60200191503681900382131561288d57600080fd5b6020808252601d908201527f56696e206973206e6f742070726f7065726c7920666f726d6174746564000000604082015260600190565b6020808252601e908201527f566f7574206973206e6f742070726f7065726c7920666f726d61747465640000604082015260600190565b858152846020820152608060408201526000613106608083018587612f7b565b90508260608301529695505050505050565b60006020828403121561312a57600080fd5b81518015158114611fff57600080fd5b6020808252601b908201527f5472616e73616374696f6e206973206e6f7420696e20626c6f636b0000000000604082015260600190565b634e487b7160e01b600052603260045260246000fd5b634e487b7160e01b600052601160045260246000fd5b8082028115828204841417611dbe57611dbe613187565b6000602082840312156131c657600080fd5b611fff82612dc0565b80820180821115611dbe57611dbe613187565b81810381811115611dbe57611dbe613187565b6001600160e01b03198a1681526001600160f01b031989166004820152868860068301376000878201600681016000815287898237506000908701600601908152848682376001600160e01b031993909316929093019182525060040198975050505050505050565b60208082526022908201527f52656164206f76657272756e20647572696e6720566172496e742070617273696040820152616e6760f01b606082015260800190565b805160208201516bffffffffffffffffffffffff198116919060148210156132ec576bffffffffffffffffffffffff196bffffffffffffffffffffffff198360140360031b1b82161692505b5050919050565b60008261331057634e487b7160e01b600052601260045260246000fd5b500690565b60ff8181168382160190811115611dbe57611dbe61318756","linkReferences":{}},"methodIdentifiers":{"DEPOSIT_AMOUNT()":"ec6925a7","LIGHT_CLIENT()":"e613ae00","SYSTEM_CALLER()":"d761753e","acceptOwnership()":"79ba5097","batchWithdraw(bytes32[],uint32[])":"d30db949","declareWithdrawFiller((bytes4,bytes2,bytes,bytes,bytes,bytes4,bytes,uint256,uint256),uint256,uint256,uint256)":"9773ea90","deposit((bytes4,bytes2,bytes,bytes,bytes,bytes4,bytes,uint256,uint256))":"dd95c7c6","depositScript()":"b93780f6","getWithdrawalCount()":"781952a8","initialize(bytes,bytes,uint256)":"41260137","initialized()":"158ef93e","isOperatorMalicious(uint256)":"bafa9eb2","kickoffRoots(uint256)":"8afbfff8","markMaliciousOperator(bytes,(bytes4,bytes2,bytes,bytes,bytes,bytes4,bytes,uint256,uint256),uint256,uint256,uint256)":"ca46f45e","operator()":"570ca735","operatorAddresses(uint256)":"7792a035","owner()":"8da5cb5b","pendingOwner()":"e30c3978","renounceOwnership()":"715018a6","requiredSigsCount()":"43e31687","scriptSuffix()":"87f8bf56","setDepositScript(bytes,bytes,uint256)":"9f963f59","setOperator(address)":"b3ab15fb","spentWtxIds(bytes32)":"5e0e5b3e","transferOwnership(address)":"f2fde38b","withdraw(bytes32,uint32)":"d62239f9","withdrawFillers(uint256)":"c045577b","withdrawalUTXOs(uint256)":"471ba1e3"},"id":46}