{"abi":[{"type":"function","name":"LIGHT_CLIENT","inputs":[],"outputs":[{"name":"","type":"address","internalType":"contract BitcoinLightClient"}],"stateMutability":"view"},{"type":"function","name":"SYSTEM_CALLER","inputs":[],"outputs":[{"name":"","type":"address","internalType":"address"}],"stateMutability":"view"},{"type":"function","name":"acceptOwnership","inputs":[],"outputs":[],"stateMutability":"nonpayable"},{"type":"function","name":"batchWithdraw","inputs":[{"name":"txIds","type":"bytes32[]","internalType":"bytes32[]"},{"name":"outputIds","type":"uint32[]","internalType":"uint32[]"}],"outputs":[],"stateMutability":"payable"},{"type":"function","name":"declareWithdrawFiller","inputs":[{"name":"withdrawTp","type":"tuple","internalType":"struct Bridge.TransactionParams","components":[{"name":"version","type":"bytes4","internalType":"bytes4"},{"name":"flag","type":"bytes2","internalType":"bytes2"},{"name":"vin","type":"bytes","internalType":"bytes"},{"name":"vout","type":"bytes","internalType":"bytes"},{"name":"witness","type":"bytes","internalType":"bytes"},{"name":"locktime","type":"bytes4","internalType":"bytes4"},{"name":"intermediate_nodes","type":"bytes","internalType":"bytes"},{"name":"block_height","type":"uint256","internalType":"uint256"},{"name":"index","type":"uint256","internalType":"uint256"}]},{"name":"inputIndex","type":"uint256","internalType":"uint256"},{"name":"withdrawId","type":"uint256","internalType":"uint256"}],"outputs":[],"stateMutability":"nonpayable"},{"type":"function","name":"deposit","inputs":[{"name":"revealTp","type":"tuple","internalType":"struct Bridge.TransactionParams","components":[{"name":"version","type":"bytes4","internalType":"bytes4"},{"name":"flag","type":"bytes2","internalType":"bytes2"},{"name":"vin","type":"bytes","internalType":"bytes"},{"name":"vout","type":"bytes","internalType":"bytes"},{"name":"witness","type":"bytes","internalType":"bytes"},{"name":"locktime","type":"bytes4","internalType":"bytes4"},{"name":"intermediate_nodes","type":"bytes","internalType":"bytes"},{"name":"block_height","type":"uint256","internalType":"uint256"},{"name":"index","type":"uint256","internalType":"uint256"}]}],"outputs":[],"stateMutability":"nonpayable"},{"type":"function","name":"depositAmount","inputs":[],"outputs":[{"name":"","type":"uint256","internalType":"uint256"}],"stateMutability":"view"},{"type":"function","name":"depositScript","inputs":[],"outputs":[{"name":"","type":"bytes","internalType":"bytes"}],"stateMutability":"view"},{"type":"function","name":"getWithdrawalCount","inputs":[],"outputs":[{"name":"","type":"uint256","internalType":"uint256"}],"stateMutability":"view"},{"type":"function","name":"initialize","inputs":[{"name":"_depositScript","type":"bytes","internalType":"bytes"},{"name":"_scriptSuffix","type":"bytes","internalType":"bytes"},{"name":"_depositAmount","type":"uint256","internalType":"uint256"}],"outputs":[],"stateMutability":"nonpayable"},{"type":"function","name":"initialized","inputs":[],"outputs":[{"name":"","type":"bool","internalType":"bool"}],"stateMutability":"view"},{"type":"function","name":"isOperatorMalicious","inputs":[{"name":"","type":"uint256","internalType":"uint256"}],"outputs":[{"name":"","type":"bool","internalType":"bool"}],"stateMutability":"view"},{"type":"function","name":"kickoff2AddressRoot","inputs":[],"outputs":[{"name":"","type":"bytes32","internalType":"bytes32"}],"stateMutability":"view"},{"type":"function","name":"kickoffRoots","inputs":[{"name":"","type":"uint256","internalType":"uint256"}],"outputs":[{"name":"","type":"bytes32","internalType":"bytes32"}],"stateMutability":"view"},{"type":"function","name":"markMaliciousOperator","inputs":[{"name":"proofToKickoffRoot","type":"bytes","internalType":"bytes"},{"name":"kickoff2Tp","type":"tuple","internalType":"struct Bridge.TransactionParams","components":[{"name":"version","type":"bytes4","internalType":"bytes4"},{"name":"flag","type":"bytes2","internalType":"bytes2"},{"name":"vin","type":"bytes","internalType":"bytes"},{"name":"vout","type":"bytes","internalType":"bytes"},{"name":"witness","type":"bytes","internalType":"bytes"},{"name":"locktime","type":"bytes4","internalType":"bytes4"},{"name":"intermediate_nodes","type":"bytes","internalType":"bytes"},{"name":"block_height","type":"uint256","internalType":"uint256"},{"name":"index","type":"uint256","internalType":"uint256"}]},{"name":"inputIndex","type":"uint256","internalType":"uint256"},{"name":"depositId","type":"uint256","internalType":"uint256"},{"name":"operatorId","type":"uint256","internalType":"uint256"},{"name":"kickoff2Address","type":"bytes32","internalType":"bytes32"},{"name":"proofToKickoff2Address","type":"bytes","internalType":"bytes"}],"outputs":[],"stateMutability":"nonpayable"},{"type":"function","name":"operator","inputs":[],"outputs":[{"name":"","type":"address","internalType":"address"}],"stateMutability":"view"},{"type":"function","name":"owner","inputs":[],"outputs":[{"name":"","type":"address","internalType":"address"}],"stateMutability":"view"},{"type":"function","name":"pendingOwner","inputs":[],"outputs":[{"name":"","type":"address","internalType":"address"}],"stateMutability":"view"},{"type":"function","name":"renounceOwnership","inputs":[],"outputs":[],"stateMutability":"nonpayable"},{"type":"function","name":"scriptSuffix","inputs":[],"outputs":[{"name":"","type":"bytes","internalType":"bytes"}],"stateMutability":"view"},{"type":"function","name":"setDepositScript","inputs":[{"name":"_depositScript","type":"bytes","internalType":"bytes"},{"name":"_scriptSuffix","type":"bytes","internalType":"bytes"}],"outputs":[],"stateMutability":"nonpayable"},{"type":"function","name":"setKickoff2AddressRoot","inputs":[{"name":"_kickoff2AddressRoot","type":"bytes32","internalType":"bytes32"}],"outputs":[],"stateMutability":"nonpayable"},{"type":"function","name":"setOperator","inputs":[{"name":"_operator","type":"address","internalType":"address"}],"outputs":[],"stateMutability":"nonpayable"},{"type":"function","name":"spentWtxIds","inputs":[{"name":"","type":"bytes32","internalType":"bytes32"}],"outputs":[{"name":"","type":"bool","internalType":"bool"}],"stateMutability":"view"},{"type":"function","name":"transferOwnership","inputs":[{"name":"newOwner","type":"address","internalType":"address"}],"outputs":[],"stateMutability":"nonpayable"},{"type":"function","name":"withdraw","inputs":[{"name":"txId","type":"bytes32","internalType":"bytes32"},{"name":"outputId","type":"uint32","internalType":"uint32"}],"outputs":[],"stateMutability":"payable"},{"type":"function","name":"withdrawFillers","inputs":[{"name":"","type":"uint256","internalType":"uint256"}],"outputs":[{"name":"","type":"uint256","internalType":"uint256"}],"stateMutability":"view"},{"type":"function","name":"withdrawalUTXOs","inputs":[{"name":"","type":"uint256","internalType":"uint256"}],"outputs":[{"name":"txId","type":"bytes32","internalType":"bytes32"},{"name":"outputId","type":"uint32","internalType":"uint32"}],"stateMutability":"view"},{"type":"event","name":"Deposit","inputs":[{"name":"wtxId","type":"bytes32","indexed":false,"internalType":"bytes32"},{"name":"recipient","type":"address","indexed":false,"internalType":"address"},{"name":"timestamp","type":"uint256","indexed":false,"internalType":"uint256"},{"name":"depositId","type":"uint256","indexed":false,"internalType":"uint256"}],"anonymous":false},{"type":"event","name":"DepositScriptUpdate","inputs":[{"name":"depositScript","type":"bytes","indexed":false,"internalType":"bytes"},{"name":"scriptSuffix","type":"bytes","indexed":false,"internalType":"bytes"}],"anonymous":false},{"type":"event","name":"Initialized","inputs":[{"name":"version","type":"uint64","indexed":false,"internalType":"uint64"}],"anonymous":false},{"type":"event","name":"Kickoff2AddressRootSet","inputs":[{"name":"kickoff2AddressRoot","type":"bytes32","indexed":false,"internalType":"bytes32"}],"anonymous":false},{"type":"event","name":"MaliciousOperatorMarked","inputs":[{"name":"operatorId","type":"uint256","indexed":false,"internalType":"uint256"}],"anonymous":false},{"type":"event","name":"OperatorUpdated","inputs":[{"name":"oldOperator","type":"address","indexed":false,"internalType":"address"},{"name":"newOperator","type":"address","indexed":false,"internalType":"address"}],"anonymous":false},{"type":"event","name":"OwnershipTransferStarted","inputs":[{"name":"previousOwner","type":"address","indexed":true,"internalType":"address"},{"name":"newOwner","type":"address","indexed":true,"internalType":"address"}],"anonymous":false},{"type":"event","name":"OwnershipTransferred","inputs":[{"name":"previousOwner","type":"address","indexed":true,"internalType":"address"},{"name":"newOwner","type":"address","indexed":true,"internalType":"address"}],"anonymous":false},{"type":"event","name":"WithdrawFillerDeclared","inputs":[{"name":"withdrawId","type":"uint256","indexed":false,"internalType":"uint256"},{"name":"withdrawFillerId","type":"uint256","indexed":false,"internalType":"uint256"}],"anonymous":false},{"type":"event","name":"Withdrawal","inputs":[{"name":"utxo","type":"tuple","indexed":false,"internalType":"struct Bridge.UTXO","components":[{"name":"txId","type":"bytes32","internalType":"bytes32"},{"name":"outputId","type":"uint32","internalType":"uint32"}]},{"name":"index","type":"uint256","indexed":false,"internalType":"uint256"},{"name":"timestamp","type":"uint256","indexed":false,"internalType":"uint256"}],"anonymous":false},{"type":"error","name":"InvalidInitialization","inputs":[]},{"type":"error","name":"NotInitializing","inputs":[]},{"type":"error","name":"OwnableInvalidOwner","inputs":[{"name":"owner","type":"address","internalType":"address"}]},{"type":"error","name":"OwnableUnauthorizedAccount","inputs":[{"name":"account","type":"address","internalType":"address"}]}],"bytecode":{"object":"0x6080604052348015600f57600080fd5b506137398061001f6000396000f3fe6080604052600436106101b75760003560e01c80638afbfff8116100ec578063d62239f91161008a578063e30c397811610064578063e30c3978146104cf578063e613ae00146104e4578063f2fde38b146104ff578063f8e655d21461051f57600080fd5b8063d62239f914610474578063d761753e14610487578063dd95c7c6146104af57600080fd5b8063b93780f6116100c6578063b93780f6146103ff578063bafa9eb214610414578063c045577b14610434578063d30db9491461046157600080fd5b80638afbfff8146103aa5780638da5cb5b146103ca578063b3ab15fb146103df57600080fd5b8063570ca7351161015957806374ab4a831161013357806374ab4a831461033e578063781952a81461035e57806379ba50971461037357806387f8bf561461038857600080fd5b8063570ca735146102c15780635e0e5b3e146102f9578063715018a61461032957600080fd5b80631601bb6a116101955780631601bb6a146102315780634126013714610251578063419759f514610271578063471ba1e31461028757600080fd5b806303dc1161146101bc5780630d4a471b146101de578063158ef93e14610207575b600080fd5b3480156101c857600080fd5b506101dc6101d7366004612ebe565b61053f565b005b3480156101ea57600080fd5b506101f460295481565b6040519081526020015b60405180910390f35b34801561021357600080fd5b506000546102219060ff1681565b60405190151581526020016101fe565b34801561023d57600080fd5b506101dc61024c366004612f76565b61085d565b34801561025d57600080fd5b506101dc61026c366004612fd0565b6108a1565b34801561027d57600080fd5b506101f460015481565b34801561029357600080fd5b506102a76102a2366004612f76565b610ace565b6040805192835263ffffffff9091166020830152016101fe565b3480156102cd57600080fd5b506002546102e1906001600160a01b031681565b6040516001600160a01b0390911681526020016101fe565b34801561030557600080fd5b50610221610314366004612f76565b60056020526000908152604090205460ff1681565b34801561033557600080fd5b506101dc610b02565b34801561034a57600080fd5b506101dc610359366004613047565b610b16565b34801561036a57600080fd5b506026546101f4565b34801561037f57600080fd5b506101dc610d55565b34801561039457600080fd5b5061039d610d9d565b6040516101fe91906130b8565b3480156103b657600080fd5b506101f46103c5366004612f76565b610e2b565b3480156103d657600080fd5b506102e1610e4c565b3480156103eb57600080fd5b506101dc6103fa3660046130eb565b610e81565b34801561040b57600080fd5b5061039d610ede565b34801561042057600080fd5b5061022161042f366004612f76565b610eeb565b34801561044057600080fd5b506101f461044f366004612f76565b60286020526000908152604090205481565b6101dc61046f366004613158565b610f16565b6101dc6104823660046131e0565b6110fb565b34801561049357600080fd5b506102e173deaddeaddeaddeaddeaddeaddeaddeaddeaddead81565b3480156104bb57600080fd5b506101dc6104ca36600461320c565b611227565b3480156104db57600080fd5b506102e1611685565b3480156104f057600080fd5b506102e16001603160981b0181565b34801561050b57600080fd5b506101dc61051a3660046130eb565b6116ae565b34801561052b57600080fd5b506101dc61053a366004613240565b611733565b610548866117dd565b50610557826029548386611b44565b6105a85760405162461bcd60e51b815260206004820152601d60248201527f496e76616c6964206b69636b6f666632416464726573732070726f6f6600000060448201526064015b60405180910390fd5b60006105fc6105f76105bd60608a018a6132a3565b8080601f01602080910402602001604051908101604052809392919081815260200183838082843760009201829052509250611b82915050565b611cfa565b90508261060882611d14565b146106555760405162461bcd60e51b815260206004820152601760248201527f496e76616c6964206b69636b6f66663241646472657373000000000000000000604482015260640161059f565b60006106a361066760408a018a6132a3565b8080601f0160208091040260200160405190810160405280939291908181526020018383808284376000920191909152508b9250611d74915050565b905060006106b082611ec7565b905060006106bd83611ed4565b90506000600283836040516020016106e99291909182526001600160e01b031916602082015260240190565b60408051601f1981840301815290829052610703916132e9565b602060405180830381855afa158015610720573d6000803e3d6000fd5b5050506040513d601f19601f820116820180604052508101906107439190613305565b9050600060278a8154811061075a5761075a61331e565b9060005260206000200154905061077382828f8c611b44565b6107af5760405162461bcd60e51b815260206004820152600d60248201526c24b73b30b634b210383937b7b360991b604482015260640161059f565b60008a81526028602052604090205415806107e057506107ce89611ee1565b60008b81526028602052604090205414155b1561081b57600160068a6103e881106107fb576107fb61331e565b602091828204019190066101000a81548160ff0219169083151502179055505b6040518981527ff918cdaebea74c5a8c3b02d7404c162f507551b158202cedcba9b6a74eabdff29060200160405180910390a150505050505050505050505050565b610865611eee565b60298190556040518181527fdf56450935a3769f905a6cc6d2e7ad4fe2e2351b797e5191da9e354dc126c8c0906020015b60405180910390a150565b3373deaddeaddeaddeaddeaddeaddeaddeaddeaddead146109045760405162461bcd60e51b815260206004820152601f60248201527f63616c6c6572206973206e6f74207468652073797374656d2063616c6c657200604482015260640161059f565b60005460ff16156109575760405162461bcd60e51b815260206004820152601f60248201527f436f6e747261637420697320616c726561647920696e697469616c697a656400604482015260640161059f565b806000036109a75760405162461bcd60e51b815260206004820152601a60248201527f4465706f73697420616d6f756e742063616e6e6f742062652030000000000000604482015260640161059f565b60008490036109f85760405162461bcd60e51b815260206004820152601e60248201527f4465706f736974207363726970742063616e6e6f7420626520656d7074790000604482015260640161059f565b6000805460ff191660011790556003610a128587836133b7565b506004610a208385836133b7565b506001819055600280546001600160a01b03191673deaddeaddeaddeaddeaddeaddeaddeaddeaddead908117909155604080516000815260208101929092527ffbe5b6cbafb274f445d7fed869dc77a838d8243a22c460de156560e8857cad03910160405180910390a17f80bd1fdfe157286ce420ee763f91748455b249605748e5df12dad9844402bafc85858585604051610abf949392919061349f565b60405180910390a15050505050565b60268181548110610ade57600080fd5b60009182526020909120600290910201805460019091015490915063ffffffff1682565b610b0a611eee565b610b146000611f20565b565b610b1f836117dd565b506000610b6e610b3260408601866132a3565b8080601f016020809104026020016040519081016040528093929190818152602001838380828437600092019190915250879250611d74915050565b90506000610b7b82611ec7565b90506000610b8883611ed4565b60e01c9050600060268581548110610ba257610ba261331e565b600091825260209182902060408051808201909152600290920201805480835260019091015463ffffffff1692820192909252915083148015610bf457508163ffffffff16816020015163ffffffff16145b610c345760405162461bcd60e51b81526020600482015260116024820152706e6f74206d61746368696e67205554584f60781b604482015260640161059f565b6000610c80610c4660608a018a6132a3565b8080601f016020809104026020016040519081016040528093929190818152602001838380828437600092019190915250611f5c92505050565b915060009050610cdd610c9660608b018b6132a3565b8080601f016020809104026020016040519081016040528093929190818152602001838380828437600092019190915250610cd89250600191508690506134e7565b611b82565b90506000610cf2610ced83611f73565b611d14565b9050610cfd81611ee1565b6000898152602860209081526040918290209290925580518a81529182018390527feedf47c2f61b040827944fd45e44ef6d742354b34e1af7dd99a56f444ec79347910160405180910390a150505050505050505050565b3380610d5f611685565b6001600160a01b031614610d915760405163118cdaa760e01b81526001600160a01b038216600482015260240161059f565b610d9a81611f20565b50565b60048054610daa90613334565b80601f0160208091040260200160405190810160405280929190818152602001828054610dd690613334565b8015610e235780601f10610df857610100808354040283529160200191610e23565b820191906000526020600020905b815481529060010190602001808311610e0657829003601f168201915b505050505081565b60278181548110610e3b57600080fd5b600091825260209091200154905081565b6000807f9016d09d72d40fdae2fd8ceac6b6234c7706214fd39c1cd1e609a0528c1993005b546001600160a01b031692915050565b610e89611eee565b600280546001600160a01b0319166001600160a01b0383169081179091556040805182815260208101929092527ffbe5b6cbafb274f445d7fed869dc77a838d8243a22c460de156560e8857cad039101610896565b60038054610daa90613334565b6006816103e88110610efc57600080fd5b60209182820401919006915054906101000a900460ff1681565b828114610f575760405162461bcd60e51b815260206004820152600f60248201526e098cadccee8d040dad2e6dac2e8c6d608b1b604482015260640161059f565b600154610f659084906134fa565b3414610fad5760405162461bcd60e51b8152602060048201526017602482015276125b9d985b1a59081dda5d1a191c985dc8185b5bdd5b9d604a1b604482015260640161059f565b60265460005b848110156110f35760006040518060400160405280888885818110610fda57610fda61331e565b905060200201358152602001868685818110610ff857610ff861331e565b905060200201602081019061100d9190613511565b63ffffffff9081169091526026805460018101825560009190915282517f744a2cf8fd7008e3d53b67916e73460df9fa5214e3ef23dd4259ca09493a359460029092029182015560208301517f744a2cf8fd7008e3d53b67916e73460df9fa5214e3ef23dd4259ca09493a3595909101805463ffffffff19169190921617905590507fe32f1dd44d4768b5cc8efdffee252f9da4f2cc539a5d1908c2772f181dd363ce816110bb848661352c565b604080518351815260209384015163ffffffff169381019390935282015242606082015260800160405180910390a150600101610fb3565b505050505050565b60015434146111465760405162461bcd60e51b8152602060048201526017602482015276125b9d985b1a59081dda5d1a191c985dc8185b5bdd5b9d604a1b604482015260640161059f565b60408051808201825283815263ffffffff83811660208084019182526026805460018101825560009190915284517f744a2cf8fd7008e3d53b67916e73460df9fa5214e3ef23dd4259ca09493a35946002830290810182905584517f744a2cf8fd7008e3d53b67916e73460df9fa5214e3ef23dd4259ca09493a3595909101805463ffffffff1916918716919091179055865190815292519093169082015292830181905242606084015290917fe32f1dd44d4768b5cc8efdffee252f9da4f2cc539a5d1908c2772f181dd363ce906080015b60405180910390a150505050565b6002546001600160a01b031633146112815760405162461bcd60e51b815260206004820152601a60248201527f63616c6c6572206973206e6f7420746865206f70657261746f72000000000000604482015260640161059f565b600061128c826117dd565b60008181526005602052604090205490915060ff16156112e45760405162461bcd60e51b81526020600482015260136024820152721ddd1e125908185b1c9958591e481cdc195b9d606a1b604482015260640161059f565b6000818152600560205260408120805460ff1916600117905561134761130d60808501856132a3565b8080601f01602080910402602001604051908101604052809392919081815260200183838082843760009201829052509250611ff5915050565b9050600061135482611f5c565b9150508060031461139f5760405162461bcd60e51b8152602060048201526015602482015274496e76616c6964207769746e657373206974656d7360581b604482015260640161059f565b60006113ac8360016120d8565b90506000600380546113bd90613334565b9150600090506113ce838284612258565b905061146481600380546113e190613334565b80601f016020809104026020016040519081016040528092919081815260200182805461140d90613334565b801561145a5780601f1061142f5761010080835404028352916020019161145a565b820191906000526020600020905b81548152906001019060200180831161143d57829003601f168201915b505050505061231b565b6114a95760405162461bcd60e51b8152602060048201526016602482015275125b9d985b1a590819195c1bdcda5d081cd8dc9a5c1d60521b604482015260640161059f565b60006114dd600480546114bb90613334565b86516114c792506134e7565b600480546114d490613334565b87929150612258565b90506114f081600480546113e190613334565b6115345760405162461bcd60e51b8152602060048201526015602482015274092dcecc2d8d2c840e6c6e4d2e0e840e6eaccccd2f605b1b604482015260640161059f565b600061153f856123f2565b9050600061154c86612428565b602780546001818101835560008390527f98a476f1687bc3d60a2da2adbcba2c46958e61fa2fb4042cd7bc5816a710195b90910183905590549192507f6849bd31a1772b1b6992f1f328cce6888b435faff25d13805baee12a8a944bbe918b91859142916115b9916134e7565b604080519485526001600160a01b03909316602085015291830152606082015260800160405180910390a16001546040516000916001600160a01b038516918381818185875af1925050503d8060008114611630576040519150601f19603f3d011682016040523d82523d6000602084013e611635565b606091505b50509050806116785760405162461bcd60e51b815260206004820152600f60248201526e151c985b9cd9995c8819985a5b1959608a1b604482015260640161059f565b5050505050505050505050565b6000807f237e158222e3e6968b72b9db0d8043aacf074ad9f650f0d1606b4d82ee432c00610e71565b6116b6611eee565b7f237e158222e3e6968b72b9db0d8043aacf074ad9f650f0d1606b4d82ee432c0080546001600160a01b0319166001600160a01b03831690811782556116fa610e4c565b6001600160a01b03167f38d16b8cac22d99fc7c124b9cd0de2d3fa1faef420bfe791d8c362d765e2270060405160405180910390a35050565b61173b611eee565b600083900361178c5760405162461bcd60e51b815260206004820152601e60248201527f4465706f736974207363726970742063616e6e6f7420626520656d7074790000604482015260640161059f565b60036117998486836133b7565b5060046117a78284836133b7565b507f80bd1fdfe157286ce420ee763f91748455b249605748e5df12dad9844402bafc84848484604051611219949392919061349f565b60008061183c6117f0602085018561353f565b6118006040860160208701613569565b61180d60408701876132a3565b61181a60608901896132a3565b61182760808b018b6132a3565b61183760c08d0160a08e0161353f565b612457565b905061188861184e60408501856132a3565b8080601f01602080910402602001604051908101604052809392919081815260200183838082843760009201919091525061249f92505050565b6118d45760405162461bcd60e51b815260206004820152601d60248201527f56696e206973206e6f742070726f7065726c7920666f726d6174746564000000604482015260640161059f565b61191e6118e460608501856132a3565b8080601f01602080910402602001604051908101604052809392919081815260200183838082843760009201919091525061254392505050565b61196a5760405162461bcd60e51b815260206004820152601e60248201527f566f7574206973206e6f742070726f7065726c7920666f726d61747465640000604482015260640161059f565b600061197c610c4660408601866132a3565b915050806001146119c85760405162461bcd60e51b815260206004820152601660248201527513db9b1e481bdb99481a5b9c1d5d08185b1b1bddd95960521b604482015260640161059f565b611a146119d860808601866132a3565b8080601f0160208091040260200160405190810160405280939291908181526020018383808284376000920191909152508592506125da915050565b611a6a5760405162461bcd60e51b815260206004820152602160248201527f5769746e657373206973206e6f742070726f7065726c7920666f726d617474656044820152601960fa1b606482015260840161059f565b6001603160981b01634ffd344a60e086013584611a8a60c08901896132a3565b8961010001356040518663ffffffff1660e01b8152600401611ab0959493929190613593565b602060405180830381865afa158015611acd573d6000803e3d6000fd5b505050506040513d601f19601f82011682018060405250810190611af191906135c5565b611b3d5760405162461bcd60e51b815260206004820152601b60248201527f5472616e73616374696f6e206973206e6f7420696e20626c6f636b0000000000604482015260640161059f565b5092915050565b60008385148015611b53575081155b8015611b5e57508251155b15611b6b57506001611b7a565b611b778584868561264f565b90505b949350505050565b6060600080611b9085611f5c565b909250905060018201611bb55760405162461bcd60e51b815260040161059f906135e7565b808410611bf85760405162461bcd60e51b81526020600482015260116024820152702b37baba103932b0b21037bb32b9393ab760791b604482015260640161059f565b600080611c0684600161352c565b905060005b86811015611c8457611c1d88836126f9565b92506000198303611c705760405162461bcd60e51b815260206004820152601a60248201527f42616420566172496e7420696e207363726970745075626b6579000000000000604482015260640161059f565b611c7a838361352c565b9150600101611c0b565b50611c8f87826126f9565b91506000198203611ce25760405162461bcd60e51b815260206004820152601a60248201527f42616420566172496e7420696e207363726970745075626b6579000000000000604482015260640161059f565b611ced878284612258565b9450505050505b92915050565b6060611cf4826008808551611d0f91906134e7565b61275d565b6000808251118015611d2857506020825111155b611d6c5760405162461bcd60e51b8152602060048201526015602482015274092dcecc2d8d2c840e6deeae4c6ca40d8cadccee8d605b1b604482015260640161059f565b506020015190565b6060600080611d8285611f5c565b909250905060018201611da75760405162461bcd60e51b815260040161059f906135e7565b808410611de95760405162461bcd60e51b815260206004820152601060248201526f2b34b7103932b0b21037bb32b9393ab760811b604482015260640161059f565b600080611df784600161352c565b905060005b86811015611e6f57611e0e88836129cc565b92506000198303611e5b5760405162461bcd60e51b815260206004820152601760248201527642616420566172496e7420696e2073637269707453696760481b604482015260640161059f565b611e65838361352c565b9150600101611dfc565b50611e7a87826129cc565b91506000198203611ce25760405162461bcd60e51b815260206004820152601760248201527642616420566172496e7420696e2073637269707453696760481b604482015260640161059f565b6020810151600090611cf4565b6000611cf4826020612a15565b6000611cf482600161352c565b33611ef7610e4c565b6001600160a01b031614610b145760405163118cdaa760e01b815233600482015260240161059f565b7f237e158222e3e6968b72b9db0d8043aacf074ad9f650f0d1606b4d82ee432c0080546001600160a01b0319168155611f5882612a24565b5050565b600080611f6a836000612a95565b91509150915091565b606081600981518110611f8857611f8861331e565b6020910101516001600160f81b031916603560f91b14611fb657505060408051602081019091526000815290565b600082600a81518110611fcb57611fcb61331e565b01602001516001600160f81b031981169150611fee908490600b9060f81c612258565b9392505050565b606060008060005b8481101561206e5761200f8683612c37565b9250600019830361205a5760405162461bcd60e51b815260206004820152601560248201527442616420566172496e7420696e207769746e65737360581b604482015260640161059f565b612064838361352c565b9150600101611ffd565b506120798582612c37565b915060001982036120c45760405162461bcd60e51b815260206004820152601560248201527442616420566172496e7420696e207769746e65737360581b604482015260640161059f565b6120cf858284612258565b95945050505050565b60606000806120e685611f5c565b90925090506001820161210b5760405162461bcd60e51b815260040161059f906135e7565b80841061214d5760405162461bcd60e51b815260206004820152601060248201526f2b34b7103932b0b21037bb32b9393ab760811b604482015260640161059f565b60008061215b84600161352c565b905060005b868110156121e6576121728883612a95565b9095509250600183016121bc5760405162461bcd60e51b815260206004820152601260248201527142616420566172496e7420696e206974656d60701b604482015260640161059f565b826121c886600161352c565b6121d2919061352c565b6121dc908361352c565b9150600101612160565b506121f18782612a95565b90945091506001820161223b5760405162461bcd60e51b815260206004820152601260248201527142616420566172496e7420696e206974656d60701b604482015260640161059f565b611ced81612249868561352c565b61225490600161352c565b8991905b6060816000036122775750604080516020810190915260008152611fee565b6000612283838561352c565b90508381118015612295575080855110155b6122d75760405162461bcd60e51b8152602060048201526013602482015272536c696365206f7574206f6620626f756e647360681b604482015260640161059f565b604051915082604083010160405282825283850182038460208701018481015b80821015612310578151838301526020820191506122f7565b505050509392505050565b81518151600091908114612333576000915050611cf4565b60206000805b8383116123695750508481015184820151602090920191808214612364576000945050505050611cf4565b612339565b60006123766020856134e7565b90505b848110156123e4578681815181106123935761239361331e565b602001015160f81c60f81b6001600160f81b0319168882815181106123ba576123ba61331e565b01602001516001600160f81b031916146123dc57600095505050505050611cf4565b600101612379565b506001979650505050505050565b6000806003805461240290613334565b91506000905061241484836014612258565b61241d90613629565b60601c949350505050565b6000806003805461243890613334565b6124449150601461352c565b90506000611b7a610ced85846020612258565b60006124918a8a8a8a8a8a8a8a8a60405160200161247d9998979695949392919061367c565b604051602081830303815290604052612cd9565b9a9950505050505050505050565b60008060006124ad84611f5c565b90925090508015806124c0575060001982145b156124cf575060009392505050565b60006124dc83600161352c565b905060005b8281101561253657855182106124fd5750600095945050505050565b600061250987846129cc565b90506000198103612521575060009695505050505050565b61252b818461352c565b9250506001016124e1565b5093519093149392505050565b600080600061255184611f5c565b9092509050801580612564575060001982145b15612573575060009392505050565b600061258083600161352c565b905060005b8281101561253657855182106125a15750600095945050505050565b60006125ad87846126f9565b905060001981036125c5575060009695505050505050565b6125cf818461352c565b925050600101612585565b6000816000036125ec57506000611cf4565b6000805b83811015612643578451821061260b57600092505050611cf4565b60006126178684612c37565b9050600019810361262e5760009350505050611cf4565b612638818461352c565b9250506001016125f0565b50835114905092915050565b60006020845161265f91906136e5565b1561266c57506000611b7a565b835160000361267d57506000611b7a565b818560005b86518110156126ec576126966002846136e5565b6001036126ba576126b36126ad8883016020015190565b83612d00565b91506126d3565b6126d0826126cb8984016020015190565b612d00565b91505b60019290921c916126e560208261352c565b9050612682565b5090931495945050505050565b600061270682600961352c565b835110156127175750600019611cf4565b60008061272e8561272986600861352c565b612a95565b9092509050600182016127475760001992505050611cf4565b8061275383600961352c565b6120cf919061352c565b606060008484815181106127735761277361331e565b016020015160f81c905082612789826001613707565b60ff16146127a7575050604080516020810190915260008152611fee565b846127b385600161352c565b815181106127c3576127c361331e565b016020015160f81c6000036128825760028160ff1610156127f4575050604080516020810190915260008152611fee565b60008561280286600261352c565b815181106128125761281261331e565b016020015160f81c9050612827600283613720565b60ff1681141580612845575080602014158015612845575080601414155b15612863576040518060200160405280600081525092505050611fee565b61287961287186600361352c565b879083612258565b92505050611fee565b600061288e8686612a15565b90506001600160e81b03198116621976a960e81b0361293e57856128b386600361352c565b815181106128c3576128c361331e565b60209101015160f81c601414158061290957506128f660026128e5868861352c565b6128ef91906134e7565b8790612a15565b6001600160f01b03191661222b60f21b14155b15612927576040518060200160405280600081525092505050611fee565b61287961293586600461352c565b87906014612258565b6001600160e81b031981166205ea4560ea1b036129b357856001612962868861352c565b61296c91906134e7565b8151811061297c5761297c61331e565b60209101015160f81c6087146129a5576040518060200160405280600081525092505050611fee565b61287961293586600361352c565b5050506040805160208101909152600081529392505050565b60008060006129db8585612d0c565b9092509050600182016129f45760001992505050611cf4565b80612a0083602561352c565b612a0a919061352c565b6120cf90600461352c565b6000611fee8383016020015190565b7f9016d09d72d40fdae2fd8ceac6b6234c7706214fd39c1cd1e609a0528c19930080546001600160a01b031981166001600160a01b03848116918217845560405192169182907f8be0079c531659141344cd1fd0a4f28419497f9722a3daafe3b4186f6b6457e090600090a3505050565b6000806000612aa48585612d4e565b90508060ff16600003612ad9576000858581518110612ac557612ac561331e565b016020015190935060f81c9150612c309050565b83612ae5826001613707565b60ff16612af2919061352c565b85511015612b095760001960009250925050612c30565b60008160ff16600203612b4d57612b42612b2e612b2787600161352c565b8890612a15565b62ffff0060e882901c1660f89190911c1790565b61ffff169050612c26565b8160ff16600403612b9c57612b8f612b69612b2787600161352c565b60d881901c63ff00ff001662ff00ff60e89290921c9190911617601081811b91901c1790565b63ffffffff169050612c26565b8160ff16600803612c2657612c1a612bb8612b2787600161352c565b60c01c64ff000000ff600882811c91821665ff000000ff009390911b92831617601090811b6001600160401b031666ff00ff00ff00ff9290921667ff00ff00ff00ff009093169290921790911c65ffff0000ffff1617602081811c91901b1790565b6001600160401b031690505b60ff909116925090505b9250929050565b6000806000612c468585612a95565b909250905060018201612c5f5760001992505050611cf4565b600080612c6d84600161352c565b905060005b83811015612cce57612c8888612729848a61352c565b909550925060018301612ca45760001995505050505050611cf4565b82612cb086600161352c565b612cba919061352c565b612cc4908361352c565b9150600101612c72565b509695505050505050565b60006020600083516020850160025afa50602060006020600060025afa5050600051919050565b6000611fee8383612dd4565b600080612d1a83602561352c565b84511015612d2f575060001990506000612c30565b600080612d418661272987602461352c565b9097909650945050505050565b6000828281518110612d6257612d6261331e565b016020015160f81c60ff03612d7957506008611cf4565b828281518110612d8b57612d8b61331e565b016020015160f81c60fe03612da257506004611cf4565b828281518110612db457612db461331e565b016020015160f81c60fd03612dcb57506002611cf4565b50600092915050565b60008260005281602052602060006040600060025afa50602060006020600060025afa505060005192915050565b634e487b7160e01b600052604160045260246000fd5b600082601f830112612e2957600080fd5b81356001600160401b03811115612e4257612e42612e02565b604051601f8201601f19908116603f011681016001600160401b0381118282101715612e7057612e70612e02565b604052818152838201602001851015612e8857600080fd5b816020850160208301376000918101602001919091529392505050565b60006101208284031215612eb857600080fd5b50919050565b600080600080600080600060e0888a031215612ed957600080fd5b87356001600160401b03811115612eef57600080fd5b612efb8a828b01612e18565b97505060208801356001600160401b03811115612f1757600080fd5b612f238a828b01612ea5565b96505060408801359450606088013593506080880135925060a0880135915060c08801356001600160401b03811115612f5b57600080fd5b612f678a828b01612e18565b91505092959891949750929550565b600060208284031215612f8857600080fd5b5035919050565b60008083601f840112612fa157600080fd5b5081356001600160401b03811115612fb857600080fd5b602083019150836020828501011115612c3057600080fd5b600080600080600060608688031215612fe857600080fd5b85356001600160401b03811115612ffe57600080fd5b61300a88828901612f8f565b90965094505060208601356001600160401b0381111561302957600080fd5b61303588828901612f8f565b96999598509660400135949350505050565b60008060006060848603121561305c57600080fd5b83356001600160401b0381111561307257600080fd5b61307e86828701612ea5565b9660208601359650604090950135949350505050565b60005b838110156130af578181015183820152602001613097565b50506000910152565b60208152600082518060208401526130d7816040850160208701613094565b601f01601f19169190910160400192915050565b6000602082840312156130fd57600080fd5b81356001600160a01b0381168114611fee57600080fd5b60008083601f84011261312657600080fd5b5081356001600160401b0381111561313d57600080fd5b6020830191508360208260051b8501011115612c3057600080fd5b6000806000806040858703121561316e57600080fd5b84356001600160401b0381111561318457600080fd5b61319087828801613114565b90955093505060208501356001600160401b038111156131af57600080fd5b6131bb87828801613114565b95989497509550505050565b803563ffffffff811681146131db57600080fd5b919050565b600080604083850312156131f357600080fd5b82359150613203602084016131c7565b90509250929050565b60006020828403121561321e57600080fd5b81356001600160401b0381111561323457600080fd5b611b7a84828501612ea5565b6000806000806040858703121561325657600080fd5b84356001600160401b0381111561326c57600080fd5b61327887828801612f8f565b90955093505060208501356001600160401b0381111561329757600080fd5b6131bb87828801612f8f565b6000808335601e198436030181126132ba57600080fd5b8301803591506001600160401b038211156132d457600080fd5b602001915036819003821315612c3057600080fd5b600082516132fb818460208701613094565b9190910192915050565b60006020828403121561331757600080fd5b5051919050565b634e487b7160e01b600052603260045260246000fd5b600181811c9082168061334857607f821691505b602082108103612eb857634e487b7160e01b600052602260045260246000fd5b601f8211156133b257806000526020600020601f840160051c8101602085101561338f5750805b601f840160051c820191505b818110156133af576000815560010161339b565b50505b505050565b6001600160401b038311156133ce576133ce612e02565b6133e2836133dc8354613334565b83613368565b6000601f84116001811461341657600085156133fe5750838201355b600019600387901b1c1916600186901b1783556133af565b600083815260209020601f19861690835b828110156134475786850135825560209485019460019092019101613427565b50868210156134645760001960f88860031b161c19848701351681555b505060018560011b0183555050505050565b81835281816020850137506000828201602090810191909152601f909101601f19169091010190565b6040815260006134b3604083018688613476565b82810360208401526134c6818587613476565b979650505050505050565b634e487b7160e01b600052601160045260246000fd5b81810381811115611cf457611cf46134d1565b8082028115828204841417611cf457611cf46134d1565b60006020828403121561352357600080fd5b611fee826131c7565b80820180821115611cf457611cf46134d1565b60006020828403121561355157600080fd5b81356001600160e01b031981168114611fee57600080fd5b60006020828403121561357b57600080fd5b81356001600160f01b031981168114611fee57600080fd5b8581528460208201526080604082015260006135b3608083018587613476565b90508260608301529695505050505050565b6000602082840312156135d757600080fd5b81518015158114611fee57600080fd5b60208082526022908201527f52656164206f76657272756e20647572696e6720566172496e742070617273696040820152616e6760f01b606082015260800190565b805160208201516bffffffffffffffffffffffff19811691906014821015613675576bffffffffffffffffffffffff196bffffffffffffffffffffffff198360140360031b1b82161692505b5050919050565b6001600160e01b03198a1681526001600160f01b031989166004820152868860068301376000878201600681016000815287898237506000908701600601908152848682376001600160e01b031993909316929093019182525060040198975050505050505050565b60008261370257634e487b7160e01b600052601260045260246000fd5b500690565b60ff8181168382160190811115611cf457611cf46134d1565b60ff8281168282160390811115611cf457611cf46134d156","linkReferences":{}},"methodIdentifiers":{"LIGHT_CLIENT()":"e613ae00","SYSTEM_CALLER()":"d761753e","acceptOwnership()":"79ba5097","batchWithdraw(bytes32[],uint32[])":"d30db949","declareWithdrawFiller((bytes4,bytes2,bytes,bytes,bytes,bytes4,bytes,uint256,uint256),uint256,uint256)":"74ab4a83","deposit((bytes4,bytes2,bytes,bytes,bytes,bytes4,bytes,uint256,uint256))":"dd95c7c6","depositAmount()":"419759f5","depositScript()":"b93780f6","getWithdrawalCount()":"781952a8","initialize(bytes,bytes,uint256)":"41260137","initialized()":"158ef93e","isOperatorMalicious(uint256)":"bafa9eb2","kickoff2AddressRoot()":"0d4a471b","kickoffRoots(uint256)":"8afbfff8","markMaliciousOperator(bytes,(bytes4,bytes2,bytes,bytes,bytes,bytes4,bytes,uint256,uint256),uint256,uint256,uint256,bytes32,bytes)":"03dc1161","operator()":"570ca735","owner()":"8da5cb5b","pendingOwner()":"e30c3978","renounceOwnership()":"715018a6","scriptSuffix()":"87f8bf56","setDepositScript(bytes,bytes)":"f8e655d2","setKickoff2AddressRoot(bytes32)":"1601bb6a","setOperator(address)":"b3ab15fb","spentWtxIds(bytes32)":"5e0e5b3e","transferOwnership(address)":"f2fde38b","withdraw(bytes32,uint32)":"d62239f9","withdrawFillers(uint256)":"c045577b","withdrawalUTXOs(uint256)":"471ba1e3"},"id":46}