{"abi":[{"type":"function","name":"DEPOSIT_AMOUNT","inputs":[],"outputs":[{"name":"","type":"uint256","internalType":"uint256"}],"stateMutability":"view"},{"type":"function","name":"LIGHT_CLIENT","inputs":[],"outputs":[{"name":"","type":"address","internalType":"contract BitcoinLightClient"}],"stateMutability":"view"},{"type":"function","name":"SYSTEM_CALLER","inputs":[],"outputs":[{"name":"","type":"address","internalType":"address"}],"stateMutability":"view"},{"type":"function","name":"acceptOwnership","inputs":[],"outputs":[],"stateMutability":"nonpayable"},{"type":"function","name":"batchWithdraw","inputs":[{"name":"txIds","type":"bytes32[]","internalType":"bytes32[]"},{"name":"outputIds","type":"uint32[]","internalType":"uint32[]"}],"outputs":[],"stateMutability":"payable"},{"type":"function","name":"declareWithdrawFiller","inputs":[{"name":"withdrawTp","type":"tuple","internalType":"struct Bridge.TransactionParams","components":[{"name":"version","type":"bytes4","internalType":"bytes4"},{"name":"flag","type":"bytes2","internalType":"bytes2"},{"name":"vin","type":"bytes","internalType":"bytes"},{"name":"vout","type":"bytes","internalType":"bytes"},{"name":"witness","type":"bytes","internalType":"bytes"},{"name":"locktime","type":"bytes4","internalType":"bytes4"},{"name":"intermediate_nodes","type":"bytes","internalType":"bytes"},{"name":"block_height","type":"uint256","internalType":"uint256"},{"name":"index","type":"uint256","internalType":"uint256"}]},{"name":"inputIndex","type":"uint256","internalType":"uint256"},{"name":"outputIndex","type":"uint256","internalType":"uint256"},{"name":"withdrawId","type":"uint256","internalType":"uint256"}],"outputs":[],"stateMutability":"nonpayable"},{"type":"function","name":"deposit","inputs":[{"name":"revealTp","type":"tuple","internalType":"struct Bridge.TransactionParams","components":[{"name":"version","type":"bytes4","internalType":"bytes4"},{"name":"flag","type":"bytes2","internalType":"bytes2"},{"name":"vin","type":"bytes","internalType":"bytes"},{"name":"vout","type":"bytes","internalType":"bytes"},{"name":"witness","type":"bytes","internalType":"bytes"},{"name":"locktime","type":"bytes4","internalType":"bytes4"},{"name":"intermediate_nodes","type":"bytes","internalType":"bytes"},{"name":"block_height","type":"uint256","internalType":"uint256"},{"name":"index","type":"uint256","internalType":"uint256"}]}],"outputs":[],"stateMutability":"nonpayable"},{"type":"function","name":"depositScript","inputs":[],"outputs":[{"name":"","type":"bytes","internalType":"bytes"}],"stateMutability":"view"},{"type":"function","name":"getWithdrawalCount","inputs":[],"outputs":[{"name":"","type":"uint256","internalType":"uint256"}],"stateMutability":"view"},{"type":"function","name":"initialize","inputs":[{"name":"_depositScript","type":"bytes","internalType":"bytes"},{"name":"_scriptSuffix","type":"bytes","internalType":"bytes"},{"name":"_requiredSigsCount","type":"uint256","internalType":"uint256"}],"outputs":[],"stateMutability":"nonpayable"},{"type":"function","name":"initialized","inputs":[],"outputs":[{"name":"","type":"bool","internalType":"bool"}],"stateMutability":"view"},{"type":"function","name":"isOperatorMalicious","inputs":[{"name":"","type":"uint256","internalType":"uint256"}],"outputs":[{"name":"","type":"bool","internalType":"bool"}],"stateMutability":"view"},{"type":"function","name":"kickoff2AddressRoot","inputs":[],"outputs":[{"name":"","type":"bytes32","internalType":"bytes32"}],"stateMutability":"view"},{"type":"function","name":"kickoffRoots","inputs":[{"name":"","type":"uint256","internalType":"uint256"}],"outputs":[{"name":"","type":"bytes32","internalType":"bytes32"}],"stateMutability":"view"},{"type":"function","name":"markMaliciousOperator","inputs":[{"name":"proofToKickoffRoot","type":"bytes","internalType":"bytes"},{"name":"kickoff2Tp","type":"tuple","internalType":"struct Bridge.TransactionParams","components":[{"name":"version","type":"bytes4","internalType":"bytes4"},{"name":"flag","type":"bytes2","internalType":"bytes2"},{"name":"vin","type":"bytes","internalType":"bytes"},{"name":"vout","type":"bytes","internalType":"bytes"},{"name":"witness","type":"bytes","internalType":"bytes"},{"name":"locktime","type":"bytes4","internalType":"bytes4"},{"name":"intermediate_nodes","type":"bytes","internalType":"bytes"},{"name":"block_height","type":"uint256","internalType":"uint256"},{"name":"index","type":"uint256","internalType":"uint256"}]},{"name":"inputIndex","type":"uint256","internalType":"uint256"},{"name":"depositId","type":"uint256","internalType":"uint256"},{"name":"operatorId","type":"uint256","internalType":"uint256"},{"name":"kickoff2Address","type":"bytes32","internalType":"bytes32"},{"name":"proofToKickoff2Address","type":"bytes","internalType":"bytes"}],"outputs":[],"stateMutability":"nonpayable"},{"type":"function","name":"operator","inputs":[],"outputs":[{"name":"","type":"address","internalType":"address"}],"stateMutability":"view"},{"type":"function","name":"operatorAddresses","inputs":[{"name":"","type":"uint256","internalType":"uint256"}],"outputs":[{"name":"","type":"bytes32","internalType":"bytes32"}],"stateMutability":"view"},{"type":"function","name":"owner","inputs":[],"outputs":[{"name":"","type":"address","internalType":"address"}],"stateMutability":"view"},{"type":"function","name":"pendingOwner","inputs":[],"outputs":[{"name":"","type":"address","internalType":"address"}],"stateMutability":"view"},{"type":"function","name":"renounceOwnership","inputs":[],"outputs":[],"stateMutability":"nonpayable"},{"type":"function","name":"requiredSigsCount","inputs":[],"outputs":[{"name":"","type":"uint256","internalType":"uint256"}],"stateMutability":"view"},{"type":"function","name":"scriptSuffix","inputs":[],"outputs":[{"name":"","type":"bytes","internalType":"bytes"}],"stateMutability":"view"},{"type":"function","name":"setDepositScript","inputs":[{"name":"_depositScript","type":"bytes","internalType":"bytes"},{"name":"_scriptSuffix","type":"bytes","internalType":"bytes"},{"name":"_requiredSigsCount","type":"uint256","internalType":"uint256"}],"outputs":[],"stateMutability":"nonpayable"},{"type":"function","name":"setKickoff2AddressRoot","inputs":[{"name":"_kickoff2AddressRoot","type":"bytes32","internalType":"bytes32"}],"outputs":[],"stateMutability":"nonpayable"},{"type":"function","name":"setOperator","inputs":[{"name":"_operator","type":"address","internalType":"address"}],"outputs":[],"stateMutability":"nonpayable"},{"type":"function","name":"spentWtxIds","inputs":[{"name":"","type":"bytes32","internalType":"bytes32"}],"outputs":[{"name":"","type":"bool","internalType":"bool"}],"stateMutability":"view"},{"type":"function","name":"transferOwnership","inputs":[{"name":"newOwner","type":"address","internalType":"address"}],"outputs":[],"stateMutability":"nonpayable"},{"type":"function","name":"withdraw","inputs":[{"name":"txId","type":"bytes32","internalType":"bytes32"},{"name":"outputId","type":"uint32","internalType":"uint32"}],"outputs":[],"stateMutability":"payable"},{"type":"function","name":"withdrawFillers","inputs":[{"name":"","type":"uint256","internalType":"uint256"}],"outputs":[{"name":"","type":"bytes32","internalType":"bytes32"}],"stateMutability":"view"},{"type":"function","name":"withdrawalUTXOs","inputs":[{"name":"","type":"uint256","internalType":"uint256"}],"outputs":[{"name":"txId","type":"bytes32","internalType":"bytes32"},{"name":"outputId","type":"uint32","internalType":"uint32"}],"stateMutability":"view"},{"type":"event","name":"Deposit","inputs":[{"name":"wtxId","type":"bytes32","indexed":false,"internalType":"bytes32"},{"name":"recipient","type":"address","indexed":false,"internalType":"address"},{"name":"timestamp","type":"uint256","indexed":false,"internalType":"uint256"},{"name":"depositId","type":"uint256","indexed":false,"internalType":"uint256"}],"anonymous":false},{"type":"event","name":"DepositScriptUpdate","inputs":[{"name":"depositScript","type":"bytes","indexed":false,"internalType":"bytes"},{"name":"scriptSuffix","type":"bytes","indexed":false,"internalType":"bytes"},{"name":"requiredSigsCount","type":"uint256","indexed":false,"internalType":"uint256"}],"anonymous":false},{"type":"event","name":"Initialized","inputs":[{"name":"version","type":"uint64","indexed":false,"internalType":"uint64"}],"anonymous":false},{"type":"event","name":"Kickoff2AddressRootSet","inputs":[{"name":"kickoff2AddressRoot","type":"bytes32","indexed":false,"internalType":"bytes32"}],"anonymous":false},{"type":"event","name":"MaliciousOperatorMarked","inputs":[{"name":"operatorId","type":"uint256","indexed":false,"internalType":"uint256"}],"anonymous":false},{"type":"event","name":"OperatorUpdated","inputs":[{"name":"oldOperator","type":"address","indexed":false,"internalType":"address"},{"name":"newOperator","type":"address","indexed":false,"internalType":"address"}],"anonymous":false},{"type":"event","name":"OwnershipTransferStarted","inputs":[{"name":"previousOwner","type":"address","indexed":true,"internalType":"address"},{"name":"newOwner","type":"address","indexed":true,"internalType":"address"}],"anonymous":false},{"type":"event","name":"OwnershipTransferred","inputs":[{"name":"previousOwner","type":"address","indexed":true,"internalType":"address"},{"name":"newOwner","type":"address","indexed":true,"internalType":"address"}],"anonymous":false},{"type":"event","name":"WithdrawFillerDeclared","inputs":[{"name":"withdrawId","type":"uint256","indexed":false,"internalType":"uint256"},{"name":"withdrawFillerId","type":"uint256","indexed":false,"internalType":"uint256"}],"anonymous":false},{"type":"event","name":"Withdrawal","inputs":[{"name":"utxo","type":"tuple","indexed":false,"internalType":"struct Bridge.UTXO","components":[{"name":"txId","type":"bytes32","internalType":"bytes32"},{"name":"outputId","type":"uint32","internalType":"uint32"}]},{"name":"index","type":"uint256","indexed":false,"internalType":"uint256"},{"name":"timestamp","type":"uint256","indexed":false,"internalType":"uint256"}],"anonymous":false},{"type":"error","name":"InvalidInitialization","inputs":[]},{"type":"error","name":"NotInitializing","inputs":[]},{"type":"error","name":"OwnableInvalidOwner","inputs":[{"name":"owner","type":"address","internalType":"address"}]},{"type":"error","name":"OwnableUnauthorizedAccount","inputs":[{"name":"account","type":"address","internalType":"address"}]}],"bytecode":{"object":"0x6080604052348015600f57600080fd5b506137388061001f6000396000f3fe6080604052600436106101cd5760003560e01c80638da5cb5b116100f7578063d30db94911610095578063e30c397811610064578063e30c397814610537578063e613ae001461054c578063ec6925a714610567578063f2fde38b1461058257600080fd5b8063d30db949146104c9578063d62239f9146104dc578063d761753e146104ef578063dd95c7c61461051757600080fd5b8063b3ab15fb116100d1578063b3ab15fb14610447578063b93780f614610467578063bafa9eb21461047c578063c045577b1461049c57600080fd5b80638da5cb5b146103f25780639773ea90146104075780639f963f591461042757600080fd5b8063570ca7351161016f578063781952a81161013e578063781952a81461038657806379ba50971461039b57806387f8bf56146103b05780638afbfff8146103d257600080fd5b8063570ca735146102d75780635e0e5b3e14610314578063715018a6146103445780637792a0351461035957600080fd5b80631601bb6a116101ab5780631601bb6a14610247578063412601371461026757806343e3168714610287578063471ba1e31461029d57600080fd5b806303dc1161146101d25780630d4a471b146101f4578063158ef93e1461021d575b600080fd5b3480156101de57600080fd5b506101f26101ed366004612f50565b6105a2565b005b34801561020057600080fd5b5061020a60295481565b6040519081526020015b60405180910390f35b34801561022957600080fd5b506000546102379060ff1681565b6040519015158152602001610214565b34801561025357600080fd5b506101f2610262366004613008565b610880565b34801561027357600080fd5b506101f2610282366004613062565b6108c4565b34801561029357600080fd5b5061020a60015481565b3480156102a957600080fd5b506102bd6102b8366004613008565b610b03565b6040805192835263ffffffff909116602083015201610214565b3480156102e357600080fd5b506000546102fc9061010090046001600160a01b031681565b6040516001600160a01b039091168152602001610214565b34801561032057600080fd5b5061023761032f366004613008565b60046020526000908152604090205460ff1681565b34801561035057600080fd5b506101f2610b37565b34801561036557600080fd5b5061020a610374366004613008565b60286020526000908152604090205481565b34801561039257600080fd5b5060255461020a565b3480156103a757600080fd5b506101f2610b4b565b3480156103bc57600080fd5b506103c5610b93565b60405161021491906130d9565b3480156103de57600080fd5b5061020a6103ed366004613008565b610c21565b3480156103fe57600080fd5b506102fc610c42565b34801561041357600080fd5b506101f2610422366004613127565b610c77565b34801561043357600080fd5b506101f2610442366004613062565b610e5e565b34801561045357600080fd5b506101f261046236600461317a565b610f60565b34801561047357600080fd5b506103c5610fcb565b34801561048857600080fd5b50610237610497366004613008565b610fd8565b3480156104a857600080fd5b5061020a6104b7366004613008565b60276020526000908152604090205481565b6101f26104d73660046131e7565b611003565b6101f26104ea36600461326f565b6111eb565b3480156104fb57600080fd5b506102fc73deaddeaddeaddeaddeaddeaddeaddeaddeaddead81565b34801561052357600080fd5b506101f261053236600461329b565b61131b565b34801561054357600080fd5b506102fc611794565b34801561055857600080fd5b506102fc6001603160981b0181565b34801561057357600080fd5b5061020a662386f26fc1000081565b34801561058e57600080fd5b506101f261059d36600461317a565b6117bd565b6105ab86611842565b506105ba826029548386611be3565b61060b5760405162461bcd60e51b815260206004820152601d60248201527f496e76616c6964206b69636b6f666632416464726573732070726f6f6600000060448201526064015b60405180910390fd5b600061065f61065a61062060608a018a6132cf565b8080601f01602080910402602001604051908101604052809392919081815260200183838082843760009201829052509250611c21915050565b611d99565b90508261066b82611db3565b146106b85760405162461bcd60e51b815260206004820152601760248201527f496e76616c6964206b69636b6f666632416464726573730000000000000000006044820152606401610602565b60006107066106ca60408a018a6132cf565b8080601f0160208091040260200160405190810160405280939291908181526020018383808284376000920191909152508b9250611e13915050565b9050600061071382611f66565b9050600061072083611f73565b90506000828260405160200161074a9291909182526001600160e01b031916602082015260240190565b604051602081830303815290604052805190602001209050600060268a8154811061077757610777613315565b9060005260206000200154905061079082828f8c611be3565b6107cc5760405162461bcd60e51b815260206004820152600d60248201526c24b73b30b634b210383937b7b360991b6044820152606401610602565b60008a815260276020526040902054158061080357506000898152602860209081526040808320548d845260279092529091205414155b1561083e57600160058a6103e8811061081e5761081e613315565b602091828204019190066101000a81548160ff0219169083151502179055505b6040518981527ff918cdaebea74c5a8c3b02d7404c162f507551b158202cedcba9b6a74eabdff29060200160405180910390a150505050505050505050505050565b610888611f80565b60298190556040518181527fdf56450935a3769f905a6cc6d2e7ad4fe2e2351b797e5191da9e354dc126c8c0906020015b60405180910390a150565b3373deaddeaddeaddeaddeaddeaddeaddeaddeaddead146109275760405162461bcd60e51b815260206004820152601f60248201527f63616c6c6572206973206e6f74207468652073797374656d2063616c6c6572006044820152606401610602565b60005460ff161561097a5760405162461bcd60e51b815260206004820152601f60248201527f436f6e747261637420697320616c726561647920696e697469616c697a6564006044820152606401610602565b806000036109ca5760405162461bcd60e51b815260206004820152601a60248201527f566572696669657220636f756e742063616e6e6f7420626520300000000000006044820152606401610602565b6000849003610a1b5760405162461bcd60e51b815260206004820152601e60248201527f4465706f736974207363726970742063616e6e6f7420626520656d70747900006044820152606401610602565b6000805460ff191660011790556002610a358587836133ae565b506003610a438385836133ae565b50600181905560008054610100600160a81b03191674deaddeaddeaddeaddeaddeaddeaddeaddeaddead001781556040805191825273deaddeaddeaddeaddeaddeaddeaddeaddeaddead60208301527ffbe5b6cbafb274f445d7fed869dc77a838d8243a22c460de156560e8857cad03910160405180910390a17f89ed79f38bee253aee2fb8d52df0d71b4aaf0843800d093a499a55eeca455c348585858585604051610af4959493929190613496565b60405180910390a15050505050565b60258181548110610b1357600080fd5b60009182526020909120600290910201805460019091015490915063ffffffff1682565b610b3f611f80565b610b496000611fb2565b565b3380610b55611794565b6001600160a01b031614610b875760405163118cdaa760e01b81526001600160a01b0382166004820152602401610602565b610b9081611fb2565b50565b60038054610ba09061332b565b80601f0160208091040260200160405190810160405280929190818152602001828054610bcc9061332b565b8015610c195780601f10610bee57610100808354040283529160200191610c19565b820191906000526020600020905b815481529060010190602001808311610bfc57829003601f168201915b505050505081565b60268181548110610c3157600080fd5b600091825260209091200154905081565b6000807f9016d09d72d40fdae2fd8ceac6b6234c7706214fd39c1cd1e609a0528c1993005b546001600160a01b031692915050565b610c8084611842565b506000610ccf610c9360408701876132cf565b8080601f016020809104026020016040519081016040528093929190818152602001838380828437600092019190915250889250611e13915050565b90506000610cdc82611f66565b90506000610ce983611f73565b60e01c9050600060258581548110610d0357610d03613315565b600091825260209182902060408051808201909152600290920201805480835260019091015463ffffffff1692820192909252915083148015610d5557508163ffffffff16816020015163ffffffff16145b610d955760405162461bcd60e51b81526020600482015260116024820152706e6f74206d61746368696e67205554584f60781b6044820152606401610602565b6000610de3610da760608b018b6132cf565b8080601f0160208091040260200160405190810160405280939291908181526020018383808284376000920191909152508b9250611c21915050565b90506000610df8610df383611fee565b611db3565b6000818152602860209081526040808320548b845260278352928190209290925581518a81529081018390529192507feedf47c2f61b040827944fd45e44ef6d742354b34e1af7dd99a56f444ec79347910160405180910390a150505050505050505050565b610e66611f80565b80600003610eb65760405162461bcd60e51b815260206004820152601a60248201527f566572696669657220636f756e742063616e6e6f7420626520300000000000006044820152606401610602565b6000849003610f075760405162461bcd60e51b815260206004820152601e60248201527f4465706f736974207363726970742063616e6e6f7420626520656d70747900006044820152606401610602565b6002610f148587836133ae565b506003610f228385836133ae565b5060018190556040517f89ed79f38bee253aee2fb8d52df0d71b4aaf0843800d093a499a55eeca455c3490610af49087908790879087908790613496565b610f68611f80565b60008054610100600160a81b0319166101006001600160a01b038481168281029390931793849055604080519290940416815260208101919091527ffbe5b6cbafb274f445d7fed869dc77a838d8243a22c460de156560e8857cad0391016108b9565b60028054610ba09061332b565b6005816103e88110610fe957600080fd5b60209182820401919006915054906101000a900460ff1681565b8281146110445760405162461bcd60e51b815260206004820152600f60248201526e098cadccee8d040dad2e6dac2e8c6d608b1b6044820152606401610602565b61105583662386f26fc100006134e6565b341461109d5760405162461bcd60e51b8152602060048201526017602482015276125b9d985b1a59081dda5d1a191c985dc8185b5bdd5b9d604a1b6044820152606401610602565b60255460005b848110156111e357600060405180604001604052808888858181106110ca576110ca613315565b9050602002013581526020018686858181106110e8576110e8613315565b90506020020160208101906110fd91906134fd565b63ffffffff9081169091526025805460018101825560009190915282517f401968ff42a154441da5f6c4c935ac46b8671f0e062baaa62a7545ba53bb6e4c60029092029182015560208301517f401968ff42a154441da5f6c4c935ac46b8671f0e062baaa62a7545ba53bb6e4d909101805463ffffffff19169190921617905590507fe32f1dd44d4768b5cc8efdffee252f9da4f2cc539a5d1908c2772f181dd363ce816111ab8486613518565b604080518351815260209384015163ffffffff169381019390935282015242606082015260800160405180910390a1506001016110a3565b505050505050565b662386f26fc10000341461123b5760405162461bcd60e51b8152602060048201526017602482015276125b9d985b1a59081dda5d1a191c985dc8185b5bdd5b9d604a1b6044820152606401610602565b60408051808201825283815263ffffffff83811660208084019182526025805460018101825560009190915284517f401968ff42a154441da5f6c4c935ac46b8671f0e062baaa62a7545ba53bb6e4c6002830290810182905584517f401968ff42a154441da5f6c4c935ac46b8671f0e062baaa62a7545ba53bb6e4d909101805463ffffffff1916918716919091179055865190815292519093169082015292830181905242606084015290917fe32f1dd44d4768b5cc8efdffee252f9da4f2cc539a5d1908c2772f181dd363ce9060800160405180910390a150505050565b60005461010090046001600160a01b0316331461137a5760405162461bcd60e51b815260206004820152601a60248201527f63616c6c6572206973206e6f7420746865206f70657261746f720000000000006044820152606401610602565b600061138582611842565b60008181526004602052604090205490915060ff16156113dd5760405162461bcd60e51b81526020600482015260136024820152721ddd1e125908185b1c9958591e481cdc195b9d606a1b6044820152606401610602565b6000818152600460205260408120805460ff1916600117905561144061140660808501856132cf565b8080601f01602080910402602001604051908101604052809392919081815260200183838082843760009201829052509250612070915050565b9050600061144d82612153565b915050600154600261145f9190613518565b81146114a55760405162461bcd60e51b8152602060048201526015602482015274496e76616c6964207769746e657373206974656d7360581b6044820152606401610602565b60006114b38360015461216a565b90506000600280546114c49061332b565b9150600090506114d58382846122ea565b905061156b81600280546114e89061332b565b80601f01602080910402602001604051908101604052809291908181526020018280546115149061332b565b80156115615780601f1061153657610100808354040283529160200191611561565b820191906000526020600020905b81548152906001019060200180831161154457829003601f168201915b50505050506123ad565b6115b05760405162461bcd60e51b8152602060048201526016602482015275125b9d985b1a590819195c1bdcda5d081cd8dc9a5c1d60521b6044820152606401610602565b60006115e4600380546115c29061332b565b86516115ce925061352b565b600380546115db9061332b565b879291506122ea565b90506115f781600380546114e89061332b565b61163b5760405162461bcd60e51b8152602060048201526015602482015274092dcecc2d8d2c840e6c6e4d2e0e840e6eaccccd2f605b1b6044820152606401610602565b600061164685612484565b90506000611653866124ba565b602680546001818101835560008390527f744a2cf8fd7008e3d53b67916e73460df9fa5214e3ef23dd4259ca09493a359490910183905590549192507f6849bd31a1772b1b6992f1f328cce6888b435faff25d13805baee12a8a944bbe918b91859142916116c09161352b565b604080519485526001600160a01b03909316602085015291830152606082015260800160405180910390a16000826001600160a01b0316662386f26fc1000060405160006040518083038185875af1925050503d806000811461173f576040519150601f19603f3d011682016040523d82523d6000602084013e611744565b606091505b50509050806117875760405162461bcd60e51b815260206004820152600f60248201526e151c985b9cd9995c8819985a5b1959608a1b6044820152606401610602565b5050505050505050505050565b6000807f237e158222e3e6968b72b9db0d8043aacf074ad9f650f0d1606b4d82ee432c00610c67565b6117c5611f80565b7f237e158222e3e6968b72b9db0d8043aacf074ad9f650f0d1606b4d82ee432c0080546001600160a01b0319166001600160a01b0383169081178255611809610c42565b6001600160a01b03167f38d16b8cac22d99fc7c124b9cd0de2d3fa1faef420bfe791d8c362d765e2270060405160405180910390a35050565b6000806118a1611855602085018561353e565b6118656040860160208701613568565b61187260408701876132cf565b61187f60608901896132cf565b61188c60808b018b6132cf565b61189c60c08d0160a08e0161353e565b6124e9565b90506118ed6118b360408501856132cf565b8080601f01602080910402602001604051908101604052809392919081815260200183838082843760009201919091525061253192505050565b6119395760405162461bcd60e51b815260206004820152601d60248201527f56696e206973206e6f742070726f7065726c7920666f726d61747465640000006044820152606401610602565b61198361194960608501856132cf565b8080601f0160208091040260200160405190810160405280939291908181526020018383808284376000920191909152506125d592505050565b6119cf5760405162461bcd60e51b815260206004820152601e60248201527f566f7574206973206e6f742070726f7065726c7920666f726d617474656400006044820152606401610602565b6000611a1b6119e160408601866132cf565b8080601f01602080910402602001604051908101604052809392919081815260200183838082843760009201919091525061215392505050565b91505080600114611a675760405162461bcd60e51b815260206004820152601660248201527513db9b1e481bdb99481a5b9c1d5d08185b1b1bddd95960521b6044820152606401610602565b611ab3611a7760808601866132cf565b8080601f01602080910402602001604051908101604052809392919081815260200183838082843760009201919091525085925061266c915050565b611b095760405162461bcd60e51b815260206004820152602160248201527f5769746e657373206973206e6f742070726f7065726c7920666f726d617474656044820152601960fa1b6064820152608401610602565b6001603160981b01634ffd344a60e086013584611b2960c08901896132cf565b8961010001356040518663ffffffff1660e01b8152600401611b4f959493929190613592565b602060405180830381865afa158015611b6c573d6000803e3d6000fd5b505050506040513d601f19601f82011682018060405250810190611b9091906135c4565b611bdc5760405162461bcd60e51b815260206004820152601b60248201527f5472616e73616374696f6e206973206e6f7420696e20626c6f636b00000000006044820152606401610602565b5092915050565b60008385148015611bf2575081155b8015611bfd57508251155b15611c0a57506001611c19565b611c16858486856126e1565b90505b949350505050565b6060600080611c2f85612153565b909250905060018201611c545760405162461bcd60e51b8152600401610602906135e6565b808410611c975760405162461bcd60e51b81526020600482015260116024820152702b37baba103932b0b21037bb32b9393ab760791b6044820152606401610602565b600080611ca5846001613518565b905060005b86811015611d2357611cbc888361278b565b92506000198303611d0f5760405162461bcd60e51b815260206004820152601a60248201527f42616420566172496e7420696e207363726970745075626b65790000000000006044820152606401610602565b611d198383613518565b9150600101611caa565b50611d2e878261278b565b91506000198203611d815760405162461bcd60e51b815260206004820152601a60248201527f42616420566172496e7420696e207363726970745075626b65790000000000006044820152606401610602565b611d8c8782846122ea565b9450505050505b92915050565b6060611d93826008808551611dae919061352b565b6127ef565b6000808251118015611dc757506020825111155b611e0b5760405162461bcd60e51b8152602060048201526015602482015274092dcecc2d8d2c840e6deeae4c6ca40d8cadccee8d605b1b6044820152606401610602565b506020015190565b6060600080611e2185612153565b909250905060018201611e465760405162461bcd60e51b8152600401610602906135e6565b808410611e885760405162461bcd60e51b815260206004820152601060248201526f2b34b7103932b0b21037bb32b9393ab760811b6044820152606401610602565b600080611e96846001613518565b905060005b86811015611f0e57611ead8883612a5e565b92506000198303611efa5760405162461bcd60e51b815260206004820152601760248201527642616420566172496e7420696e2073637269707453696760481b6044820152606401610602565b611f048383613518565b9150600101611e9b565b50611f198782612a5e565b91506000198203611d815760405162461bcd60e51b815260206004820152601760248201527642616420566172496e7420696e2073637269707453696760481b6044820152606401610602565b6020810151600090611d93565b6000611d93826020612aa7565b33611f89610c42565b6001600160a01b031614610b495760405163118cdaa760e01b8152336004820152602401610602565b7f237e158222e3e6968b72b9db0d8043aacf074ad9f650f0d1606b4d82ee432c0080546001600160a01b0319168155611fea82612ab6565b5050565b60608160098151811061200357612003613315565b6020910101516001600160f81b031916603560f91b1461203157505060408051602081019091526000815290565b600082600a8151811061204657612046613315565b01602001516001600160f81b031981169150612069908490600b9060f81c6122ea565b9392505050565b606060008060005b848110156120e95761208a8683612b27565b925060001983036120d55760405162461bcd60e51b815260206004820152601560248201527442616420566172496e7420696e207769746e65737360581b6044820152606401610602565b6120df8383613518565b9150600101612078565b506120f48582612b27565b9150600019820361213f5760405162461bcd60e51b815260206004820152601560248201527442616420566172496e7420696e207769746e65737360581b6044820152606401610602565b61214a8582846122ea565b95945050505050565b600080612161836000612bc9565b91509150915091565b606060008061217885612153565b90925090506001820161219d5760405162461bcd60e51b8152600401610602906135e6565b8084106121df5760405162461bcd60e51b815260206004820152601060248201526f2b34b7103932b0b21037bb32b9393ab760811b6044820152606401610602565b6000806121ed846001613518565b905060005b86811015612278576122048883612bc9565b90955092506001830161224e5760405162461bcd60e51b815260206004820152601260248201527142616420566172496e7420696e206974656d60701b6044820152606401610602565b8261225a866001613518565b6122649190613518565b61226e9083613518565b91506001016121f2565b506122838782612bc9565b9094509150600182016122cd5760405162461bcd60e51b815260206004820152601260248201527142616420566172496e7420696e206974656d60701b6044820152606401610602565b611d8c816122db8685613518565b6122e6906001613518565b8991905b6060816000036123095750604080516020810190915260008152612069565b60006123158385613518565b90508381118015612327575080855110155b6123695760405162461bcd60e51b8152602060048201526013602482015272536c696365206f7574206f6620626f756e647360681b6044820152606401610602565b604051915082604083010160405282825283850182038460208701018481015b808210156123a257815183830152602082019150612389565b505050509392505050565b815181516000919081146123c5576000915050611d93565b60206000805b8383116123fb57505084810151848201516020909201918082146123f6576000945050505050611d93565b6123cb565b600061240860208561352b565b90505b848110156124765786818151811061242557612425613315565b602001015160f81c60f81b6001600160f81b03191688828151811061244c5761244c613315565b01602001516001600160f81b0319161461246e57600095505050505050611d93565b60010161240b565b506001979650505050505050565b600080600280546124949061332b565b9150600090506124a6848360146122ea565b6124af90613628565b60601c949350505050565b600080600280546124ca9061332b565b6124d691506014613518565b90506000611c19610df3858460206122ea565b60006125238a8a8a8a8a8a8a8a8a60405160200161250f9998979695949392919061367b565b604051602081830303815290604052612d6b565b9a9950505050505050505050565b600080600061253f84612153565b9092509050801580612552575060001982145b15612561575060009392505050565b600061256e836001613518565b905060005b828110156125c8578551821061258f5750600095945050505050565b600061259b8784612a5e565b905060001981036125b3575060009695505050505050565b6125bd8184613518565b925050600101612573565b5093519093149392505050565b60008060006125e384612153565b90925090508015806125f6575060001982145b15612605575060009392505050565b6000612612836001613518565b905060005b828110156125c857855182106126335750600095945050505050565b600061263f878461278b565b90506000198103612657575060009695505050505050565b6126618184613518565b925050600101612617565b60008160000361267e57506000611d93565b6000805b838110156126d5578451821061269d57600092505050611d93565b60006126a98684612b27565b905060001981036126c05760009350505050611d93565b6126ca8184613518565b925050600101612682565b50835114905092915050565b6000602084516126f191906136e4565b156126fe57506000611c19565b835160000361270f57506000611c19565b818560005b865181101561277e576127286002846136e4565b60010361274c5761274561273f8883016020015190565b83612d92565b9150612765565b6127628261275d8984016020015190565b612d92565b91505b60019290921c91612777602082613518565b9050612714565b5090931495945050505050565b6000612798826009613518565b835110156127a95750600019611d93565b6000806127c0856127bb866008613518565b612bc9565b9092509050600182016127d95760001992505050611d93565b806127e5836009613518565b61214a9190613518565b6060600084848151811061280557612805613315565b016020015160f81c90508261281b826001613706565b60ff1614612839575050604080516020810190915260008152612069565b84612845856001613518565b8151811061285557612855613315565b016020015160f81c6000036129145760028160ff161015612886575050604080516020810190915260008152612069565b600085612894866002613518565b815181106128a4576128a4613315565b016020015160f81c90506128b960028361371f565b60ff16811415806128d75750806020141580156128d7575080601414155b156128f5576040518060200160405280600081525092505050612069565b61290b612903866003613518565b8790836122ea565b92505050612069565b60006129208686612aa7565b90506001600160e81b03198116621976a960e81b036129d05785612945866003613518565b8151811061295557612955613315565b60209101015160f81c601414158061299b575061298860026129778688613518565b612981919061352b565b8790612aa7565b6001600160f01b03191661222b60f21b14155b156129b9576040518060200160405280600081525092505050612069565b61290b6129c7866004613518565b879060146122ea565b6001600160e81b031981166205ea4560ea1b03612a45578560016129f48688613518565b6129fe919061352b565b81518110612a0e57612a0e613315565b60209101015160f81c608714612a37576040518060200160405280600081525092505050612069565b61290b6129c7866003613518565b5050506040805160208101909152600081529392505050565b6000806000612a6d8585612d9e565b909250905060018201612a865760001992505050611d93565b80612a92836025613518565b612a9c9190613518565b61214a906004613518565b60006120698383016020015190565b7f9016d09d72d40fdae2fd8ceac6b6234c7706214fd39c1cd1e609a0528c19930080546001600160a01b031981166001600160a01b03848116918217845560405192169182907f8be0079c531659141344cd1fd0a4f28419497f9722a3daafe3b4186f6b6457e090600090a3505050565b6000806000612b368585612bc9565b909250905060018201612b4f5760001992505050611d93565b600080612b5d846001613518565b905060005b83811015612bbe57612b78886127bb848a613518565b909550925060018301612b945760001995505050505050611d93565b82612ba0866001613518565b612baa9190613518565b612bb49083613518565b9150600101612b62565b509695505050505050565b6000806000612bd88585612de0565b90508060ff16600003612c0d576000858581518110612bf957612bf9613315565b016020015190935060f81c9150612d649050565b83612c19826001613706565b60ff16612c269190613518565b85511015612c3d5760001960009250925050612d64565b60008160ff16600203612c8157612c76612c62612c5b876001613518565b8890612aa7565b62ffff0060e882901c1660f89190911c1790565b61ffff169050612d5a565b8160ff16600403612cd057612cc3612c9d612c5b876001613518565b60d881901c63ff00ff001662ff00ff60e89290921c9190911617601081811b91901c1790565b63ffffffff169050612d5a565b8160ff16600803612d5a57612d4e612cec612c5b876001613518565b60c01c64ff000000ff600882811c91821665ff000000ff009390911b92831617601090811b6001600160401b031666ff00ff00ff00ff9290921667ff00ff00ff00ff009093169290921790911c65ffff0000ffff1617602081811c91901b1790565b6001600160401b031690505b60ff909116925090505b9250929050565b60006020600083516020850160025afa50602060006020600060025afa5050600051919050565b60006120698383612e66565b600080612dac836025613518565b84511015612dc1575060001990506000612d64565b600080612dd3866127bb876024613518565b9097909650945050505050565b6000828281518110612df457612df4613315565b016020015160f81c60ff03612e0b57506008611d93565b828281518110612e1d57612e1d613315565b016020015160f81c60fe03612e3457506004611d93565b828281518110612e4657612e46613315565b016020015160f81c60fd03612e5d57506002611d93565b50600092915050565b60008260005281602052602060006040600060025afa50602060006020600060025afa505060005192915050565b634e487b7160e01b600052604160045260246000fd5b600082601f830112612ebb57600080fd5b81356001600160401b03811115612ed457612ed4612e94565b604051601f8201601f19908116603f011681016001600160401b0381118282101715612f0257612f02612e94565b604052818152838201602001851015612f1a57600080fd5b816020850160208301376000918101602001919091529392505050565b60006101208284031215612f4a57600080fd5b50919050565b600080600080600080600060e0888a031215612f6b57600080fd5b87356001600160401b03811115612f8157600080fd5b612f8d8a828b01612eaa565b97505060208801356001600160401b03811115612fa957600080fd5b612fb58a828b01612f37565b96505060408801359450606088013593506080880135925060a0880135915060c08801356001600160401b03811115612fed57600080fd5b612ff98a828b01612eaa565b91505092959891949750929550565b60006020828403121561301a57600080fd5b5035919050565b60008083601f84011261303357600080fd5b5081356001600160401b0381111561304a57600080fd5b602083019150836020828501011115612d6457600080fd5b60008060008060006060868803121561307a57600080fd5b85356001600160401b0381111561309057600080fd5b61309c88828901613021565b90965094505060208601356001600160401b038111156130bb57600080fd5b6130c788828901613021565b96999598509660400135949350505050565b602081526000825180602084015260005b8181101561310757602081860181015160408684010152016130ea565b506000604082850101526040601f19601f83011684010191505092915050565b6000806000806080858703121561313d57600080fd5b84356001600160401b0381111561315357600080fd5b61315f87828801612f37565b97602087013597506040870135966060013595509350505050565b60006020828403121561318c57600080fd5b81356001600160a01b038116811461206957600080fd5b60008083601f8401126131b557600080fd5b5081356001600160401b038111156131cc57600080fd5b6020830191508360208260051b8501011115612d6457600080fd5b600080600080604085870312156131fd57600080fd5b84356001600160401b0381111561321357600080fd5b61321f878288016131a3565b90955093505060208501356001600160401b0381111561323e57600080fd5b61324a878288016131a3565b95989497509550505050565b803563ffffffff8116811461326a57600080fd5b919050565b6000806040838503121561328257600080fd5b8235915061329260208401613256565b90509250929050565b6000602082840312156132ad57600080fd5b81356001600160401b038111156132c357600080fd5b611c1984828501612f37565b6000808335601e198436030181126132e657600080fd5b8301803591506001600160401b0382111561330057600080fd5b602001915036819003821315612d6457600080fd5b634e487b7160e01b600052603260045260246000fd5b600181811c9082168061333f57607f821691505b602082108103612f4a57634e487b7160e01b600052602260045260246000fd5b601f8211156133a957806000526020600020601f840160051c810160208510156133865750805b601f840160051c820191505b818110156133a65760008155600101613392565b50505b505050565b6001600160401b038311156133c5576133c5612e94565b6133d9836133d3835461332b565b8361335f565b6000601f84116001811461340d57600085156133f55750838201355b600019600387901b1c1916600186901b1783556133a6565b600083815260209020601f19861690835b8281101561343e578685013582556020948501946001909201910161341e565b508682101561345b5760001960f88860031b161c19848701351681555b505060018560011b0183555050505050565b81835281816020850137506000828201602090810191909152601f909101601f19169091010190565b6060815260006134aa60608301878961346d565b82810360208401526134bd81868861346d565b9150508260408301529695505050505050565b634e487b7160e01b600052601160045260246000fd5b8082028115828204841417611d9357611d936134d0565b60006020828403121561350f57600080fd5b61206982613256565b80820180821115611d9357611d936134d0565b81810381811115611d9357611d936134d0565b60006020828403121561355057600080fd5b81356001600160e01b03198116811461206957600080fd5b60006020828403121561357a57600080fd5b81356001600160f01b03198116811461206957600080fd5b8581528460208201526080604082015260006135b260808301858761346d565b90508260608301529695505050505050565b6000602082840312156135d657600080fd5b8151801515811461206957600080fd5b60208082526022908201527f52656164206f76657272756e20647572696e6720566172496e742070617273696040820152616e6760f01b606082015260800190565b805160208201516bffffffffffffffffffffffff19811691906014821015613674576bffffffffffffffffffffffff196bffffffffffffffffffffffff198360140360031b1b82161692505b5050919050565b6001600160e01b03198a1681526001600160f01b031989166004820152868860068301376000878201600681016000815287898237506000908701600601908152848682376001600160e01b031993909316929093019182525060040198975050505050505050565b60008261370157634e487b7160e01b600052601260045260246000fd5b500690565b60ff8181168382160190811115611d9357611d936134d0565b60ff8281168282160390811115611d9357611d936134d056","linkReferences":{}},"methodIdentifiers":{"DEPOSIT_AMOUNT()":"ec6925a7","LIGHT_CLIENT()":"e613ae00","SYSTEM_CALLER()":"d761753e","acceptOwnership()":"79ba5097","batchWithdraw(bytes32[],uint32[])":"d30db949","declareWithdrawFiller((bytes4,bytes2,bytes,bytes,bytes,bytes4,bytes,uint256,uint256),uint256,uint256,uint256)":"9773ea90","deposit((bytes4,bytes2,bytes,bytes,bytes,bytes4,bytes,uint256,uint256))":"dd95c7c6","depositScript()":"b93780f6","getWithdrawalCount()":"781952a8","initialize(bytes,bytes,uint256)":"41260137","initialized()":"158ef93e","isOperatorMalicious(uint256)":"bafa9eb2","kickoff2AddressRoot()":"0d4a471b","kickoffRoots(uint256)":"8afbfff8","markMaliciousOperator(bytes,(bytes4,bytes2,bytes,bytes,bytes,bytes4,bytes,uint256,uint256),uint256,uint256,uint256,bytes32,bytes)":"03dc1161","operator()":"570ca735","operatorAddresses(uint256)":"7792a035","owner()":"8da5cb5b","pendingOwner()":"e30c3978","renounceOwnership()":"715018a6","requiredSigsCount()":"43e31687","scriptSuffix()":"87f8bf56","setDepositScript(bytes,bytes,uint256)":"9f963f59","setKickoff2AddressRoot(bytes32)":"1601bb6a","setOperator(address)":"b3ab15fb","spentWtxIds(bytes32)":"5e0e5b3e","transferOwnership(address)":"f2fde38b","withdraw(bytes32,uint32)":"d62239f9","withdrawFillers(uint256)":"c045577b","withdrawalUTXOs(uint256)":"471ba1e3"},"id":45}