{"abi":[{"type":"function","name":"LIGHT_CLIENT","inputs":[],"outputs":[{"name":"","type":"address","internalType":"contract BitcoinLightClient"}],"stateMutability":"view"},{"type":"function","name":"SYSTEM_CALLER","inputs":[],"outputs":[{"name":"","type":"address","internalType":"address"}],"stateMutability":"view"},{"type":"function","name":"acceptOwnership","inputs":[],"outputs":[],"stateMutability":"nonpayable"},{"type":"function","name":"batchWithdraw","inputs":[{"name":"txIds","type":"bytes32[]","internalType":"bytes32[]"},{"name":"outputIds","type":"bytes4[]","internalType":"bytes4[]"}],"outputs":[],"stateMutability":"payable"},{"type":"function","name":"declareWithdrawFiller","inputs":[{"name":"withdrawTp","type":"tuple","internalType":"struct Bridge.TransactionParams","components":[{"name":"version","type":"bytes4","internalType":"bytes4"},{"name":"flag","type":"bytes2","internalType":"bytes2"},{"name":"vin","type":"bytes","internalType":"bytes"},{"name":"vout","type":"bytes","internalType":"bytes"},{"name":"witness","type":"bytes","internalType":"bytes"},{"name":"locktime","type":"bytes4","internalType":"bytes4"},{"name":"intermediate_nodes","type":"bytes","internalType":"bytes"},{"name":"block_height","type":"uint256","internalType":"uint256"},{"name":"index","type":"uint256","internalType":"uint256"}]},{"name":"inputIndex","type":"uint256","internalType":"uint256"},{"name":"withdrawId","type":"uint256","internalType":"uint256"}],"outputs":[],"stateMutability":"nonpayable"},{"type":"function","name":"deposit","inputs":[{"name":"moveTp","type":"tuple","internalType":"struct Bridge.TransactionParams","components":[{"name":"version","type":"bytes4","internalType":"bytes4"},{"name":"flag","type":"bytes2","internalType":"bytes2"},{"name":"vin","type":"bytes","internalType":"bytes"},{"name":"vout","type":"bytes","internalType":"bytes"},{"name":"witness","type":"bytes","internalType":"bytes"},{"name":"locktime","type":"bytes4","internalType":"bytes4"},{"name":"intermediate_nodes","type":"bytes","internalType":"bytes"},{"name":"block_height","type":"uint256","internalType":"uint256"},{"name":"index","type":"uint256","internalType":"uint256"}]}],"outputs":[],"stateMutability":"nonpayable"},{"type":"function","name":"depositAmount","inputs":[],"outputs":[{"name":"","type":"uint256","internalType":"uint256"}],"stateMutability":"view"},{"type":"function","name":"getWithdrawalCount","inputs":[],"outputs":[{"name":"","type":"uint256","internalType":"uint256"}],"stateMutability":"view"},{"type":"function","name":"initialize","inputs":[{"name":"_scriptPrefix","type":"bytes","internalType":"bytes"},{"name":"_scriptSuffix","type":"bytes","internalType":"bytes"},{"name":"_depositAmount","type":"uint256","internalType":"uint256"}],"outputs":[],"stateMutability":"nonpayable"},{"type":"function","name":"initialized","inputs":[],"outputs":[{"name":"","type":"bool","internalType":"bool"}],"stateMutability":"view"},{"type":"function","name":"isOperatorMalicious","inputs":[{"name":"","type":"uint256","internalType":"uint256"}],"outputs":[{"name":"","type":"bool","internalType":"bool"}],"stateMutability":"view"},{"type":"function","name":"markMaliciousOperator","inputs":[{"name":"slashOrTakeTp","type":"tuple","internalType":"struct Bridge.TransactionParams","components":[{"name":"version","type":"bytes4","internalType":"bytes4"},{"name":"flag","type":"bytes2","internalType":"bytes2"},{"name":"vin","type":"bytes","internalType":"bytes"},{"name":"vout","type":"bytes","internalType":"bytes"},{"name":"witness","type":"bytes","internalType":"bytes"},{"name":"locktime","type":"bytes4","internalType":"bytes4"},{"name":"intermediate_nodes","type":"bytes","internalType":"bytes"},{"name":"block_height","type":"uint256","internalType":"uint256"},{"name":"index","type":"uint256","internalType":"uint256"}]}],"outputs":[],"stateMutability":"nonpayable"},{"type":"function","name":"operator","inputs":[],"outputs":[{"name":"","type":"address","internalType":"address"}],"stateMutability":"view"},{"type":"function","name":"owner","inputs":[],"outputs":[{"name":"","type":"address","internalType":"address"}],"stateMutability":"view"},{"type":"function","name":"pendingOwner","inputs":[],"outputs":[{"name":"","type":"address","internalType":"address"}],"stateMutability":"view"},{"type":"function","name":"renounceOwnership","inputs":[],"outputs":[],"stateMutability":"nonpayable"},{"type":"function","name":"scriptPrefix","inputs":[],"outputs":[{"name":"","type":"bytes","internalType":"bytes"}],"stateMutability":"view"},{"type":"function","name":"scriptSuffix","inputs":[],"outputs":[{"name":"","type":"bytes","internalType":"bytes"}],"stateMutability":"view"},{"type":"function","name":"setDepositScript","inputs":[{"name":"_scriptPrefix","type":"bytes","internalType":"bytes"},{"name":"_scriptSuffix","type":"bytes","internalType":"bytes"}],"outputs":[],"stateMutability":"nonpayable"},{"type":"function","name":"setOperator","inputs":[{"name":"_operator","type":"address","internalType":"address"}],"outputs":[],"stateMutability":"nonpayable"},{"type":"function","name":"setSlashOrTakeScript","inputs":[{"name":"_slashOrTakeScript","type":"bytes","internalType":"bytes"}],"outputs":[],"stateMutability":"nonpayable"},{"type":"function","name":"slashOrTakeScript","inputs":[],"outputs":[{"name":"","type":"bytes","internalType":"bytes"}],"stateMutability":"view"},{"type":"function","name":"transferOwnership","inputs":[{"name":"newOwner","type":"address","internalType":"address"}],"outputs":[],"stateMutability":"nonpayable"},{"type":"function","name":"txIdToDepositId","inputs":[{"name":"","type":"bytes32","internalType":"bytes32"}],"outputs":[{"name":"","type":"uint256","internalType":"uint256"}],"stateMutability":"view"},{"type":"function","name":"withdraw","inputs":[{"name":"txId","type":"bytes32","internalType":"bytes32"},{"name":"outputId","type":"bytes4","internalType":"bytes4"}],"outputs":[],"stateMutability":"payable"},{"type":"function","name":"withdrawFillers","inputs":[{"name":"","type":"uint256","internalType":"uint256"}],"outputs":[{"name":"","type":"uint256","internalType":"uint256"}],"stateMutability":"view"},{"type":"function","name":"withdrawalUTXOs","inputs":[{"name":"","type":"uint256","internalType":"uint256"}],"outputs":[{"name":"txId","type":"bytes32","internalType":"bytes32"},{"name":"outputId","type":"bytes4","internalType":"bytes4"}],"stateMutability":"view"},{"type":"event","name":"Deposit","inputs":[{"name":"wtxId","type":"bytes32","indexed":false,"internalType":"bytes32"},{"name":"txId","type":"bytes32","indexed":false,"internalType":"bytes32"},{"name":"recipient","type":"address","indexed":false,"internalType":"address"},{"name":"timestamp","type":"uint256","indexed":false,"internalType":"uint256"},{"name":"depositId","type":"uint256","indexed":false,"internalType":"uint256"}],"anonymous":false},{"type":"event","name":"DepositScriptUpdate","inputs":[{"name":"scriptPrefix","type":"bytes","indexed":false,"internalType":"bytes"},{"name":"scriptSuffix","type":"bytes","indexed":false,"internalType":"bytes"}],"anonymous":false},{"type":"event","name":"Initialized","inputs":[{"name":"version","type":"uint64","indexed":false,"internalType":"uint64"}],"anonymous":false},{"type":"event","name":"MaliciousOperatorMarked","inputs":[{"name":"operatorId","type":"uint256","indexed":false,"internalType":"uint256"}],"anonymous":false},{"type":"event","name":"OperatorUpdated","inputs":[{"name":"oldOperator","type":"address","indexed":false,"internalType":"address"},{"name":"newOperator","type":"address","indexed":false,"internalType":"address"}],"anonymous":false},{"type":"event","name":"OwnershipTransferStarted","inputs":[{"name":"previousOwner","type":"address","indexed":true,"internalType":"address"},{"name":"newOwner","type":"address","indexed":true,"internalType":"address"}],"anonymous":false},{"type":"event","name":"OwnershipTransferred","inputs":[{"name":"previousOwner","type":"address","indexed":true,"internalType":"address"},{"name":"newOwner","type":"address","indexed":true,"internalType":"address"}],"anonymous":false},{"type":"event","name":"SlashOrTakeScriptUpdate","inputs":[{"name":"slashOrTakeScript","type":"bytes","indexed":false,"internalType":"bytes"}],"anonymous":false},{"type":"event","name":"WithdrawFillerDeclared","inputs":[{"name":"withdrawId","type":"uint256","indexed":false,"internalType":"uint256"},{"name":"withdrawFillerId","type":"uint256","indexed":false,"internalType":"uint256"}],"anonymous":false},{"type":"event","name":"Withdrawal","inputs":[{"name":"utxo","type":"tuple","indexed":false,"internalType":"struct Bridge.UTXO","components":[{"name":"txId","type":"bytes32","internalType":"bytes32"},{"name":"outputId","type":"bytes4","internalType":"bytes4"}]},{"name":"index","type":"uint256","indexed":false,"internalType":"uint256"},{"name":"timestamp","type":"uint256","indexed":false,"internalType":"uint256"}],"anonymous":false},{"type":"error","name":"InvalidInitialization","inputs":[]},{"type":"error","name":"NotInitializing","inputs":[]},{"type":"error","name":"OwnableInvalidOwner","inputs":[{"name":"owner","type":"address","internalType":"address"}]},{"type":"error","name":"OwnableUnauthorizedAccount","inputs":[{"name":"account","type":"address","internalType":"address"}]}],"bytecode":{"object":"0x6080604052348015600f57600080fd5b506132828061001f6000396000f3fe60806040526004361061019c5760003560e01c80638786dba7116100ec578063d761753e1161008a578063e613ae0011610064578063e613ae001461048e578063f119a9bd146104a9578063f2fde38b146104c9578063f8e655d2146104e957600080fd5b8063d761753e14610431578063dd95c7c614610459578063e30c39781461047957600080fd5b8063a41c5cf3116100c6578063a41c5cf3146103af578063b3ab15fb146103c4578063bafa9eb2146103e4578063c045577b1461040457600080fd5b80638786dba71461037257806387f8bf56146103855780638da5cb5b1461039a57600080fd5b8063570ca73511610159578063715018a611610133578063715018a61461031357806374ab4a8314610328578063781952a81461034857806379ba50971461035d57600080fd5b8063570ca735146102945780635d3e3176146102d15780635e3cc740146102f357600080fd5b806311e53a01146101a1578063158ef93e146101e1578063198546231461020b5780634126013714610220578063419759f514610240578063471ba1e314610256575b600080fd5b3480156101ad57600080fd5b506101ce6101bc3660046129ee565b60276020526000908152604090205481565b6040519081526020015b60405180910390f35b3480156101ed57600080fd5b506000546101fb9060ff1681565b60405190151581526020016101d8565b61021e610219366004612a4b565b610509565b005b34801561022c57600080fd5b5061021e61023b366004612afb565b6106e2565b34801561024c57600080fd5b506101ce60215481565b34801561026257600080fd5b506102766102713660046129ee565b6108ef565b604080519283526001600160e01b03199091166020830152016101d8565b3480156102a057600080fd5b506000546102b99061010090046001600160a01b031681565b6040516001600160a01b0390911681526020016101d8565b3480156102dd57600080fd5b506102e6610920565b6040516101d89190612b96565b3480156102ff57600080fd5b5061021e61030e366004612be2565b6109ae565b34801561031f57600080fd5b5061021e610d65565b34801561033457600080fd5b5061021e610343366004612c1e565b610d79565b34801561035457600080fd5b506026546101ce565b34801561036957600080fd5b5061021e610f4c565b61021e610380366004612c88565b610f94565b34801561039157600080fd5b506102e66110bb565b3480156103a657600080fd5b506102b96110c8565b3480156103bb57600080fd5b506102e66110fd565b3480156103d057600080fd5b5061021e6103df366004612cb4565b61110a565b3480156103f057600080fd5b506101fb6103ff3660046129ee565b61117b565b34801561041057600080fd5b506101ce61041f3660046129ee565b60286020526000908152604090205481565b34801561043d57600080fd5b506102b973deaddeaddeaddeaddeaddeaddeaddeaddeaddead81565b34801561046557600080fd5b5061021e610474366004612be2565b6111a6565b34801561048557600080fd5b506102b9611606565b34801561049a57600080fd5b506102b96001603160981b0181565b3480156104b557600080fd5b5061021e6104c4366004612cdd565b61162f565b3480156104d557600080fd5b5061021e6104e4366004612cb4565b6116a3565b3480156104f557600080fd5b5061021e610504366004612d1e565b611728565b82811461054f5760405162461bcd60e51b815260206004820152600f60248201526e098cadccee8d040dad2e6dac2e8c6d608b1b60448201526064015b60405180910390fd5b60215461055d908490612d97565b34146105a55760405162461bcd60e51b8152602060048201526017602482015276125b9d985b1a59081dda5d1a191c985dc8185b5bdd5b9d604a1b6044820152606401610546565b60265460005b848110156106da57600060405180604001604052808888858181106105d2576105d2612dae565b9050602002013581526020018686858181106105f0576105f0612dae565b90506020020160208101906106059190612dc4565b6001600160e01b03191690526026805460018101825560009190915281517f744a2cf8fd7008e3d53b67916e73460df9fa5214e3ef23dd4259ca09493a359460029092029182015560208201517f744a2cf8fd7008e3d53b67916e73460df9fa5214e3ef23dd4259ca09493a3595909101805463ffffffff191660e09290921c91909117905590507f3311a04a346a103ac115cca33028a2bc82f1964805860d0d3fc84a2772496ada816106b98486612ddf565b426040516106c993929190612df2565b60405180910390a1506001016105ab565b505050505050565b3373deaddeaddeaddeaddeaddeaddeaddeaddeaddead146107455760405162461bcd60e51b815260206004820152601f60248201527f63616c6c6572206973206e6f74207468652073797374656d2063616c6c6572006044820152606401610546565b60005460ff16156107985760405162461bcd60e51b815260206004820152601f60248201527f436f6e747261637420697320616c726561647920696e697469616c697a6564006044820152606401610546565b806000036107e85760405162461bcd60e51b815260206004820152601a60248201527f4465706f73697420616d6f756e742063616e6e6f7420626520300000000000006044820152606401610546565b60008490036108095760405162461bcd60e51b815260040161054690612e20565b6000805460ff191660011790556023610823858783612ef0565b506024610831838583612ef0565b50602181905560008054610100600160a81b03191674deaddeaddeaddeaddeaddeaddeaddeaddeaddead001781556040805191825273deaddeaddeaddeaddeaddeaddeaddeaddeaddead60208301527ffbe5b6cbafb274f445d7fed869dc77a838d8243a22c460de156560e8857cad03910160405180910390a17f80bd1fdfe157286ce420ee763f91748455b249605748e5df12dad9844402bafc858585856040516108e09493929190612fd8565b60405180910390a15050505050565b602681815481106108ff57600080fd5b60009182526020909120600290910201805460019091015490915060e01b82565b6025805461092d90612e6d565b80601f016020809104026020016040519081016040528092919081815260200182805461095990612e6d565b80156109a65780601f1061097b576101008083540402835291602001916109a6565b820191906000526020600020905b81548152906001019060200180831161098957829003601f168201915b505050505081565b6109b7816117a2565b5060009050610a066109cc606084018461300a565b8080601f016020809104026020016040519081016040528093929190818152602001838380828437600092019190915250611ac592505050565b915060009050610a63610a1c606085018561300a565b8080601f016020809104026020016040519081016040528093929190818152602001838380828437600092019190915250610a5e925060019150869050613050565b611adc565b90506000610a7082611c54565b90506000610a88610a8383836020611cd6565b611d99565b90506000610aa9610a836020808651610aa19190613050565b869190611cd6565b600083815260276020526040812054919250819003610b015760405162461bcd60e51b815260206004820152601460248201527311195c1bdcda5d08191bc81b9bdd08195e1a5cdd60621b6044820152606401610546565b6000610b4d610b1360808a018a61300a565b8080601f01602080910402602001604051908101604052809392919081815260200183838082843760009201829052509250611e1e915050565b90506000610b5c826001611f01565b9050600060258054610b6d90612e6d565b915060009050610b7e838284611cd6565b9050610c148160258054610b9190612e6d565b80601f0160208091040260200160405190810160405280929190818152602001828054610bbd90612e6d565b8015610c0a5780601f10610bdf57610100808354040283529160200191610c0a565b820191906000526020600020905b815481529060010190602001808311610bed57829003601f168201915b5050505050612085565b610c605760405162461bcd60e51b815260206004820152601a60248201527f496e76616c696420736c6173684f7254616b65207363726970740000000000006044820152606401610546565b6000602881610c70600189613050565b815260200190815260200160002054905060008160001480610c9a5750610c968861215c565b8214155b905080610ce95760405162461bcd60e51b815260206004820152601960248201527f4f70657261746f72206973206e6f74206d616c6963696f7573000000000000006044820152606401610546565b600180896103e88110610cfe57610cfe612dae565b602091828204019190066101000a81548160ff0219169083151502179055507ff918cdaebea74c5a8c3b02d7404c162f507551b158202cedcba9b6a74eabdff288604051610d4e91815260200190565b60405180910390a150505050505050505050505050565b610d6d612169565b610d77600061219b565b565b610d82836117a2565b5060009050610dd3610d97604086018661300a565b8080601f0160208091040260200160405190810160405280939291908181526020018383808284376000920191909152508792506121d7915050565b90506000610de08261232a565b90506000610ded83612337565b9050600060268581548110610e0457610e04612dae565b60009182526020918290206040805180820190915260029290920201805480835260019091015460e01b6001600160e01b03191692820192909252915083148015610e665750816001600160e01b03191681602001516001600160e01b031916145b610ea65760405162461bcd60e51b81526020600482015260116024820152706e6f74206d61746368696e67205554584f60781b6044820152606401610546565b6000610eb86109cc60608a018a61300a565b915060009050610ece610a1c60608b018b61300a565b90506000610edb82611c54565b90506000610ee882611d99565b9050610ef38161215c565b60008a8152602860209081526040918290209290925580518b81529182018390527feedf47c2f61b040827944fd45e44ef6d742354b34e1af7dd99a56f444ec79347910160405180910390a15050505050505050505050565b3380610f56611606565b6001600160a01b031614610f885760405163118cdaa760e01b81526001600160a01b0382166004820152602401610546565b610f918161219b565b50565b6021543414610fdf5760405162461bcd60e51b8152602060048201526017602482015276125b9d985b1a59081dda5d1a191c985dc8185b5bdd5b9d604a1b6044820152606401610546565b6040805180820182528381526001600160e01b03198316602082019081526026805460018101825560009190915282517f744a2cf8fd7008e3d53b67916e73460df9fa5214e3ef23dd4259ca09493a3594600283029081019190915591517f744a2cf8fd7008e3d53b67916e73460df9fa5214e3ef23dd4259ca09493a3595909201805463ffffffff191660e09390931c9290921790915591519091907f3311a04a346a103ac115cca33028a2bc82f1964805860d0d3fc84a2772496ada906110ad90849084904290612df2565b60405180910390a150505050565b6024805461092d90612e6d565b6000807f9016d09d72d40fdae2fd8ceac6b6234c7706214fd39c1cd1e609a0528c1993005b546001600160a01b031692915050565b6023805461092d90612e6d565b611112612169565b60008054610100600160a81b0319166101006001600160a01b038481168281029390931793849055604080519290940416815260208101919091527ffbe5b6cbafb274f445d7fed869dc77a838d8243a22c460de156560e8857cad03910160405180910390a150565b6001816103e8811061118c57600080fd5b60209182820401919006915054906101000a900460ff1681565b60005461010090046001600160a01b031633146112055760405162461bcd60e51b815260206004820152601a60248201527f63616c6c6572206973206e6f7420746865206f70657261746f720000000000006044820152606401610546565b600080611211836117a2565b915091508060011461125e5760405162461bcd60e51b815260206004820152601660248201527513db9b1e481bdb99481a5b9c1d5d08185b1b1bddd95960521b6044820152606401610546565b60006113096112706020860186612dc4565b61127d604087018761300a565b8080601f0160208091040260200160405190810160405280939291908181526020018383808284376000920191909152506112bf92505050606088018861300a565b8080601f0160208091040260200160405190810160405280939291908181526020018383808284376000920191909152506113049250505060c0890160a08a01612dc4565b612344565b6000818152602760205260409020549091501561135d5760405162461bcd60e51b81526020600482015260126024820152711d1e125908185b1c9958591e481cdc195b9d60721b6044820152606401610546565b60226000815461136c90613063565b9182905550600082815260276020526040812091909155611393610b13608087018761300a565b905060006113a082611ac5565b915050806003146113eb5760405162461bcd60e51b8152602060048201526015602482015274496e76616c6964207769746e657373206974656d7360581b6044820152606401610546565b60006113f8836001611f01565b905060006023805461140990612e6d565b91506000905061141a838284611cd6565b905061142d8160238054610b9190612e6d565b6114725760405162461bcd60e51b8152602060048201526016602482015275125b9d985b1a590819195c1bdcda5d081cd8dc9a5c1d60521b6044820152606401610546565b60006114a66024805461148490612e6d565b86516114909250613050565b6024805461149d90612e6d565b87929150611cd6565b90506114b98160248054610b9190612e6d565b6114fd5760405162461bcd60e51b8152602060048201526015602482015274092dcecc2d8d2c840e6c6e4d2e0e840e6eaccccd2f605b1b6044820152606401610546565b600061150885612374565b602254604080518d8152602081018c90526001600160a01b038416818301524260608201526080810192909252519192507fa82453ca34121b3ecb910d957824e27c5dc6465315949facd15fb72886490058919081900360a00190a16021546040516000916001600160a01b038416918381818185875af1925050503d80600081146115b0576040519150601f19603f3d011682016040523d82523d6000602084013e6115b5565b606091505b50509050806115f85760405162461bcd60e51b815260206004820152600f60248201526e151c985b9cd9995c8819985a5b1959608a1b6044820152606401610546565b505050505050505050505050565b6000807f237e158222e3e6968b72b9db0d8043aacf074ad9f650f0d1606b4d82ee432c006110ed565b611637612169565b60008190036116585760405162461bcd60e51b815260040161054690612e20565b6025611665828483612ef0565b507f8578c80bdea3ff51431011ed88db9cb415de2cf64f9ed5e7137288268cbdeb2c828260405161169792919061307c565b60405180910390a15050565b6116ab612169565b7f237e158222e3e6968b72b9db0d8043aacf074ad9f650f0d1606b4d82ee432c0080546001600160a01b0319166001600160a01b03831690811782556116ef6110c8565b6001600160a01b03167f38d16b8cac22d99fc7c124b9cd0de2d3fa1faef420bfe791d8c362d765e2270060405160405180910390a35050565b611730612169565b60008390036117515760405162461bcd60e51b815260040161054690612e20565b602361175e848683612ef0565b50602461176c828483612ef0565b507f80bd1fdfe157286ce420ee763f91748455b249605748e5df12dad9844402bafc848484846040516110ad9493929190612fd8565b600080806118026117b66020860186612dc4565b6117c66040870160208801613090565b6117d3604088018861300a565b6117e060608a018a61300a565b6117ed60808c018c61300a565b6117fd60c08e0160a08f01612dc4565b6123aa565b905061184e611814604086018661300a565b8080601f0160208091040260200160405190810160405280939291908181526020018383808284376000920191909152506123de92505050565b61189a5760405162461bcd60e51b815260206004820152601d60248201527f56696e206973206e6f742070726f7065726c7920666f726d61747465640000006044820152606401610546565b6118e46118aa606086018661300a565b8080601f01602080910402602001604051908101604052809392919081815260200183838082843760009201919091525061248292505050565b6119305760405162461bcd60e51b815260206004820152601e60248201527f566f7574206973206e6f742070726f7065726c7920666f726d617474656400006044820152606401610546565b60006119426109cc604087018761300a565b91506119929050611956608087018761300a565b8080601f016020809104026020016040519081016040528093929190818152602001838380828437600092019190915250859250612519915050565b6119e85760405162461bcd60e51b815260206004820152602160248201527f5769746e657373206973206e6f742070726f7065726c7920666f726d617474656044820152601960fa1b6064820152608401610546565b6001603160981b01634ffd344a60e087013584611a0860c08a018a61300a565b8a61010001356040518663ffffffff1660e01b8152600401611a2e9594939291906130ba565b602060405180830381865afa158015611a4b573d6000803e3d6000fd5b505050506040513d601f19601f82011682018060405250810190611a6f91906130ec565b611abb5760405162461bcd60e51b815260206004820152601b60248201527f5472616e73616374696f6e206973206e6f7420696e20626c6f636b00000000006044820152606401610546565b9094909350915050565b600080611ad383600061258e565b91509150915091565b6060600080611aea85611ac5565b909250905060018201611b0f5760405162461bcd60e51b81526004016105469061310e565b808410611b525760405162461bcd60e51b81526020600482015260116024820152702b37baba103932b0b21037bb32b9393ab760791b6044820152606401610546565b600080611b60846001612ddf565b905060005b86811015611bde57611b778883612730565b92506000198303611bca5760405162461bcd60e51b815260206004820152601a60248201527f42616420566172496e7420696e207363726970745075626b65790000000000006044820152606401610546565b611bd48383612ddf565b9150600101611b65565b50611be98782612730565b91506000198203611c3c5760405162461bcd60e51b815260206004820152601a60248201527f42616420566172496e7420696e207363726970745075626b65790000000000006044820152606401610546565b611c47878284611cd6565b9450505050505b92915050565b606081600981518110611c6957611c69612dae565b6020910101516001600160f81b031916603560f91b14611c9757505060408051602081019091526000815290565b600082600a81518110611cac57611cac612dae565b01602001516001600160f81b031981169150611ccf908490600b9060f81c611cd6565b9392505050565b606081600003611cf55750604080516020810190915260008152611ccf565b6000611d018385612ddf565b90508381118015611d13575080855110155b611d555760405162461bcd60e51b8152602060048201526013602482015272536c696365206f7574206f6620626f756e647360681b6044820152606401610546565b604051915082604083010160405282825283850182038460208701018481015b80821015611d8e57815183830152602082019150611d75565b505050509392505050565b60008151600003611dac57506000919050565b81516020811115611e0a5760405162461bcd60e51b815260206004820152602260248201527f42797465732063616e6e6f74206265206d6f7265207468616e20333220627974604482015261657360f01b6064820152608401610546565b60209283015192036008029190911c919050565b606060008060005b84811015611e9757611e388683612794565b92506000198303611e835760405162461bcd60e51b815260206004820152601560248201527442616420566172496e7420696e207769746e65737360581b6044820152606401610546565b611e8d8383612ddf565b9150600101611e26565b50611ea28582612794565b91506000198203611eed5760405162461bcd60e51b815260206004820152601560248201527442616420566172496e7420696e207769746e65737360581b6044820152606401610546565b611ef8858284611cd6565b95945050505050565b6060600080611f0f85611ac5565b909250905060018201611f345760405162461bcd60e51b81526004016105469061310e565b808410611f765760405162461bcd60e51b815260206004820152601060248201526f2b34b7103932b0b21037bb32b9393ab760811b6044820152606401610546565b600080611f84846001612ddf565b905060005b8681101561200f57611f9b888361258e565b909550925060018301611fe55760405162461bcd60e51b815260206004820152601260248201527142616420566172496e7420696e206974656d60701b6044820152606401610546565b82611ff1866001612ddf565b611ffb9190612ddf565b6120059083612ddf565b9150600101611f89565b5061201a878261258e565b9094509150600182016120645760405162461bcd60e51b815260206004820152601260248201527142616420566172496e7420696e206974656d60701b6044820152606401610546565b611c47816120728685612ddf565b61207d906001612ddf565b899190611cd6565b8151815160009190811461209d576000915050611c4e565b60206000805b8383116120d357505084810151848201516020909201918082146120ce576000945050505050611c4e565b6120a3565b60006120e0602085613050565b90505b8481101561214e578681815181106120fd576120fd612dae565b602001015160f81c60f81b6001600160f81b03191688828151811061212457612124612dae565b01602001516001600160f81b0319161461214657600095505050505050611c4e565b6001016120e3565b506001979650505050505050565b6000611c4e826001612ddf565b336121726110c8565b6001600160a01b031614610d775760405163118cdaa760e01b8152336004820152602401610546565b7f237e158222e3e6968b72b9db0d8043aacf074ad9f650f0d1606b4d82ee432c0080546001600160a01b03191681556121d382612836565b5050565b60606000806121e585611ac5565b90925090506001820161220a5760405162461bcd60e51b81526004016105469061310e565b80841061224c5760405162461bcd60e51b815260206004820152601060248201526f2b34b7103932b0b21037bb32b9393ab760811b6044820152606401610546565b60008061225a846001612ddf565b905060005b868110156122d25761227188836128a7565b925060001983036122be5760405162461bcd60e51b815260206004820152601760248201527642616420566172496e7420696e2073637269707453696760481b6044820152606401610546565b6122c88383612ddf565b915060010161225f565b506122dd87826128a7565b91506000198203611c3c5760405162461bcd60e51b815260206004820152601760248201527642616420566172496e7420696e2073637269707453696760481b6044820152606401610546565b6020810151600090611c4e565b6000611c4e8260206128f0565b6000611ef8858585856040516020016123609493929190613150565b6040516020818303038152906040526128ff565b6000806023805461238490612e6d565b91506000905061239684836014611cd6565b61239f906131ad565b60601c949350505050565b60006123d08a8a8a8a8a8a8a8a8a60405160200161236099989796959493929190613200565b9a9950505050505050505050565b60008060006123ec84611ac5565b90925090508015806123ff575060001982145b1561240e575060009392505050565b600061241b836001612ddf565b905060005b82811015612475578551821061243c5750600095945050505050565b600061244887846128a7565b90506000198103612460575060009695505050505050565b61246a8184612ddf565b925050600101612420565b5093519093149392505050565b600080600061249084611ac5565b90925090508015806124a3575060001982145b156124b2575060009392505050565b60006124bf836001612ddf565b905060005b8281101561247557855182106124e05750600095945050505050565b60006124ec8784612730565b90506000198103612504575060009695505050505050565b61250e8184612ddf565b9250506001016124c4565b60008160000361252b57506000611c4e565b6000805b83811015612582578451821061254a57600092505050611c4e565b60006125568684612794565b9050600019810361256d5760009350505050611c4e565b6125778184612ddf565b92505060010161252f565b50835114905092915050565b600080600061259d8585612926565b90508060ff166000036125d25760008585815181106125be576125be612dae565b016020015190935060f81c91506127299050565b836125de826001613269565b60ff166125eb9190612ddf565b855110156126025760001960009250925050612729565b60008160ff166002036126465761263b612627612620876001612ddf565b88906128f0565b62ffff0060e882901c1660f89190911c1790565b61ffff16905061271f565b8160ff1660040361269557612688612662612620876001612ddf565b60d881901c63ff00ff001662ff00ff60e89290921c9190911617601081811b91901c1790565b63ffffffff16905061271f565b8160ff1660080361271f576127136126b1612620876001612ddf565b60c01c64ff000000ff600882811c91821665ff000000ff009390911b92831617601090811b6001600160401b031666ff00ff00ff00ff9290921667ff00ff00ff00ff009093169290921790911c65ffff0000ffff1617602081811c91901b1790565b6001600160401b031690505b60ff909116925090505b9250929050565b600061273d826009612ddf565b8351101561274e5750600019611c4e565b60008061276585612760866008612ddf565b61258e565b90925090506001820161277e5760001992505050611c4e565b8061278a836009612ddf565b611ef89190612ddf565b60008060006127a3858561258e565b9092509050600182016127bc5760001992505050611c4e565b6000806127ca846001612ddf565b905060005b8381101561282b576127e588612760848a612ddf565b9095509250600183016128015760001995505050505050611c4e565b8261280d866001612ddf565b6128179190612ddf565b6128219083612ddf565b91506001016127cf565b509695505050505050565b7f9016d09d72d40fdae2fd8ceac6b6234c7706214fd39c1cd1e609a0528c19930080546001600160a01b031981166001600160a01b03848116918217845560405192169182907f8be0079c531659141344cd1fd0a4f28419497f9722a3daafe3b4186f6b6457e090600090a3505050565b60008060006128b685856129ac565b9092509050600182016128cf5760001992505050611c4e565b806128db836025612ddf565b6128e59190612ddf565b611ef8906004612ddf565b6000611ccf8383016020015190565b60006020600083516020850160025afa50602060006020600060025afa5050600051919050565b600082828151811061293a5761293a612dae565b016020015160f81c60ff0361295157506008611c4e565b82828151811061296357612963612dae565b016020015160f81c60fe0361297a57506004611c4e565b82828151811061298c5761298c612dae565b016020015160f81c60fd036129a357506002611c4e565b50600092915050565b6000806129ba836025612ddf565b845110156129cf575060001990506000612729565b6000806129e186612760876024612ddf565b9097909650945050505050565b600060208284031215612a0057600080fd5b5035919050565b60008083601f840112612a1957600080fd5b5081356001600160401b03811115612a3057600080fd5b6020830191508360208260051b850101111561272957600080fd5b60008060008060408587031215612a6157600080fd5b84356001600160401b03811115612a7757600080fd5b612a8387828801612a07565b90955093505060208501356001600160401b03811115612aa257600080fd5b612aae87828801612a07565b95989497509550505050565b60008083601f840112612acc57600080fd5b5081356001600160401b03811115612ae357600080fd5b60208301915083602082850101111561272957600080fd5b600080600080600060608688031215612b1357600080fd5b85356001600160401b03811115612b2957600080fd5b612b3588828901612aba565b90965094505060208601356001600160401b03811115612b5457600080fd5b612b6088828901612aba565b96999598509660400135949350505050565b60005b83811015612b8d578181015183820152602001612b75565b50506000910152565b6020815260008251806020840152612bb5816040850160208701612b72565b601f01601f19169190910160400192915050565b60006101208284031215612bdc57600080fd5b50919050565b600060208284031215612bf457600080fd5b81356001600160401b03811115612c0a57600080fd5b612c1684828501612bc9565b949350505050565b600080600060608486031215612c3357600080fd5b83356001600160401b03811115612c4957600080fd5b612c5586828701612bc9565b9660208601359650604090950135949350505050565b80356001600160e01b031981168114612c8357600080fd5b919050565b60008060408385031215612c9b57600080fd5b82359150612cab60208401612c6b565b90509250929050565b600060208284031215612cc657600080fd5b81356001600160a01b0381168114611ccf57600080fd5b60008060208385031215612cf057600080fd5b82356001600160401b03811115612d0657600080fd5b612d1285828601612aba565b90969095509350505050565b60008060008060408587031215612d3457600080fd5b84356001600160401b03811115612d4a57600080fd5b612d5687828801612aba565b90955093505060208501356001600160401b03811115612d7557600080fd5b612aae87828801612aba565b634e487b7160e01b600052601160045260246000fd5b8082028115828204841417611c4e57611c4e612d81565b634e487b7160e01b600052603260045260246000fd5b600060208284031215612dd657600080fd5b611ccf82612c6b565b80820180821115611c4e57611c4e612d81565b835181526020938401516001600160e01b031916938101939093526040830191909152606082015260800190565b6020808252601e908201527f4465706f736974207363726970742063616e6e6f7420626520656d7074790000604082015260600190565b634e487b7160e01b600052604160045260246000fd5b600181811c90821680612e8157607f821691505b602082108103612bdc57634e487b7160e01b600052602260045260246000fd5b601f821115612eeb57806000526020600020601f840160051c81016020851015612ec85750805b601f840160051c820191505b81811015612ee85760008155600101612ed4565b50505b505050565b6001600160401b03831115612f0757612f07612e57565b612f1b83612f158354612e6d565b83612ea1565b6000601f841160018114612f4f5760008515612f375750838201355b600019600387901b1c1916600186901b178355612ee8565b600083815260209020601f19861690835b82811015612f805786850135825560209485019460019092019101612f60565b5086821015612f9d5760001960f88860031b161c19848701351681555b505060018560011b0183555050505050565b81835281816020850137506000828201602090810191909152601f909101601f19169091010190565b604081526000612fec604083018688612faf565b8281036020840152612fff818587612faf565b979650505050505050565b6000808335601e1984360301811261302157600080fd5b8301803591506001600160401b0382111561303b57600080fd5b60200191503681900382131561272957600080fd5b81810381811115611c4e57611c4e612d81565b60006001820161307557613075612d81565b5060010190565b602081526000612c16602083018486612faf565b6000602082840312156130a257600080fd5b81356001600160f01b031981168114611ccf57600080fd5b8581528460208201526080604082015260006130da608083018587612faf565b90508260608301529695505050505050565b6000602082840312156130fe57600080fd5b81518015158114611ccf57600080fd5b60208082526022908201527f52656164206f76657272756e20647572696e6720566172496e742070617273696040820152616e6760f01b606082015260800190565b6001600160e01b0319851681528351600090613173816004850160208901612b72565b84519083019061318a816004840160208901612b72565b6001600160e01b0319949094169301600481019390935250506008019392505050565b805160208201516bffffffffffffffffffffffff198116919060148210156131f9576bffffffffffffffffffffffff196bffffffffffffffffffffffff198360140360031b1b82161692505b5050919050565b6001600160e01b03198a1681526001600160f01b031989166004820152868860068301376000878201600681016000815287898237506000908701600601908152848682376001600160e01b031993909316929093019182525060040198975050505050505050565b60ff8181168382160190811115611c4e57611c4e612d8156","linkReferences":{}},"methodIdentifiers":{"LIGHT_CLIENT()":"e613ae00","SYSTEM_CALLER()":"d761753e","acceptOwnership()":"79ba5097","batchWithdraw(bytes32[],bytes4[])":"19854623","declareWithdrawFiller((bytes4,bytes2,bytes,bytes,bytes,bytes4,bytes,uint256,uint256),uint256,uint256)":"74ab4a83","deposit((bytes4,bytes2,bytes,bytes,bytes,bytes4,bytes,uint256,uint256))":"dd95c7c6","depositAmount()":"419759f5","getWithdrawalCount()":"781952a8","initialize(bytes,bytes,uint256)":"41260137","initialized()":"158ef93e","isOperatorMalicious(uint256)":"bafa9eb2","markMaliciousOperator((bytes4,bytes2,bytes,bytes,bytes,bytes4,bytes,uint256,uint256))":"5e3cc740","operator()":"570ca735","owner()":"8da5cb5b","pendingOwner()":"e30c3978","renounceOwnership()":"715018a6","scriptPrefix()":"a41c5cf3","scriptSuffix()":"87f8bf56","setDepositScript(bytes,bytes)":"f8e655d2","setOperator(address)":"b3ab15fb","setSlashOrTakeScript(bytes)":"f119a9bd","slashOrTakeScript()":"5d3e3176","transferOwnership(address)":"f2fde38b","txIdToDepositId(bytes32)":"11e53a01","withdraw(bytes32,bytes4)":"8786dba7","withdrawFillers(uint256)":"c045577b","withdrawalUTXOs(uint256)":"471ba1e3"},"id":46}