{"abi":[{"type":"function","name":"DEPOSIT_AMOUNT","inputs":[],"outputs":[{"name":"","type":"uint256","internalType":"uint256"}],"stateMutability":"view"},{"type":"function","name":"LIGHT_CLIENT","inputs":[],"outputs":[{"name":"","type":"address","internalType":"contract BitcoinLightClient"}],"stateMutability":"view"},{"type":"function","name":"SYSTEM_CALLER","inputs":[],"outputs":[{"name":"","type":"address","internalType":"address"}],"stateMutability":"view"},{"type":"function","name":"acceptOwnership","inputs":[],"outputs":[],"stateMutability":"nonpayable"},{"type":"function","name":"batchWithdraw","inputs":[{"name":"txIds","type":"bytes32[]","internalType":"bytes32[]"},{"name":"outputIds","type":"uint32[]","internalType":"uint32[]"}],"outputs":[],"stateMutability":"payable"},{"type":"function","name":"declareWithdrawFiller","inputs":[{"name":"withdrawTp","type":"tuple","internalType":"struct Bridge.TransactionParams","components":[{"name":"version","type":"bytes4","internalType":"bytes4"},{"name":"flag","type":"bytes2","internalType":"bytes2"},{"name":"vin","type":"bytes","internalType":"bytes"},{"name":"vout","type":"bytes","internalType":"bytes"},{"name":"witness","type":"bytes","internalType":"bytes"},{"name":"locktime","type":"bytes4","internalType":"bytes4"},{"name":"intermediate_nodes","type":"bytes","internalType":"bytes"},{"name":"block_height","type":"uint256","internalType":"uint256"},{"name":"index","type":"uint256","internalType":"uint256"}]},{"name":"inputIndex","type":"uint256","internalType":"uint256"},{"name":"outputIndex","type":"uint256","internalType":"uint256"},{"name":"withdrawId","type":"uint256","internalType":"uint256"}],"outputs":[],"stateMutability":"nonpayable"},{"type":"function","name":"deposit","inputs":[{"name":"revealTp","type":"tuple","internalType":"struct Bridge.TransactionParams","components":[{"name":"version","type":"bytes4","internalType":"bytes4"},{"name":"flag","type":"bytes2","internalType":"bytes2"},{"name":"vin","type":"bytes","internalType":"bytes"},{"name":"vout","type":"bytes","internalType":"bytes"},{"name":"witness","type":"bytes","internalType":"bytes"},{"name":"locktime","type":"bytes4","internalType":"bytes4"},{"name":"intermediate_nodes","type":"bytes","internalType":"bytes"},{"name":"block_height","type":"uint256","internalType":"uint256"},{"name":"index","type":"uint256","internalType":"uint256"}]}],"outputs":[],"stateMutability":"nonpayable"},{"type":"function","name":"depositScript","inputs":[],"outputs":[{"name":"","type":"bytes","internalType":"bytes"}],"stateMutability":"view"},{"type":"function","name":"getWithdrawalCount","inputs":[],"outputs":[{"name":"","type":"uint256","internalType":"uint256"}],"stateMutability":"view"},{"type":"function","name":"initialize","inputs":[{"name":"_depositScript","type":"bytes","internalType":"bytes"},{"name":"_scriptSuffix","type":"bytes","internalType":"bytes"},{"name":"_requiredSigsCount","type":"uint256","internalType":"uint256"}],"outputs":[],"stateMutability":"nonpayable"},{"type":"function","name":"initialized","inputs":[],"outputs":[{"name":"","type":"bool","internalType":"bool"}],"stateMutability":"view"},{"type":"function","name":"isOperatorMalicious","inputs":[{"name":"","type":"uint256","internalType":"uint256"}],"outputs":[{"name":"","type":"bool","internalType":"bool"}],"stateMutability":"view"},{"type":"function","name":"kickoff2AddressRoot","inputs":[],"outputs":[{"name":"","type":"bytes32","internalType":"bytes32"}],"stateMutability":"view"},{"type":"function","name":"kickoffRoots","inputs":[{"name":"","type":"uint256","internalType":"uint256"}],"outputs":[{"name":"","type":"bytes32","internalType":"bytes32"}],"stateMutability":"view"},{"type":"function","name":"markMaliciousOperator","inputs":[{"name":"proofToKickoffRoot","type":"bytes","internalType":"bytes"},{"name":"kickoff2Tp","type":"tuple","internalType":"struct Bridge.TransactionParams","components":[{"name":"version","type":"bytes4","internalType":"bytes4"},{"name":"flag","type":"bytes2","internalType":"bytes2"},{"name":"vin","type":"bytes","internalType":"bytes"},{"name":"vout","type":"bytes","internalType":"bytes"},{"name":"witness","type":"bytes","internalType":"bytes"},{"name":"locktime","type":"bytes4","internalType":"bytes4"},{"name":"intermediate_nodes","type":"bytes","internalType":"bytes"},{"name":"block_height","type":"uint256","internalType":"uint256"},{"name":"index","type":"uint256","internalType":"uint256"}]},{"name":"inputIndex","type":"uint256","internalType":"uint256"},{"name":"depositId","type":"uint256","internalType":"uint256"},{"name":"operatorId","type":"uint256","internalType":"uint256"},{"name":"kickoff2Address","type":"bytes32","internalType":"bytes32"},{"name":"proofToKickoff2Address","type":"bytes","internalType":"bytes"}],"outputs":[],"stateMutability":"nonpayable"},{"type":"function","name":"operator","inputs":[],"outputs":[{"name":"","type":"address","internalType":"address"}],"stateMutability":"view"},{"type":"function","name":"operatorAddresses","inputs":[{"name":"","type":"uint256","internalType":"uint256"}],"outputs":[{"name":"","type":"bytes32","internalType":"bytes32"}],"stateMutability":"view"},{"type":"function","name":"owner","inputs":[],"outputs":[{"name":"","type":"address","internalType":"address"}],"stateMutability":"view"},{"type":"function","name":"pendingOwner","inputs":[],"outputs":[{"name":"","type":"address","internalType":"address"}],"stateMutability":"view"},{"type":"function","name":"renounceOwnership","inputs":[],"outputs":[],"stateMutability":"nonpayable"},{"type":"function","name":"requiredSigsCount","inputs":[],"outputs":[{"name":"","type":"uint256","internalType":"uint256"}],"stateMutability":"view"},{"type":"function","name":"scriptSuffix","inputs":[],"outputs":[{"name":"","type":"bytes","internalType":"bytes"}],"stateMutability":"view"},{"type":"function","name":"setDepositScript","inputs":[{"name":"_depositScript","type":"bytes","internalType":"bytes"},{"name":"_scriptSuffix","type":"bytes","internalType":"bytes"},{"name":"_requiredSigsCount","type":"uint256","internalType":"uint256"}],"outputs":[],"stateMutability":"nonpayable"},{"type":"function","name":"setKickoff2AddressRoot","inputs":[{"name":"_kickoff2AddressRoot","type":"bytes32","internalType":"bytes32"}],"outputs":[],"stateMutability":"nonpayable"},{"type":"function","name":"setOperator","inputs":[{"name":"_operator","type":"address","internalType":"address"}],"outputs":[],"stateMutability":"nonpayable"},{"type":"function","name":"spentWtxIds","inputs":[{"name":"","type":"bytes32","internalType":"bytes32"}],"outputs":[{"name":"","type":"bool","internalType":"bool"}],"stateMutability":"view"},{"type":"function","name":"transferOwnership","inputs":[{"name":"newOwner","type":"address","internalType":"address"}],"outputs":[],"stateMutability":"nonpayable"},{"type":"function","name":"withdraw","inputs":[{"name":"txId","type":"bytes32","internalType":"bytes32"},{"name":"outputId","type":"uint32","internalType":"uint32"}],"outputs":[],"stateMutability":"payable"},{"type":"function","name":"withdrawFillers","inputs":[{"name":"","type":"uint256","internalType":"uint256"}],"outputs":[{"name":"","type":"bytes32","internalType":"bytes32"}],"stateMutability":"view"},{"type":"function","name":"withdrawalUTXOs","inputs":[{"name":"","type":"uint256","internalType":"uint256"}],"outputs":[{"name":"txId","type":"bytes32","internalType":"bytes32"},{"name":"outputId","type":"uint32","internalType":"uint32"}],"stateMutability":"view"},{"type":"event","name":"Deposit","inputs":[{"name":"wtxId","type":"bytes32","indexed":false,"internalType":"bytes32"},{"name":"recipient","type":"address","indexed":false,"internalType":"address"},{"name":"timestamp","type":"uint256","indexed":false,"internalType":"uint256"},{"name":"depositId","type":"uint256","indexed":false,"internalType":"uint256"}],"anonymous":false},{"type":"event","name":"DepositScriptUpdate","inputs":[{"name":"depositScript","type":"bytes","indexed":false,"internalType":"bytes"},{"name":"scriptSuffix","type":"bytes","indexed":false,"internalType":"bytes"},{"name":"requiredSigsCount","type":"uint256","indexed":false,"internalType":"uint256"}],"anonymous":false},{"type":"event","name":"Initialized","inputs":[{"name":"version","type":"uint64","indexed":false,"internalType":"uint64"}],"anonymous":false},{"type":"event","name":"Kickoff2AddressRootSet","inputs":[{"name":"kickoff2AddressRoot","type":"bytes32","indexed":false,"internalType":"bytes32"}],"anonymous":false},{"type":"event","name":"MaliciousOperatorMarked","inputs":[{"name":"operatorId","type":"uint256","indexed":false,"internalType":"uint256"}],"anonymous":false},{"type":"event","name":"OperatorUpdated","inputs":[{"name":"oldOperator","type":"address","indexed":false,"internalType":"address"},{"name":"newOperator","type":"address","indexed":false,"internalType":"address"}],"anonymous":false},{"type":"event","name":"OwnershipTransferStarted","inputs":[{"name":"previousOwner","type":"address","indexed":true,"internalType":"address"},{"name":"newOwner","type":"address","indexed":true,"internalType":"address"}],"anonymous":false},{"type":"event","name":"OwnershipTransferred","inputs":[{"name":"previousOwner","type":"address","indexed":true,"internalType":"address"},{"name":"newOwner","type":"address","indexed":true,"internalType":"address"}],"anonymous":false},{"type":"event","name":"WithdrawFillerDeclared","inputs":[{"name":"withdrawId","type":"uint256","indexed":false,"internalType":"uint256"},{"name":"withdrawFillerId","type":"uint256","indexed":false,"internalType":"uint256"}],"anonymous":false},{"type":"event","name":"Withdrawal","inputs":[{"name":"utxo","type":"tuple","indexed":false,"internalType":"struct Bridge.UTXO","components":[{"name":"txId","type":"bytes32","internalType":"bytes32"},{"name":"outputId","type":"uint32","internalType":"uint32"}]},{"name":"index","type":"uint256","indexed":false,"internalType":"uint256"},{"name":"timestamp","type":"uint256","indexed":false,"internalType":"uint256"}],"anonymous":false},{"type":"error","name":"InvalidInitialization","inputs":[]},{"type":"error","name":"NotInitializing","inputs":[]},{"type":"error","name":"OwnableInvalidOwner","inputs":[{"name":"owner","type":"address","internalType":"address"}]},{"type":"error","name":"OwnableUnauthorizedAccount","inputs":[{"name":"account","type":"address","internalType":"address"}]}],"bytecode":{"object":"0x6080604052348015600f57600080fd5b506137bc8061001f6000396000f3fe6080604052600436106101cd5760003560e01c80638da5cb5b116100f7578063d30db94911610095578063e30c397811610064578063e30c397814610537578063e613ae001461054c578063ec6925a714610567578063f2fde38b1461058257600080fd5b8063d30db949146104c9578063d62239f9146104dc578063d761753e146104ef578063dd95c7c61461051757600080fd5b8063b3ab15fb116100d1578063b3ab15fb14610447578063b93780f614610467578063bafa9eb21461047c578063c045577b1461049c57600080fd5b80638da5cb5b146103f25780639773ea90146104075780639f963f591461042757600080fd5b8063570ca7351161016f578063781952a81161013e578063781952a81461038657806379ba50971461039b57806387f8bf56146103b05780638afbfff8146103d257600080fd5b8063570ca735146102d75780635e0e5b3e14610314578063715018a6146103445780637792a0351461035957600080fd5b80631601bb6a116101ab5780631601bb6a14610247578063412601371461026757806343e3168714610287578063471ba1e31461029d57600080fd5b806303dc1161146101d25780630d4a471b146101f4578063158ef93e1461021d575b600080fd5b3480156101de57600080fd5b506101f26101ed366004612f96565b6105a2565b005b34801561020057600080fd5b5061020a60295481565b6040519081526020015b60405180910390f35b34801561022957600080fd5b506000546102379060ff1681565b6040519015158152602001610214565b34801561025357600080fd5b506101f261026236600461304e565b6108c6565b34801561027357600080fd5b506101f26102823660046130a8565b61090a565b34801561029357600080fd5b5061020a60015481565b3480156102a957600080fd5b506102bd6102b836600461304e565b610b49565b6040805192835263ffffffff909116602083015201610214565b3480156102e357600080fd5b506000546102fc9061010090046001600160a01b031681565b6040516001600160a01b039091168152602001610214565b34801561032057600080fd5b5061023761032f36600461304e565b60046020526000908152604090205460ff1681565b34801561035057600080fd5b506101f2610b7d565b34801561036557600080fd5b5061020a61037436600461304e565b60286020526000908152604090205481565b34801561039257600080fd5b5060255461020a565b3480156103a757600080fd5b506101f2610b91565b3480156103bc57600080fd5b506103c5610bd9565b6040516102149190613143565b3480156103de57600080fd5b5061020a6103ed36600461304e565b610c67565b3480156103fe57600080fd5b506102fc610c88565b34801561041357600080fd5b506101f2610422366004613176565b610cbd565b34801561043357600080fd5b506101f26104423660046130a8565b610ea4565b34801561045357600080fd5b506101f26104623660046131c9565b610fa6565b34801561047357600080fd5b506103c5611011565b34801561048857600080fd5b5061023761049736600461304e565b61101e565b3480156104a857600080fd5b5061020a6104b736600461304e565b60276020526000908152604090205481565b6101f26104d7366004613236565b611049565b6101f26104ea3660046132be565b611231565b3480156104fb57600080fd5b506102fc73deaddeaddeaddeaddeaddeaddeaddeaddeaddead81565b34801561052357600080fd5b506101f26105323660046132ea565b611361565b34801561054357600080fd5b506102fc6117da565b34801561055857600080fd5b506102fc6001603160981b0181565b34801561057357600080fd5b5061020a662386f26fc1000081565b34801561058e57600080fd5b506101f261059d3660046131c9565b611803565b6105ab86611888565b506105ba826029548386611c29565b61060b5760405162461bcd60e51b815260206004820152601d60248201527f496e76616c6964206b69636b6f666632416464726573732070726f6f6600000060448201526064015b60405180910390fd5b600061065f61065a61062060608a018a61331e565b8080601f01602080910402602001604051908101604052809392919081815260200183838082843760009201829052509250611c67915050565b611ddf565b90508261066b82611df9565b146106b85760405162461bcd60e51b815260206004820152601760248201527f496e76616c6964206b69636b6f666632416464726573730000000000000000006044820152606401610602565b60006107066106ca60408a018a61331e565b8080601f0160208091040260200160405190810160405280939291908181526020018383808284376000920191909152508b9250611e59915050565b9050600061071382611fac565b9050600061072083611fb9565b905060006002838360405160200161074c9291909182526001600160e01b031916602082015260240190565b60408051601f198184030181529082905261076691613364565b602060405180830381855afa158015610783573d6000803e3d6000fd5b5050506040513d601f19601f820116820180604052508101906107a69190613380565b9050600060268a815481106107bd576107bd613399565b906000526020600020015490506107d682828f8c611c29565b6108125760405162461bcd60e51b815260206004820152600d60248201526c24b73b30b634b210383937b7b360991b6044820152606401610602565b60008a815260276020526040902054158061084957506000898152602860209081526040808320548d845260279092529091205414155b1561088457600160058a6103e8811061086457610864613399565b602091828204019190066101000a81548160ff0219169083151502179055505b6040518981527ff918cdaebea74c5a8c3b02d7404c162f507551b158202cedcba9b6a74eabdff29060200160405180910390a150505050505050505050505050565b6108ce611fc6565b60298190556040518181527fdf56450935a3769f905a6cc6d2e7ad4fe2e2351b797e5191da9e354dc126c8c0906020015b60405180910390a150565b3373deaddeaddeaddeaddeaddeaddeaddeaddeaddead1461096d5760405162461bcd60e51b815260206004820152601f60248201527f63616c6c6572206973206e6f74207468652073797374656d2063616c6c6572006044820152606401610602565b60005460ff16156109c05760405162461bcd60e51b815260206004820152601f60248201527f436f6e747261637420697320616c726561647920696e697469616c697a6564006044820152606401610602565b80600003610a105760405162461bcd60e51b815260206004820152601a60248201527f566572696669657220636f756e742063616e6e6f7420626520300000000000006044820152606401610602565b6000849003610a615760405162461bcd60e51b815260206004820152601e60248201527f4465706f736974207363726970742063616e6e6f7420626520656d70747900006044820152606401610602565b6000805460ff191660011790556002610a7b858783613432565b506003610a89838583613432565b50600181905560008054610100600160a81b03191674deaddeaddeaddeaddeaddeaddeaddeaddeaddead001781556040805191825273deaddeaddeaddeaddeaddeaddeaddeaddeaddead60208301527ffbe5b6cbafb274f445d7fed869dc77a838d8243a22c460de156560e8857cad03910160405180910390a17f89ed79f38bee253aee2fb8d52df0d71b4aaf0843800d093a499a55eeca455c348585858585604051610b3a95949392919061351a565b60405180910390a15050505050565b60258181548110610b5957600080fd5b60009182526020909120600290910201805460019091015490915063ffffffff1682565b610b85611fc6565b610b8f6000611ff8565b565b3380610b9b6117da565b6001600160a01b031614610bcd5760405163118cdaa760e01b81526001600160a01b0382166004820152602401610602565b610bd681611ff8565b50565b60038054610be6906133af565b80601f0160208091040260200160405190810160405280929190818152602001828054610c12906133af565b8015610c5f5780601f10610c3457610100808354040283529160200191610c5f565b820191906000526020600020905b815481529060010190602001808311610c4257829003601f168201915b505050505081565b60268181548110610c7757600080fd5b600091825260209091200154905081565b6000807f9016d09d72d40fdae2fd8ceac6b6234c7706214fd39c1cd1e609a0528c1993005b546001600160a01b031692915050565b610cc684611888565b506000610d15610cd9604087018761331e565b8080601f016020809104026020016040519081016040528093929190818152602001838380828437600092019190915250889250611e59915050565b90506000610d2282611fac565b90506000610d2f83611fb9565b60e01c9050600060258581548110610d4957610d49613399565b600091825260209182902060408051808201909152600290920201805480835260019091015463ffffffff1692820192909252915083148015610d9b57508163ffffffff16816020015163ffffffff16145b610ddb5760405162461bcd60e51b81526020600482015260116024820152706e6f74206d61746368696e67205554584f60781b6044820152606401610602565b6000610e29610ded60608b018b61331e565b8080601f0160208091040260200160405190810160405280939291908181526020018383808284376000920191909152508b9250611c67915050565b90506000610e3e610e3983612034565b611df9565b6000818152602860209081526040808320548b845260278352928190209290925581518a81529081018390529192507feedf47c2f61b040827944fd45e44ef6d742354b34e1af7dd99a56f444ec79347910160405180910390a150505050505050505050565b610eac611fc6565b80600003610efc5760405162461bcd60e51b815260206004820152601a60248201527f566572696669657220636f756e742063616e6e6f7420626520300000000000006044820152606401610602565b6000849003610f4d5760405162461bcd60e51b815260206004820152601e60248201527f4465706f736974207363726970742063616e6e6f7420626520656d70747900006044820152606401610602565b6002610f5a858783613432565b506003610f68838583613432565b5060018190556040517f89ed79f38bee253aee2fb8d52df0d71b4aaf0843800d093a499a55eeca455c3490610b3a908790879087908790879061351a565b610fae611fc6565b60008054610100600160a81b0319166101006001600160a01b038481168281029390931793849055604080519290940416815260208101919091527ffbe5b6cbafb274f445d7fed869dc77a838d8243a22c460de156560e8857cad0391016108ff565b60028054610be6906133af565b6005816103e8811061102f57600080fd5b60209182820401919006915054906101000a900460ff1681565b82811461108a5760405162461bcd60e51b815260206004820152600f60248201526e098cadccee8d040dad2e6dac2e8c6d608b1b6044820152606401610602565b61109b83662386f26fc1000061356a565b34146110e35760405162461bcd60e51b8152602060048201526017602482015276125b9d985b1a59081dda5d1a191c985dc8185b5bdd5b9d604a1b6044820152606401610602565b60255460005b84811015611229576000604051806040016040528088888581811061111057611110613399565b90506020020135815260200186868581811061112e5761112e613399565b90506020020160208101906111439190613581565b63ffffffff9081169091526025805460018101825560009190915282517f401968ff42a154441da5f6c4c935ac46b8671f0e062baaa62a7545ba53bb6e4c60029092029182015560208301517f401968ff42a154441da5f6c4c935ac46b8671f0e062baaa62a7545ba53bb6e4d909101805463ffffffff19169190921617905590507fe32f1dd44d4768b5cc8efdffee252f9da4f2cc539a5d1908c2772f181dd363ce816111f1848661359c565b604080518351815260209384015163ffffffff169381019390935282015242606082015260800160405180910390a1506001016110e9565b505050505050565b662386f26fc1000034146112815760405162461bcd60e51b8152602060048201526017602482015276125b9d985b1a59081dda5d1a191c985dc8185b5bdd5b9d604a1b6044820152606401610602565b60408051808201825283815263ffffffff83811660208084019182526025805460018101825560009190915284517f401968ff42a154441da5f6c4c935ac46b8671f0e062baaa62a7545ba53bb6e4c6002830290810182905584517f401968ff42a154441da5f6c4c935ac46b8671f0e062baaa62a7545ba53bb6e4d909101805463ffffffff1916918716919091179055865190815292519093169082015292830181905242606084015290917fe32f1dd44d4768b5cc8efdffee252f9da4f2cc539a5d1908c2772f181dd363ce9060800160405180910390a150505050565b60005461010090046001600160a01b031633146113c05760405162461bcd60e51b815260206004820152601a60248201527f63616c6c6572206973206e6f7420746865206f70657261746f720000000000006044820152606401610602565b60006113cb82611888565b60008181526004602052604090205490915060ff16156114235760405162461bcd60e51b81526020600482015260136024820152721ddd1e125908185b1c9958591e481cdc195b9d606a1b6044820152606401610602565b6000818152600460205260408120805460ff1916600117905561148661144c608085018561331e565b8080601f016020809104026020016040519081016040528093929190818152602001838380828437600092018290525092506120b6915050565b9050600061149382612199565b91505060015460026114a5919061359c565b81146114eb5760405162461bcd60e51b8152602060048201526015602482015274496e76616c6964207769746e657373206974656d7360581b6044820152606401610602565b60006114f9836001546121b0565b905060006002805461150a906133af565b91506000905061151b838284612330565b90506115b1816002805461152e906133af565b80601f016020809104026020016040519081016040528092919081815260200182805461155a906133af565b80156115a75780601f1061157c576101008083540402835291602001916115a7565b820191906000526020600020905b81548152906001019060200180831161158a57829003601f168201915b50505050506123f3565b6115f65760405162461bcd60e51b8152602060048201526016602482015275125b9d985b1a590819195c1bdcda5d081cd8dc9a5c1d60521b6044820152606401610602565b600061162a60038054611608906133af565b865161161492506135af565b60038054611621906133af565b87929150612330565b905061163d816003805461152e906133af565b6116815760405162461bcd60e51b8152602060048201526015602482015274092dcecc2d8d2c840e6c6e4d2e0e840e6eaccccd2f605b1b6044820152606401610602565b600061168c856124ca565b9050600061169986612500565b602680546001818101835560008390527f744a2cf8fd7008e3d53b67916e73460df9fa5214e3ef23dd4259ca09493a359490910183905590549192507f6849bd31a1772b1b6992f1f328cce6888b435faff25d13805baee12a8a944bbe918b9185914291611706916135af565b604080519485526001600160a01b03909316602085015291830152606082015260800160405180910390a16000826001600160a01b0316662386f26fc1000060405160006040518083038185875af1925050503d8060008114611785576040519150601f19603f3d011682016040523d82523d6000602084013e61178a565b606091505b50509050806117cd5760405162461bcd60e51b815260206004820152600f60248201526e151c985b9cd9995c8819985a5b1959608a1b6044820152606401610602565b5050505050505050505050565b6000807f237e158222e3e6968b72b9db0d8043aacf074ad9f650f0d1606b4d82ee432c00610cad565b61180b611fc6565b7f237e158222e3e6968b72b9db0d8043aacf074ad9f650f0d1606b4d82ee432c0080546001600160a01b0319166001600160a01b038316908117825561184f610c88565b6001600160a01b03167f38d16b8cac22d99fc7c124b9cd0de2d3fa1faef420bfe791d8c362d765e2270060405160405180910390a35050565b6000806118e761189b60208501856135c2565b6118ab60408601602087016135ec565b6118b8604087018761331e565b6118c5606089018961331e565b6118d260808b018b61331e565b6118e260c08d0160a08e016135c2565b61252f565b90506119336118f9604085018561331e565b8080601f01602080910402602001604051908101604052809392919081815260200183838082843760009201919091525061257792505050565b61197f5760405162461bcd60e51b815260206004820152601d60248201527f56696e206973206e6f742070726f7065726c7920666f726d61747465640000006044820152606401610602565b6119c961198f606085018561331e565b8080601f01602080910402602001604051908101604052809392919081815260200183838082843760009201919091525061261b92505050565b611a155760405162461bcd60e51b815260206004820152601e60248201527f566f7574206973206e6f742070726f7065726c7920666f726d617474656400006044820152606401610602565b6000611a61611a27604086018661331e565b8080601f01602080910402602001604051908101604052809392919081815260200183838082843760009201919091525061219992505050565b91505080600114611aad5760405162461bcd60e51b815260206004820152601660248201527513db9b1e481bdb99481a5b9c1d5d08185b1b1bddd95960521b6044820152606401610602565b611af9611abd608086018661331e565b8080601f0160208091040260200160405190810160405280939291908181526020018383808284376000920191909152508592506126b2915050565b611b4f5760405162461bcd60e51b815260206004820152602160248201527f5769746e657373206973206e6f742070726f7065726c7920666f726d617474656044820152601960fa1b6064820152608401610602565b6001603160981b01634ffd344a60e086013584611b6f60c089018961331e565b8961010001356040518663ffffffff1660e01b8152600401611b95959493929190613616565b602060405180830381865afa158015611bb2573d6000803e3d6000fd5b505050506040513d601f19601f82011682018060405250810190611bd69190613648565b611c225760405162461bcd60e51b815260206004820152601b60248201527f5472616e73616374696f6e206973206e6f7420696e20626c6f636b00000000006044820152606401610602565b5092915050565b60008385148015611c38575081155b8015611c4357508251155b15611c5057506001611c5f565b611c5c85848685612727565b90505b949350505050565b6060600080611c7585612199565b909250905060018201611c9a5760405162461bcd60e51b81526004016106029061366a565b808410611cdd5760405162461bcd60e51b81526020600482015260116024820152702b37baba103932b0b21037bb32b9393ab760791b6044820152606401610602565b600080611ceb84600161359c565b905060005b86811015611d6957611d0288836127d1565b92506000198303611d555760405162461bcd60e51b815260206004820152601a60248201527f42616420566172496e7420696e207363726970745075626b65790000000000006044820152606401610602565b611d5f838361359c565b9150600101611cf0565b50611d7487826127d1565b91506000198203611dc75760405162461bcd60e51b815260206004820152601a60248201527f42616420566172496e7420696e207363726970745075626b65790000000000006044820152606401610602565b611dd2878284612330565b9450505050505b92915050565b6060611dd9826008808551611df491906135af565b612835565b6000808251118015611e0d57506020825111155b611e515760405162461bcd60e51b8152602060048201526015602482015274092dcecc2d8d2c840e6deeae4c6ca40d8cadccee8d605b1b6044820152606401610602565b506020015190565b6060600080611e6785612199565b909250905060018201611e8c5760405162461bcd60e51b81526004016106029061366a565b808410611ece5760405162461bcd60e51b815260206004820152601060248201526f2b34b7103932b0b21037bb32b9393ab760811b6044820152606401610602565b600080611edc84600161359c565b905060005b86811015611f5457611ef38883612aa4565b92506000198303611f405760405162461bcd60e51b815260206004820152601760248201527642616420566172496e7420696e2073637269707453696760481b6044820152606401610602565b611f4a838361359c565b9150600101611ee1565b50611f5f8782612aa4565b91506000198203611dc75760405162461bcd60e51b815260206004820152601760248201527642616420566172496e7420696e2073637269707453696760481b6044820152606401610602565b6020810151600090611dd9565b6000611dd9826020612aed565b33611fcf610c88565b6001600160a01b031614610b8f5760405163118cdaa760e01b8152336004820152602401610602565b7f237e158222e3e6968b72b9db0d8043aacf074ad9f650f0d1606b4d82ee432c0080546001600160a01b031916815561203082612afc565b5050565b60608160098151811061204957612049613399565b6020910101516001600160f81b031916603560f91b1461207757505060408051602081019091526000815290565b600082600a8151811061208c5761208c613399565b01602001516001600160f81b0319811691506120af908490600b9060f81c612330565b9392505050565b606060008060005b8481101561212f576120d08683612b6d565b9250600019830361211b5760405162461bcd60e51b815260206004820152601560248201527442616420566172496e7420696e207769746e65737360581b6044820152606401610602565b612125838361359c565b91506001016120be565b5061213a8582612b6d565b915060001982036121855760405162461bcd60e51b815260206004820152601560248201527442616420566172496e7420696e207769746e65737360581b6044820152606401610602565b612190858284612330565b95945050505050565b6000806121a7836000612c0f565b91509150915091565b60606000806121be85612199565b9092509050600182016121e35760405162461bcd60e51b81526004016106029061366a565b8084106122255760405162461bcd60e51b815260206004820152601060248201526f2b34b7103932b0b21037bb32b9393ab760811b6044820152606401610602565b60008061223384600161359c565b905060005b868110156122be5761224a8883612c0f565b9095509250600183016122945760405162461bcd60e51b815260206004820152601260248201527142616420566172496e7420696e206974656d60701b6044820152606401610602565b826122a086600161359c565b6122aa919061359c565b6122b4908361359c565b9150600101612238565b506122c98782612c0f565b9094509150600182016123135760405162461bcd60e51b815260206004820152601260248201527142616420566172496e7420696e206974656d60701b6044820152606401610602565b611dd281612321868561359c565b61232c90600161359c565b8991905b60608160000361234f57506040805160208101909152600081526120af565b600061235b838561359c565b9050838111801561236d575080855110155b6123af5760405162461bcd60e51b8152602060048201526013602482015272536c696365206f7574206f6620626f756e647360681b6044820152606401610602565b604051915082604083010160405282825283850182038460208701018481015b808210156123e8578151838301526020820191506123cf565b505050509392505050565b8151815160009190811461240b576000915050611dd9565b60206000805b838311612441575050848101518482015160209092019180821461243c576000945050505050611dd9565b612411565b600061244e6020856135af565b90505b848110156124bc5786818151811061246b5761246b613399565b602001015160f81c60f81b6001600160f81b03191688828151811061249257612492613399565b01602001516001600160f81b031916146124b457600095505050505050611dd9565b600101612451565b506001979650505050505050565b600080600280546124da906133af565b9150600090506124ec84836014612330565b6124f5906136ac565b60601c949350505050565b60008060028054612510906133af565b61251c9150601461359c565b90506000611c5f610e3985846020612330565b60006125698a8a8a8a8a8a8a8a8a604051602001612555999897969594939291906136ff565b604051602081830303815290604052612db1565b9a9950505050505050505050565b600080600061258584612199565b9092509050801580612598575060001982145b156125a7575060009392505050565b60006125b483600161359c565b905060005b8281101561260e57855182106125d55750600095945050505050565b60006125e18784612aa4565b905060001981036125f9575060009695505050505050565b612603818461359c565b9250506001016125b9565b5093519093149392505050565b600080600061262984612199565b909250905080158061263c575060001982145b1561264b575060009392505050565b600061265883600161359c565b905060005b8281101561260e57855182106126795750600095945050505050565b600061268587846127d1565b9050600019810361269d575060009695505050505050565b6126a7818461359c565b92505060010161265d565b6000816000036126c457506000611dd9565b6000805b8381101561271b57845182106126e357600092505050611dd9565b60006126ef8684612b6d565b905060001981036127065760009350505050611dd9565b612710818461359c565b9250506001016126c8565b50835114905092915050565b6000602084516127379190613768565b1561274457506000611c5f565b835160000361275557506000611c5f565b818560005b86518110156127c45761276e600284613768565b6001036127925761278b6127858883016020015190565b83612dd8565b91506127ab565b6127a8826127a38984016020015190565b612dd8565b91505b60019290921c916127bd60208261359c565b905061275a565b5090931495945050505050565b60006127de82600961359c565b835110156127ef5750600019611dd9565b6000806128068561280186600861359c565b612c0f565b90925090506001820161281f5760001992505050611dd9565b8061282b83600961359c565b612190919061359c565b6060600084848151811061284b5761284b613399565b016020015160f81c90508261286182600161378a565b60ff161461287f5750506040805160208101909152600081526120af565b8461288b85600161359c565b8151811061289b5761289b613399565b016020015160f81c60000361295a5760028160ff1610156128cc5750506040805160208101909152600081526120af565b6000856128da86600261359c565b815181106128ea576128ea613399565b016020015160f81c90506128ff6002836137a3565b60ff168114158061291d57508060201415801561291d575080601414155b1561293b5760405180602001604052806000815250925050506120af565b61295161294986600361359c565b879083612330565b925050506120af565b60006129668686612aed565b90506001600160e81b03198116621976a960e81b03612a16578561298b86600361359c565b8151811061299b5761299b613399565b60209101015160f81c60141415806129e157506129ce60026129bd868861359c565b6129c791906135af565b8790612aed565b6001600160f01b03191661222b60f21b14155b156129ff5760405180602001604052806000815250925050506120af565b612951612a0d86600461359c565b87906014612330565b6001600160e81b031981166205ea4560ea1b03612a8b57856001612a3a868861359c565b612a4491906135af565b81518110612a5457612a54613399565b60209101015160f81c608714612a7d5760405180602001604052806000815250925050506120af565b612951612a0d86600361359c565b5050506040805160208101909152600081529392505050565b6000806000612ab38585612de4565b909250905060018201612acc5760001992505050611dd9565b80612ad883602561359c565b612ae2919061359c565b61219090600461359c565b60006120af8383016020015190565b7f9016d09d72d40fdae2fd8ceac6b6234c7706214fd39c1cd1e609a0528c19930080546001600160a01b031981166001600160a01b03848116918217845560405192169182907f8be0079c531659141344cd1fd0a4f28419497f9722a3daafe3b4186f6b6457e090600090a3505050565b6000806000612b7c8585612c0f565b909250905060018201612b955760001992505050611dd9565b600080612ba384600161359c565b905060005b83811015612c0457612bbe88612801848a61359c565b909550925060018301612bda5760001995505050505050611dd9565b82612be686600161359c565b612bf0919061359c565b612bfa908361359c565b9150600101612ba8565b509695505050505050565b6000806000612c1e8585612e26565b90508060ff16600003612c53576000858581518110612c3f57612c3f613399565b016020015190935060f81c9150612daa9050565b83612c5f82600161378a565b60ff16612c6c919061359c565b85511015612c835760001960009250925050612daa565b60008160ff16600203612cc757612cbc612ca8612ca187600161359c565b8890612aed565b62ffff0060e882901c1660f89190911c1790565b61ffff169050612da0565b8160ff16600403612d1657612d09612ce3612ca187600161359c565b60d881901c63ff00ff001662ff00ff60e89290921c9190911617601081811b91901c1790565b63ffffffff169050612da0565b8160ff16600803612da057612d94612d32612ca187600161359c565b60c01c64ff000000ff600882811c91821665ff000000ff009390911b92831617601090811b6001600160401b031666ff00ff00ff00ff9290921667ff00ff00ff00ff009093169290921790911c65ffff0000ffff1617602081811c91901b1790565b6001600160401b031690505b60ff909116925090505b9250929050565b60006020600083516020850160025afa50602060006020600060025afa5050600051919050565b60006120af8383612eac565b600080612df283602561359c565b84511015612e07575060001990506000612daa565b600080612e198661280187602461359c565b9097909650945050505050565b6000828281518110612e3a57612e3a613399565b016020015160f81c60ff03612e5157506008611dd9565b828281518110612e6357612e63613399565b016020015160f81c60fe03612e7a57506004611dd9565b828281518110612e8c57612e8c613399565b016020015160f81c60fd03612ea357506002611dd9565b50600092915050565b60008260005281602052602060006040600060025afa50602060006020600060025afa505060005192915050565b634e487b7160e01b600052604160045260246000fd5b600082601f830112612f0157600080fd5b81356001600160401b03811115612f1a57612f1a612eda565b604051601f8201601f19908116603f011681016001600160401b0381118282101715612f4857612f48612eda565b604052818152838201602001851015612f6057600080fd5b816020850160208301376000918101602001919091529392505050565b60006101208284031215612f9057600080fd5b50919050565b600080600080600080600060e0888a031215612fb157600080fd5b87356001600160401b03811115612fc757600080fd5b612fd38a828b01612ef0565b97505060208801356001600160401b03811115612fef57600080fd5b612ffb8a828b01612f7d565b96505060408801359450606088013593506080880135925060a0880135915060c08801356001600160401b0381111561303357600080fd5b61303f8a828b01612ef0565b91505092959891949750929550565b60006020828403121561306057600080fd5b5035919050565b60008083601f84011261307957600080fd5b5081356001600160401b0381111561309057600080fd5b602083019150836020828501011115612daa57600080fd5b6000806000806000606086880312156130c057600080fd5b85356001600160401b038111156130d657600080fd5b6130e288828901613067565b90965094505060208601356001600160401b0381111561310157600080fd5b61310d88828901613067565b96999598509660400135949350505050565b60005b8381101561313a578181015183820152602001613122565b50506000910152565b602081526000825180602084015261316281604085016020870161311f565b601f01601f19169190910160400192915050565b6000806000806080858703121561318c57600080fd5b84356001600160401b038111156131a257600080fd5b6131ae87828801612f7d565b97602087013597506040870135966060013595509350505050565b6000602082840312156131db57600080fd5b81356001600160a01b03811681146120af57600080fd5b60008083601f84011261320457600080fd5b5081356001600160401b0381111561321b57600080fd5b6020830191508360208260051b8501011115612daa57600080fd5b6000806000806040858703121561324c57600080fd5b84356001600160401b0381111561326257600080fd5b61326e878288016131f2565b90955093505060208501356001600160401b0381111561328d57600080fd5b613299878288016131f2565b95989497509550505050565b803563ffffffff811681146132b957600080fd5b919050565b600080604083850312156132d157600080fd5b823591506132e1602084016132a5565b90509250929050565b6000602082840312156132fc57600080fd5b81356001600160401b0381111561331257600080fd5b611c5f84828501612f7d565b6000808335601e1984360301811261333557600080fd5b8301803591506001600160401b0382111561334f57600080fd5b602001915036819003821315612daa57600080fd5b6000825161337681846020870161311f565b9190910192915050565b60006020828403121561339257600080fd5b5051919050565b634e487b7160e01b600052603260045260246000fd5b600181811c908216806133c357607f821691505b602082108103612f9057634e487b7160e01b600052602260045260246000fd5b601f82111561342d57806000526020600020601f840160051c8101602085101561340a5750805b601f840160051c820191505b8181101561342a5760008155600101613416565b50505b505050565b6001600160401b0383111561344957613449612eda565b61345d8361345783546133af565b836133e3565b6000601f84116001811461349157600085156134795750838201355b600019600387901b1c1916600186901b17835561342a565b600083815260209020601f19861690835b828110156134c257868501358255602094850194600190920191016134a2565b50868210156134df5760001960f88860031b161c19848701351681555b505060018560011b0183555050505050565b81835281816020850137506000828201602090810191909152601f909101601f19169091010190565b60608152600061352e6060830187896134f1565b82810360208401526135418186886134f1565b9150508260408301529695505050505050565b634e487b7160e01b600052601160045260246000fd5b8082028115828204841417611dd957611dd9613554565b60006020828403121561359357600080fd5b6120af826132a5565b80820180821115611dd957611dd9613554565b81810381811115611dd957611dd9613554565b6000602082840312156135d457600080fd5b81356001600160e01b0319811681146120af57600080fd5b6000602082840312156135fe57600080fd5b81356001600160f01b0319811681146120af57600080fd5b8581528460208201526080604082015260006136366080830185876134f1565b90508260608301529695505050505050565b60006020828403121561365a57600080fd5b815180151581146120af57600080fd5b60208082526022908201527f52656164206f76657272756e20647572696e6720566172496e742070617273696040820152616e6760f01b606082015260800190565b805160208201516bffffffffffffffffffffffff198116919060148210156136f8576bffffffffffffffffffffffff196bffffffffffffffffffffffff198360140360031b1b82161692505b5050919050565b6001600160e01b03198a1681526001600160f01b031989166004820152868860068301376000878201600681016000815287898237506000908701600601908152848682376001600160e01b031993909316929093019182525060040198975050505050505050565b60008261378557634e487b7160e01b600052601260045260246000fd5b500690565b60ff8181168382160190811115611dd957611dd9613554565b60ff8281168282160390811115611dd957611dd961355456","linkReferences":{}},"methodIdentifiers":{"DEPOSIT_AMOUNT()":"ec6925a7","LIGHT_CLIENT()":"e613ae00","SYSTEM_CALLER()":"d761753e","acceptOwnership()":"79ba5097","batchWithdraw(bytes32[],uint32[])":"d30db949","declareWithdrawFiller((bytes4,bytes2,bytes,bytes,bytes,bytes4,bytes,uint256,uint256),uint256,uint256,uint256)":"9773ea90","deposit((bytes4,bytes2,bytes,bytes,bytes,bytes4,bytes,uint256,uint256))":"dd95c7c6","depositScript()":"b93780f6","getWithdrawalCount()":"781952a8","initialize(bytes,bytes,uint256)":"41260137","initialized()":"158ef93e","isOperatorMalicious(uint256)":"bafa9eb2","kickoff2AddressRoot()":"0d4a471b","kickoffRoots(uint256)":"8afbfff8","markMaliciousOperator(bytes,(bytes4,bytes2,bytes,bytes,bytes,bytes4,bytes,uint256,uint256),uint256,uint256,uint256,bytes32,bytes)":"03dc1161","operator()":"570ca735","operatorAddresses(uint256)":"7792a035","owner()":"8da5cb5b","pendingOwner()":"e30c3978","renounceOwnership()":"715018a6","requiredSigsCount()":"43e31687","scriptSuffix()":"87f8bf56","setDepositScript(bytes,bytes,uint256)":"9f963f59","setKickoff2AddressRoot(bytes32)":"1601bb6a","setOperator(address)":"b3ab15fb","spentWtxIds(bytes32)":"5e0e5b3e","transferOwnership(address)":"f2fde38b","withdraw(bytes32,uint32)":"d62239f9","withdrawFillers(uint256)":"c045577b","withdrawalUTXOs(uint256)":"471ba1e3"},"id":48}