{"abi":[{"type":"function","name":"DEPOSIT_AMOUNT","inputs":[],"outputs":[{"name":"","type":"uint256","internalType":"uint256"}],"stateMutability":"view"},{"type":"function","name":"LIGHT_CLIENT","inputs":[],"outputs":[{"name":"","type":"address","internalType":"contract BitcoinLightClient"}],"stateMutability":"view"},{"type":"function","name":"SYSTEM_CALLER","inputs":[],"outputs":[{"name":"","type":"address","internalType":"address"}],"stateMutability":"view"},{"type":"function","name":"acceptOwnership","inputs":[],"outputs":[],"stateMutability":"nonpayable"},{"type":"function","name":"batchWithdraw","inputs":[{"name":"txIds","type":"bytes32[]","internalType":"bytes32[]"},{"name":"outputIds","type":"uint32[]","internalType":"uint32[]"}],"outputs":[],"stateMutability":"payable"},{"type":"function","name":"declareWithdrawFiller","inputs":[{"name":"tp","type":"tuple","internalType":"struct Bridge.TransactionParams","components":[{"name":"version","type":"bytes4","internalType":"bytes4"},{"name":"flag","type":"bytes2","internalType":"bytes2"},{"name":"vin","type":"bytes","internalType":"bytes"},{"name":"vout","type":"bytes","internalType":"bytes"},{"name":"witness","type":"bytes","internalType":"bytes"},{"name":"locktime","type":"bytes4","internalType":"bytes4"},{"name":"intermediate_nodes","type":"bytes","internalType":"bytes"},{"name":"block_height","type":"uint256","internalType":"uint256"},{"name":"index","type":"uint256","internalType":"uint256"}]},{"name":"inputIndex","type":"uint256","internalType":"uint256"},{"name":"outputIndex","type":"uint256","internalType":"uint256"},{"name":"withdrawId","type":"uint256","internalType":"uint256"}],"outputs":[],"stateMutability":"nonpayable"},{"type":"function","name":"deposit","inputs":[{"name":"tp","type":"tuple","internalType":"struct Bridge.TransactionParams","components":[{"name":"version","type":"bytes4","internalType":"bytes4"},{"name":"flag","type":"bytes2","internalType":"bytes2"},{"name":"vin","type":"bytes","internalType":"bytes"},{"name":"vout","type":"bytes","internalType":"bytes"},{"name":"witness","type":"bytes","internalType":"bytes"},{"name":"locktime","type":"bytes4","internalType":"bytes4"},{"name":"intermediate_nodes","type":"bytes","internalType":"bytes"},{"name":"block_height","type":"uint256","internalType":"uint256"},{"name":"index","type":"uint256","internalType":"uint256"}]}],"outputs":[],"stateMutability":"nonpayable"},{"type":"function","name":"depositScript","inputs":[],"outputs":[{"name":"","type":"bytes","internalType":"bytes"}],"stateMutability":"view"},{"type":"function","name":"getWithdrawalCount","inputs":[],"outputs":[{"name":"","type":"uint256","internalType":"uint256"}],"stateMutability":"view"},{"type":"function","name":"initialize","inputs":[{"name":"_depositScript","type":"bytes","internalType":"bytes"},{"name":"_scriptSuffix","type":"bytes","internalType":"bytes"},{"name":"_requiredSigsCount","type":"uint256","internalType":"uint256"}],"outputs":[],"stateMutability":"nonpayable"},{"type":"function","name":"initialized","inputs":[],"outputs":[{"name":"","type":"bool","internalType":"bool"}],"stateMutability":"view"},{"type":"function","name":"isOperatorMalicious","inputs":[{"name":"","type":"uint256","internalType":"uint256"}],"outputs":[{"name":"","type":"bool","internalType":"bool"}],"stateMutability":"view"},{"type":"function","name":"kickoffRoots","inputs":[{"name":"","type":"uint256","internalType":"uint256"}],"outputs":[{"name":"","type":"bytes32","internalType":"bytes32"}],"stateMutability":"view"},{"type":"function","name":"markMaliciousOperator","inputs":[{"name":"proofToKickoffRoot","type":"bytes","internalType":"bytes"},{"name":"tp","type":"tuple","internalType":"struct Bridge.TransactionParams","components":[{"name":"version","type":"bytes4","internalType":"bytes4"},{"name":"flag","type":"bytes2","internalType":"bytes2"},{"name":"vin","type":"bytes","internalType":"bytes"},{"name":"vout","type":"bytes","internalType":"bytes"},{"name":"witness","type":"bytes","internalType":"bytes"},{"name":"locktime","type":"bytes4","internalType":"bytes4"},{"name":"intermediate_nodes","type":"bytes","internalType":"bytes"},{"name":"block_height","type":"uint256","internalType":"uint256"},{"name":"index","type":"uint256","internalType":"uint256"}]},{"name":"inputIndex","type":"uint256","internalType":"uint256"},{"name":"depositId","type":"uint256","internalType":"uint256"},{"name":"operatorId","type":"uint256","internalType":"uint256"}],"outputs":[],"stateMutability":"nonpayable"},{"type":"function","name":"operator","inputs":[],"outputs":[{"name":"","type":"address","internalType":"address"}],"stateMutability":"view"},{"type":"function","name":"operatorAddresses","inputs":[{"name":"","type":"uint256","internalType":"uint256"}],"outputs":[{"name":"","type":"bytes32","internalType":"bytes32"}],"stateMutability":"view"},{"type":"function","name":"owner","inputs":[],"outputs":[{"name":"","type":"address","internalType":"address"}],"stateMutability":"view"},{"type":"function","name":"pendingOwner","inputs":[],"outputs":[{"name":"","type":"address","internalType":"address"}],"stateMutability":"view"},{"type":"function","name":"renounceOwnership","inputs":[],"outputs":[],"stateMutability":"nonpayable"},{"type":"function","name":"requiredSigsCount","inputs":[],"outputs":[{"name":"","type":"uint256","internalType":"uint256"}],"stateMutability":"view"},{"type":"function","name":"scriptSuffix","inputs":[],"outputs":[{"name":"","type":"bytes","internalType":"bytes"}],"stateMutability":"view"},{"type":"function","name":"setDepositScript","inputs":[{"name":"_depositScript","type":"bytes","internalType":"bytes"},{"name":"_scriptSuffix","type":"bytes","internalType":"bytes"},{"name":"_requiredSigsCount","type":"uint256","internalType":"uint256"}],"outputs":[],"stateMutability":"nonpayable"},{"type":"function","name":"setOperator","inputs":[{"name":"_operator","type":"address","internalType":"address"}],"outputs":[],"stateMutability":"nonpayable"},{"type":"function","name":"spentWtxIds","inputs":[{"name":"","type":"bytes32","internalType":"bytes32"}],"outputs":[{"name":"","type":"bool","internalType":"bool"}],"stateMutability":"view"},{"type":"function","name":"transferOwnership","inputs":[{"name":"newOwner","type":"address","internalType":"address"}],"outputs":[],"stateMutability":"nonpayable"},{"type":"function","name":"withdraw","inputs":[{"name":"txId","type":"bytes32","internalType":"bytes32"},{"name":"outputId","type":"uint32","internalType":"uint32"}],"outputs":[],"stateMutability":"payable"},{"type":"function","name":"withdrawFillers","inputs":[{"name":"","type":"uint256","internalType":"uint256"}],"outputs":[{"name":"","type":"bytes32","internalType":"bytes32"}],"stateMutability":"view"},{"type":"function","name":"withdrawalUTXOs","inputs":[{"name":"","type":"uint256","internalType":"uint256"}],"outputs":[{"name":"txId","type":"bytes32","internalType":"bytes32"},{"name":"outputId","type":"uint32","internalType":"uint32"}],"stateMutability":"view"},{"type":"event","name":"Deposit","inputs":[{"name":"wtxId","type":"bytes32","indexed":false,"internalType":"bytes32"},{"name":"recipient","type":"address","indexed":false,"internalType":"address"},{"name":"timestamp","type":"uint256","indexed":false,"internalType":"uint256"}],"anonymous":false},{"type":"event","name":"DepositScriptUpdate","inputs":[{"name":"depositScript","type":"bytes","indexed":false,"internalType":"bytes"},{"name":"scriptSuffix","type":"bytes","indexed":false,"internalType":"bytes"},{"name":"requiredSigsCount","type":"uint256","indexed":false,"internalType":"uint256"}],"anonymous":false},{"type":"event","name":"Initialized","inputs":[{"name":"version","type":"uint64","indexed":false,"internalType":"uint64"}],"anonymous":false},{"type":"event","name":"MaliciousOperatorMarked","inputs":[{"name":"operatorId","type":"uint256","indexed":false,"internalType":"uint256"}],"anonymous":false},{"type":"event","name":"OperatorUpdated","inputs":[{"name":"oldOperator","type":"address","indexed":false,"internalType":"address"},{"name":"newOperator","type":"address","indexed":false,"internalType":"address"}],"anonymous":false},{"type":"event","name":"OwnershipTransferStarted","inputs":[{"name":"previousOwner","type":"address","indexed":true,"internalType":"address"},{"name":"newOwner","type":"address","indexed":true,"internalType":"address"}],"anonymous":false},{"type":"event","name":"OwnershipTransferred","inputs":[{"name":"previousOwner","type":"address","indexed":true,"internalType":"address"},{"name":"newOwner","type":"address","indexed":true,"internalType":"address"}],"anonymous":false},{"type":"event","name":"WithdrawFillerDeclared","inputs":[{"name":"withdrawId","type":"uint256","indexed":false,"internalType":"uint256"},{"name":"withdrawFillerAddress","type":"bytes32","indexed":false,"internalType":"bytes32"}],"anonymous":false},{"type":"event","name":"Withdrawal","inputs":[{"name":"utxo","type":"tuple","indexed":false,"internalType":"struct Bridge.UTXO","components":[{"name":"txId","type":"bytes32","internalType":"bytes32"},{"name":"outputId","type":"uint32","internalType":"uint32"}]},{"name":"index","type":"uint256","indexed":false,"internalType":"uint256"},{"name":"timestamp","type":"uint256","indexed":false,"internalType":"uint256"}],"anonymous":false},{"type":"error","name":"InvalidInitialization","inputs":[]},{"type":"error","name":"NotInitializing","inputs":[]},{"type":"error","name":"OwnableInvalidOwner","inputs":[{"name":"owner","type":"address","internalType":"address"}]},{"type":"error","name":"OwnableUnauthorizedAccount","inputs":[{"name":"account","type":"address","internalType":"address"}]}],"bytecode":{"object":"0x6080604052348015600f57600080fd5b506130d38061001f6000396000f3fe6080604052600436106101b75760003560e01c80639f963f59116100ec578063d62239f91161008a578063e30c397811610064578063e30c3978146104eb578063e613ae0014610500578063ec6925a71461051b578063f2fde38b1461053657600080fd5b8063d62239f914610490578063d761753e146104a3578063dd95c7c6146104cb57600080fd5b8063bafa9eb2116100c6578063bafa9eb214610410578063c045577b14610430578063ca46f45e1461045d578063d30db9491461047d57600080fd5b80639f963f59146103bb578063b3ab15fb146103db578063b93780f6146103fb57600080fd5b80637792a0351161015957806387f8bf561161013357806387f8bf56146103445780638afbfff8146103665780638da5cb5b146103865780639773ea901461039b57600080fd5b80637792a035146102ed578063781952a81461031a57806379ba50971461032f57600080fd5b8063471ba1e311610195578063471ba1e314610231578063570ca7351461026b5780635e0e5b3e146102a8578063715018a6146102d857600080fd5b8063158ef93e146101bc57806341260137146101eb57806343e316871461020d575b600080fd5b3480156101c857600080fd5b506000546101d69060ff1681565b60405190151581526020015b60405180910390f35b3480156101f757600080fd5b5061020b6102063660046128d2565b610556565b005b34801561021957600080fd5b5061022360015481565b6040519081526020016101e2565b34801561023d57600080fd5b5061025161024c366004612949565b61079a565b6040805192835263ffffffff9091166020830152016101e2565b34801561027757600080fd5b506000546102909061010090046001600160a01b031681565b6040516001600160a01b0390911681526020016101e2565b3480156102b457600080fd5b506101d66102c3366004612949565b60046020526000908152604090205460ff1681565b3480156102e457600080fd5b5061020b6107ce565b3480156102f957600080fd5b50610223610308366004612949565b60286020526000908152604090205481565b34801561032657600080fd5b50602554610223565b34801561033b57600080fd5b5061020b6107e2565b34801561035057600080fd5b5061035961082a565b6040516101e29190612962565b34801561037257600080fd5b50610223610381366004612949565b6108b8565b34801561039257600080fd5b506102906108d9565b3480156103a757600080fd5b5061020b6103b63660046129c9565b61090e565b3480156103c757600080fd5b5061020b6103d63660046128d2565b610a4e565b3480156103e757600080fd5b5061020b6103f6366004612a1c565b610b50565b34801561040757600080fd5b50610359610bc1565b34801561041c57600080fd5b506101d661042b366004612949565b610bce565b34801561043c57600080fd5b5061022361044b366004612949565b60276020526000908152604090205481565b34801561046957600080fd5b5061020b610478366004612a5b565b610bf9565b61020b61048b366004612b9b565b610d32565b61020b61049e366004612c23565b610f1a565b3480156104af57600080fd5b5061029073deaddeaddeaddeaddeaddeaddeaddeaddeaddead81565b3480156104d757600080fd5b5061020b6104e6366004612c4f565b61104a565b3480156104f757600080fd5b50610290611463565b34801561050c57600080fd5b506102906001603160981b0181565b34801561052757600080fd5b50610223662386f26fc1000081565b34801561054257600080fd5b5061020b610551366004612a1c565b61148c565b3373deaddeaddeaddeaddeaddeaddeaddeaddeaddead146105be5760405162461bcd60e51b815260206004820152601f60248201527f63616c6c6572206973206e6f74207468652073797374656d2063616c6c65720060448201526064015b60405180910390fd5b60005460ff16156106115760405162461bcd60e51b815260206004820152601f60248201527f436f6e747261637420697320616c726561647920696e697469616c697a65640060448201526064016105b5565b806000036106615760405162461bcd60e51b815260206004820152601a60248201527f566572696669657220636f756e742063616e6e6f74206265203000000000000060448201526064016105b5565b60008490036106b25760405162461bcd60e51b815260206004820152601e60248201527f4465706f736974207363726970742063616e6e6f7420626520656d707479000060448201526064016105b5565b6000805460ff1916600117905560026106cc858783612d06565b5060036106da838583612d06565b50600181905560008054610100600160a81b03191674deaddeaddeaddeaddeaddeaddeaddeaddeaddead001781556040805191825273deaddeaddeaddeaddeaddeaddeaddeaddeaddead60208301527ffbe5b6cbafb274f445d7fed869dc77a838d8243a22c460de156560e8857cad03910160405180910390a17f89ed79f38bee253aee2fb8d52df0d71b4aaf0843800d093a499a55eeca455c34858585858560405161078b959493929190612dee565b60405180910390a15050505050565b602581815481106107aa57600080fd5b60009182526020909120600290910201805460019091015490915063ffffffff1682565b6107d6611511565b6107e06000611543565b565b33806107ec611463565b6001600160a01b03161461081e5760405163118cdaa760e01b81526001600160a01b03821660048201526024016105b5565b61082781611543565b50565b6003805461083790612c83565b80601f016020809104026020016040519081016040528092919081815260200182805461086390612c83565b80156108b05780601f10610885576101008083540402835291602001916108b0565b820191906000526020600020905b81548152906001019060200180831161089357829003601f168201915b505050505081565b602681815481106108c857600080fd5b600091825260209091200154905081565b6000807f9016d09d72d40fdae2fd8ceac6b6234c7706214fd39c1cd1e609a0528c1993005b546001600160a01b031692915050565b6109178461157f565b506025818154811061092b5761092b612e28565b600091825260209091206002909102015461099061098b61094f6040880188612e3e565b8080601f016020809104026020016040519081016040528093929190818152602001838380828437600092019190915250899250611920915050565b611a8b565b1461099a57600080fd5b60006109e86109ac6060870187612e3e565b8080601f016020809104026020016040519081016040528093929190818152602001838380828437600092019190915250879250611aeb915050565b905060006109f861098b83611c4b565b60008481526027602090815260409182902083905581518681529081018390529192507fb2c7793eb7d7c2be0868a9902be1c405515e6a3edc15cf5472687c9abbbcbce7910160405180910390a1505050505050565b610a56611511565b80600003610aa65760405162461bcd60e51b815260206004820152601a60248201527f566572696669657220636f756e742063616e6e6f74206265203000000000000060448201526064016105b5565b6000849003610af75760405162461bcd60e51b815260206004820152601e60248201527f4465706f736974207363726970742063616e6e6f7420626520656d707479000060448201526064016105b5565b6002610b04858783612d06565b506003610b12838583612d06565b5060018190556040517f89ed79f38bee253aee2fb8d52df0d71b4aaf0843800d093a499a55eeca455c349061078b9087908790879087908790612dee565b610b58611511565b60008054610100600160a81b0319166101006001600160a01b038481168281029390931793849055604080519290940416815260208101919091527ffbe5b6cbafb274f445d7fed869dc77a838d8243a22c460de156560e8857cad03910160405180910390a150565b6002805461083790612c83565b6005816103e88110610bdf57600080fd5b60209182820401919006915054906101000a900460ff1681565b610c028461157f565b506000610c1861098b61094f6040880188612e3e565b9050600060268481548110610c2f57610c2f612e28565b90600052602060002001549050610c4882828986611ccd565b610c845760405162461bcd60e51b815260206004820152600d60248201526c24b73b30b634b210383937b7b360991b60448201526064016105b5565b6000848152602760205260409020541580610cbb575060008381526028602090815260408083205487845260279092529091205414155b15610cf65760016005846103e88110610cd657610cd6612e28565b602091828204019190066101000a81548160ff0219169083151502179055505b6040518381527ff918cdaebea74c5a8c3b02d7404c162f507551b158202cedcba9b6a74eabdff29060200160405180910390a150505050505050565b828114610d735760405162461bcd60e51b815260206004820152600f60248201526e098cadccee8d040dad2e6dac2e8c6d608b1b60448201526064016105b5565b610d8483662386f26fc10000612e9a565b3414610dcc5760405162461bcd60e51b8152602060048201526017602482015276125b9d985b1a59081dda5d1a191c985dc8185b5bdd5b9d604a1b60448201526064016105b5565b60255460005b84811015610f125760006040518060400160405280888885818110610df957610df9612e28565b905060200201358152602001868685818110610e1757610e17612e28565b9050602002016020810190610e2c9190612eb1565b63ffffffff9081169091526025805460018101825560009190915282517f401968ff42a154441da5f6c4c935ac46b8671f0e062baaa62a7545ba53bb6e4c60029092029182015560208301517f401968ff42a154441da5f6c4c935ac46b8671f0e062baaa62a7545ba53bb6e4d909101805463ffffffff19169190921617905590507fe32f1dd44d4768b5cc8efdffee252f9da4f2cc539a5d1908c2772f181dd363ce81610eda8486612ecc565b604080518351815260209384015163ffffffff169381019390935282015242606082015260800160405180910390a150600101610dd2565b505050505050565b662386f26fc100003414610f6a5760405162461bcd60e51b8152602060048201526017602482015276125b9d985b1a59081dda5d1a191c985dc8185b5bdd5b9d604a1b60448201526064016105b5565b60408051808201825283815263ffffffff83811660208084019182526025805460018101825560009190915284517f401968ff42a154441da5f6c4c935ac46b8671f0e062baaa62a7545ba53bb6e4c6002830290810182905584517f401968ff42a154441da5f6c4c935ac46b8671f0e062baaa62a7545ba53bb6e4d909101805463ffffffff1916918716919091179055865190815292519093169082015292830181905242606084015290917fe32f1dd44d4768b5cc8efdffee252f9da4f2cc539a5d1908c2772f181dd363ce9060800160405180910390a150505050565b60005461010090046001600160a01b031633146110a95760405162461bcd60e51b815260206004820152601a60248201527f63616c6c6572206973206e6f7420746865206f70657261746f7200000000000060448201526064016105b5565b60006110b48261157f565b60008181526004602052604090205490915060ff161561110c5760405162461bcd60e51b81526020600482015260136024820152721ddd1e125908185b1c9958591e481cdc195b9d606a1b60448201526064016105b5565b6000818152600460205260408120805460ff1916600117905561116f6111356080850185612e3e565b8080601f01602080910402602001604051908101604052809392919081815260200183838082843760009201829052509250611d0b915050565b9050600061117c82611dee565b915050600154600261118e9190612ecc565b81146111d45760405162461bcd60e51b8152602060048201526015602482015274496e76616c6964207769746e657373206974656d7360581b60448201526064016105b5565b60006111e283600154611e05565b90506000600280546111f390612c83565b915060009050611204838284611f85565b905061129a816002805461121790612c83565b80601f016020809104026020016040519081016040528092919081815260200182805461124390612c83565b80156112905780601f1061126557610100808354040283529160200191611290565b820191906000526020600020905b81548152906001019060200180831161127357829003601f168201915b5050505050612048565b6112df5760405162461bcd60e51b8152602060048201526016602482015275125b9d985b1a590819195c1bdcda5d081cd8dc9a5c1d60521b60448201526064016105b5565b600061130e6112ef846014612ecc565b6112fa856014612ecc565b86516113069190612edf565b869190611f85565b9050611321816003805461121790612c83565b6113655760405162461bcd60e51b8152602060048201526015602482015274092dcecc2d8d2c840e6c6e4d2e0e840e6eaccccd2f605b1b60448201526064016105b5565b60006113708561211f565b604080518a81526001600160a01b0383166020820152428183015290519192507f182fa52899142d44ff5c45a6354d3b3e868d5b07db6a65580b39bd321bdaf8ac919081900360600190a16000816001600160a01b0316662386f26fc1000060405160006040518083038185875af1925050503d806000811461140f576040519150601f19603f3d011682016040523d82523d6000602084013e611414565b606091505b50509050806114575760405162461bcd60e51b815260206004820152600f60248201526e151c985b9cd9995c8819985a5b1959608a1b60448201526064016105b5565b50505050505050505050565b6000807f237e158222e3e6968b72b9db0d8043aacf074ad9f650f0d1606b4d82ee432c006108fe565b611494611511565b7f237e158222e3e6968b72b9db0d8043aacf074ad9f650f0d1606b4d82ee432c0080546001600160a01b0319166001600160a01b03831690811782556114d86108d9565b6001600160a01b03167f38d16b8cac22d99fc7c124b9cd0de2d3fa1faef420bfe791d8c362d765e2270060405160405180910390a35050565b3361151a6108d9565b6001600160a01b0316146107e05760405163118cdaa760e01b81523360048201526024016105b5565b7f237e158222e3e6968b72b9db0d8043aacf074ad9f650f0d1606b4d82ee432c0080546001600160a01b031916815561157b82612155565b5050565b6000806115de6115926020850185612ef2565b6115a26040860160208701612f1c565b6115af6040870187612e3e565b6115bc6060890189612e3e565b6115c960808b018b612e3e565b6115d960c08d0160a08e01612ef2565b6121c6565b905061162a6115f06040850185612e3e565b8080601f01602080910402602001604051908101604052809392919081815260200183838082843760009201919091525061220e92505050565b6116765760405162461bcd60e51b815260206004820152601d60248201527f56696e206973206e6f742070726f7065726c7920666f726d617474656400000060448201526064016105b5565b6116c06116866060850185612e3e565b8080601f0160208091040260200160405190810160405280939291908181526020018383808284376000920191909152506122b292505050565b61170c5760405162461bcd60e51b815260206004820152601e60248201527f566f7574206973206e6f742070726f7065726c7920666f726d6174746564000060448201526064016105b5565b600061175861171e6040860186612e3e565b8080601f016020809104026020016040519081016040528093929190818152602001838380828437600092019190915250611dee92505050565b915050806001146117a45760405162461bcd60e51b815260206004820152601660248201527513db9b1e481bdb99481a5b9c1d5d08185b1b1bddd95960521b60448201526064016105b5565b6117f06117b46080860186612e3e565b8080601f016020809104026020016040519081016040528093929190818152602001838380828437600092019190915250859250612349915050565b6118465760405162461bcd60e51b815260206004820152602160248201527f5769746e657373206973206e6f742070726f7065726c7920666f726d617474656044820152601960fa1b60648201526084016105b5565b6001603160981b01634ffd344a60e08601358461186660c0890189612e3e565b8961010001356040518663ffffffff1660e01b815260040161188c959493929190612f46565b602060405180830381865afa1580156118a9573d6000803e3d6000fd5b505050506040513d601f19601f820116820180604052508101906118cd9190612f78565b6119195760405162461bcd60e51b815260206004820152601b60248201527f5472616e73616374696f6e206973206e6f7420696e20626c6f636b000000000060448201526064016105b5565b5092915050565b606060008061192e85611dee565b9092509050600182016119535760405162461bcd60e51b81526004016105b590612f9a565b8084106119955760405162461bcd60e51b815260206004820152601060248201526f2b34b7103932b0b21037bb32b9393ab760811b60448201526064016105b5565b6000806119a3846001612ecc565b905060005b86811015611a1b576119ba88836123be565b92506000198303611a075760405162461bcd60e51b815260206004820152601760248201527642616420566172496e7420696e2073637269707453696760481b60448201526064016105b5565b611a118383612ecc565b91506001016119a8565b50611a2687826123be565b91506000198203611a735760405162461bcd60e51b815260206004820152601760248201527642616420566172496e7420696e2073637269707453696760481b60448201526064016105b5565b611a7e878284611f85565b9450505050505b92915050565b6000808251118015611a9f57506020825111155b611ae35760405162461bcd60e51b8152602060048201526015602482015274092dcecc2d8d2c840e6deeae4c6ca40d8cadccee8d605b1b60448201526064016105b5565b506020015190565b6060600080611af985611dee565b909250905060018201611b1e5760405162461bcd60e51b81526004016105b590612f9a565b808410611b615760405162461bcd60e51b81526020600482015260116024820152702b37baba103932b0b21037bb32b9393ab760791b60448201526064016105b5565b600080611b6f846001612ecc565b905060005b86811015611bed57611b868883612407565b92506000198303611bd95760405162461bcd60e51b815260206004820152601a60248201527f42616420566172496e7420696e207363726970745075626b657900000000000060448201526064016105b5565b611be38383612ecc565b9150600101611b74565b50611bf88782612407565b91506000198203611a735760405162461bcd60e51b815260206004820152601a60248201527f42616420566172496e7420696e207363726970745075626b657900000000000060448201526064016105b5565b606081600981518110611c6057611c60612e28565b6020910101516001600160f81b031916603560f91b14611c8e57505060408051602081019091526000815290565b600082600a81518110611ca357611ca3612e28565b01602001516001600160f81b031981169150611cc6908490600b9060f81c611f85565b9392505050565b60008385148015611cdc575081155b8015611ce757508251155b15611cf457506001611d03565b611d008584868561246b565b90505b949350505050565b606060008060005b84811015611d8457611d258683612515565b92506000198303611d705760405162461bcd60e51b815260206004820152601560248201527442616420566172496e7420696e207769746e65737360581b60448201526064016105b5565b611d7a8383612ecc565b9150600101611d13565b50611d8f8582612515565b91506000198203611dda5760405162461bcd60e51b815260206004820152601560248201527442616420566172496e7420696e207769746e65737360581b60448201526064016105b5565b611de5858284611f85565b95945050505050565b600080611dfc8360006125b7565b91509150915091565b6060600080611e1385611dee565b909250905060018201611e385760405162461bcd60e51b81526004016105b590612f9a565b808410611e7a5760405162461bcd60e51b815260206004820152601060248201526f2b34b7103932b0b21037bb32b9393ab760811b60448201526064016105b5565b600080611e88846001612ecc565b905060005b86811015611f1357611e9f88836125b7565b909550925060018301611ee95760405162461bcd60e51b815260206004820152601260248201527142616420566172496e7420696e206974656d60701b60448201526064016105b5565b82611ef5866001612ecc565b611eff9190612ecc565b611f099083612ecc565b9150600101611e8d565b50611f1e87826125b7565b909450915060018201611f685760405162461bcd60e51b815260206004820152601260248201527142616420566172496e7420696e206974656d60701b60448201526064016105b5565b611a7e81611f768685612ecc565b611f81906001612ecc565b8991905b606081600003611fa45750604080516020810190915260008152611cc6565b6000611fb08385612ecc565b90508381118015611fc2575080855110155b6120045760405162461bcd60e51b8152602060048201526013602482015272536c696365206f7574206f6620626f756e647360681b60448201526064016105b5565b604051915082604083010160405282825283850182038460208701018481015b8082101561203d57815183830152602082019150612024565b505050509392505050565b81518151600091908114612060576000915050611a85565b60206000805b8383116120965750508481015184820151602090920191808214612091576000945050505050611a85565b612066565b60006120a3602085612edf565b90505b84811015612111578681815181106120c0576120c0612e28565b602001015160f81c60f81b6001600160f81b0319168882815181106120e7576120e7612e28565b01602001516001600160f81b0319161461210957600095505050505050611a85565b6001016120a6565b506001979650505050505050565b6000806002805461212f90612c83565b91506000905061214184836014611f85565b61214a90612fdc565b60601c949350505050565b7f9016d09d72d40fdae2fd8ceac6b6234c7706214fd39c1cd1e609a0528c19930080546001600160a01b031981166001600160a01b03848116918217845560405192169182907f8be0079c531659141344cd1fd0a4f28419497f9722a3daafe3b4186f6b6457e090600090a3505050565b60006122008a8a8a8a8a8a8a8a8a6040516020016121ec9998979695949392919061302f565b604051602081830303815290604052612759565b9a9950505050505050505050565b600080600061221c84611dee565b909250905080158061222f575060001982145b1561223e575060009392505050565b600061224b836001612ecc565b905060005b828110156122a5578551821061226c5750600095945050505050565b600061227887846123be565b90506000198103612290575060009695505050505050565b61229a8184612ecc565b925050600101612250565b5093519093149392505050565b60008060006122c084611dee565b90925090508015806122d3575060001982145b156122e2575060009392505050565b60006122ef836001612ecc565b905060005b828110156122a557855182106123105750600095945050505050565b600061231c8784612407565b90506000198103612334575060009695505050505050565b61233e8184612ecc565b9250506001016122f4565b60008160000361235b57506000611a85565b6000805b838110156123b2578451821061237a57600092505050611a85565b60006123868684612515565b9050600019810361239d5760009350505050611a85565b6123a78184612ecc565b92505060010161235f565b50835114905092915050565b60008060006123cd8585612780565b9092509050600182016123e65760001992505050611a85565b806123f2836025612ecc565b6123fc9190612ecc565b611de5906004612ecc565b6000612414826009612ecc565b835110156124255750600019611a85565b60008061243c85612437866008612ecc565b6125b7565b9092509050600182016124555760001992505050611a85565b80612461836009612ecc565b611de59190612ecc565b60006020845161247b9190613098565b1561248857506000611d03565b835160000361249957506000611d03565b818560005b8651811015612508576124b2600284613098565b6001036124d6576124cf6124c98883016020015190565b836127c2565b91506124ef565b6124ec826124e78984016020015190565b6127c2565b91505b60019290921c91612501602082612ecc565b905061249e565b5090931495945050505050565b600080600061252485856125b7565b90925090506001820161253d5760001992505050611a85565b60008061254b846001612ecc565b905060005b838110156125ac5761256688612437848a612ecc565b9095509250600183016125825760001995505050505050611a85565b8261258e866001612ecc565b6125989190612ecc565b6125a29083612ecc565b9150600101612550565b509695505050505050565b60008060006125c685856127ce565b90508060ff166000036125fb5760008585815181106125e7576125e7612e28565b016020015190935060f81c91506127529050565b836126078260016130ba565b60ff166126149190612ecc565b8551101561262b5760001960009250925050612752565b60008160ff1660020361266f57612664612650612649876001612ecc565b8890612854565b62ffff0060e882901c1660f89190911c1790565b61ffff169050612748565b8160ff166004036126be576126b161268b612649876001612ecc565b60d881901c63ff00ff001662ff00ff60e89290921c9190911617601081811b91901c1790565b63ffffffff169050612748565b8160ff166008036127485761273c6126da612649876001612ecc565b60c01c64ff000000ff600882811c91821665ff000000ff009390911b92831617601090811b6001600160401b031666ff00ff00ff00ff9290921667ff00ff00ff00ff009093169290921790911c65ffff0000ffff1617602081811c91901b1790565b6001600160401b031690505b60ff909116925090505b9250929050565b60006020600083516020850160025afa50602060006020600060025afa5050600051919050565b60008061278e836025612ecc565b845110156127a3575060001990506000612752565b6000806127b586612437876024612ecc565b9097909650945050505050565b6000611cc68383612863565b60008282815181106127e2576127e2612e28565b016020015160f81c60ff036127f957506008611a85565b82828151811061280b5761280b612e28565b016020015160f81c60fe0361282257506004611a85565b82828151811061283457612834612e28565b016020015160f81c60fd0361284b57506002611a85565b50600092915050565b6000611cc68383016020015190565b60008260005281602052602060006040600060025afa50602060006020600060025afa505060005192915050565b60008083601f8401126128a357600080fd5b5081356001600160401b038111156128ba57600080fd5b60208301915083602082850101111561275257600080fd5b6000806000806000606086880312156128ea57600080fd5b85356001600160401b0381111561290057600080fd5b61290c88828901612891565b90965094505060208601356001600160401b0381111561292b57600080fd5b61293788828901612891565b96999598509660400135949350505050565b60006020828403121561295b57600080fd5b5035919050565b602081526000825180602084015260005b818110156129905760208186018101516040868401015201612973565b506000604082850101526040601f19601f83011684010191505092915050565b600061012082840312156129c357600080fd5b50919050565b600080600080608085870312156129df57600080fd5b84356001600160401b038111156129f557600080fd5b612a01878288016129b0565b97602087013597506040870135966060013595509350505050565b600060208284031215612a2e57600080fd5b81356001600160a01b0381168114611cc657600080fd5b634e487b7160e01b600052604160045260246000fd5b600080600080600060a08688031215612a7357600080fd5b85356001600160401b03811115612a8957600080fd5b8601601f81018813612a9a57600080fd5b80356001600160401b03811115612ab357612ab3612a45565b604051601f8201601f19908116603f011681016001600160401b0381118282101715612ae157612ae1612a45565b6040528181528282016020018a1015612af957600080fd5b8160208401602083013760006020838301015280975050505060208601356001600160401b03811115612b2b57600080fd5b612b37888289016129b0565b959895975050505060408401359360608101359360809091013592509050565b60008083601f840112612b6957600080fd5b5081356001600160401b03811115612b8057600080fd5b6020830191508360208260051b850101111561275257600080fd5b60008060008060408587031215612bb157600080fd5b84356001600160401b03811115612bc757600080fd5b612bd387828801612b57565b90955093505060208501356001600160401b03811115612bf257600080fd5b612bfe87828801612b57565b95989497509550505050565b803563ffffffff81168114612c1e57600080fd5b919050565b60008060408385031215612c3657600080fd5b82359150612c4660208401612c0a565b90509250929050565b600060208284031215612c6157600080fd5b81356001600160401b03811115612c7757600080fd5b611d03848285016129b0565b600181811c90821680612c9757607f821691505b6020821081036129c357634e487b7160e01b600052602260045260246000fd5b601f821115612d0157806000526020600020601f840160051c81016020851015612cde5750805b601f840160051c820191505b81811015612cfe5760008155600101612cea565b50505b505050565b6001600160401b03831115612d1d57612d1d612a45565b612d3183612d2b8354612c83565b83612cb7565b6000601f841160018114612d655760008515612d4d5750838201355b600019600387901b1c1916600186901b178355612cfe565b600083815260209020601f19861690835b82811015612d965786850135825560209485019460019092019101612d76565b5086821015612db35760001960f88860031b161c19848701351681555b505060018560011b0183555050505050565b81835281816020850137506000828201602090810191909152601f909101601f19169091010190565b606081526000612e02606083018789612dc5565b8281036020840152612e15818688612dc5565b9150508260408301529695505050505050565b634e487b7160e01b600052603260045260246000fd5b6000808335601e19843603018112612e5557600080fd5b8301803591506001600160401b03821115612e6f57600080fd5b60200191503681900382131561275257600080fd5b634e487b7160e01b600052601160045260246000fd5b8082028115828204841417611a8557611a85612e84565b600060208284031215612ec357600080fd5b611cc682612c0a565b80820180821115611a8557611a85612e84565b81810381811115611a8557611a85612e84565b600060208284031215612f0457600080fd5b81356001600160e01b031981168114611cc657600080fd5b600060208284031215612f2e57600080fd5b81356001600160f01b031981168114611cc657600080fd5b858152846020820152608060408201526000612f66608083018587612dc5565b90508260608301529695505050505050565b600060208284031215612f8a57600080fd5b81518015158114611cc657600080fd5b60208082526022908201527f52656164206f76657272756e20647572696e6720566172496e742070617273696040820152616e6760f01b606082015260800190565b805160208201516bffffffffffffffffffffffff19811691906014821015613028576bffffffffffffffffffffffff196bffffffffffffffffffffffff198360140360031b1b82161692505b5050919050565b6001600160e01b03198a1681526001600160f01b031989166004820152868860068301376000878201600681016000815287898237506000908701600601908152848682376001600160e01b031993909316929093019182525060040198975050505050505050565b6000826130b557634e487b7160e01b600052601260045260246000fd5b500690565b60ff8181168382160190811115611a8557611a85612e8456","linkReferences":{}},"methodIdentifiers":{"DEPOSIT_AMOUNT()":"ec6925a7","LIGHT_CLIENT()":"e613ae00","SYSTEM_CALLER()":"d761753e","acceptOwnership()":"79ba5097","batchWithdraw(bytes32[],uint32[])":"d30db949","declareWithdrawFiller((bytes4,bytes2,bytes,bytes,bytes,bytes4,bytes,uint256,uint256),uint256,uint256,uint256)":"9773ea90","deposit((bytes4,bytes2,bytes,bytes,bytes,bytes4,bytes,uint256,uint256))":"dd95c7c6","depositScript()":"b93780f6","getWithdrawalCount()":"781952a8","initialize(bytes,bytes,uint256)":"41260137","initialized()":"158ef93e","isOperatorMalicious(uint256)":"bafa9eb2","kickoffRoots(uint256)":"8afbfff8","markMaliciousOperator(bytes,(bytes4,bytes2,bytes,bytes,bytes,bytes4,bytes,uint256,uint256),uint256,uint256,uint256)":"ca46f45e","operator()":"570ca735","operatorAddresses(uint256)":"7792a035","owner()":"8da5cb5b","pendingOwner()":"e30c3978","renounceOwnership()":"715018a6","requiredSigsCount()":"43e31687","scriptSuffix()":"87f8bf56","setDepositScript(bytes,bytes,uint256)":"9f963f59","setOperator(address)":"b3ab15fb","spentWtxIds(bytes32)":"5e0e5b3e","transferOwnership(address)":"f2fde38b","withdraw(bytes32,uint32)":"d62239f9","withdrawFillers(uint256)":"c045577b","withdrawalUTXOs(uint256)":"471ba1e3"},"id":45}