{"abi":[{"type":"function","name":"DEPOSIT_AMOUNT","inputs":[],"outputs":[{"name":"","type":"uint256","internalType":"uint256"}],"stateMutability":"view"},{"type":"function","name":"LIGHT_CLIENT","inputs":[],"outputs":[{"name":"","type":"address","internalType":"contract BitcoinLightClient"}],"stateMutability":"view"},{"type":"function","name":"SYSTEM_CALLER","inputs":[],"outputs":[{"name":"","type":"address","internalType":"address"}],"stateMutability":"view"},{"type":"function","name":"acceptOwnership","inputs":[],"outputs":[],"stateMutability":"nonpayable"},{"type":"function","name":"batchWithdraw","inputs":[{"name":"bitcoin_addresses","type":"bytes32[]","internalType":"bytes32[]"}],"outputs":[],"stateMutability":"payable"},{"type":"function","name":"deposit","inputs":[{"name":"p","type":"tuple","internalType":"struct Bridge.DepositParams","components":[{"name":"version","type":"bytes4","internalType":"bytes4"},{"name":"flag","type":"bytes2","internalType":"bytes2"},{"name":"vin","type":"bytes","internalType":"bytes"},{"name":"vout","type":"bytes","internalType":"bytes"},{"name":"witness","type":"bytes","internalType":"bytes"},{"name":"locktime","type":"bytes4","internalType":"bytes4"},{"name":"intermediate_nodes","type":"bytes","internalType":"bytes"},{"name":"block_height","type":"uint256","internalType":"uint256"},{"name":"index","type":"uint256","internalType":"uint256"}]}],"outputs":[],"stateMutability":"nonpayable"},{"type":"function","name":"depositScript","inputs":[],"outputs":[{"name":"","type":"bytes","internalType":"bytes"}],"stateMutability":"view"},{"type":"function","name":"getWithdrawalCount","inputs":[],"outputs":[{"name":"","type":"uint256","internalType":"uint256"}],"stateMutability":"view"},{"type":"function","name":"initialize","inputs":[{"name":"_depositScript","type":"bytes","internalType":"bytes"},{"name":"_scriptSuffix","type":"bytes","internalType":"bytes"},{"name":"_requiredSigsCount","type":"uint256","internalType":"uint256"}],"outputs":[],"stateMutability":"nonpayable"},{"type":"function","name":"initialized","inputs":[],"outputs":[{"name":"","type":"bool","internalType":"bool"}],"stateMutability":"view"},{"type":"function","name":"operator","inputs":[],"outputs":[{"name":"","type":"address","internalType":"address"}],"stateMutability":"view"},{"type":"function","name":"owner","inputs":[],"outputs":[{"name":"","type":"address","internalType":"address"}],"stateMutability":"view"},{"type":"function","name":"pendingOwner","inputs":[],"outputs":[{"name":"","type":"address","internalType":"address"}],"stateMutability":"view"},{"type":"function","name":"renounceOwnership","inputs":[],"outputs":[],"stateMutability":"nonpayable"},{"type":"function","name":"requiredSigsCount","inputs":[],"outputs":[{"name":"","type":"uint256","internalType":"uint256"}],"stateMutability":"view"},{"type":"function","name":"scriptSuffix","inputs":[],"outputs":[{"name":"","type":"bytes","internalType":"bytes"}],"stateMutability":"view"},{"type":"function","name":"setDepositScript","inputs":[{"name":"_depositScript","type":"bytes","internalType":"bytes"},{"name":"_scriptSuffix","type":"bytes","internalType":"bytes"},{"name":"_requiredSigsCount","type":"uint256","internalType":"uint256"}],"outputs":[],"stateMutability":"nonpayable"},{"type":"function","name":"setOperator","inputs":[{"name":"_operator","type":"address","internalType":"address"}],"outputs":[],"stateMutability":"nonpayable"},{"type":"function","name":"spentWtxIds","inputs":[{"name":"","type":"bytes32","internalType":"bytes32"}],"outputs":[{"name":"","type":"bool","internalType":"bool"}],"stateMutability":"view"},{"type":"function","name":"transferOwnership","inputs":[{"name":"newOwner","type":"address","internalType":"address"}],"outputs":[],"stateMutability":"nonpayable"},{"type":"function","name":"withdraw","inputs":[{"name":"bitcoin_address","type":"bytes32","internalType":"bytes32"}],"outputs":[],"stateMutability":"payable"},{"type":"function","name":"withdrawalAddrs","inputs":[{"name":"","type":"uint256","internalType":"uint256"}],"outputs":[{"name":"","type":"bytes32","internalType":"bytes32"}],"stateMutability":"view"},{"type":"event","name":"Deposit","inputs":[{"name":"wtxId","type":"bytes32","indexed":false,"internalType":"bytes32"},{"name":"recipient","type":"address","indexed":false,"internalType":"address"},{"name":"timestamp","type":"uint256","indexed":false,"internalType":"uint256"}],"anonymous":false},{"type":"event","name":"DepositScriptUpdate","inputs":[{"name":"depositScript","type":"bytes","indexed":false,"internalType":"bytes"},{"name":"scriptSuffix","type":"bytes","indexed":false,"internalType":"bytes"},{"name":"requiredSigsCount","type":"uint256","indexed":false,"internalType":"uint256"}],"anonymous":false},{"type":"event","name":"Initialized","inputs":[{"name":"version","type":"uint64","indexed":false,"internalType":"uint64"}],"anonymous":false},{"type":"event","name":"OperatorUpdated","inputs":[{"name":"oldOperator","type":"address","indexed":false,"internalType":"address"},{"name":"newOperator","type":"address","indexed":false,"internalType":"address"}],"anonymous":false},{"type":"event","name":"OwnershipTransferStarted","inputs":[{"name":"previousOwner","type":"address","indexed":true,"internalType":"address"},{"name":"newOwner","type":"address","indexed":true,"internalType":"address"}],"anonymous":false},{"type":"event","name":"OwnershipTransferred","inputs":[{"name":"previousOwner","type":"address","indexed":true,"internalType":"address"},{"name":"newOwner","type":"address","indexed":true,"internalType":"address"}],"anonymous":false},{"type":"event","name":"Withdrawal","inputs":[{"name":"bitcoin_address","type":"bytes32","indexed":false,"internalType":"bytes32"},{"name":"index","type":"uint256","indexed":false,"internalType":"uint256"},{"name":"timestamp","type":"uint256","indexed":false,"internalType":"uint256"}],"anonymous":false},{"type":"error","name":"InvalidInitialization","inputs":[]},{"type":"error","name":"NotInitializing","inputs":[]},{"type":"error","name":"OwnableInvalidOwner","inputs":[{"name":"owner","type":"address","internalType":"address"}]},{"type":"error","name":"OwnableUnauthorizedAccount","inputs":[{"name":"account","type":"address","internalType":"address"}]}],"bytecode":{"object":"0x6080604052348015600f57600080fd5b506124478061001f6000396000f3fe6080604052600436106101355760003560e01c80638e19899e116100ab578063d761753e1161006f578063d761753e1461032d578063dd95c7c614610355578063e30c397814610375578063e613ae001461038a578063ec6925a7146103a5578063f2fde38b146103c057600080fd5b80638e19899e146102a55780639f963f59146102b8578063b3ab15fb146102d8578063b93780f6146102f8578063d1c444561461030d57600080fd5b80635e0e5b3e116100fd5780635e0e5b3e146101ff578063715018a61461022f578063781952a81461024457806379ba50971461025957806387f8bf561461026e5780638da5cb5b1461029057600080fd5b8063158ef93e1461013a578063412601371461016957806343e316871461018b578063570ca735146101af57806359c19cee146101ec575b600080fd5b34801561014657600080fd5b506000546101549060ff1681565b60405190151581526020015b60405180910390f35b34801561017557600080fd5b50610189610184366004611e9c565b6103e0565b005b34801561019757600080fd5b506101a160015481565b604051908152602001610160565b3480156101bb57600080fd5b506000546101d49061010090046001600160a01b031681565b6040516001600160a01b039091168152602001610160565b6101896101fa366004611f15565b610624565b34801561020b57600080fd5b5061015461021a366004611f8c565b60046020526000908152604090205460ff1681565b34801561023b57600080fd5b50610189610734565b34801561025057600080fd5b506005546101a1565b34801561026557600080fd5b50610189610748565b34801561027a57600080fd5b50610283610790565b6040516101609190611fa5565b34801561029c57600080fd5b506101d461081e565b6101896102b3366004611f8c565b610853565b3480156102c457600080fd5b506101896102d3366004611e9c565b61091c565b3480156102e457600080fd5b506101896102f3366004611ff3565b610a1e565b34801561030457600080fd5b50610283610a8f565b34801561031957600080fd5b506101a1610328366004611f8c565b610a9c565b34801561033957600080fd5b506101d473deaddeaddeaddeaddeaddeaddeaddeaddeaddead81565b34801561036157600080fd5b5061018961037036600461201c565b610abd565b34801561038157600080fd5b506101d4611267565b34801561039657600080fd5b506101d46001603160981b0181565b3480156103b157600080fd5b506101a1662386f26fc1000081565b3480156103cc57600080fd5b506101896103db366004611ff3565b611290565b3373deaddeaddeaddeaddeaddeaddeaddeaddeaddead146104485760405162461bcd60e51b815260206004820152601f60248201527f63616c6c6572206973206e6f74207468652073797374656d2063616c6c65720060448201526064015b60405180910390fd5b60005460ff161561049b5760405162461bcd60e51b815260206004820152601f60248201527f436f6e747261637420697320616c726561647920696e697469616c697a656400604482015260640161043f565b806000036104eb5760405162461bcd60e51b815260206004820152601a60248201527f566572696669657220636f756e742063616e6e6f742062652030000000000000604482015260640161043f565b600084900361053c5760405162461bcd60e51b815260206004820152601e60248201527f4465706f736974207363726970742063616e6e6f7420626520656d7074790000604482015260640161043f565b6000805460ff1916600117905560026105568587836120f7565b5060036105648385836120f7565b50600181905560008054610100600160a81b03191674deaddeaddeaddeaddeaddeaddeaddeaddeaddead001781556040805191825273deaddeaddeaddeaddeaddeaddeaddeaddeaddead60208301527ffbe5b6cbafb274f445d7fed869dc77a838d8243a22c460de156560e8857cad03910160405180910390a17f89ed79f38bee253aee2fb8d52df0d71b4aaf0843800d093a499a55eeca455c3485858585856040516106159594939291906121e0565b60405180910390a15050505050565b61063581662386f26fc10000612230565b341461067d5760405162461bcd60e51b8152602060048201526017602482015276125b9d985b1a59081dda5d1a191c985dc8185b5bdd5b9d604a1b604482015260640161043f565b60055460005b8281101561072e57600584848381811061069f5761069f612247565b835460018101855560009485526020948590209190940292909201359190920155507fc96d1af655ee5eb07357bb1097f3b2f247ea0c4e3cf5f9a5c8449c4f8b64fb6b8484838181106106f4576106f4612247565b905060200201358284610707919061225d565b604080519283526020830191909152429082015260600160405180910390a1600101610683565b50505050565b61073c611315565b6107466000611347565b565b3380610752611267565b6001600160a01b0316146107845760405163118cdaa760e01b81526001600160a01b038216600482015260240161043f565b61078d81611347565b50565b6003805461079d9061206e565b80601f01602080910402602001604051908101604052809291908181526020018280546107c99061206e565b80156108165780601f106107eb57610100808354040283529160200191610816565b820191906000526020600020905b8154815290600101906020018083116107f957829003601f168201915b505050505081565b6000807f9016d09d72d40fdae2fd8ceac6b6234c7706214fd39c1cd1e609a0528c1993005b546001600160a01b031692915050565b662386f26fc1000034146108a35760405162461bcd60e51b8152602060048201526017602482015276125b9d985b1a59081dda5d1a191c985dc8185b5bdd5b9d604a1b604482015260640161043f565b600580546001810182556000919091527f036b6384b5eca791c62761152d0c79bb0604c104a5fb6f4eb0703f3154bb3db081018290556040805183815260208101839052428183015290517fc96d1af655ee5eb07357bb1097f3b2f247ea0c4e3cf5f9a5c8449c4f8b64fb6b9181900360600190a15050565b610924611315565b806000036109745760405162461bcd60e51b815260206004820152601a60248201527f566572696669657220636f756e742063616e6e6f742062652030000000000000604482015260640161043f565b60008490036109c55760405162461bcd60e51b815260206004820152601e60248201527f4465706f736974207363726970742063616e6e6f7420626520656d7074790000604482015260640161043f565b60026109d28587836120f7565b5060036109e08385836120f7565b5060018190556040517f89ed79f38bee253aee2fb8d52df0d71b4aaf0843800d093a499a55eeca455c349061061590879087908790879087906121e0565b610a26611315565b60008054610100600160a81b0319166101006001600160a01b038481168281029390931793849055604080519290940416815260208101919091527ffbe5b6cbafb274f445d7fed869dc77a838d8243a22c460de156560e8857cad03910160405180910390a150565b6002805461079d9061206e565b60058181548110610aac57600080fd5b600091825260209091200154905081565b60005461010090046001600160a01b03163314610b1c5760405162461bcd60e51b815260206004820152601a60248201527f63616c6c6572206973206e6f7420746865206f70657261746f72000000000000604482015260640161043f565b6000610b7a610b2e6020840184612270565b610b3e604085016020860161229a565b610b4b60408601866122c4565b610b5860608801886122c4565b610b6560808a018a6122c4565b610b7560c08c0160a08d01612270565b611383565b60008181526004602052604090205490915060ff1615610bd25760405162461bcd60e51b81526020600482015260136024820152721ddd1e125908185b1c9958591e481cdc195b9d606a1b604482015260640161043f565b60008181526004602052604090819020805460ff19166001179055610c3790610bfd908401846122c4565b8080601f0160208091040260200160405190810160405280939291908181526020018383808284376000920191909152506113cb92505050565b610c835760405162461bcd60e51b815260206004820152601d60248201527f56696e206973206e6f742070726f7065726c7920666f726d6174746564000000604482015260640161043f565b610ccd610c9360608401846122c4565b8080601f01602080910402602001604051908101604052809392919081815260200183838082843760009201919091525061146f92505050565b610d195760405162461bcd60e51b815260206004820152601e60248201527f566f7574206973206e6f742070726f7065726c7920666f726d61747465640000604482015260640161043f565b6000610d65610d2b60408501856122c4565b8080601f01602080910402602001604051908101604052809392919081815260200183838082843760009201919091525061150692505050565b91505080600114610db15760405162461bcd60e51b815260206004820152601660248201527513db9b1e481bdb99481a5b9c1d5d08185b1b1bddd95960521b604482015260640161043f565b610dfd610dc160808501856122c4565b8080601f01602080910402602001604051908101604052809392919081815260200183838082843760009201919091525085925061151d915050565b610e535760405162461bcd60e51b815260206004820152602160248201527f5769746e657373206973206e6f742070726f7065726c7920666f726d617474656044820152601960fa1b606482015260840161043f565b6001603160981b01634ffd344a60e085013584610e7360c08801886122c4565b8861010001356040518663ffffffff1660e01b8152600401610e9995949392919061230b565b602060405180830381865afa158015610eb6573d6000803e3d6000fd5b505050506040513d601f19601f82011682018060405250810190610eda919061233d565b610f265760405162461bcd60e51b815260206004820152601b60248201527f5472616e73616374696f6e206973206e6f7420696e20626c6f636b0000000000604482015260640161043f565b6000610f72610f3860808601866122c4565b8080601f01602080910402602001604051908101604052809392919081815260200183838082843760009201829052509250611593915050565b90506000610f7f82611506565b9150506001546002610f91919061225d565b8114610fd75760405162461bcd60e51b8152602060048201526015602482015274496e76616c6964207769746e657373206974656d7360581b604482015260640161043f565b6000610fe583600154611676565b9050600060028054610ff69061206e565b915060009050611007838284611840565b905061109d816002805461101a9061206e565b80601f01602080910402602001604051908101604052809291908181526020018280546110469061206e565b80156110935780601f1061106857610100808354040283529160200191611093565b820191906000526020600020905b81548152906001019060200180831161107657829003601f168201915b5050505050611904565b6110e25760405162461bcd60e51b8152602060048201526016602482015275125b9d985b1a590819195c1bdcda5d081cd8dc9a5c1d60521b604482015260640161043f565b60006111116110f284601461225d565b6110fd85601461225d565b8651611109919061235f565b869190611840565b9050611124816003805461101a9061206e565b6111685760405162461bcd60e51b8152602060048201526015602482015274092dcecc2d8d2c840e6c6e4d2e0e840e6eaccccd2f605b1b604482015260640161043f565b6000611173856119c6565b604080518b81526001600160a01b0383166020820152428183015290519192507f182fa52899142d44ff5c45a6354d3b3e868d5b07db6a65580b39bd321bdaf8ac919081900360600190a16000816001600160a01b0316662386f26fc1000060405160006040518083038185875af1925050503d8060008114611212576040519150601f19603f3d011682016040523d82523d6000602084013e611217565b606091505b505090508061125a5760405162461bcd60e51b815260206004820152600f60248201526e151c985b9cd9995c8819985a5b1959608a1b604482015260640161043f565b5050505050505050505050565b6000807f237e158222e3e6968b72b9db0d8043aacf074ad9f650f0d1606b4d82ee432c00610843565b611298611315565b7f237e158222e3e6968b72b9db0d8043aacf074ad9f650f0d1606b4d82ee432c0080546001600160a01b0319166001600160a01b03831690811782556112dc61081e565b6001600160a01b03167f38d16b8cac22d99fc7c124b9cd0de2d3fa1faef420bfe791d8c362d765e2270060405160405180910390a35050565b3361131e61081e565b6001600160a01b0316146107465760405163118cdaa760e01b815233600482015260240161043f565b7f237e158222e3e6968b72b9db0d8043aacf074ad9f650f0d1606b4d82ee432c0080546001600160a01b031916815561137f826119fc565b5050565b60006113bd8a8a8a8a8a8a8a8a8a6040516020016113a999989796959493929190612372565b604051602081830303815290604052611a6d565b9a9950505050505050505050565b60008060006113d984611506565b90925090508015806113ec575060001982145b156113fb575060009392505050565b600061140883600161225d565b905060005b8281101561146257855182106114295750600095945050505050565b60006114358784611a94565b9050600019810361144d575060009695505050505050565b611457818461225d565b92505060010161140d565b5093519093149392505050565b600080600061147d84611506565b9092509050801580611490575060001982145b1561149f575060009392505050565b60006114ac83600161225d565b905060005b8281101561146257855182106114cd5750600095945050505050565b60006114d98784611add565b905060001981036114f1575060009695505050505050565b6114fb818461225d565b9250506001016114b1565b600080611514836000611b41565b91509150915091565b60008160000361152f5750600061158d565b6000805b83811015611586578451821061154e5760009250505061158d565b600061155a8684611ce5565b90506000198103611571576000935050505061158d565b61157b818461225d565b925050600101611533565b5083511490505b92915050565b606060008060005b8481101561160c576115ad8683611ce5565b925060001983036115f85760405162461bcd60e51b815260206004820152601560248201527442616420566172496e7420696e207769746e65737360581b604482015260640161043f565b611602838361225d565b915060010161159b565b506116178582611ce5565b915060001982036116625760405162461bcd60e51b815260206004820152601560248201527442616420566172496e7420696e207769746e65737360581b604482015260640161043f565b61166d858284611840565b95945050505050565b606060008061168485611506565b9092509050600182016116e45760405162461bcd60e51b815260206004820152602260248201527f52656164206f76657272756e20647572696e6720566172496e742070617273696044820152616e6760f01b606482015260840161043f565b8084106117265760405162461bcd60e51b815260206004820152601060248201526f2b34b7103932b0b21037bb32b9393ab760811b604482015260640161043f565b60008061173484600161225d565b905060005b868110156117bf5761174b8883611b41565b9095509250600183016117955760405162461bcd60e51b815260206004820152601260248201527142616420566172496e7420696e206974656d60701b604482015260640161043f565b826117a186600161225d565b6117ab919061225d565b6117b5908361225d565b9150600101611739565b506117ca8782611b41565b9094509150600182016118145760405162461bcd60e51b815260206004820152601260248201527142616420566172496e7420696e206974656d60701b604482015260640161043f565b61183581611822868561225d565b61182d90600161225d565b899190611840565b979650505050505050565b60608160000361185f57506040805160208101909152600081526118fd565b600061186b838561225d565b9050838111801561187d575080855110155b6118bf5760405162461bcd60e51b8152602060048201526013602482015272536c696365206f7574206f6620626f756e647360681b604482015260640161043f565b604051915082604083010160405282825283850182038460208701018481015b808210156118f8578151838301526020820191506118df565b505050505b9392505050565b6000815183511461194e5760405162461bcd60e51b8152602060048201526014602482015273098cadccee8d0e640c8de40dcdee840dac2e8c6d60631b604482015260640161043f565b825160005b818110156119bb5783818151811061196d5761196d612247565b602001015160f81c60f81b6001600160f81b03191685828151811061199457611994612247565b01602001516001600160f81b031916146119b35760009250505061158d565b600101611953565b506001949350505050565b600080600280546119d69061206e565b9150600090506119e884836014611840565b6119f1906123db565b60601c949350505050565b7f9016d09d72d40fdae2fd8ceac6b6234c7706214fd39c1cd1e609a0528c19930080546001600160a01b031981166001600160a01b03848116918217845560405192169182907f8be0079c531659141344cd1fd0a4f28419497f9722a3daafe3b4186f6b6457e090600090a3505050565b60006020600083516020850160025afa50602060006020600060025afa5050600051919050565b6000806000611aa38585611d83565b909250905060018201611abc576000199250505061158d565b80611ac883602561225d565b611ad2919061225d565b61166d90600461225d565b6000611aea82600961225d565b83511015611afb575060001961158d565b600080611b1285611b0d86600861225d565b611b41565b909250905060018201611b2b576000199250505061158d565b80611b3783600961225d565b61166d919061225d565b6000806000611b508585611dc5565b90508060ff16600003611b85576000858581518110611b7157611b71612247565b016020015190935060f81c9150611cde9050565b83611b9182600161242e565b60ff16611b9e919061225d565b85511015611bb55760001960009250925050611cde565b60008160ff16600203611bf957611bee611bda611bd387600161225d565b8890611e4b565b62ffff0060e882901c1660f89190911c1790565b61ffff169050611cd4565b8160ff16600403611c4857611c3b611c15611bd387600161225d565b60d881901c63ff00ff001662ff00ff60e89290921c9190911617601081811b91901c1790565b63ffffffff169050611cd4565b8160ff16600803611cd457611cc7611c64611bd387600161225d565b60c01c64ff000000ff600882811c91821665ff000000ff009390911b92831617601090811b67ffffffffffffffff1666ff00ff00ff00ff9290921667ff00ff00ff00ff009093169290921790911c65ffff0000ffff1617602081811c91901b1790565b67ffffffffffffffff1690505b60ff909116925090505b9250929050565b6000806000611cf48585611b41565b909250905060018201611d0d576000199250505061158d565b600080611d1b84600161225d565b905060005b83811015611d7857611d328883611b41565b909550925060018301611d4e576000199550505050505061158d565b82611d5a86600161225d565b611d64919061225d565b611d6e908361225d565b9150600101611d20565b509695505050505050565b600080611d9183602561225d565b84511015611da6575060001990506000611cde565b600080611db886611b0d87602461225d565b9097909650945050505050565b6000828281518110611dd957611dd9612247565b016020015160f81c60ff03611df05750600861158d565b828281518110611e0257611e02612247565b016020015160f81c60fe03611e195750600461158d565b828281518110611e2b57611e2b612247565b016020015160f81c60fd03611e425750600261158d565b50600092915050565b60006118fd8383016020015190565b60008083601f840112611e6c57600080fd5b50813567ffffffffffffffff811115611e8457600080fd5b602083019150836020828501011115611cde57600080fd5b600080600080600060608688031215611eb457600080fd5b853567ffffffffffffffff811115611ecb57600080fd5b611ed788828901611e5a565b909650945050602086013567ffffffffffffffff811115611ef757600080fd5b611f0388828901611e5a565b96999598509660400135949350505050565b60008060208385031215611f2857600080fd5b823567ffffffffffffffff811115611f3f57600080fd5b8301601f81018513611f5057600080fd5b803567ffffffffffffffff811115611f6757600080fd5b8560208260051b8401011115611f7c57600080fd5b6020919091019590945092505050565b600060208284031215611f9e57600080fd5b5035919050565b602081526000825180602084015260005b81811015611fd35760208186018101516040868401015201611fb6565b506000604082850101526040601f19601f83011684010191505092915050565b60006020828403121561200557600080fd5b81356001600160a01b03811681146118fd57600080fd5b60006020828403121561202e57600080fd5b813567ffffffffffffffff81111561204557600080fd5b820161012081850312156118fd57600080fd5b634e487b7160e01b600052604160045260246000fd5b600181811c9082168061208257607f821691505b6020821081036120a257634e487b7160e01b600052602260045260246000fd5b50919050565b601f8211156120f257806000526020600020601f840160051c810160208510156120cf5750805b601f840160051c820191505b818110156120ef57600081556001016120db565b50505b505050565b67ffffffffffffffff83111561210f5761210f612058565b6121238361211d835461206e565b836120a8565b6000601f841160018114612157576000851561213f5750838201355b600019600387901b1c1916600186901b1783556120ef565b600083815260209020601f19861690835b828110156121885786850135825560209485019460019092019101612168565b50868210156121a55760001960f88860031b161c19848701351681555b505060018560011b0183555050505050565b81835281816020850137506000828201602090810191909152601f909101601f19169091010190565b6060815260006121f46060830187896121b7565b82810360208401526122078186886121b7565b9150508260408301529695505050505050565b634e487b7160e01b600052601160045260246000fd5b808202811582820484141761158d5761158d61221a565b634e487b7160e01b600052603260045260246000fd5b8082018082111561158d5761158d61221a565b60006020828403121561228257600080fd5b81356001600160e01b0319811681146118fd57600080fd5b6000602082840312156122ac57600080fd5b81356001600160f01b0319811681146118fd57600080fd5b6000808335601e198436030181126122db57600080fd5b83018035915067ffffffffffffffff8211156122f657600080fd5b602001915036819003821315611cde57600080fd5b85815284602082015260806040820152600061232b6080830185876121b7565b90508260608301529695505050505050565b60006020828403121561234f57600080fd5b815180151581146118fd57600080fd5b8181038181111561158d5761158d61221a565b6001600160e01b03198a1681526001600160f01b031989166004820152868860068301376000878201600681016000815287898237506000908701600601908152848682376001600160e01b031993909316929093019182525060040198975050505050505050565b805160208201516bffffffffffffffffffffffff19811691906014821015612427576bffffffffffffffffffffffff196bffffffffffffffffffffffff198360140360031b1b82161692505b5050919050565b60ff818116838216019081111561158d5761158d61221a56","linkReferences":{}},"methodIdentifiers":{"DEPOSIT_AMOUNT()":"ec6925a7","LIGHT_CLIENT()":"e613ae00","SYSTEM_CALLER()":"d761753e","acceptOwnership()":"79ba5097","batchWithdraw(bytes32[])":"59c19cee","deposit((bytes4,bytes2,bytes,bytes,bytes,bytes4,bytes,uint256,uint256))":"dd95c7c6","depositScript()":"b93780f6","getWithdrawalCount()":"781952a8","initialize(bytes,bytes,uint256)":"41260137","initialized()":"158ef93e","operator()":"570ca735","owner()":"8da5cb5b","pendingOwner()":"e30c3978","renounceOwnership()":"715018a6","requiredSigsCount()":"43e31687","scriptSuffix()":"87f8bf56","setDepositScript(bytes,bytes,uint256)":"9f963f59","setOperator(address)":"b3ab15fb","spentWtxIds(bytes32)":"5e0e5b3e","transferOwnership(address)":"f2fde38b","withdraw(bytes32)":"8e19899e","withdrawalAddrs(uint256)":"d1c44456"},"id":43}