{"abi":[{"type":"function","name":"LIGHT_CLIENT","inputs":[],"outputs":[{"name":"","type":"address","internalType":"contract BitcoinLightClient"}],"stateMutability":"view"},{"type":"function","name":"SYSTEM_CALLER","inputs":[],"outputs":[{"name":"","type":"address","internalType":"address"}],"stateMutability":"view"},{"type":"function","name":"acceptOwnership","inputs":[],"outputs":[],"stateMutability":"nonpayable"},{"type":"function","name":"batchWithdraw","inputs":[{"name":"txIds","type":"bytes32[]","internalType":"bytes32[]"},{"name":"outputIds","type":"uint32[]","internalType":"uint32[]"}],"outputs":[],"stateMutability":"payable"},{"type":"function","name":"declareWithdrawFiller","inputs":[{"name":"withdrawTp","type":"tuple","internalType":"struct Bridge.TransactionParams","components":[{"name":"version","type":"bytes4","internalType":"bytes4"},{"name":"flag","type":"bytes2","internalType":"bytes2"},{"name":"vin","type":"bytes","internalType":"bytes"},{"name":"vout","type":"bytes","internalType":"bytes"},{"name":"witness","type":"bytes","internalType":"bytes"},{"name":"locktime","type":"bytes4","internalType":"bytes4"},{"name":"intermediate_nodes","type":"bytes","internalType":"bytes"},{"name":"block_height","type":"uint256","internalType":"uint256"},{"name":"index","type":"uint256","internalType":"uint256"}]},{"name":"inputIndex","type":"uint256","internalType":"uint256"},{"name":"withdrawId","type":"uint256","internalType":"uint256"}],"outputs":[],"stateMutability":"nonpayable"},{"type":"function","name":"deposit","inputs":[{"name":"moveTp","type":"tuple","internalType":"struct Bridge.TransactionParams","components":[{"name":"version","type":"bytes4","internalType":"bytes4"},{"name":"flag","type":"bytes2","internalType":"bytes2"},{"name":"vin","type":"bytes","internalType":"bytes"},{"name":"vout","type":"bytes","internalType":"bytes"},{"name":"witness","type":"bytes","internalType":"bytes"},{"name":"locktime","type":"bytes4","internalType":"bytes4"},{"name":"intermediate_nodes","type":"bytes","internalType":"bytes"},{"name":"block_height","type":"uint256","internalType":"uint256"},{"name":"index","type":"uint256","internalType":"uint256"}]}],"outputs":[],"stateMutability":"nonpayable"},{"type":"function","name":"depositAmount","inputs":[],"outputs":[{"name":"","type":"uint256","internalType":"uint256"}],"stateMutability":"view"},{"type":"function","name":"depositScript","inputs":[],"outputs":[{"name":"","type":"bytes","internalType":"bytes"}],"stateMutability":"view"},{"type":"function","name":"getWithdrawalCount","inputs":[],"outputs":[{"name":"","type":"uint256","internalType":"uint256"}],"stateMutability":"view"},{"type":"function","name":"initialize","inputs":[{"name":"_depositScript","type":"bytes","internalType":"bytes"},{"name":"_scriptSuffix","type":"bytes","internalType":"bytes"},{"name":"_depositAmount","type":"uint256","internalType":"uint256"}],"outputs":[],"stateMutability":"nonpayable"},{"type":"function","name":"initialized","inputs":[],"outputs":[{"name":"","type":"bool","internalType":"bool"}],"stateMutability":"view"},{"type":"function","name":"isOperatorMalicious","inputs":[{"name":"","type":"uint256","internalType":"uint256"}],"outputs":[{"name":"","type":"bool","internalType":"bool"}],"stateMutability":"view"},{"type":"function","name":"kickoffScript","inputs":[],"outputs":[{"name":"","type":"bytes","internalType":"bytes"}],"stateMutability":"view"},{"type":"function","name":"markMaliciousOperator","inputs":[{"name":"kickoff2Tp","type":"tuple","internalType":"struct Bridge.TransactionParams","components":[{"name":"version","type":"bytes4","internalType":"bytes4"},{"name":"flag","type":"bytes2","internalType":"bytes2"},{"name":"vin","type":"bytes","internalType":"bytes"},{"name":"vout","type":"bytes","internalType":"bytes"},{"name":"witness","type":"bytes","internalType":"bytes"},{"name":"locktime","type":"bytes4","internalType":"bytes4"},{"name":"intermediate_nodes","type":"bytes","internalType":"bytes"},{"name":"block_height","type":"uint256","internalType":"uint256"},{"name":"index","type":"uint256","internalType":"uint256"}]}],"outputs":[],"stateMutability":"nonpayable"},{"type":"function","name":"operator","inputs":[],"outputs":[{"name":"","type":"address","internalType":"address"}],"stateMutability":"view"},{"type":"function","name":"owner","inputs":[],"outputs":[{"name":"","type":"address","internalType":"address"}],"stateMutability":"view"},{"type":"function","name":"pendingOwner","inputs":[],"outputs":[{"name":"","type":"address","internalType":"address"}],"stateMutability":"view"},{"type":"function","name":"renounceOwnership","inputs":[],"outputs":[],"stateMutability":"nonpayable"},{"type":"function","name":"scriptSuffix","inputs":[],"outputs":[{"name":"","type":"bytes","internalType":"bytes"}],"stateMutability":"view"},{"type":"function","name":"setDepositScript","inputs":[{"name":"_depositScript","type":"bytes","internalType":"bytes"},{"name":"_scriptSuffix","type":"bytes","internalType":"bytes"}],"outputs":[],"stateMutability":"nonpayable"},{"type":"function","name":"setKickoffScript","inputs":[{"name":"_kickoffScript","type":"bytes","internalType":"bytes"}],"outputs":[],"stateMutability":"nonpayable"},{"type":"function","name":"setOperator","inputs":[{"name":"_operator","type":"address","internalType":"address"}],"outputs":[],"stateMutability":"nonpayable"},{"type":"function","name":"transferOwnership","inputs":[{"name":"newOwner","type":"address","internalType":"address"}],"outputs":[],"stateMutability":"nonpayable"},{"type":"function","name":"txIdToDepositId","inputs":[{"name":"","type":"bytes32","internalType":"bytes32"}],"outputs":[{"name":"","type":"uint256","internalType":"uint256"}],"stateMutability":"view"},{"type":"function","name":"withdraw","inputs":[{"name":"txId","type":"bytes32","internalType":"bytes32"},{"name":"outputId","type":"uint32","internalType":"uint32"}],"outputs":[],"stateMutability":"payable"},{"type":"function","name":"withdrawFillers","inputs":[{"name":"","type":"uint256","internalType":"uint256"}],"outputs":[{"name":"","type":"uint256","internalType":"uint256"}],"stateMutability":"view"},{"type":"function","name":"withdrawalUTXOs","inputs":[{"name":"","type":"uint256","internalType":"uint256"}],"outputs":[{"name":"txId","type":"bytes32","internalType":"bytes32"},{"name":"outputId","type":"uint32","internalType":"uint32"}],"stateMutability":"view"},{"type":"event","name":"Deposit","inputs":[{"name":"wtxId","type":"bytes32","indexed":false,"internalType":"bytes32"},{"name":"txId","type":"bytes32","indexed":false,"internalType":"bytes32"},{"name":"recipient","type":"address","indexed":false,"internalType":"address"},{"name":"timestamp","type":"uint256","indexed":false,"internalType":"uint256"},{"name":"depositId","type":"uint256","indexed":false,"internalType":"uint256"}],"anonymous":false},{"type":"event","name":"DepositScriptUpdate","inputs":[{"name":"depositScript","type":"bytes","indexed":false,"internalType":"bytes"},{"name":"scriptSuffix","type":"bytes","indexed":false,"internalType":"bytes"}],"anonymous":false},{"type":"event","name":"Initialized","inputs":[{"name":"version","type":"uint64","indexed":false,"internalType":"uint64"}],"anonymous":false},{"type":"event","name":"KickoffScriptUpdate","inputs":[{"name":"kickoffScript","type":"bytes","indexed":false,"internalType":"bytes"}],"anonymous":false},{"type":"event","name":"MaliciousOperatorMarked","inputs":[{"name":"operatorId","type":"uint256","indexed":false,"internalType":"uint256"}],"anonymous":false},{"type":"event","name":"OperatorUpdated","inputs":[{"name":"oldOperator","type":"address","indexed":false,"internalType":"address"},{"name":"newOperator","type":"address","indexed":false,"internalType":"address"}],"anonymous":false},{"type":"event","name":"OwnershipTransferStarted","inputs":[{"name":"previousOwner","type":"address","indexed":true,"internalType":"address"},{"name":"newOwner","type":"address","indexed":true,"internalType":"address"}],"anonymous":false},{"type":"event","name":"OwnershipTransferred","inputs":[{"name":"previousOwner","type":"address","indexed":true,"internalType":"address"},{"name":"newOwner","type":"address","indexed":true,"internalType":"address"}],"anonymous":false},{"type":"event","name":"WithdrawFillerDeclared","inputs":[{"name":"withdrawId","type":"uint256","indexed":false,"internalType":"uint256"},{"name":"withdrawFillerId","type":"uint256","indexed":false,"internalType":"uint256"}],"anonymous":false},{"type":"event","name":"Withdrawal","inputs":[{"name":"utxo","type":"tuple","indexed":false,"internalType":"struct Bridge.UTXO","components":[{"name":"txId","type":"bytes32","internalType":"bytes32"},{"name":"outputId","type":"uint32","internalType":"uint32"}]},{"name":"index","type":"uint256","indexed":false,"internalType":"uint256"},{"name":"timestamp","type":"uint256","indexed":false,"internalType":"uint256"}],"anonymous":false},{"type":"error","name":"InvalidInitialization","inputs":[]},{"type":"error","name":"NotInitializing","inputs":[]},{"type":"error","name":"OwnableInvalidOwner","inputs":[{"name":"owner","type":"address","internalType":"address"}]},{"type":"error","name":"OwnableUnauthorizedAccount","inputs":[{"name":"account","type":"address","internalType":"address"}]}],"bytecode":{"object":"0x6080604052348015600f57600080fd5b506131aa8061001f6000396000f3fe60806040526004361061019c5760003560e01c8063b3ab15fb116100ec578063d761753e1161008a578063e613ae0011610064578063e613ae0014610485578063ebcb0cf3146104a0578063f2fde38b146104c0578063f8e655d2146104e057600080fd5b8063d761753e14610428578063dd95c7c614610450578063e30c39781461047057600080fd5b8063c045577b116100c6578063c045577b146103c0578063c46aef1e146103ed578063d30db94914610402578063d62239f91461041557600080fd5b8063b3ab15fb1461036b578063b93780f61461038b578063bafa9eb2146103a057600080fd5b80635e3cc74011610159578063781952a811610133578063781952a81461030a57806379ba50971461031f57806387f8bf56146103345780638da5cb5b1461035657600080fd5b80635e3cc740146102b5578063715018a6146102d557806374ab4a83146102ea57600080fd5b806311e53a01146101a1578063158ef93e146101e1578063412601371461020b578063419759f51461022d578063471ba1e314610243578063570ca7351461027d575b600080fd5b3480156101ad57600080fd5b506101ce6101bc3660046128e1565b60066020526000908152604090205481565b6040519081526020015b60405180910390f35b3480156101ed57600080fd5b506000546101fb9060ff1681565b60405190151581526020016101d8565b34801561021757600080fd5b5061022b61022636600461293b565b610500565b005b34801561023957600080fd5b506101ce60015481565b34801561024f57600080fd5b5061026361025e3660046128e1565b610702565b6040805192835263ffffffff9091166020830152016101d8565b34801561028957600080fd5b5060025461029d906001600160a01b031681565b6040516001600160a01b0390911681526020016101d8565b3480156102c157600080fd5b5061022b6102d03660046129cb565b610736565b3480156102e157600080fd5b5061022b610a79565b3480156102f657600080fd5b5061022b610305366004612a07565b610a8d565b34801561031657600080fd5b506027546101ce565b34801561032b57600080fd5b5061022b610c4d565b34801561034057600080fd5b50610349610c95565b6040516101d89190612a78565b34801561036257600080fd5b5061029d610d23565b34801561037757600080fd5b5061022b610386366004612aab565b610d58565b34801561039757600080fd5b50610349610dbb565b3480156103ac57600080fd5b506101fb6103bb3660046128e1565b610dc8565b3480156103cc57600080fd5b506101ce6103db3660046128e1565b60286020526000908152604090205481565b3480156103f957600080fd5b50610349610df3565b61022b610410366004612b18565b610e00565b61022b610423366004612ba0565b610fe5565b34801561043457600080fd5b5061029d73deaddeaddeaddeaddeaddeaddeaddeaddeaddead81565b34801561045c57600080fd5b5061022b61046b3660046129cb565b611111565b34801561047c57600080fd5b5061029d61156c565b34801561049157600080fd5b5061029d6001603160981b0181565b3480156104ac57600080fd5b5061022b6104bb366004612bcc565b611595565b3480156104cc57600080fd5b5061022b6104db366004612aab565b611609565b3480156104ec57600080fd5b5061022b6104fb366004612c0d565b61168e565b3373deaddeaddeaddeaddeaddeaddeaddeaddeaddead146105685760405162461bcd60e51b815260206004820152601f60248201527f63616c6c6572206973206e6f74207468652073797374656d2063616c6c65720060448201526064015b60405180910390fd5b60005460ff16156105bb5760405162461bcd60e51b815260206004820152601f60248201527f436f6e747261637420697320616c726561647920696e697469616c697a656400604482015260640161055f565b8060000361060b5760405162461bcd60e51b815260206004820152601a60248201527f4465706f73697420616d6f756e742063616e6e6f742062652030000000000000604482015260640161055f565b600084900361062c5760405162461bcd60e51b815260040161055f90612c70565b6000805460ff191660011790556003610646858783612d40565b506004610654838583612d40565b506001819055600280546001600160a01b03191673deaddeaddeaddeaddeaddeaddeaddeaddeaddead908117909155604080516000815260208101929092527ffbe5b6cbafb274f445d7fed869dc77a838d8243a22c460de156560e8857cad03910160405180910390a17f80bd1fdfe157286ce420ee763f91748455b249605748e5df12dad9844402bafc858585856040516106f39493929190612e28565b60405180910390a15050505050565b6027818154811061071257600080fd5b60009182526020909120600290910201805460019091015490915063ffffffff1682565b61073f81611708565b506000905061078e6107546060840184612e5a565b8080601f016020809104026020016040519081016040528093929190818152602001838380828437600092019190915250611a2b92505050565b9150600090506107eb6107a46060850185612e5a565b8080601f0160208091040260200160405190810160405280939291908181526020018383808284376000920191909152506107e6925060019150869050612eb6565b611a42565b90506000806107f983611bba565b80602001905181019061080c9190612ec9565b60008181526006602052604081205492945090925061086b6108316080890189612e5a565b8080601f01602080910402602001604051908101604052809392919081815260200183838082843760009201829052509250611c3c915050565b9050600061087882611a2b565b915050806003146108c35760405162461bcd60e51b8152602060048201526015602482015274496e76616c6964207769746e657373206974656d7360581b604482015260640161055f565b60006108d0836001611d1f565b90506000602980546108e190612cbd565b9150600090506108f2838284611e9f565b9050610988816029805461090590612cbd565b80601f016020809104026020016040519081016040528092919081815260200182805461093190612cbd565b801561097e5780601f106109535761010080835404028352916020019161097e565b820191906000526020600020905b81548152906001019060200180831161096157829003601f168201915b5050505050611f62565b6109cd5760405162461bcd60e51b8152602060048201526016602482015275125b9d985b1a59081ada58dadbd999881cd8dc9a5c1d60521b604482015260640161055f565b60008681526028602052604090205415806109fe57506109ec88612039565b60008781526028602052604090205414155b15610a395760016007896103e88110610a1957610a19612eed565b602091828204019190066101000a81548160ff0219169083151502179055505b6040518881527ff918cdaebea74c5a8c3b02d7404c162f507551b158202cedcba9b6a74eabdff29060200160405180910390a15050505050505050505050565b610a81612046565b610a8b6000612078565b565b610a9683611708565b5060009050610ae7610aab6040860186612e5a565b8080601f0160208091040260200160405190810160405280939291908181526020018383808284376000920191909152508792506120b4915050565b90506000610af482612207565b90506000610b0183612214565b60e01c9050600060278581548110610b1b57610b1b612eed565b600091825260209182902060408051808201909152600290920201805480835260019091015463ffffffff1692820192909252915083148015610b6d57508163ffffffff16816020015163ffffffff16145b610bad5760405162461bcd60e51b81526020600482015260116024820152706e6f74206d61746368696e67205554584f60781b604482015260640161055f565b6000610bbf61075460608a018a612e5a565b915060009050610bd56107a460608b018b612e5a565b90506000610bea610be583611bba565b612221565b9050610bf581612039565b6000898152602860209081526040918290209290925580518a81529182018390527feedf47c2f61b040827944fd45e44ef6d742354b34e1af7dd99a56f444ec79347910160405180910390a150505050505050505050565b3380610c5761156c565b6001600160a01b031614610c895760405163118cdaa760e01b81526001600160a01b038216600482015260240161055f565b610c9281612078565b50565b60048054610ca290612cbd565b80601f0160208091040260200160405190810160405280929190818152602001828054610cce90612cbd565b8015610d1b5780601f10610cf057610100808354040283529160200191610d1b565b820191906000526020600020905b815481529060010190602001808311610cfe57829003601f168201915b505050505081565b6000807f9016d09d72d40fdae2fd8ceac6b6234c7706214fd39c1cd1e609a0528c1993005b546001600160a01b031692915050565b610d60612046565b600280546001600160a01b0319166001600160a01b0383169081179091556040805182815260208101929092527ffbe5b6cbafb274f445d7fed869dc77a838d8243a22c460de156560e8857cad03910160405180910390a150565b60038054610ca290612cbd565b6007816103e88110610dd957600080fd5b60209182820401919006915054906101000a900460ff1681565b60298054610ca290612cbd565b828114610e415760405162461bcd60e51b815260206004820152600f60248201526e098cadccee8d040dad2e6dac2e8c6d608b1b604482015260640161055f565b600154610e4f908490612f03565b3414610e975760405162461bcd60e51b8152602060048201526017602482015276125b9d985b1a59081dda5d1a191c985dc8185b5bdd5b9d604a1b604482015260640161055f565b60275460005b84811015610fdd5760006040518060400160405280888885818110610ec457610ec4612eed565b905060200201358152602001868685818110610ee257610ee2612eed565b9050602002016020810190610ef79190612f1a565b63ffffffff9081169091526027805460018101825560009190915282517f98a476f1687bc3d60a2da2adbcba2c46958e61fa2fb4042cd7bc5816a710195b60029092029182015560208301517f98a476f1687bc3d60a2da2adbcba2c46958e61fa2fb4042cd7bc5816a710195c909101805463ffffffff19169190921617905590507fe32f1dd44d4768b5cc8efdffee252f9da4f2cc539a5d1908c2772f181dd363ce81610fa58486612f35565b604080518351815260209384015163ffffffff169381019390935282015242606082015260800160405180910390a150600101610e9d565b505050505050565b60015434146110305760405162461bcd60e51b8152602060048201526017602482015276125b9d985b1a59081dda5d1a191c985dc8185b5bdd5b9d604a1b604482015260640161055f565b60408051808201825283815263ffffffff83811660208084019182526027805460018101825560009190915284517f98a476f1687bc3d60a2da2adbcba2c46958e61fa2fb4042cd7bc5816a710195b6002830290810182905584517f98a476f1687bc3d60a2da2adbcba2c46958e61fa2fb4042cd7bc5816a710195c909101805463ffffffff1916918716919091179055865190815292519093169082015292830181905242606084015290917fe32f1dd44d4768b5cc8efdffee252f9da4f2cc539a5d1908c2772f181dd363ce906080015b60405180910390a150505050565b6002546001600160a01b0316331461116b5760405162461bcd60e51b815260206004820152601a60248201527f63616c6c6572206973206e6f7420746865206f70657261746f72000000000000604482015260640161055f565b60008061117783611708565b91509150806001146111c45760405162461bcd60e51b815260206004820152601660248201527513db9b1e481bdb99481a5b9c1d5d08185b1b1bddd95960521b604482015260640161055f565b600061126f6111d66020860186612f48565b6111e36040870187612e5a565b8080601f016020809104026020016040519081016040528093929190818152602001838380828437600092019190915250611225925050506060880188612e5a565b8080601f01602080910402602001604051908101604052809392919081815260200183838082843760009201919091525061126a9250505060c0890160a08a01612f48565b612237565b600081815260066020526040902054909150156112c35760405162461bcd60e51b81526020600482015260126024820152711d1e125908185b1c9958591e481cdc195b9d60721b604482015260640161055f565b6005600081546112d290612f72565b91829055506000828152600660205260408120919091556112f96108316080870187612e5a565b9050600061130682611a2b565b915050806003146113515760405162461bcd60e51b8152602060048201526015602482015274496e76616c6964207769746e657373206974656d7360581b604482015260640161055f565b600061135e836001611d1f565b905060006003805461136f90612cbd565b915060009050611380838284611e9f565b9050611393816003805461090590612cbd565b6113d85760405162461bcd60e51b8152602060048201526016602482015275125b9d985b1a590819195c1bdcda5d081cd8dc9a5c1d60521b604482015260640161055f565b600061140c600480546113ea90612cbd565b86516113f69250612eb6565b6004805461140390612cbd565b87929150611e9f565b905061141f816004805461090590612cbd565b6114635760405162461bcd60e51b8152602060048201526015602482015274092dcecc2d8d2c840e6c6e4d2e0e840e6eaccccd2f605b1b604482015260640161055f565b600061146e85612267565b600554604080518d8152602081018c90526001600160a01b038416818301524260608201526080810192909252519192507fa82453ca34121b3ecb910d957824e27c5dc6465315949facd15fb72886490058919081900360a00190a16001546040516000916001600160a01b038416918381818185875af1925050503d8060008114611516576040519150601f19603f3d011682016040523d82523d6000602084013e61151b565b606091505b505090508061155e5760405162461bcd60e51b815260206004820152600f60248201526e151c985b9cd9995c8819985a5b1959608a1b604482015260640161055f565b505050505050505050505050565b6000807f237e158222e3e6968b72b9db0d8043aacf074ad9f650f0d1606b4d82ee432c00610d48565b61159d612046565b60008190036115be5760405162461bcd60e51b815260040161055f90612c70565b60296115cb828483612d40565b507f66841b70bca78b2e8e50e96d6e5cf90c507e0570d7f08b7cec950c97852b6df982826040516115fd929190612f8b565b60405180910390a15050565b611611612046565b7f237e158222e3e6968b72b9db0d8043aacf074ad9f650f0d1606b4d82ee432c0080546001600160a01b0319166001600160a01b0383169081178255611655610d23565b6001600160a01b03167f38d16b8cac22d99fc7c124b9cd0de2d3fa1faef420bfe791d8c362d765e2270060405160405180910390a35050565b611696612046565b60008390036116b75760405162461bcd60e51b815260040161055f90612c70565b60036116c4848683612d40565b5060046116d2828483612d40565b507f80bd1fdfe157286ce420ee763f91748455b249605748e5df12dad9844402bafc848484846040516111039493929190612e28565b6000808061176861171c6020860186612f48565b61172c6040870160208801612f9f565b6117396040880188612e5a565b61174660608a018a612e5a565b61175360808c018c612e5a565b61176360c08e0160a08f01612f48565b61229d565b90506117b461177a6040860186612e5a565b8080601f0160208091040260200160405190810160405280939291908181526020018383808284376000920191909152506122d192505050565b6118005760405162461bcd60e51b815260206004820152601d60248201527f56696e206973206e6f742070726f7065726c7920666f726d6174746564000000604482015260640161055f565b61184a6118106060860186612e5a565b8080601f01602080910402602001604051908101604052809392919081815260200183838082843760009201919091525061237592505050565b6118965760405162461bcd60e51b815260206004820152601e60248201527f566f7574206973206e6f742070726f7065726c7920666f726d61747465640000604482015260640161055f565b60006118a86107546040870187612e5a565b91506118f890506118bc6080870187612e5a565b8080601f01602080910402602001604051908101604052809392919081815260200183838082843760009201919091525085925061240c915050565b61194e5760405162461bcd60e51b815260206004820152602160248201527f5769746e657373206973206e6f742070726f7065726c7920666f726d617474656044820152601960fa1b606482015260840161055f565b6001603160981b01634ffd344a60e08701358461196e60c08a018a612e5a565b8a61010001356040518663ffffffff1660e01b8152600401611994959493929190612fc9565b602060405180830381865afa1580156119b1573d6000803e3d6000fd5b505050506040513d601f19601f820116820180604052508101906119d59190612ffb565b611a215760405162461bcd60e51b815260206004820152601b60248201527f5472616e73616374696f6e206973206e6f7420696e20626c6f636b0000000000604482015260640161055f565b9094909350915050565b600080611a39836000612481565b91509150915091565b6060600080611a5085611a2b565b909250905060018201611a755760405162461bcd60e51b815260040161055f9061301d565b808410611ab85760405162461bcd60e51b81526020600482015260116024820152702b37baba103932b0b21037bb32b9393ab760791b604482015260640161055f565b600080611ac6846001612f35565b905060005b86811015611b4457611add8883612623565b92506000198303611b305760405162461bcd60e51b815260206004820152601a60248201527f42616420566172496e7420696e207363726970745075626b6579000000000000604482015260640161055f565b611b3a8383612f35565b9150600101611acb565b50611b4f8782612623565b91506000198203611ba25760405162461bcd60e51b815260206004820152601a60248201527f42616420566172496e7420696e207363726970745075626b6579000000000000604482015260640161055f565b611bad878284611e9f565b9450505050505b92915050565b606081600981518110611bcf57611bcf612eed565b6020910101516001600160f81b031916603560f91b14611bfd57505060408051602081019091526000815290565b600082600a81518110611c1257611c12612eed565b01602001516001600160f81b031981169150611c35908490600b9060f81c611e9f565b9392505050565b606060008060005b84811015611cb557611c568683612687565b92506000198303611ca15760405162461bcd60e51b815260206004820152601560248201527442616420566172496e7420696e207769746e65737360581b604482015260640161055f565b611cab8383612f35565b9150600101611c44565b50611cc08582612687565b91506000198203611d0b5760405162461bcd60e51b815260206004820152601560248201527442616420566172496e7420696e207769746e65737360581b604482015260640161055f565b611d16858284611e9f565b95945050505050565b6060600080611d2d85611a2b565b909250905060018201611d525760405162461bcd60e51b815260040161055f9061301d565b808410611d945760405162461bcd60e51b815260206004820152601060248201526f2b34b7103932b0b21037bb32b9393ab760811b604482015260640161055f565b600080611da2846001612f35565b905060005b86811015611e2d57611db98883612481565b909550925060018301611e035760405162461bcd60e51b815260206004820152601260248201527142616420566172496e7420696e206974656d60701b604482015260640161055f565b82611e0f866001612f35565b611e199190612f35565b611e239083612f35565b9150600101611da7565b50611e388782612481565b909450915060018201611e825760405162461bcd60e51b815260206004820152601260248201527142616420566172496e7420696e206974656d60701b604482015260640161055f565b611bad81611e908685612f35565b611e9b906001612f35565b8991905b606081600003611ebe5750604080516020810190915260008152611c35565b6000611eca8385612f35565b90508381118015611edc575080855110155b611f1e5760405162461bcd60e51b8152602060048201526013602482015272536c696365206f7574206f6620626f756e647360681b604482015260640161055f565b604051915082604083010160405282825283850182038460208701018481015b80821015611f5757815183830152602082019150611f3e565b505050509392505050565b81518151600091908114611f7a576000915050611bb4565b60206000805b838311611fb05750508481015184820151602090920191808214611fab576000945050505050611bb4565b611f80565b6000611fbd602085612eb6565b90505b8481101561202b57868181518110611fda57611fda612eed565b602001015160f81c60f81b6001600160f81b03191688828151811061200157612001612eed565b01602001516001600160f81b0319161461202357600095505050505050611bb4565b600101611fc0565b506001979650505050505050565b6000611bb4826001612f35565b3361204f610d23565b6001600160a01b031614610a8b5760405163118cdaa760e01b815233600482015260240161055f565b7f237e158222e3e6968b72b9db0d8043aacf074ad9f650f0d1606b4d82ee432c0080546001600160a01b03191681556120b082612729565b5050565b60606000806120c285611a2b565b9092509050600182016120e75760405162461bcd60e51b815260040161055f9061301d565b8084106121295760405162461bcd60e51b815260206004820152601060248201526f2b34b7103932b0b21037bb32b9393ab760811b604482015260640161055f565b600080612137846001612f35565b905060005b868110156121af5761214e888361279a565b9250600019830361219b5760405162461bcd60e51b815260206004820152601760248201527642616420566172496e7420696e2073637269707453696760481b604482015260640161055f565b6121a58383612f35565b915060010161213c565b506121ba878261279a565b91506000198203611ba25760405162461bcd60e51b815260206004820152601760248201527642616420566172496e7420696e2073637269707453696760481b604482015260640161055f565b6020810151600090611bb4565b6000611bb48260206127e3565b600081806020019051810190611bb4919061305f565b6000611d16858585856040516020016122539493929190613078565b6040516020818303038152906040526127f2565b6000806003805461227790612cbd565b91506000905061228984836014611e9f565b612292906130d5565b60601c949350505050565b60006122c38a8a8a8a8a8a8a8a8a60405160200161225399989796959493929190613128565b9a9950505050505050505050565b60008060006122df84611a2b565b90925090508015806122f2575060001982145b15612301575060009392505050565b600061230e836001612f35565b905060005b82811015612368578551821061232f5750600095945050505050565b600061233b878461279a565b90506000198103612353575060009695505050505050565b61235d8184612f35565b925050600101612313565b5093519093149392505050565b600080600061238384611a2b565b9092509050801580612396575060001982145b156123a5575060009392505050565b60006123b2836001612f35565b905060005b8281101561236857855182106123d35750600095945050505050565b60006123df8784612623565b905060001981036123f7575060009695505050505050565b6124018184612f35565b9250506001016123b7565b60008160000361241e57506000611bb4565b6000805b83811015612475578451821061243d57600092505050611bb4565b60006124498684612687565b905060001981036124605760009350505050611bb4565b61246a8184612f35565b925050600101612422565b50835114905092915050565b60008060006124908585612819565b90508060ff166000036124c55760008585815181106124b1576124b1612eed565b016020015190935060f81c915061261c9050565b836124d1826001613191565b60ff166124de9190612f35565b855110156124f5576000196000925092505061261c565b60008160ff166002036125395761252e61251a612513876001612f35565b88906127e3565b62ffff0060e882901c1660f89190911c1790565b61ffff169050612612565b8160ff166004036125885761257b612555612513876001612f35565b60d881901c63ff00ff001662ff00ff60e89290921c9190911617601081811b91901c1790565b63ffffffff169050612612565b8160ff16600803612612576126066125a4612513876001612f35565b60c01c64ff000000ff600882811c91821665ff000000ff009390911b92831617601090811b6001600160401b031666ff00ff00ff00ff9290921667ff00ff00ff00ff009093169290921790911c65ffff0000ffff1617602081811c91901b1790565b6001600160401b031690505b60ff909116925090505b9250929050565b6000612630826009612f35565b835110156126415750600019611bb4565b60008061265885612653866008612f35565b612481565b9092509050600182016126715760001992505050611bb4565b8061267d836009612f35565b611d169190612f35565b60008060006126968585612481565b9092509050600182016126af5760001992505050611bb4565b6000806126bd846001612f35565b905060005b8381101561271e576126d888612653848a612f35565b9095509250600183016126f45760001995505050505050611bb4565b82612700866001612f35565b61270a9190612f35565b6127149083612f35565b91506001016126c2565b509695505050505050565b7f9016d09d72d40fdae2fd8ceac6b6234c7706214fd39c1cd1e609a0528c19930080546001600160a01b031981166001600160a01b03848116918217845560405192169182907f8be0079c531659141344cd1fd0a4f28419497f9722a3daafe3b4186f6b6457e090600090a3505050565b60008060006127a9858561289f565b9092509050600182016127c25760001992505050611bb4565b806127ce836025612f35565b6127d89190612f35565b611d16906004612f35565b6000611c358383016020015190565b60006020600083516020850160025afa50602060006020600060025afa5050600051919050565b600082828151811061282d5761282d612eed565b016020015160f81c60ff0361284457506008611bb4565b82828151811061285657612856612eed565b016020015160f81c60fe0361286d57506004611bb4565b82828151811061287f5761287f612eed565b016020015160f81c60fd0361289657506002611bb4565b50600092915050565b6000806128ad836025612f35565b845110156128c257506000199050600061261c565b6000806128d486612653876024612f35565b9097909650945050505050565b6000602082840312156128f357600080fd5b5035919050565b60008083601f84011261290c57600080fd5b5081356001600160401b0381111561292357600080fd5b60208301915083602082850101111561261c57600080fd5b60008060008060006060868803121561295357600080fd5b85356001600160401b0381111561296957600080fd5b612975888289016128fa565b90965094505060208601356001600160401b0381111561299457600080fd5b6129a0888289016128fa565b96999598509660400135949350505050565b600061012082840312156129c557600080fd5b50919050565b6000602082840312156129dd57600080fd5b81356001600160401b038111156129f357600080fd5b6129ff848285016129b2565b949350505050565b600080600060608486031215612a1c57600080fd5b83356001600160401b03811115612a3257600080fd5b612a3e868287016129b2565b9660208601359650604090950135949350505050565b60005b83811015612a6f578181015183820152602001612a57565b50506000910152565b6020815260008251806020840152612a97816040850160208701612a54565b601f01601f19169190910160400192915050565b600060208284031215612abd57600080fd5b81356001600160a01b0381168114611c3557600080fd5b60008083601f840112612ae657600080fd5b5081356001600160401b03811115612afd57600080fd5b6020830191508360208260051b850101111561261c57600080fd5b60008060008060408587031215612b2e57600080fd5b84356001600160401b03811115612b4457600080fd5b612b5087828801612ad4565b90955093505060208501356001600160401b03811115612b6f57600080fd5b612b7b87828801612ad4565b95989497509550505050565b803563ffffffff81168114612b9b57600080fd5b919050565b60008060408385031215612bb357600080fd5b82359150612bc360208401612b87565b90509250929050565b60008060208385031215612bdf57600080fd5b82356001600160401b03811115612bf557600080fd5b612c01858286016128fa565b90969095509350505050565b60008060008060408587031215612c2357600080fd5b84356001600160401b03811115612c3957600080fd5b612c45878288016128fa565b90955093505060208501356001600160401b03811115612c6457600080fd5b612b7b878288016128fa565b6020808252601e908201527f4465706f736974207363726970742063616e6e6f7420626520656d7074790000604082015260600190565b634e487b7160e01b600052604160045260246000fd5b600181811c90821680612cd157607f821691505b6020821081036129c557634e487b7160e01b600052602260045260246000fd5b601f821115612d3b57806000526020600020601f840160051c81016020851015612d185750805b601f840160051c820191505b81811015612d385760008155600101612d24565b50505b505050565b6001600160401b03831115612d5757612d57612ca7565b612d6b83612d658354612cbd565b83612cf1565b6000601f841160018114612d9f5760008515612d875750838201355b600019600387901b1c1916600186901b178355612d38565b600083815260209020601f19861690835b82811015612dd05786850135825560209485019460019092019101612db0565b5086821015612ded5760001960f88860031b161c19848701351681555b505060018560011b0183555050505050565b81835281816020850137506000828201602090810191909152601f909101601f19169091010190565b604081526000612e3c604083018688612dff565b8281036020840152612e4f818587612dff565b979650505050505050565b6000808335601e19843603018112612e7157600080fd5b8301803591506001600160401b03821115612e8b57600080fd5b60200191503681900382131561261c57600080fd5b634e487b7160e01b600052601160045260246000fd5b81810381811115611bb457611bb4612ea0565b60008060408385031215612edc57600080fd5b505080516020909101519092909150565b634e487b7160e01b600052603260045260246000fd5b8082028115828204841417611bb457611bb4612ea0565b600060208284031215612f2c57600080fd5b611c3582612b87565b80820180821115611bb457611bb4612ea0565b600060208284031215612f5a57600080fd5b81356001600160e01b031981168114611c3557600080fd5b600060018201612f8457612f84612ea0565b5060010190565b6020815260006129ff602083018486612dff565b600060208284031215612fb157600080fd5b81356001600160f01b031981168114611c3557600080fd5b858152846020820152608060408201526000612fe9608083018587612dff565b90508260608301529695505050505050565b60006020828403121561300d57600080fd5b81518015158114611c3557600080fd5b60208082526022908201527f52656164206f76657272756e20647572696e6720566172496e742070617273696040820152616e6760f01b606082015260800190565b60006020828403121561307157600080fd5b5051919050565b6001600160e01b031985168152835160009061309b816004850160208901612a54565b8451908301906130b2816004840160208901612a54565b6001600160e01b0319949094169301600481019390935250506008019392505050565b805160208201516bffffffffffffffffffffffff19811691906014821015613121576bffffffffffffffffffffffff196bffffffffffffffffffffffff198360140360031b1b82161692505b5050919050565b6001600160e01b03198a1681526001600160f01b031989166004820152868860068301376000878201600681016000815287898237506000908701600601908152848682376001600160e01b031993909316929093019182525060040198975050505050505050565b60ff8181168382160190811115611bb457611bb4612ea056","linkReferences":{}},"methodIdentifiers":{"LIGHT_CLIENT()":"e613ae00","SYSTEM_CALLER()":"d761753e","acceptOwnership()":"79ba5097","batchWithdraw(bytes32[],uint32[])":"d30db949","declareWithdrawFiller((bytes4,bytes2,bytes,bytes,bytes,bytes4,bytes,uint256,uint256),uint256,uint256)":"74ab4a83","deposit((bytes4,bytes2,bytes,bytes,bytes,bytes4,bytes,uint256,uint256))":"dd95c7c6","depositAmount()":"419759f5","depositScript()":"b93780f6","getWithdrawalCount()":"781952a8","initialize(bytes,bytes,uint256)":"41260137","initialized()":"158ef93e","isOperatorMalicious(uint256)":"bafa9eb2","kickoffScript()":"c46aef1e","markMaliciousOperator((bytes4,bytes2,bytes,bytes,bytes,bytes4,bytes,uint256,uint256))":"5e3cc740","operator()":"570ca735","owner()":"8da5cb5b","pendingOwner()":"e30c3978","renounceOwnership()":"715018a6","scriptSuffix()":"87f8bf56","setDepositScript(bytes,bytes)":"f8e655d2","setKickoffScript(bytes)":"ebcb0cf3","setOperator(address)":"b3ab15fb","transferOwnership(address)":"f2fde38b","txIdToDepositId(bytes32)":"11e53a01","withdraw(bytes32,uint32)":"d62239f9","withdrawFillers(uint256)":"c045577b","withdrawalUTXOs(uint256)":"471ba1e3"},"id":48}