{"abi":[{"type":"function","name":"DEPOSIT_AMOUNT","inputs":[],"outputs":[{"name":"","type":"uint256","internalType":"uint256"}],"stateMutability":"view"},{"type":"function","name":"LIGHT_CLIENT","inputs":[],"outputs":[{"name":"","type":"address","internalType":"contract BitcoinLightClient"}],"stateMutability":"view"},{"type":"function","name":"SYSTEM_CALLER","inputs":[],"outputs":[{"name":"","type":"address","internalType":"address"}],"stateMutability":"view"},{"type":"function","name":"UPGRADE_INTERFACE_VERSION","inputs":[],"outputs":[{"name":"","type":"string","internalType":"string"}],"stateMutability":"view"},{"type":"function","name":"acceptOwnership","inputs":[],"outputs":[],"stateMutability":"nonpayable"},{"type":"function","name":"batchWithdraw","inputs":[{"name":"bitcoin_addresses","type":"bytes32[]","internalType":"bytes32[]"}],"outputs":[],"stateMutability":"payable"},{"type":"function","name":"deposit","inputs":[{"name":"p","type":"tuple","internalType":"struct Bridge.DepositParams","components":[{"name":"version","type":"bytes4","internalType":"bytes4"},{"name":"flag","type":"bytes2","internalType":"bytes2"},{"name":"vin","type":"bytes","internalType":"bytes"},{"name":"vout","type":"bytes","internalType":"bytes"},{"name":"witness","type":"bytes","internalType":"bytes"},{"name":"locktime","type":"bytes4","internalType":"bytes4"},{"name":"intermediate_nodes","type":"bytes","internalType":"bytes"},{"name":"block_height","type":"uint256","internalType":"uint256"},{"name":"index","type":"uint256","internalType":"uint256"}]}],"outputs":[],"stateMutability":"nonpayable"},{"type":"function","name":"depositScript","inputs":[],"outputs":[{"name":"","type":"bytes","internalType":"bytes"}],"stateMutability":"view"},{"type":"function","name":"getWithdrawalCount","inputs":[],"outputs":[{"name":"","type":"uint256","internalType":"uint256"}],"stateMutability":"view"},{"type":"function","name":"initialize","inputs":[{"name":"_depositScript","type":"bytes","internalType":"bytes"},{"name":"_scriptSuffix","type":"bytes","internalType":"bytes"},{"name":"_requiredSigsCount","type":"uint256","internalType":"uint256"}],"outputs":[],"stateMutability":"nonpayable"},{"type":"function","name":"initialized","inputs":[],"outputs":[{"name":"","type":"bool","internalType":"bool"}],"stateMutability":"view"},{"type":"function","name":"operator","inputs":[],"outputs":[{"name":"","type":"address","internalType":"address"}],"stateMutability":"view"},{"type":"function","name":"owner","inputs":[],"outputs":[{"name":"","type":"address","internalType":"address"}],"stateMutability":"view"},{"type":"function","name":"pendingOwner","inputs":[],"outputs":[{"name":"","type":"address","internalType":"address"}],"stateMutability":"view"},{"type":"function","name":"proxiableUUID","inputs":[],"outputs":[{"name":"","type":"bytes32","internalType":"bytes32"}],"stateMutability":"view"},{"type":"function","name":"renounceOwnership","inputs":[],"outputs":[],"stateMutability":"nonpayable"},{"type":"function","name":"requiredSigsCount","inputs":[],"outputs":[{"name":"","type":"uint256","internalType":"uint256"}],"stateMutability":"view"},{"type":"function","name":"scriptSuffix","inputs":[],"outputs":[{"name":"","type":"bytes","internalType":"bytes"}],"stateMutability":"view"},{"type":"function","name":"setDepositScript","inputs":[{"name":"_depositScript","type":"bytes","internalType":"bytes"},{"name":"_scriptSuffix","type":"bytes","internalType":"bytes"},{"name":"_requiredSigsCount","type":"uint256","internalType":"uint256"}],"outputs":[],"stateMutability":"nonpayable"},{"type":"function","name":"setOperator","inputs":[{"name":"_operator","type":"address","internalType":"address"}],"outputs":[],"stateMutability":"nonpayable"},{"type":"function","name":"spentWtxIds","inputs":[{"name":"","type":"bytes32","internalType":"bytes32"}],"outputs":[{"name":"","type":"bool","internalType":"bool"}],"stateMutability":"view"},{"type":"function","name":"transferOwnership","inputs":[{"name":"newOwner","type":"address","internalType":"address"}],"outputs":[],"stateMutability":"nonpayable"},{"type":"function","name":"upgradeToAndCall","inputs":[{"name":"newImplementation","type":"address","internalType":"address"},{"name":"data","type":"bytes","internalType":"bytes"}],"outputs":[],"stateMutability":"payable"},{"type":"function","name":"withdraw","inputs":[{"name":"bitcoin_address","type":"bytes32","internalType":"bytes32"}],"outputs":[],"stateMutability":"payable"},{"type":"function","name":"withdrawalAddrs","inputs":[{"name":"","type":"uint256","internalType":"uint256"}],"outputs":[{"name":"","type":"bytes32","internalType":"bytes32"}],"stateMutability":"view"},{"type":"event","name":"Deposit","inputs":[{"name":"wtxId","type":"bytes32","indexed":false,"internalType":"bytes32"},{"name":"recipient","type":"address","indexed":false,"internalType":"address"},{"name":"timestamp","type":"uint256","indexed":false,"internalType":"uint256"}],"anonymous":false},{"type":"event","name":"DepositScriptUpdate","inputs":[{"name":"depositScript","type":"bytes","indexed":false,"internalType":"bytes"},{"name":"scriptSuffix","type":"bytes","indexed":false,"internalType":"bytes"},{"name":"requiredSigsCount","type":"uint256","indexed":false,"internalType":"uint256"}],"anonymous":false},{"type":"event","name":"Initialized","inputs":[{"name":"version","type":"uint64","indexed":false,"internalType":"uint64"}],"anonymous":false},{"type":"event","name":"OperatorUpdated","inputs":[{"name":"oldOperator","type":"address","indexed":false,"internalType":"address"},{"name":"newOperator","type":"address","indexed":false,"internalType":"address"}],"anonymous":false},{"type":"event","name":"OwnershipTransferStarted","inputs":[{"name":"previousOwner","type":"address","indexed":true,"internalType":"address"},{"name":"newOwner","type":"address","indexed":true,"internalType":"address"}],"anonymous":false},{"type":"event","name":"OwnershipTransferred","inputs":[{"name":"previousOwner","type":"address","indexed":true,"internalType":"address"},{"name":"newOwner","type":"address","indexed":true,"internalType":"address"}],"anonymous":false},{"type":"event","name":"Upgraded","inputs":[{"name":"implementation","type":"address","indexed":true,"internalType":"address"}],"anonymous":false},{"type":"event","name":"Withdrawal","inputs":[{"name":"bitcoin_address","type":"bytes32","indexed":false,"internalType":"bytes32"},{"name":"index","type":"uint256","indexed":false,"internalType":"uint256"},{"name":"timestamp","type":"uint256","indexed":false,"internalType":"uint256"}],"anonymous":false},{"type":"error","name":"AddressEmptyCode","inputs":[{"name":"target","type":"address","internalType":"address"}]},{"type":"error","name":"ERC1967InvalidImplementation","inputs":[{"name":"implementation","type":"address","internalType":"address"}]},{"type":"error","name":"ERC1967NonPayable","inputs":[]},{"type":"error","name":"FailedInnerCall","inputs":[]},{"type":"error","name":"InvalidInitialization","inputs":[]},{"type":"error","name":"NotInitializing","inputs":[]},{"type":"error","name":"OwnableInvalidOwner","inputs":[{"name":"owner","type":"address","internalType":"address"}]},{"type":"error","name":"OwnableUnauthorizedAccount","inputs":[{"name":"account","type":"address","internalType":"address"}]},{"type":"error","name":"UUPSUnauthorizedCallContext","inputs":[]},{"type":"error","name":"UUPSUnsupportedProxiableUUID","inputs":[{"name":"slot","type":"bytes32","internalType":"bytes32"}]}],"bytecode":{"object":"0x60a060405230608052348015601357600080fd5b506080516129e061003d600039600081816113e60152818161140f015261155501526129e06000f3fe6080604052600436106101665760003560e01c80638da5cb5b116100d1578063d1c444561161008a578063e30c397811610064578063e30c3978146103ff578063e613ae0014610414578063ec6925a71461042f578063f2fde38b1461044a57600080fd5b8063d1c4445614610397578063d761753e146103b7578063dd95c7c6146103df57600080fd5b80638da5cb5b146102e95780638e19899e146102fe5780639f963f5914610311578063ad3cb1cc14610331578063b3ab15fb14610362578063b93780f61461038257600080fd5b806359c19cee1161012357806359c19cee146102455780635e0e5b3e14610258578063715018a614610288578063781952a81461029d57806379ba5097146102b257806387f8bf56146102c757600080fd5b8063158ef93e1461016b578063412601371461019a57806343e31687146101bc5780634f1ef286146101e057806352d1902d146101f3578063570ca73514610208575b600080fd5b34801561017757600080fd5b506000546101859060ff1681565b60405190151581526020015b60405180910390f35b3480156101a657600080fd5b506101ba6101b53660046122e2565b61046a565b005b3480156101c857600080fd5b506101d260015481565b604051908152602001610191565b6101ba6101ee366004612388565b6106ae565b3480156101ff57600080fd5b506101d26106cd565b34801561021457600080fd5b5060005461022d9061010090046001600160a01b031681565b6040516001600160a01b039091168152602001610191565b6101ba61025336600461244a565b6106ea565b34801561026457600080fd5b506101856102733660046124bf565b60046020526000908152604090205460ff1681565b34801561029457600080fd5b506101ba6107fa565b3480156102a957600080fd5b506005546101d2565b3480156102be57600080fd5b506101ba61080e565b3480156102d357600080fd5b506102dc610856565b6040516101919190612528565b3480156102f557600080fd5b5061022d6108e4565b6101ba61030c3660046124bf565b610919565b34801561031d57600080fd5b506101ba61032c3660046122e2565b6109e2565b34801561033d57600080fd5b506102dc604051806040016040528060058152602001640352e302e360dc1b81525081565b34801561036e57600080fd5b506101ba61037d36600461253b565b610ae4565b34801561038e57600080fd5b506102dc610b55565b3480156103a357600080fd5b506101d26103b23660046124bf565b610b62565b3480156103c357600080fd5b5061022d73deaddeaddeaddeaddeaddeaddeaddeaddeaddead81565b3480156103eb57600080fd5b506101ba6103fa366004612556565b610b83565b34801561040b57600080fd5b5061022d61132d565b34801561042057600080fd5b5061022d6001603160981b0181565b34801561043b57600080fd5b506101d2662386f26fc1000081565b34801561045657600080fd5b506101ba61046536600461253b565b611356565b3373deaddeaddeaddeaddeaddeaddeaddeaddeaddead146104d25760405162461bcd60e51b815260206004820152601f60248201527f63616c6c6572206973206e6f74207468652073797374656d2063616c6c65720060448201526064015b60405180910390fd5b60005460ff16156105255760405162461bcd60e51b815260206004820152601f60248201527f436f6e747261637420697320616c726561647920696e697469616c697a65640060448201526064016104c9565b806000036105755760405162461bcd60e51b815260206004820152601a60248201527f566572696669657220636f756e742063616e6e6f74206265203000000000000060448201526064016104c9565b60008490036105c65760405162461bcd60e51b815260206004820152601e60248201527f4465706f736974207363726970742063616e6e6f7420626520656d707479000060448201526064016104c9565b6000805460ff1916600117905560026105e085878361261c565b5060036105ee83858361261c565b50600181905560008054610100600160a81b03191674deaddeaddeaddeaddeaddeaddeaddeaddeaddead001781556040805191825273deaddeaddeaddeaddeaddeaddeaddeaddeaddead60208301527ffbe5b6cbafb274f445d7fed869dc77a838d8243a22c460de156560e8857cad03910160405180910390a17f89ed79f38bee253aee2fb8d52df0d71b4aaf0843800d093a499a55eeca455c34858585858560405161069f959493929190612706565b60405180910390a15050505050565b6106b66113db565b6106bf82611480565b6106c98282611488565b5050565b60006106d761154a565b5060008051602061298b83398151915290565b6106fb81662386f26fc10000612756565b34146107435760405162461bcd60e51b8152602060048201526017602482015276125b9d985b1a59081dda5d1a191c985dc8185b5bdd5b9d604a1b60448201526064016104c9565b60055460005b828110156107f45760058484838181106107655761076561276d565b835460018101855560009485526020948590209190940292909201359190920155507fc96d1af655ee5eb07357bb1097f3b2f247ea0c4e3cf5f9a5c8449c4f8b64fb6b8484838181106107ba576107ba61276d565b9050602002013582846107cd9190612783565b604080519283526020830191909152429082015260600160405180910390a1600101610749565b50505050565b610802611593565b61080c60006115c5565b565b338061081861132d565b6001600160a01b03161461084a5760405163118cdaa760e01b81526001600160a01b03821660048201526024016104c9565b610853816115c5565b50565b6003805461086390612592565b80601f016020809104026020016040519081016040528092919081815260200182805461088f90612592565b80156108dc5780601f106108b1576101008083540402835291602001916108dc565b820191906000526020600020905b8154815290600101906020018083116108bf57829003601f168201915b505050505081565b6000807f9016d09d72d40fdae2fd8ceac6b6234c7706214fd39c1cd1e609a0528c1993005b546001600160a01b031692915050565b662386f26fc1000034146109695760405162461bcd60e51b8152602060048201526017602482015276125b9d985b1a59081dda5d1a191c985dc8185b5bdd5b9d604a1b60448201526064016104c9565b600580546001810182556000919091527f036b6384b5eca791c62761152d0c79bb0604c104a5fb6f4eb0703f3154bb3db081018290556040805183815260208101839052428183015290517fc96d1af655ee5eb07357bb1097f3b2f247ea0c4e3cf5f9a5c8449c4f8b64fb6b9181900360600190a15050565b6109ea611593565b80600003610a3a5760405162461bcd60e51b815260206004820152601a60248201527f566572696669657220636f756e742063616e6e6f74206265203000000000000060448201526064016104c9565b6000849003610a8b5760405162461bcd60e51b815260206004820152601e60248201527f4465706f736974207363726970742063616e6e6f7420626520656d707479000060448201526064016104c9565b6002610a9885878361261c565b506003610aa683858361261c565b5060018190556040517f89ed79f38bee253aee2fb8d52df0d71b4aaf0843800d093a499a55eeca455c349061069f9087908790879087908790612706565b610aec611593565b60008054610100600160a81b0319166101006001600160a01b038481168281029390931793849055604080519290940416815260208101919091527ffbe5b6cbafb274f445d7fed869dc77a838d8243a22c460de156560e8857cad03910160405180910390a150565b6002805461086390612592565b60058181548110610b7257600080fd5b600091825260209091200154905081565b60005461010090046001600160a01b03163314610be25760405162461bcd60e51b815260206004820152601a60248201527f63616c6c6572206973206e6f7420746865206f70657261746f7200000000000060448201526064016104c9565b6000610c40610bf46020840184612796565b610c0460408501602086016127c0565b610c1160408601866127ea565b610c1e60608801886127ea565b610c2b60808a018a6127ea565b610c3b60c08c0160a08d01612796565b6115fd565b60008181526004602052604090205490915060ff1615610c985760405162461bcd60e51b81526020600482015260136024820152721ddd1e125908185b1c9958591e481cdc195b9d606a1b60448201526064016104c9565b60008181526004602052604090819020805460ff19166001179055610cfd90610cc3908401846127ea565b8080601f01602080910402602001604051908101604052809392919081815260200183838082843760009201919091525061164592505050565b610d495760405162461bcd60e51b815260206004820152601d60248201527f56696e206973206e6f742070726f7065726c7920666f726d617474656400000060448201526064016104c9565b610d93610d5960608401846127ea565b8080601f0160208091040260200160405190810160405280939291908181526020018383808284376000920191909152506116e992505050565b610ddf5760405162461bcd60e51b815260206004820152601e60248201527f566f7574206973206e6f742070726f7065726c7920666f726d6174746564000060448201526064016104c9565b6000610e2b610df160408501856127ea565b8080601f01602080910402602001604051908101604052809392919081815260200183838082843760009201919091525061178092505050565b91505080600114610e775760405162461bcd60e51b815260206004820152601660248201527513db9b1e481bdb99481a5b9c1d5d08185b1b1bddd95960521b60448201526064016104c9565b610ec3610e8760808501856127ea565b8080601f016020809104026020016040519081016040528093929190818152602001838380828437600092019190915250859250611797915050565b610f195760405162461bcd60e51b815260206004820152602160248201527f5769746e657373206973206e6f742070726f7065726c7920666f726d617474656044820152601960fa1b60648201526084016104c9565b6001603160981b01634ffd344a60e085013584610f3960c08801886127ea565b8861010001356040518663ffffffff1660e01b8152600401610f5f959493929190612831565b602060405180830381865afa158015610f7c573d6000803e3d6000fd5b505050506040513d601f19601f82011682018060405250810190610fa09190612863565b610fec5760405162461bcd60e51b815260206004820152601b60248201527f5472616e73616374696f6e206973206e6f7420696e20626c6f636b000000000060448201526064016104c9565b6000611038610ffe60808601866127ea565b8080601f0160208091040260200160405190810160405280939291908181526020018383808284376000920182905250925061180d915050565b9050600061104582611780565b91505060015460026110579190612783565b811461109d5760405162461bcd60e51b8152602060048201526015602482015274496e76616c6964207769746e657373206974656d7360581b60448201526064016104c9565b60006110ab836001546118f0565b90506000600280546110bc90612592565b9150600090506110cd838284611aba565b905061116381600280546110e090612592565b80601f016020809104026020016040519081016040528092919081815260200182805461110c90612592565b80156111595780601f1061112e57610100808354040283529160200191611159565b820191906000526020600020905b81548152906001019060200180831161113c57829003601f168201915b5050505050611b7e565b6111a85760405162461bcd60e51b8152602060048201526016602482015275125b9d985b1a590819195c1bdcda5d081cd8dc9a5c1d60521b60448201526064016104c9565b60006111d76111b8846014612783565b6111c3856014612783565b86516111cf9190612885565b869190611aba565b90506111ea81600380546110e090612592565b61122e5760405162461bcd60e51b8152602060048201526015602482015274092dcecc2d8d2c840e6c6e4d2e0e840e6eaccccd2f605b1b60448201526064016104c9565b600061123985611c40565b604080518b81526001600160a01b0383166020820152428183015290519192507f182fa52899142d44ff5c45a6354d3b3e868d5b07db6a65580b39bd321bdaf8ac919081900360600190a16000816001600160a01b0316662386f26fc1000060405160006040518083038185875af1925050503d80600081146112d8576040519150601f19603f3d011682016040523d82523d6000602084013e6112dd565b606091505b50509050806113205760405162461bcd60e51b815260206004820152600f60248201526e151c985b9cd9995c8819985a5b1959608a1b60448201526064016104c9565b5050505050505050505050565b6000807f237e158222e3e6968b72b9db0d8043aacf074ad9f650f0d1606b4d82ee432c00610909565b61135e611593565b7f237e158222e3e6968b72b9db0d8043aacf074ad9f650f0d1606b4d82ee432c0080546001600160a01b0319166001600160a01b03831690811782556113a26108e4565b6001600160a01b03167f38d16b8cac22d99fc7c124b9cd0de2d3fa1faef420bfe791d8c362d765e2270060405160405180910390a35050565b306001600160a01b037f000000000000000000000000000000000000000000000000000000000000000016148061146257507f00000000000000000000000000000000000000000000000000000000000000006001600160a01b031661145660008051602061298b833981519152546001600160a01b031690565b6001600160a01b031614155b1561080c5760405163703e46dd60e11b815260040160405180910390fd5b610853611593565b816001600160a01b03166352d1902d6040518163ffffffff1660e01b8152600401602060405180830381865afa9250505080156114e2575060408051601f3d908101601f191682019092526114df91810190612898565b60015b61150a57604051634c9c8ce360e01b81526001600160a01b03831660048201526024016104c9565b60008051602061298b833981519152811461153b57604051632a87526960e21b8152600481018290526024016104c9565b6115458383611c76565b505050565b306001600160a01b037f0000000000000000000000000000000000000000000000000000000000000000161461080c5760405163703e46dd60e11b815260040160405180910390fd5b3361159c6108e4565b6001600160a01b03161461080c5760405163118cdaa760e01b81523360048201526024016104c9565b7f237e158222e3e6968b72b9db0d8043aacf074ad9f650f0d1606b4d82ee432c0080546001600160a01b03191681556106c982611ccc565b60006116378a8a8a8a8a8a8a8a8a604051602001611623999897969594939291906128b1565b604051602081830303815290604052611d3d565b9a9950505050505050505050565b600080600061165384611780565b9092509050801580611666575060001982145b15611675575060009392505050565b6000611682836001612783565b905060005b828110156116dc57855182106116a35750600095945050505050565b60006116af8784611d64565b905060001981036116c7575060009695505050505050565b6116d18184612783565b925050600101611687565b5093519093149392505050565b60008060006116f784611780565b909250905080158061170a575060001982145b15611719575060009392505050565b6000611726836001612783565b905060005b828110156116dc57855182106117475750600095945050505050565b60006117538784611dad565b9050600019810361176b575060009695505050505050565b6117758184612783565b92505060010161172b565b60008061178e836000611e11565b91509150915091565b6000816000036117a957506000611807565b6000805b8381101561180057845182106117c857600092505050611807565b60006117d48684611fb5565b905060001981036117eb5760009350505050611807565b6117f58184612783565b9250506001016117ad565b5083511490505b92915050565b606060008060005b84811015611886576118278683611fb5565b925060001983036118725760405162461bcd60e51b815260206004820152601560248201527442616420566172496e7420696e207769746e65737360581b60448201526064016104c9565b61187c8383612783565b9150600101611815565b506118918582611fb5565b915060001982036118dc5760405162461bcd60e51b815260206004820152601560248201527442616420566172496e7420696e207769746e65737360581b60448201526064016104c9565b6118e7858284611aba565b95945050505050565b60606000806118fe85611780565b90925090506001820161195e5760405162461bcd60e51b815260206004820152602260248201527f52656164206f76657272756e20647572696e6720566172496e742070617273696044820152616e6760f01b60648201526084016104c9565b8084106119a05760405162461bcd60e51b815260206004820152601060248201526f2b34b7103932b0b21037bb32b9393ab760811b60448201526064016104c9565b6000806119ae846001612783565b905060005b86811015611a39576119c58883611e11565b909550925060018301611a0f5760405162461bcd60e51b815260206004820152601260248201527142616420566172496e7420696e206974656d60701b60448201526064016104c9565b82611a1b866001612783565b611a259190612783565b611a2f9083612783565b91506001016119b3565b50611a448782611e11565b909450915060018201611a8e5760405162461bcd60e51b815260206004820152601260248201527142616420566172496e7420696e206974656d60701b60448201526064016104c9565b611aaf81611a9c8685612783565b611aa7906001612783565b899190611aba565b979650505050505050565b606081600003611ad95750604080516020810190915260008152611b77565b6000611ae58385612783565b90508381118015611af7575080855110155b611b395760405162461bcd60e51b8152602060048201526013602482015272536c696365206f7574206f6620626f756e647360681b60448201526064016104c9565b604051915082604083010160405282825283850182038460208701018481015b80821015611b7257815183830152602082019150611b59565b505050505b9392505050565b60008151835114611bc85760405162461bcd60e51b8152602060048201526014602482015273098cadccee8d0e640c8de40dcdee840dac2e8c6d60631b60448201526064016104c9565b825160005b81811015611c3557838181518110611be757611be761276d565b602001015160f81c60f81b6001600160f81b031916858281518110611c0e57611c0e61276d565b01602001516001600160f81b03191614611c2d57600092505050611807565b600101611bcd565b506001949350505050565b60008060028054611c5090612592565b915060009050611c6284836014611aba565b611c6b90612919565b60601c949350505050565b611c7f82612053565b6040516001600160a01b038316907fbc7cd75a20ee27fd9adebab32041f755214dbc6bffa90cc0225b39da2e5c2d3b90600090a2805115611cc45761154582826120b8565b6106c9612125565b7f9016d09d72d40fdae2fd8ceac6b6234c7706214fd39c1cd1e609a0528c19930080546001600160a01b031981166001600160a01b03848116918217845560405192169182907f8be0079c531659141344cd1fd0a4f28419497f9722a3daafe3b4186f6b6457e090600090a3505050565b60006020600083516020850160025afa50602060006020600060025afa5050600051919050565b6000806000611d738585612144565b909250905060018201611d8c5760001992505050611807565b80611d98836025612783565b611da29190612783565b6118e7906004612783565b6000611dba826009612783565b83511015611dcb5750600019611807565b600080611de285611ddd866008612783565b611e11565b909250905060018201611dfb5760001992505050611807565b80611e07836009612783565b6118e79190612783565b6000806000611e208585612186565b90508060ff16600003611e55576000858581518110611e4157611e4161276d565b016020015190935060f81c9150611fae9050565b83611e61826001612955565b60ff16611e6e9190612783565b85511015611e855760001960009250925050611fae565b60008160ff16600203611ec957611ebe611eaa611ea3876001612783565b889061220c565b62ffff0060e882901c1660f89190911c1790565b61ffff169050611fa4565b8160ff16600403611f1857611f0b611ee5611ea3876001612783565b60d881901c63ff00ff001662ff00ff60e89290921c9190911617601081811b91901c1790565b63ffffffff169050611fa4565b8160ff16600803611fa457611f97611f34611ea3876001612783565b60c01c64ff000000ff600882811c91821665ff000000ff009390911b92831617601090811b67ffffffffffffffff1666ff00ff00ff00ff9290921667ff00ff00ff00ff009093169290921790911c65ffff0000ffff1617602081811c91901b1790565b67ffffffffffffffff1690505b60ff909116925090505b9250929050565b6000806000611fc48585611e11565b909250905060018201611fdd5760001992505050611807565b600080611feb846001612783565b905060005b83811015612048576120028883611e11565b90955092506001830161201e5760001995505050505050611807565b8261202a866001612783565b6120349190612783565b61203e9083612783565b9150600101611ff0565b509695505050505050565b806001600160a01b03163b60000361208957604051634c9c8ce360e01b81526001600160a01b03821660048201526024016104c9565b60008051602061298b83398151915280546001600160a01b0319166001600160a01b0392909216919091179055565b6060600080846001600160a01b0316846040516120d5919061296e565b600060405180830381855af49150503d8060008114612110576040519150601f19603f3d011682016040523d82523d6000602084013e612115565b606091505b50915091506118e785838361221b565b341561080c5760405163b398979f60e01b815260040160405180910390fd5b600080612152836025612783565b84511015612167575060001990506000611fae565b60008061217986611ddd876024612783565b9097909650945050505050565b600082828151811061219a5761219a61276d565b016020015160f81c60ff036121b157506008611807565b8282815181106121c3576121c361276d565b016020015160f81c60fe036121da57506004611807565b8282815181106121ec576121ec61276d565b016020015160f81c60fd0361220357506002611807565b50600092915050565b6000611b778383016020015190565b6060826122305761222b82612277565b611b77565b815115801561224757506001600160a01b0384163b155b1561227057604051639996b31560e01b81526001600160a01b03851660048201526024016104c9565b5080611b77565b8051156122875780518082602001fd5b604051630a12f52160e11b815260040160405180910390fd5b60008083601f8401126122b257600080fd5b50813567ffffffffffffffff8111156122ca57600080fd5b602083019150836020828501011115611fae57600080fd5b6000806000806000606086880312156122fa57600080fd5b853567ffffffffffffffff8082111561231257600080fd5b61231e89838a016122a0565b9097509550602088013591508082111561233757600080fd5b50612344888289016122a0565b96999598509660400135949350505050565b80356001600160a01b038116811461236d57600080fd5b919050565b634e487b7160e01b600052604160045260246000fd5b6000806040838503121561239b57600080fd5b6123a483612356565b9150602083013567ffffffffffffffff808211156123c157600080fd5b818501915085601f8301126123d557600080fd5b8135818111156123e7576123e7612372565b604051601f8201601f19908116603f0116810190838211818310171561240f5761240f612372565b8160405282815288602084870101111561242857600080fd5b8260208601602083013760006020848301015280955050505050509250929050565b6000806020838503121561245d57600080fd5b823567ffffffffffffffff8082111561247557600080fd5b818501915085601f83011261248957600080fd5b81358181111561249857600080fd5b8660208260051b85010111156124ad57600080fd5b60209290920196919550909350505050565b6000602082840312156124d157600080fd5b5035919050565b60005b838110156124f35781810151838201526020016124db565b50506000910152565b600081518084526125148160208601602086016124d8565b601f01601f19169290920160200192915050565b602081526000611b7760208301846124fc565b60006020828403121561254d57600080fd5b611b7782612356565b60006020828403121561256857600080fd5b813567ffffffffffffffff81111561257f57600080fd5b82016101208185031215611b7757600080fd5b600181811c908216806125a657607f821691505b6020821081036125c657634e487b7160e01b600052602260045260246000fd5b50919050565b601f821115611545576000816000526020600020601f850160051c810160208610156125f55750805b601f850160051c820191505b8181101561261457828155600101612601565b505050505050565b67ffffffffffffffff83111561263457612634612372565b612648836126428354612592565b836125cc565b6000601f84116001811461267c57600085156126645750838201355b600019600387901b1c1916600186901b1783556126d6565b600083815260209020601f19861690835b828110156126ad578685013582556020948501946001909201910161268d565b50868210156126ca5760001960f88860031b161c19848701351681555b505060018560011b0183555b5050505050565b81835281816020850137506000828201602090810191909152601f909101601f19169091010190565b60608152600061271a6060830187896126dd565b828103602084015261272d8186886126dd565b9150508260408301529695505050505050565b634e487b7160e01b600052601160045260246000fd5b808202811582820484141761180757611807612740565b634e487b7160e01b600052603260045260246000fd5b8082018082111561180757611807612740565b6000602082840312156127a857600080fd5b81356001600160e01b031981168114611b7757600080fd5b6000602082840312156127d257600080fd5b81356001600160f01b031981168114611b7757600080fd5b6000808335601e1984360301811261280157600080fd5b83018035915067ffffffffffffffff82111561281c57600080fd5b602001915036819003821315611fae57600080fd5b8581528460208201526080604082015260006128516080830185876126dd565b90508260608301529695505050505050565b60006020828403121561287557600080fd5b81518015158114611b7757600080fd5b8181038181111561180757611807612740565b6000602082840312156128aa57600080fd5b5051919050565b6001600160e01b03198a811682526001600160f01b03198a166004830152600090888a60068501378883016006810160008152888a823750878101905060068101600081528688823750931692909301600681019290925250600a0198975050505050505050565b805160208201516bffffffffffffffffffffffff19808216929190601483101561294d5780818460140360031b1b83161693505b505050919050565b60ff818116838216019081111561180757611807612740565b600082516129808184602087016124d8565b919091019291505056fe360894a13ba1a3210667c828492db98dca3e2076cc3735a920a3ca505d382bbca2646970667358221220182f4d2f08ca4c4ec067af41dedeedc7f5d8b29e5b5a7e0810b80d2efbad778064736f6c63430008190033","linkReferences":{}},"methodIdentifiers":{"DEPOSIT_AMOUNT()":"ec6925a7","LIGHT_CLIENT()":"e613ae00","SYSTEM_CALLER()":"d761753e","UPGRADE_INTERFACE_VERSION()":"ad3cb1cc","acceptOwnership()":"79ba5097","batchWithdraw(bytes32[])":"59c19cee","deposit((bytes4,bytes2,bytes,bytes,bytes,bytes4,bytes,uint256,uint256))":"dd95c7c6","depositScript()":"b93780f6","getWithdrawalCount()":"781952a8","initialize(bytes,bytes,uint256)":"41260137","initialized()":"158ef93e","operator()":"570ca735","owner()":"8da5cb5b","pendingOwner()":"e30c3978","proxiableUUID()":"52d1902d","renounceOwnership()":"715018a6","requiredSigsCount()":"43e31687","scriptSuffix()":"87f8bf56","setDepositScript(bytes,bytes,uint256)":"9f963f59","setOperator(address)":"b3ab15fb","spentWtxIds(bytes32)":"5e0e5b3e","transferOwnership(address)":"f2fde38b","upgradeToAndCall(address,bytes)":"4f1ef286","withdraw(bytes32)":"8e19899e","withdrawalAddrs(uint256)":"d1c44456"},"id":42}