{"abi":[{"type":"function","name":"DEPOSIT_AMOUNT","inputs":[],"outputs":[{"name":"","type":"uint256","internalType":"uint256"}],"stateMutability":"view"},{"type":"function","name":"LIGHT_CLIENT","inputs":[],"outputs":[{"name":"","type":"address","internalType":"contract BitcoinLightClient"}],"stateMutability":"view"},{"type":"function","name":"SYSTEM_CALLER","inputs":[],"outputs":[{"name":"","type":"address","internalType":"address"}],"stateMutability":"view"},{"type":"function","name":"acceptOwnership","inputs":[],"outputs":[],"stateMutability":"nonpayable"},{"type":"function","name":"batchWithdraw","inputs":[{"name":"bitcoin_addresses","type":"bytes32[]","internalType":"bytes32[]"}],"outputs":[],"stateMutability":"payable"},{"type":"function","name":"deposit","inputs":[{"name":"p","type":"tuple","internalType":"struct Bridge.DepositParams","components":[{"name":"version","type":"bytes4","internalType":"bytes4"},{"name":"flag","type":"bytes2","internalType":"bytes2"},{"name":"vin","type":"bytes","internalType":"bytes"},{"name":"vout","type":"bytes","internalType":"bytes"},{"name":"witness","type":"bytes","internalType":"bytes"},{"name":"locktime","type":"bytes4","internalType":"bytes4"},{"name":"intermediate_nodes","type":"bytes","internalType":"bytes"},{"name":"block_height","type":"uint256","internalType":"uint256"},{"name":"index","type":"uint256","internalType":"uint256"}]}],"outputs":[],"stateMutability":"nonpayable"},{"type":"function","name":"depositScript","inputs":[],"outputs":[{"name":"","type":"bytes","internalType":"bytes"}],"stateMutability":"view"},{"type":"function","name":"getWithdrawalCount","inputs":[],"outputs":[{"name":"","type":"uint256","internalType":"uint256"}],"stateMutability":"view"},{"type":"function","name":"initialize","inputs":[{"name":"_depositScript","type":"bytes","internalType":"bytes"},{"name":"_scriptSuffix","type":"bytes","internalType":"bytes"},{"name":"_requiredSigsCount","type":"uint256","internalType":"uint256"},{"name":"_owner","type":"address","internalType":"address"}],"outputs":[],"stateMutability":"nonpayable"},{"type":"function","name":"initialized","inputs":[],"outputs":[{"name":"","type":"bool","internalType":"bool"}],"stateMutability":"view"},{"type":"function","name":"operator","inputs":[],"outputs":[{"name":"","type":"address","internalType":"address"}],"stateMutability":"view"},{"type":"function","name":"owner","inputs":[],"outputs":[{"name":"","type":"address","internalType":"address"}],"stateMutability":"view"},{"type":"function","name":"pendingOwner","inputs":[],"outputs":[{"name":"","type":"address","internalType":"address"}],"stateMutability":"view"},{"type":"function","name":"renounceOwnership","inputs":[],"outputs":[],"stateMutability":"nonpayable"},{"type":"function","name":"requiredSigsCount","inputs":[],"outputs":[{"name":"","type":"uint256","internalType":"uint256"}],"stateMutability":"view"},{"type":"function","name":"scriptSuffix","inputs":[],"outputs":[{"name":"","type":"bytes","internalType":"bytes"}],"stateMutability":"view"},{"type":"function","name":"setDepositScript","inputs":[{"name":"_depositScript","type":"bytes","internalType":"bytes"},{"name":"_scriptSuffix","type":"bytes","internalType":"bytes"},{"name":"_requiredSigsCount","type":"uint256","internalType":"uint256"}],"outputs":[],"stateMutability":"nonpayable"},{"type":"function","name":"setOperator","inputs":[{"name":"_operator","type":"address","internalType":"address"}],"outputs":[],"stateMutability":"nonpayable"},{"type":"function","name":"spentWtxIds","inputs":[{"name":"","type":"bytes32","internalType":"bytes32"}],"outputs":[{"name":"","type":"bool","internalType":"bool"}],"stateMutability":"view"},{"type":"function","name":"transferOwnership","inputs":[{"name":"newOwner","type":"address","internalType":"address"}],"outputs":[],"stateMutability":"nonpayable"},{"type":"function","name":"withdraw","inputs":[{"name":"bitcoin_address","type":"bytes32","internalType":"bytes32"}],"outputs":[],"stateMutability":"payable"},{"type":"function","name":"withdrawalAddrs","inputs":[{"name":"","type":"uint256","internalType":"uint256"}],"outputs":[{"name":"","type":"bytes32","internalType":"bytes32"}],"stateMutability":"view"},{"type":"event","name":"Deposit","inputs":[{"name":"wtxId","type":"bytes32","indexed":false,"internalType":"bytes32"},{"name":"timestamp","type":"uint256","indexed":false,"internalType":"uint256"}],"anonymous":false},{"type":"event","name":"DepositScriptUpdate","inputs":[{"name":"depositScript","type":"bytes","indexed":false,"internalType":"bytes"},{"name":"scriptSuffix","type":"bytes","indexed":false,"internalType":"bytes"},{"name":"requiredSigsCount","type":"uint256","indexed":false,"internalType":"uint256"}],"anonymous":false},{"type":"event","name":"OperatorUpdated","inputs":[{"name":"oldOperator","type":"address","indexed":false,"internalType":"address"},{"name":"newOperator","type":"address","indexed":false,"internalType":"address"}],"anonymous":false},{"type":"event","name":"OwnershipTransferRequested","inputs":[{"name":"previousOwner","type":"address","indexed":false,"internalType":"address"},{"name":"newOwner","type":"address","indexed":false,"internalType":"address"}],"anonymous":false},{"type":"event","name":"OwnershipTransferred","inputs":[{"name":"previousOwner","type":"address","indexed":false,"internalType":"address"},{"name":"newOwner","type":"address","indexed":false,"internalType":"address"}],"anonymous":false},{"type":"event","name":"Withdrawal","inputs":[{"name":"bitcoin_address","type":"bytes32","indexed":false,"internalType":"bytes32"},{"name":"index","type":"uint256","indexed":false,"internalType":"uint256"},{"name":"timestamp","type":"uint256","indexed":false,"internalType":"uint256"}],"anonymous":false}],"bytecode":{"object":"0x6080604052348015600f57600080fd5b50600080546001600160a01b03191633179055612521806100316000396000f3fe6080604052600436106101355760003560e01c80638e19899e116100ab578063d761753e1161006f578063d761753e1461033a578063dd95c7c614610362578063e30c397814610382578063e613ae00146103a2578063ec6925a7146103bd578063f2fde38b146103d957600080fd5b80638e19899e146102b25780639f963f59146102c5578063b3ab15fb146102e5578063b93780f614610305578063d1c444561461031a57600080fd5b80635e0e5b3e116100fd5780635e0e5b3e14610201578063715018a614610231578063781952a81461024657806379ba50971461025b57806387f8bf56146102705780638da5cb5b1461029257600080fd5b8063158ef93e1461013a57806343e31687146101705780634507fc6914610194578063570ca735146101b657806359c19cee146101ee575b600080fd5b34801561014657600080fd5b5060015461015b90600160a01b900460ff1681565b60405190151581526020015b60405180910390f35b34801561017c57600080fd5b5061018660035481565b604051908152602001610167565b3480156101a057600080fd5b506101b46101af366004611eb4565b6103f9565b005b3480156101c257600080fd5b506002546101d6906001600160a01b031681565b6040516001600160a01b039091168152602001610167565b6101b46101fc366004611f3c565b61064f565b34801561020d57600080fd5b5061015b61021c366004611fb1565b60066020526000908152604090205460ff1681565b34801561023d57600080fd5b506101b4610760565b34801561025257600080fd5b50600754610186565b34801561026757600080fd5b506101b46107d6565b34801561027c57600080fd5b5061028561089c565b6040516101679190611fca565b34801561029e57600080fd5b506000546101d6906001600160a01b031681565b6101b46102c0366004611fb1565b61092a565b3480156102d157600080fd5b506101b46102e0366004612019565b6109f4565b3480156102f157600080fd5b506101b461030036600461208d565b610b27565b34801561031157600080fd5b50610285610ba6565b34801561032657600080fd5b50610186610335366004611fb1565b610bb3565b34801561034657600080fd5b506101d673deaddeaddeaddeaddeaddeaddeaddeaddeaddead81565b34801561036e57600080fd5b506101b461037d3660046120a8565b610bd4565b34801561038e57600080fd5b506001546101d6906001600160a01b031681565b3480156103ae57600080fd5b506101d66001603160981b0181565b3480156103c957600080fd5b50610186670de0b6b3a764000081565b3480156103e557600080fd5b506101b46103f436600461208d565b61136a565b3373deaddeaddeaddeaddeaddeaddeaddeaddeaddead146104615760405162461bcd60e51b815260206004820152601f60248201527f63616c6c6572206973206e6f74207468652073797374656d2063616c6c65720060448201526064015b60405180910390fd5b600154600160a01b900460ff16156104bb5760405162461bcd60e51b815260206004820152601f60248201527f436f6e747261637420697320616c726561647920696e697469616c697a6564006044820152606401610458565b8160000361050b5760405162461bcd60e51b815260206004820152601a60248201527f566572696669657220636f756e742063616e6e6f7420626520300000000000006044820152606401610458565b600085900361055c5760405162461bcd60e51b815260206004820152601e60248201527f4465706f736974207363726970742063616e6e6f7420626520656d70747900006044820152606401610458565b6001805460ff60a01b1916600160a01b179055600461057c868883612185565b50600561058a848683612185565b5060038290556002805473deaddeaddeaddeaddeaddeaddeaddeaddeaddead6001600160a01b03199182168117909255600080549091166001600160a01b0384161781556040805191825260208201929092527ffbe5b6cbafb274f445d7fed869dc77a838d8243a22c460de156560e8857cad03910160405180910390a17f89ed79f38bee253aee2fb8d52df0d71b4aaf0843800d093a499a55eeca455c34868686868660405161063f95949392919061226f565b60405180910390a1505050505050565b61066181670de0b6b3a76400006122bf565b34146106a95760405162461bcd60e51b8152602060048201526017602482015276125b9d985b1a59081dda5d1a191c985dc8185b5bdd5b9d604a1b6044820152606401610458565b60075460005b8281101561075a5760078484838181106106cb576106cb6122d6565b835460018101855560009485526020948590209190940292909201359190920155507fc96d1af655ee5eb07357bb1097f3b2f247ea0c4e3cf5f9a5c8449c4f8b64fb6b848483818110610720576107206122d6565b90506020020135828461073391906122ec565b604080519283526020830191909152429082015260600160405180910390a16001016106af565b50505050565b6000546001600160a01b0316331461078a5760405162461bcd60e51b8152600401610458906122ff565b600080546001600160a01b03191681556040805182815260208101929092527f8be0079c531659141344cd1fd0a4f28419497f9722a3daafe3b4186f6b6457e0910160405180910390a1565b6001546001600160a01b031633146108305760405162461bcd60e51b815260206004820152601b60248201527f43616c6c6572206973206e6f742070656e64696e67206f776e657200000000006044820152606401610458565b60008054600180546001600160a01b03198084166001600160a01b038084169190911786559116909155604080519190921680825260208201939093527f8be0079c531659141344cd1fd0a4f28419497f9722a3daafe3b4186f6b6457e091015b60405180910390a150565b600580546108a9906120fa565b80601f01602080910402602001604051908101604052809291908181526020018280546108d5906120fa565b80156109225780601f106108f757610100808354040283529160200191610922565b820191906000526020600020905b81548152906001019060200180831161090557829003601f168201915b505050505081565b670de0b6b3a7640000341461097b5760405162461bcd60e51b8152602060048201526017602482015276125b9d985b1a59081dda5d1a191c985dc8185b5bdd5b9d604a1b6044820152606401610458565b600780546001810182556000919091527fa66cc928b5edb82af9bd49922954155ab7b0942694bea4ce44661d9a8736c68881018290556040805183815260208101839052428183015290517fc96d1af655ee5eb07357bb1097f3b2f247ea0c4e3cf5f9a5c8449c4f8b64fb6b9181900360600190a15050565b6000546001600160a01b03163314610a1e5760405162461bcd60e51b8152600401610458906122ff565b80600003610a6e5760405162461bcd60e51b815260206004820152601a60248201527f566572696669657220636f756e742063616e6e6f7420626520300000000000006044820152606401610458565b6000849003610abf5760405162461bcd60e51b815260206004820152601e60248201527f4465706f736974207363726970742063616e6e6f7420626520656d70747900006044820152606401610458565b6004610acc858783612185565b506005610ada838583612185565b5060038190556040517f89ed79f38bee253aee2fb8d52df0d71b4aaf0843800d093a499a55eeca455c3490610b18908790879087908790879061226f565b60405180910390a15050505050565b6000546001600160a01b03163314610b515760405162461bcd60e51b8152600401610458906122ff565b600280546001600160a01b0319166001600160a01b0383169081179091556040805182815260208101929092527ffbe5b6cbafb274f445d7fed869dc77a838d8243a22c460de156560e8857cad039101610891565b600480546108a9906120fa565b60078181548110610bc357600080fd5b600091825260209091200154905081565b6002546001600160a01b03163314610c2e5760405162461bcd60e51b815260206004820152601a60248201527f63616c6c6572206973206e6f7420746865206f70657261746f720000000000006044820152606401610458565b6000610c8c610c40602084018461232c565b610c506040850160208601612356565b610c5d6040860186612380565b610c6a6060880188612380565b610c7760808a018a612380565b610c8760c08c0160a08d0161232c565b6113f0565b60008181526006602052604090205490915060ff1615610ce45760405162461bcd60e51b81526020600482015260136024820152721ddd1e125908185b1c9958591e481cdc195b9d606a1b6044820152606401610458565b60008181526006602052604090819020805460ff19166001179055610d4990610d0f90840184612380565b8080601f01602080910402602001604051908101604052809392919081815260200183838082843760009201919091525061143892505050565b610d955760405162461bcd60e51b815260206004820152601d60248201527f56696e206973206e6f742070726f7065726c7920666f726d61747465640000006044820152606401610458565b610ddf610da56060840184612380565b8080601f0160208091040260200160405190810160405280939291908181526020018383808284376000920191909152506114dc92505050565b610e2b5760405162461bcd60e51b815260206004820152601e60248201527f566f7574206973206e6f742070726f7065726c7920666f726d617474656400006044820152606401610458565b6000610e77610e3d6040850185612380565b8080601f01602080910402602001604051908101604052809392919081815260200183838082843760009201919091525061157392505050565b91505080600114610ec35760405162461bcd60e51b815260206004820152601660248201527513db9b1e481bdb99481a5b9c1d5d08185b1b1bddd95960521b6044820152606401610458565b610f0f610ed36080850185612380565b8080601f01602080910402602001604051908101604052809392919081815260200183838082843760009201919091525085925061158a915050565b610f655760405162461bcd60e51b815260206004820152602160248201527f5769746e657373206973206e6f742070726f7065726c7920666f726d617474656044820152601960fa1b6064820152608401610458565b6001603160981b01634ffd344a60e085013584610f8560c0880188612380565b8861010001356040518663ffffffff1660e01b8152600401610fab9594939291906123c7565b602060405180830381865afa158015610fc8573d6000803e3d6000fd5b505050506040513d601f19601f82011682018060405250810190610fec91906123f9565b6110385760405162461bcd60e51b815260206004820152601b60248201527f5472616e73616374696f6e206973206e6f7420696e20626c6f636b00000000006044820152606401610458565b600061108461104a6080860186612380565b8080601f01602080910402602001604051908101604052809392919081815260200183838082843760009201829052509250611600915050565b9050600061109182611573565b91505060035460026110a391906122ec565b81146110e95760405162461bcd60e51b8152602060048201526015602482015274496e76616c6964207769746e657373206974656d7360581b6044820152606401610458565b60006110f7836003546116e3565b9050600060048054611108906120fa565b9150600090506111198382846118ad565b90506111af816004805461112c906120fa565b80601f0160208091040260200160405190810160405280929190818152602001828054611158906120fa565b80156111a55780601f1061117a576101008083540402835291602001916111a5565b820191906000526020600020905b81548152906001019060200180831161118857829003601f168201915b5050505050611971565b6111f45760405162461bcd60e51b8152602060048201526016602482015275125b9d985b1a590819195c1bdcda5d081cd8dc9a5c1d60521b6044820152606401610458565b60006112236112048460146122ec565b61120f8560146122ec565b865161121b919061241b565b8691906118ad565b9050611236816005805461112c906120fa565b61127a5760405162461bcd60e51b8152602060048201526015602482015274092dcecc2d8d2c840e6c6e4d2e0e840e6eaccccd2f605b1b6044820152606401610458565b600061128585611a33565b604080518b81524260208201529192507f98e783c3864bbf744a057ef605a2a61701c3b62b5ed68b3745b99094497daf1f910160405180910390a16000816001600160a01b0316670de0b6b3a764000060405160006040518083038185875af1925050503d8060008114611315576040519150601f19603f3d011682016040523d82523d6000602084013e61131a565b606091505b505090508061135d5760405162461bcd60e51b815260206004820152600f60248201526e151c985b9cd9995c8819985a5b1959608a1b6044820152606401610458565b5050505050505050505050565b6000546001600160a01b031633146113945760405162461bcd60e51b8152600401610458906122ff565b600180546001600160a01b0319166001600160a01b038381169182179092556000546040805191909316815260208101919091527fed8889f560326eb138920d842192f0eb3dd22b4f139c87a2c57538e05bae12789101610891565b600061142a8a8a8a8a8a8a8a8a8a6040516020016114169998979695949392919061242e565b604051602081830303815290604052611a69565b9a9950505050505050505050565b600080600061144684611573565b9092509050801580611459575060001982145b15611468575060009392505050565b60006114758360016122ec565b905060005b828110156114cf57855182106114965750600095945050505050565b60006114a28784611a90565b905060001981036114ba575060009695505050505050565b6114c481846122ec565b92505060010161147a565b5093519093149392505050565b60008060006114ea84611573565b90925090508015806114fd575060001982145b1561150c575060009392505050565b60006115198360016122ec565b905060005b828110156114cf578551821061153a5750600095945050505050565b60006115468784611ad9565b9050600019810361155e575060009695505050505050565b61156881846122ec565b92505060010161151e565b600080611581836000611b3d565b91509150915091565b60008160000361159c575060006115fa565b6000805b838110156115f357845182106115bb576000925050506115fa565b60006115c78684611ce1565b905060001981036115de57600093505050506115fa565b6115e881846122ec565b9250506001016115a0565b5083511490505b92915050565b606060008060005b848110156116795761161a8683611ce1565b925060001983036116655760405162461bcd60e51b815260206004820152601560248201527442616420566172496e7420696e207769746e65737360581b6044820152606401610458565b61166f83836122ec565b9150600101611608565b506116848582611ce1565b915060001982036116cf5760405162461bcd60e51b815260206004820152601560248201527442616420566172496e7420696e207769746e65737360581b6044820152606401610458565b6116da8582846118ad565b95945050505050565b60606000806116f185611573565b9092509050600182016117515760405162461bcd60e51b815260206004820152602260248201527f52656164206f76657272756e20647572696e6720566172496e742070617273696044820152616e6760f01b6064820152608401610458565b8084106117935760405162461bcd60e51b815260206004820152601060248201526f2b34b7103932b0b21037bb32b9393ab760811b6044820152606401610458565b6000806117a18460016122ec565b905060005b8681101561182c576117b88883611b3d565b9095509250600183016118025760405162461bcd60e51b815260206004820152601260248201527142616420566172496e7420696e206974656d60701b6044820152606401610458565b8261180e8660016122ec565b61181891906122ec565b61182290836122ec565b91506001016117a6565b506118378782611b3d565b9094509150600182016118815760405162461bcd60e51b815260206004820152601260248201527142616420566172496e7420696e206974656d60701b6044820152606401610458565b6118a28161188f86856122ec565b61189a9060016122ec565b8991906118ad565b979650505050505050565b6060816000036118cc575060408051602081019091526000815261196a565b60006118d883856122ec565b905083811180156118ea575080855110155b61192c5760405162461bcd60e51b8152602060048201526013602482015272536c696365206f7574206f6620626f756e647360681b6044820152606401610458565b604051915082604083010160405282825283850182038460208701018481015b808210156119655781518383015260208201915061194c565b505050505b9392505050565b600081518351146119bb5760405162461bcd60e51b8152602060048201526014602482015273098cadccee8d0e640c8de40dcdee840dac2e8c6d60631b6044820152606401610458565b825160005b81811015611a28578381815181106119da576119da6122d6565b602001015160f81c60f81b6001600160f81b031916858281518110611a0157611a016122d6565b01602001516001600160f81b03191614611a20576000925050506115fa565b6001016119c0565b506001949350505050565b60008060048054611a43906120fa565b915060009050611a55848360146118ad565b611a5e90612496565b60601c949350505050565b60006020600083516020850160025afa50602060006020600060025afa5050600051919050565b6000806000611a9f8585611d7f565b909250905060018201611ab857600019925050506115fa565b80611ac48360256122ec565b611ace91906122ec565b6116da9060046122ec565b6000611ae68260096122ec565b83511015611af757506000196115fa565b600080611b0e85611b098660086122ec565b611b3d565b909250905060018201611b2757600019925050506115fa565b80611b338360096122ec565b6116da91906122ec565b6000806000611b4c8585611dc1565b90508060ff16600003611b81576000858581518110611b6d57611b6d6122d6565b016020015190935060f81c9150611cda9050565b83611b8d8260016124d2565b60ff16611b9a91906122ec565b85511015611bb15760001960009250925050611cda565b60008160ff16600203611bf557611bea611bd6611bcf8760016122ec565b8890611e47565b62ffff0060e882901c1660f89190911c1790565b61ffff169050611cd0565b8160ff16600403611c4457611c37611c11611bcf8760016122ec565b60d881901c63ff00ff001662ff00ff60e89290921c9190911617601081811b91901c1790565b63ffffffff169050611cd0565b8160ff16600803611cd057611cc3611c60611bcf8760016122ec565b60c01c64ff000000ff600882811c91821665ff000000ff009390911b92831617601090811b67ffffffffffffffff1666ff00ff00ff00ff9290921667ff00ff00ff00ff009093169290921790911c65ffff0000ffff1617602081811c91901b1790565b67ffffffffffffffff1690505b60ff909116925090505b9250929050565b6000806000611cf08585611b3d565b909250905060018201611d0957600019925050506115fa565b600080611d178460016122ec565b905060005b83811015611d7457611d2e8883611b3d565b909550925060018301611d4a57600019955050505050506115fa565b82611d568660016122ec565b611d6091906122ec565b611d6a90836122ec565b9150600101611d1c565b509695505050505050565b600080611d8d8360256122ec565b84511015611da2575060001990506000611cda565b600080611db486611b098760246122ec565b9097909650945050505050565b6000828281518110611dd557611dd56122d6565b016020015160f81c60ff03611dec575060086115fa565b828281518110611dfe57611dfe6122d6565b016020015160f81c60fe03611e15575060046115fa565b828281518110611e2757611e276122d6565b016020015160f81c60fd03611e3e575060026115fa565b50600092915050565b600061196a8383016020015190565b60008083601f840112611e6857600080fd5b50813567ffffffffffffffff811115611e8057600080fd5b602083019150836020828501011115611cda57600080fd5b80356001600160a01b0381168114611eaf57600080fd5b919050565b60008060008060008060808789031215611ecd57600080fd5b863567ffffffffffffffff80821115611ee557600080fd5b611ef18a838b01611e56565b90985096506020890135915080821115611f0a57600080fd5b50611f1789828a01611e56565b90955093505060408701359150611f3060608801611e98565b90509295509295509295565b60008060208385031215611f4f57600080fd5b823567ffffffffffffffff80821115611f6757600080fd5b818501915085601f830112611f7b57600080fd5b813581811115611f8a57600080fd5b8660208260051b8501011115611f9f57600080fd5b60209290920196919550909350505050565b600060208284031215611fc357600080fd5b5035919050565b60006020808352835180602085015260005b81811015611ff857858101830151858201604001528201611fdc565b506000604082860101526040601f19601f8301168501019250505092915050565b60008060008060006060868803121561203157600080fd5b853567ffffffffffffffff8082111561204957600080fd5b61205589838a01611e56565b9097509550602088013591508082111561206e57600080fd5b5061207b88828901611e56565b96999598509660400135949350505050565b60006020828403121561209f57600080fd5b61196a82611e98565b6000602082840312156120ba57600080fd5b813567ffffffffffffffff8111156120d157600080fd5b8201610120818503121561196a57600080fd5b634e487b7160e01b600052604160045260246000fd5b600181811c9082168061210e57607f821691505b60208210810361212e57634e487b7160e01b600052602260045260246000fd5b50919050565b601f821115612180576000816000526020600020601f850160051c8101602086101561215d5750805b601f850160051c820191505b8181101561217c57828155600101612169565b5050505b505050565b67ffffffffffffffff83111561219d5761219d6120e4565b6121b1836121ab83546120fa565b83612134565b6000601f8411600181146121e557600085156121cd5750838201355b600019600387901b1c1916600186901b17835561223f565b600083815260209020601f19861690835b8281101561221657868501358255602094850194600190920191016121f6565b50868210156122335760001960f88860031b161c19848701351681555b505060018560011b0183555b5050505050565b81835281816020850137506000828201602090810191909152601f909101601f19169091010190565b606081526000612283606083018789612246565b8281036020840152612296818688612246565b9150508260408301529695505050505050565b634e487b7160e01b600052601160045260246000fd5b80820281158282048414176115fa576115fa6122a9565b634e487b7160e01b600052603260045260246000fd5b808201808211156115fa576115fa6122a9565b60208082526013908201527221b0b63632b91034b9903737ba1037bbb732b960691b604082015260600190565b60006020828403121561233e57600080fd5b81356001600160e01b03198116811461196a57600080fd5b60006020828403121561236857600080fd5b81356001600160f01b03198116811461196a57600080fd5b6000808335601e1984360301811261239757600080fd5b83018035915067ffffffffffffffff8211156123b257600080fd5b602001915036819003821315611cda57600080fd5b8581528460208201526080604082015260006123e7608083018587612246565b90508260608301529695505050505050565b60006020828403121561240b57600080fd5b8151801515811461196a57600080fd5b818103818111156115fa576115fa6122a9565b6001600160e01b03198a811682526001600160f01b03198a166004830152600090888a60068501378883016006810160008152888a82375087810190506006810160008152868882375093169390920160068101939093525050600a01979650505050505050565b805160208201516bffffffffffffffffffffffff1980821692919060148310156124ca5780818460140360031b1b83161693505b505050919050565b60ff81811683821601908111156115fa576115fa6122a956fea2646970667358221220012c14d4407d13738a2873583def31dcd9c686622e3e9cf612f11fb2f6291f4864736f6c63430008190033","linkReferences":{}},"methodIdentifiers":{"DEPOSIT_AMOUNT()":"ec6925a7","LIGHT_CLIENT()":"e613ae00","SYSTEM_CALLER()":"d761753e","acceptOwnership()":"79ba5097","batchWithdraw(bytes32[])":"59c19cee","deposit((bytes4,bytes2,bytes,bytes,bytes,bytes4,bytes,uint256,uint256))":"dd95c7c6","depositScript()":"b93780f6","getWithdrawalCount()":"781952a8","initialize(bytes,bytes,uint256,address)":"4507fc69","initialized()":"158ef93e","operator()":"570ca735","owner()":"8da5cb5b","pendingOwner()":"e30c3978","renounceOwnership()":"715018a6","requiredSigsCount()":"43e31687","scriptSuffix()":"87f8bf56","setDepositScript(bytes,bytes,uint256)":"9f963f59","setOperator(address)":"b3ab15fb","spentWtxIds(bytes32)":"5e0e5b3e","transferOwnership(address)":"f2fde38b","withdraw(bytes32)":"8e19899e","withdrawalAddrs(uint256)":"d1c44456"},"id":30}