{"abi":[{"type":"function","name":"LIGHT_CLIENT","inputs":[],"outputs":[{"name":"","type":"address","internalType":"contract BitcoinLightClient"}],"stateMutability":"view"},{"type":"function","name":"SYSTEM_CALLER","inputs":[],"outputs":[{"name":"","type":"address","internalType":"address"}],"stateMutability":"view"},{"type":"function","name":"acceptOwnership","inputs":[],"outputs":[],"stateMutability":"nonpayable"},{"type":"function","name":"batchWithdraw","inputs":[{"name":"txIds","type":"bytes32[]","internalType":"bytes32[]"},{"name":"outputIds","type":"uint32[]","internalType":"uint32[]"}],"outputs":[],"stateMutability":"payable"},{"type":"function","name":"declareWithdrawFiller","inputs":[{"name":"withdrawTp","type":"tuple","internalType":"struct Bridge.TransactionParams","components":[{"name":"version","type":"bytes4","internalType":"bytes4"},{"name":"flag","type":"bytes2","internalType":"bytes2"},{"name":"vin","type":"bytes","internalType":"bytes"},{"name":"vout","type":"bytes","internalType":"bytes"},{"name":"witness","type":"bytes","internalType":"bytes"},{"name":"locktime","type":"bytes4","internalType":"bytes4"},{"name":"intermediate_nodes","type":"bytes","internalType":"bytes"},{"name":"block_height","type":"uint256","internalType":"uint256"},{"name":"index","type":"uint256","internalType":"uint256"}]},{"name":"inputIndex","type":"uint256","internalType":"uint256"},{"name":"outputIndex","type":"uint256","internalType":"uint256"},{"name":"withdrawId","type":"uint256","internalType":"uint256"}],"outputs":[],"stateMutability":"nonpayable"},{"type":"function","name":"deposit","inputs":[{"name":"revealTp","type":"tuple","internalType":"struct Bridge.TransactionParams","components":[{"name":"version","type":"bytes4","internalType":"bytes4"},{"name":"flag","type":"bytes2","internalType":"bytes2"},{"name":"vin","type":"bytes","internalType":"bytes"},{"name":"vout","type":"bytes","internalType":"bytes"},{"name":"witness","type":"bytes","internalType":"bytes"},{"name":"locktime","type":"bytes4","internalType":"bytes4"},{"name":"intermediate_nodes","type":"bytes","internalType":"bytes"},{"name":"block_height","type":"uint256","internalType":"uint256"},{"name":"index","type":"uint256","internalType":"uint256"}]}],"outputs":[],"stateMutability":"nonpayable"},{"type":"function","name":"depositAmount","inputs":[],"outputs":[{"name":"","type":"uint256","internalType":"uint256"}],"stateMutability":"view"},{"type":"function","name":"depositScript","inputs":[],"outputs":[{"name":"","type":"bytes","internalType":"bytes"}],"stateMutability":"view"},{"type":"function","name":"getWithdrawalCount","inputs":[],"outputs":[{"name":"","type":"uint256","internalType":"uint256"}],"stateMutability":"view"},{"type":"function","name":"initialize","inputs":[{"name":"_depositScript","type":"bytes","internalType":"bytes"},{"name":"_scriptSuffix","type":"bytes","internalType":"bytes"},{"name":"_depositAmount","type":"uint256","internalType":"uint256"}],"outputs":[],"stateMutability":"nonpayable"},{"type":"function","name":"initialized","inputs":[],"outputs":[{"name":"","type":"bool","internalType":"bool"}],"stateMutability":"view"},{"type":"function","name":"isOperatorMalicious","inputs":[{"name":"","type":"uint256","internalType":"uint256"}],"outputs":[{"name":"","type":"bool","internalType":"bool"}],"stateMutability":"view"},{"type":"function","name":"kickoff2AddressRoot","inputs":[],"outputs":[{"name":"","type":"bytes32","internalType":"bytes32"}],"stateMutability":"view"},{"type":"function","name":"kickoffRoots","inputs":[{"name":"","type":"uint256","internalType":"uint256"}],"outputs":[{"name":"","type":"bytes32","internalType":"bytes32"}],"stateMutability":"view"},{"type":"function","name":"markMaliciousOperator","inputs":[{"name":"proofToKickoffRoot","type":"bytes","internalType":"bytes"},{"name":"kickoff2Tp","type":"tuple","internalType":"struct Bridge.TransactionParams","components":[{"name":"version","type":"bytes4","internalType":"bytes4"},{"name":"flag","type":"bytes2","internalType":"bytes2"},{"name":"vin","type":"bytes","internalType":"bytes"},{"name":"vout","type":"bytes","internalType":"bytes"},{"name":"witness","type":"bytes","internalType":"bytes"},{"name":"locktime","type":"bytes4","internalType":"bytes4"},{"name":"intermediate_nodes","type":"bytes","internalType":"bytes"},{"name":"block_height","type":"uint256","internalType":"uint256"},{"name":"index","type":"uint256","internalType":"uint256"}]},{"name":"inputIndex","type":"uint256","internalType":"uint256"},{"name":"depositId","type":"uint256","internalType":"uint256"},{"name":"operatorId","type":"uint256","internalType":"uint256"},{"name":"kickoff2Address","type":"bytes32","internalType":"bytes32"},{"name":"proofToKickoff2Address","type":"bytes","internalType":"bytes"}],"outputs":[],"stateMutability":"nonpayable"},{"type":"function","name":"operator","inputs":[],"outputs":[{"name":"","type":"address","internalType":"address"}],"stateMutability":"view"},{"type":"function","name":"owner","inputs":[],"outputs":[{"name":"","type":"address","internalType":"address"}],"stateMutability":"view"},{"type":"function","name":"pendingOwner","inputs":[],"outputs":[{"name":"","type":"address","internalType":"address"}],"stateMutability":"view"},{"type":"function","name":"renounceOwnership","inputs":[],"outputs":[],"stateMutability":"nonpayable"},{"type":"function","name":"scriptSuffix","inputs":[],"outputs":[{"name":"","type":"bytes","internalType":"bytes"}],"stateMutability":"view"},{"type":"function","name":"setDepositScript","inputs":[{"name":"_depositScript","type":"bytes","internalType":"bytes"},{"name":"_scriptSuffix","type":"bytes","internalType":"bytes"}],"outputs":[],"stateMutability":"nonpayable"},{"type":"function","name":"setKickoff2AddressRoot","inputs":[{"name":"_kickoff2AddressRoot","type":"bytes32","internalType":"bytes32"}],"outputs":[],"stateMutability":"nonpayable"},{"type":"function","name":"setOperator","inputs":[{"name":"_operator","type":"address","internalType":"address"}],"outputs":[],"stateMutability":"nonpayable"},{"type":"function","name":"spentWtxIds","inputs":[{"name":"","type":"bytes32","internalType":"bytes32"}],"outputs":[{"name":"","type":"bool","internalType":"bool"}],"stateMutability":"view"},{"type":"function","name":"transferOwnership","inputs":[{"name":"newOwner","type":"address","internalType":"address"}],"outputs":[],"stateMutability":"nonpayable"},{"type":"function","name":"withdraw","inputs":[{"name":"txId","type":"bytes32","internalType":"bytes32"},{"name":"outputId","type":"uint32","internalType":"uint32"}],"outputs":[],"stateMutability":"payable"},{"type":"function","name":"withdrawFillers","inputs":[{"name":"","type":"uint256","internalType":"uint256"}],"outputs":[{"name":"","type":"uint256","internalType":"uint256"}],"stateMutability":"view"},{"type":"function","name":"withdrawalUTXOs","inputs":[{"name":"","type":"uint256","internalType":"uint256"}],"outputs":[{"name":"txId","type":"bytes32","internalType":"bytes32"},{"name":"outputId","type":"uint32","internalType":"uint32"}],"stateMutability":"view"},{"type":"event","name":"Deposit","inputs":[{"name":"wtxId","type":"bytes32","indexed":false,"internalType":"bytes32"},{"name":"recipient","type":"address","indexed":false,"internalType":"address"},{"name":"timestamp","type":"uint256","indexed":false,"internalType":"uint256"},{"name":"depositId","type":"uint256","indexed":false,"internalType":"uint256"}],"anonymous":false},{"type":"event","name":"DepositScriptUpdate","inputs":[{"name":"depositScript","type":"bytes","indexed":false,"internalType":"bytes"},{"name":"scriptSuffix","type":"bytes","indexed":false,"internalType":"bytes"}],"anonymous":false},{"type":"event","name":"Initialized","inputs":[{"name":"version","type":"uint64","indexed":false,"internalType":"uint64"}],"anonymous":false},{"type":"event","name":"Kickoff2AddressRootSet","inputs":[{"name":"kickoff2AddressRoot","type":"bytes32","indexed":false,"internalType":"bytes32"}],"anonymous":false},{"type":"event","name":"MaliciousOperatorMarked","inputs":[{"name":"operatorId","type":"uint256","indexed":false,"internalType":"uint256"}],"anonymous":false},{"type":"event","name":"OperatorUpdated","inputs":[{"name":"oldOperator","type":"address","indexed":false,"internalType":"address"},{"name":"newOperator","type":"address","indexed":false,"internalType":"address"}],"anonymous":false},{"type":"event","name":"OwnershipTransferStarted","inputs":[{"name":"previousOwner","type":"address","indexed":true,"internalType":"address"},{"name":"newOwner","type":"address","indexed":true,"internalType":"address"}],"anonymous":false},{"type":"event","name":"OwnershipTransferred","inputs":[{"name":"previousOwner","type":"address","indexed":true,"internalType":"address"},{"name":"newOwner","type":"address","indexed":true,"internalType":"address"}],"anonymous":false},{"type":"event","name":"WithdrawFillerDeclared","inputs":[{"name":"withdrawId","type":"uint256","indexed":false,"internalType":"uint256"},{"name":"withdrawFillerId","type":"uint256","indexed":false,"internalType":"uint256"}],"anonymous":false},{"type":"event","name":"Withdrawal","inputs":[{"name":"utxo","type":"tuple","indexed":false,"internalType":"struct Bridge.UTXO","components":[{"name":"txId","type":"bytes32","internalType":"bytes32"},{"name":"outputId","type":"uint32","internalType":"uint32"}]},{"name":"index","type":"uint256","indexed":false,"internalType":"uint256"},{"name":"timestamp","type":"uint256","indexed":false,"internalType":"uint256"}],"anonymous":false},{"type":"error","name":"InvalidInitialization","inputs":[]},{"type":"error","name":"NotInitializing","inputs":[]},{"type":"error","name":"OwnableInvalidOwner","inputs":[{"name":"owner","type":"address","internalType":"address"}]},{"type":"error","name":"OwnableUnauthorizedAccount","inputs":[{"name":"account","type":"address","internalType":"address"}]}],"bytecode":{"object":"0x6080604052348015600f57600080fd5b5061371e8061001f6000396000f3fe6080604052600436106101b75760003560e01c80638da5cb5b116100ec578063d62239f91161008a578063e30c397811610064578063e30c3978146104cf578063e613ae00146104e4578063f2fde38b146104ff578063f8e655d21461051f57600080fd5b8063d62239f914610474578063d761753e14610487578063dd95c7c6146104af57600080fd5b8063b93780f6116100c6578063b93780f6146103ff578063bafa9eb214610414578063c045577b14610434578063d30db9491461046157600080fd5b80638da5cb5b146103aa5780639773ea90146103bf578063b3ab15fb146103df57600080fd5b8063570ca73511610159578063781952a811610133578063781952a81461033e57806379ba50971461035357806387f8bf56146103685780638afbfff81461038a57600080fd5b8063570ca735146102c15780635e0e5b3e146102f9578063715018a61461032957600080fd5b80631601bb6a116101955780631601bb6a146102315780634126013714610251578063419759f514610271578063471ba1e31461028757600080fd5b806303dc1161146101bc5780630d4a471b146101de578063158ef93e14610207575b600080fd5b3480156101c857600080fd5b506101dc6101d7366004612e9d565b61053f565b005b3480156101ea57600080fd5b506101f460295481565b6040519081526020015b60405180910390f35b34801561021357600080fd5b506000546102219060ff1681565b60405190151581526020016101fe565b34801561023d57600080fd5b506101dc61024c366004612f55565b61085d565b34801561025d57600080fd5b506101dc61026c366004612faf565b6108a1565b34801561027d57600080fd5b506101f460015481565b34801561029357600080fd5b506102a76102a2366004612f55565b610ace565b6040805192835263ffffffff9091166020830152016101fe565b3480156102cd57600080fd5b506002546102e1906001600160a01b031681565b6040516001600160a01b0390911681526020016101fe565b34801561030557600080fd5b50610221610314366004612f55565b60056020526000908152604090205460ff1681565b34801561033557600080fd5b506101dc610b02565b34801561034a57600080fd5b506026546101f4565b34801561035f57600080fd5b506101dc610b16565b34801561037457600080fd5b5061037d610b5e565b6040516101fe919061304a565b34801561039657600080fd5b506101f46103a5366004612f55565b610bec565b3480156103b657600080fd5b506102e1610c0d565b3480156103cb57600080fd5b506101dc6103da36600461307d565b610c42565b3480156103eb57600080fd5b506101dc6103fa3660046130d0565b610e26565b34801561040b57600080fd5b5061037d610e83565b34801561042057600080fd5b5061022161042f366004612f55565b610e90565b34801561044057600080fd5b506101f461044f366004612f55565b60286020526000908152604090205481565b6101dc61046f36600461313d565b610ebb565b6101dc6104823660046131c5565b6110a0565b34801561049357600080fd5b506102e173deaddeaddeaddeaddeaddeaddeaddeaddeaddead81565b3480156104bb57600080fd5b506101dc6104ca3660046131f1565b6111cc565b3480156104db57600080fd5b506102e161162a565b3480156104f057600080fd5b506102e16001603160981b0181565b34801561050b57600080fd5b506101dc61051a3660046130d0565b611653565b34801561052b57600080fd5b506101dc61053a366004613225565b6116d8565b61054886611782565b50610557826029548386611b23565b6105a85760405162461bcd60e51b815260206004820152601d60248201527f496e76616c6964206b69636b6f666632416464726573732070726f6f6600000060448201526064015b60405180910390fd5b60006105fc6105f76105bd60608a018a613288565b8080601f01602080910402602001604051908101604052809392919081815260200183838082843760009201829052509250611b61915050565b611cd9565b90508261060882611cf3565b146106555760405162461bcd60e51b815260206004820152601760248201527f496e76616c6964206b69636b6f66663241646472657373000000000000000000604482015260640161059f565b60006106a361066760408a018a613288565b8080601f0160208091040260200160405190810160405280939291908181526020018383808284376000920191909152508b9250611d53915050565b905060006106b082611ea6565b905060006106bd83611eb3565b90506000600283836040516020016106e99291909182526001600160e01b031916602082015260240190565b60408051601f1981840301815290829052610703916132ce565b602060405180830381855afa158015610720573d6000803e3d6000fd5b5050506040513d601f19601f8201168201806040525081019061074391906132ea565b9050600060278a8154811061075a5761075a613303565b9060005260206000200154905061077382828f8c611b23565b6107af5760405162461bcd60e51b815260206004820152600d60248201526c24b73b30b634b210383937b7b360991b604482015260640161059f565b60008a81526028602052604090205415806107e057506107ce89611ec0565b60008b81526028602052604090205414155b1561081b57600160068a6103e881106107fb576107fb613303565b602091828204019190066101000a81548160ff0219169083151502179055505b6040518981527ff918cdaebea74c5a8c3b02d7404c162f507551b158202cedcba9b6a74eabdff29060200160405180910390a150505050505050505050505050565b610865611ecd565b60298190556040518181527fdf56450935a3769f905a6cc6d2e7ad4fe2e2351b797e5191da9e354dc126c8c0906020015b60405180910390a150565b3373deaddeaddeaddeaddeaddeaddeaddeaddeaddead146109045760405162461bcd60e51b815260206004820152601f60248201527f63616c6c6572206973206e6f74207468652073797374656d2063616c6c657200604482015260640161059f565b60005460ff16156109575760405162461bcd60e51b815260206004820152601f60248201527f436f6e747261637420697320616c726561647920696e697469616c697a656400604482015260640161059f565b806000036109a75760405162461bcd60e51b815260206004820152601a60248201527f4465706f73697420616d6f756e742063616e6e6f742062652030000000000000604482015260640161059f565b60008490036109f85760405162461bcd60e51b815260206004820152601e60248201527f4465706f736974207363726970742063616e6e6f7420626520656d7074790000604482015260640161059f565b6000805460ff191660011790556003610a1285878361339c565b506004610a2083858361339c565b506001819055600280546001600160a01b03191673deaddeaddeaddeaddeaddeaddeaddeaddeaddead908117909155604080516000815260208101929092527ffbe5b6cbafb274f445d7fed869dc77a838d8243a22c460de156560e8857cad03910160405180910390a17f80bd1fdfe157286ce420ee763f91748455b249605748e5df12dad9844402bafc85858585604051610abf9493929190613484565b60405180910390a15050505050565b60268181548110610ade57600080fd5b60009182526020909120600290910201805460019091015490915063ffffffff1682565b610b0a611ecd565b610b146000611eff565b565b3380610b2061162a565b6001600160a01b031614610b525760405163118cdaa760e01b81526001600160a01b038216600482015260240161059f565b610b5b81611eff565b50565b60048054610b6b90613319565b80601f0160208091040260200160405190810160405280929190818152602001828054610b9790613319565b8015610be45780601f10610bb957610100808354040283529160200191610be4565b820191906000526020600020905b815481529060010190602001808311610bc757829003601f168201915b505050505081565b60278181548110610bfc57600080fd5b600091825260209091200154905081565b6000807f9016d09d72d40fdae2fd8ceac6b6234c7706214fd39c1cd1e609a0528c1993005b546001600160a01b031692915050565b610c4b84611782565b506000610c9a610c5e6040870187613288565b8080601f016020809104026020016040519081016040528093929190818152602001838380828437600092019190915250889250611d53915050565b90506000610ca782611ea6565b90506000610cb483611eb3565b60e01c9050600060268581548110610cce57610cce613303565b600091825260209182902060408051808201909152600290920201805480835260019091015463ffffffff1692820192909252915083148015610d2057508163ffffffff16816020015163ffffffff16145b610d605760405162461bcd60e51b81526020600482015260116024820152706e6f74206d61746368696e67205554584f60781b604482015260640161059f565b6000610dae610d7260608b018b613288565b8080601f0160208091040260200160405190810160405280939291908181526020018383808284376000920191909152508b9250611b61915050565b90506000610dc3610dbe83611f3b565b611cf3565b9050610dce81611ec0565b6000888152602860209081526040918290209290925580518981529182018390527feedf47c2f61b040827944fd45e44ef6d742354b34e1af7dd99a56f444ec79347910160405180910390a150505050505050505050565b610e2e611ecd565b600280546001600160a01b0319166001600160a01b0383169081179091556040805182815260208101929092527ffbe5b6cbafb274f445d7fed869dc77a838d8243a22c460de156560e8857cad039101610896565b60038054610b6b90613319565b6006816103e88110610ea157600080fd5b60209182820401919006915054906101000a900460ff1681565b828114610efc5760405162461bcd60e51b815260206004820152600f60248201526e098cadccee8d040dad2e6dac2e8c6d608b1b604482015260640161059f565b600154610f0a9084906134cc565b3414610f525760405162461bcd60e51b8152602060048201526017602482015276125b9d985b1a59081dda5d1a191c985dc8185b5bdd5b9d604a1b604482015260640161059f565b60265460005b848110156110985760006040518060400160405280888885818110610f7f57610f7f613303565b905060200201358152602001868685818110610f9d57610f9d613303565b9050602002016020810190610fb291906134e3565b63ffffffff9081169091526026805460018101825560009190915282517f744a2cf8fd7008e3d53b67916e73460df9fa5214e3ef23dd4259ca09493a359460029092029182015560208301517f744a2cf8fd7008e3d53b67916e73460df9fa5214e3ef23dd4259ca09493a3595909101805463ffffffff19169190921617905590507fe32f1dd44d4768b5cc8efdffee252f9da4f2cc539a5d1908c2772f181dd363ce8161106084866134fe565b604080518351815260209384015163ffffffff169381019390935282015242606082015260800160405180910390a150600101610f58565b505050505050565b60015434146110eb5760405162461bcd60e51b8152602060048201526017602482015276125b9d985b1a59081dda5d1a191c985dc8185b5bdd5b9d604a1b604482015260640161059f565b60408051808201825283815263ffffffff83811660208084019182526026805460018101825560009190915284517f744a2cf8fd7008e3d53b67916e73460df9fa5214e3ef23dd4259ca09493a35946002830290810182905584517f744a2cf8fd7008e3d53b67916e73460df9fa5214e3ef23dd4259ca09493a3595909101805463ffffffff1916918716919091179055865190815292519093169082015292830181905242606084015290917fe32f1dd44d4768b5cc8efdffee252f9da4f2cc539a5d1908c2772f181dd363ce906080015b60405180910390a150505050565b6002546001600160a01b031633146112265760405162461bcd60e51b815260206004820152601a60248201527f63616c6c6572206973206e6f7420746865206f70657261746f72000000000000604482015260640161059f565b600061123182611782565b60008181526005602052604090205490915060ff16156112895760405162461bcd60e51b81526020600482015260136024820152721ddd1e125908185b1c9958591e481cdc195b9d606a1b604482015260640161059f565b6000818152600560205260408120805460ff191660011790556112ec6112b26080850185613288565b8080601f01602080910402602001604051908101604052809392919081815260200183838082843760009201829052509250611fbd915050565b905060006112f9826120a0565b915050806003146113445760405162461bcd60e51b8152602060048201526015602482015274496e76616c6964207769746e657373206974656d7360581b604482015260640161059f565b60006113518360016120b7565b905060006003805461136290613319565b915060009050611373838284612237565b9050611409816003805461138690613319565b80601f01602080910402602001604051908101604052809291908181526020018280546113b290613319565b80156113ff5780601f106113d4576101008083540402835291602001916113ff565b820191906000526020600020905b8154815290600101906020018083116113e257829003601f168201915b50505050506122fa565b61144e5760405162461bcd60e51b8152602060048201526016602482015275125b9d985b1a590819195c1bdcda5d081cd8dc9a5c1d60521b604482015260640161059f565b60006114826004805461146090613319565b865161146c9250613511565b6004805461147990613319565b87929150612237565b9050611495816004805461138690613319565b6114d95760405162461bcd60e51b8152602060048201526015602482015274092dcecc2d8d2c840e6c6e4d2e0e840e6eaccccd2f605b1b604482015260640161059f565b60006114e4856123d1565b905060006114f186612407565b602780546001818101835560008390527f98a476f1687bc3d60a2da2adbcba2c46958e61fa2fb4042cd7bc5816a710195b90910183905590549192507f6849bd31a1772b1b6992f1f328cce6888b435faff25d13805baee12a8a944bbe918b918591429161155e91613511565b604080519485526001600160a01b03909316602085015291830152606082015260800160405180910390a16001546040516000916001600160a01b038516918381818185875af1925050503d80600081146115d5576040519150601f19603f3d011682016040523d82523d6000602084013e6115da565b606091505b505090508061161d5760405162461bcd60e51b815260206004820152600f60248201526e151c985b9cd9995c8819985a5b1959608a1b604482015260640161059f565b5050505050505050505050565b6000807f237e158222e3e6968b72b9db0d8043aacf074ad9f650f0d1606b4d82ee432c00610c32565b61165b611ecd565b7f237e158222e3e6968b72b9db0d8043aacf074ad9f650f0d1606b4d82ee432c0080546001600160a01b0319166001600160a01b038316908117825561169f610c0d565b6001600160a01b03167f38d16b8cac22d99fc7c124b9cd0de2d3fa1faef420bfe791d8c362d765e2270060405160405180910390a35050565b6116e0611ecd565b60008390036117315760405162461bcd60e51b815260206004820152601e60248201527f4465706f736974207363726970742063616e6e6f7420626520656d7074790000604482015260640161059f565b600361173e84868361339c565b50600461174c82848361339c565b507f80bd1fdfe157286ce420ee763f91748455b249605748e5df12dad9844402bafc848484846040516111be9493929190613484565b6000806117e16117956020850185613524565b6117a5604086016020870161354e565b6117b26040870187613288565b6117bf6060890189613288565b6117cc60808b018b613288565b6117dc60c08d0160a08e01613524565b612436565b905061182d6117f36040850185613288565b8080601f01602080910402602001604051908101604052809392919081815260200183838082843760009201919091525061247e92505050565b6118795760405162461bcd60e51b815260206004820152601d60248201527f56696e206973206e6f742070726f7065726c7920666f726d6174746564000000604482015260640161059f565b6118c36118896060850185613288565b8080601f01602080910402602001604051908101604052809392919081815260200183838082843760009201919091525061252292505050565b61190f5760405162461bcd60e51b815260206004820152601e60248201527f566f7574206973206e6f742070726f7065726c7920666f726d61747465640000604482015260640161059f565b600061195b6119216040860186613288565b8080601f0160208091040260200160405190810160405280939291908181526020018383808284376000920191909152506120a092505050565b915050806001146119a75760405162461bcd60e51b815260206004820152601660248201527513db9b1e481bdb99481a5b9c1d5d08185b1b1bddd95960521b604482015260640161059f565b6119f36119b76080860186613288565b8080601f0160208091040260200160405190810160405280939291908181526020018383808284376000920191909152508592506125b9915050565b611a495760405162461bcd60e51b815260206004820152602160248201527f5769746e657373206973206e6f742070726f7065726c7920666f726d617474656044820152601960fa1b606482015260840161059f565b6001603160981b01634ffd344a60e086013584611a6960c0890189613288565b8961010001356040518663ffffffff1660e01b8152600401611a8f959493929190613578565b602060405180830381865afa158015611aac573d6000803e3d6000fd5b505050506040513d601f19601f82011682018060405250810190611ad091906135aa565b611b1c5760405162461bcd60e51b815260206004820152601b60248201527f5472616e73616374696f6e206973206e6f7420696e20626c6f636b0000000000604482015260640161059f565b5092915050565b60008385148015611b32575081155b8015611b3d57508251155b15611b4a57506001611b59565b611b568584868561262e565b90505b949350505050565b6060600080611b6f856120a0565b909250905060018201611b945760405162461bcd60e51b815260040161059f906135cc565b808410611bd75760405162461bcd60e51b81526020600482015260116024820152702b37baba103932b0b21037bb32b9393ab760791b604482015260640161059f565b600080611be58460016134fe565b905060005b86811015611c6357611bfc88836126d8565b92506000198303611c4f5760405162461bcd60e51b815260206004820152601a60248201527f42616420566172496e7420696e207363726970745075626b6579000000000000604482015260640161059f565b611c5983836134fe565b9150600101611bea565b50611c6e87826126d8565b91506000198203611cc15760405162461bcd60e51b815260206004820152601a60248201527f42616420566172496e7420696e207363726970745075626b6579000000000000604482015260640161059f565b611ccc878284612237565b9450505050505b92915050565b6060611cd3826008808551611cee9190613511565b61273c565b6000808251118015611d0757506020825111155b611d4b5760405162461bcd60e51b8152602060048201526015602482015274092dcecc2d8d2c840e6deeae4c6ca40d8cadccee8d605b1b604482015260640161059f565b506020015190565b6060600080611d61856120a0565b909250905060018201611d865760405162461bcd60e51b815260040161059f906135cc565b808410611dc85760405162461bcd60e51b815260206004820152601060248201526f2b34b7103932b0b21037bb32b9393ab760811b604482015260640161059f565b600080611dd68460016134fe565b905060005b86811015611e4e57611ded88836129ab565b92506000198303611e3a5760405162461bcd60e51b815260206004820152601760248201527642616420566172496e7420696e2073637269707453696760481b604482015260640161059f565b611e4483836134fe565b9150600101611ddb565b50611e5987826129ab565b91506000198203611cc15760405162461bcd60e51b815260206004820152601760248201527642616420566172496e7420696e2073637269707453696760481b604482015260640161059f565b6020810151600090611cd3565b6000611cd38260206129f4565b6000611cd38260016134fe565b33611ed6610c0d565b6001600160a01b031614610b145760405163118cdaa760e01b815233600482015260240161059f565b7f237e158222e3e6968b72b9db0d8043aacf074ad9f650f0d1606b4d82ee432c0080546001600160a01b0319168155611f3782612a03565b5050565b606081600981518110611f5057611f50613303565b6020910101516001600160f81b031916603560f91b14611f7e57505060408051602081019091526000815290565b600082600a81518110611f9357611f93613303565b01602001516001600160f81b031981169150611fb6908490600b9060f81c612237565b9392505050565b606060008060005b8481101561203657611fd78683612a74565b925060001983036120225760405162461bcd60e51b815260206004820152601560248201527442616420566172496e7420696e207769746e65737360581b604482015260640161059f565b61202c83836134fe565b9150600101611fc5565b506120418582612a74565b9150600019820361208c5760405162461bcd60e51b815260206004820152601560248201527442616420566172496e7420696e207769746e65737360581b604482015260640161059f565b612097858284612237565b95945050505050565b6000806120ae836000612b16565b91509150915091565b60606000806120c5856120a0565b9092509050600182016120ea5760405162461bcd60e51b815260040161059f906135cc565b80841061212c5760405162461bcd60e51b815260206004820152601060248201526f2b34b7103932b0b21037bb32b9393ab760811b604482015260640161059f565b60008061213a8460016134fe565b905060005b868110156121c5576121518883612b16565b90955092506001830161219b5760405162461bcd60e51b815260206004820152601260248201527142616420566172496e7420696e206974656d60701b604482015260640161059f565b826121a78660016134fe565b6121b191906134fe565b6121bb90836134fe565b915060010161213f565b506121d08782612b16565b90945091506001820161221a5760405162461bcd60e51b815260206004820152601260248201527142616420566172496e7420696e206974656d60701b604482015260640161059f565b611ccc8161222886856134fe565b6122339060016134fe565b8991905b6060816000036122565750604080516020810190915260008152611fb6565b600061226283856134fe565b90508381118015612274575080855110155b6122b65760405162461bcd60e51b8152602060048201526013602482015272536c696365206f7574206f6620626f756e647360681b604482015260640161059f565b604051915082604083010160405282825283850182038460208701018481015b808210156122ef578151838301526020820191506122d6565b505050509392505050565b81518151600091908114612312576000915050611cd3565b60206000805b8383116123485750508481015184820151602090920191808214612343576000945050505050611cd3565b612318565b6000612355602085613511565b90505b848110156123c35786818151811061237257612372613303565b602001015160f81c60f81b6001600160f81b03191688828151811061239957612399613303565b01602001516001600160f81b031916146123bb57600095505050505050611cd3565b600101612358565b506001979650505050505050565b600080600380546123e190613319565b9150600090506123f384836014612237565b6123fc9061360e565b60601c949350505050565b6000806003805461241790613319565b612423915060146134fe565b90506000611b59610dbe85846020612237565b60006124708a8a8a8a8a8a8a8a8a60405160200161245c99989796959493929190613661565b604051602081830303815290604052612cb8565b9a9950505050505050505050565b600080600061248c846120a0565b909250905080158061249f575060001982145b156124ae575060009392505050565b60006124bb8360016134fe565b905060005b8281101561251557855182106124dc5750600095945050505050565b60006124e887846129ab565b90506000198103612500575060009695505050505050565b61250a81846134fe565b9250506001016124c0565b5093519093149392505050565b6000806000612530846120a0565b9092509050801580612543575060001982145b15612552575060009392505050565b600061255f8360016134fe565b905060005b8281101561251557855182106125805750600095945050505050565b600061258c87846126d8565b905060001981036125a4575060009695505050505050565b6125ae81846134fe565b925050600101612564565b6000816000036125cb57506000611cd3565b6000805b8381101561262257845182106125ea57600092505050611cd3565b60006125f68684612a74565b9050600019810361260d5760009350505050611cd3565b61261781846134fe565b9250506001016125cf565b50835114905092915050565b60006020845161263e91906136ca565b1561264b57506000611b59565b835160000361265c57506000611b59565b818560005b86518110156126cb576126756002846136ca565b6001036126995761269261268c8883016020015190565b83612cdf565b91506126b2565b6126af826126aa8984016020015190565b612cdf565b91505b60019290921c916126c46020826134fe565b9050612661565b5090931495945050505050565b60006126e58260096134fe565b835110156126f65750600019611cd3565b60008061270d856127088660086134fe565b612b16565b9092509050600182016127265760001992505050611cd3565b806127328360096134fe565b61209791906134fe565b6060600084848151811061275257612752613303565b016020015160f81c9050826127688260016136ec565b60ff1614612786575050604080516020810190915260008152611fb6565b846127928560016134fe565b815181106127a2576127a2613303565b016020015160f81c6000036128615760028160ff1610156127d3575050604080516020810190915260008152611fb6565b6000856127e18660026134fe565b815181106127f1576127f1613303565b016020015160f81c9050612806600283613705565b60ff1681141580612824575080602014158015612824575080601414155b15612842576040518060200160405280600081525092505050611fb6565b6128586128508660036134fe565b879083612237565b92505050611fb6565b600061286d86866129f4565b90506001600160e81b03198116621976a960e81b0361291d57856128928660036134fe565b815181106128a2576128a2613303565b60209101015160f81c60141415806128e857506128d560026128c486886134fe565b6128ce9190613511565b87906129f4565b6001600160f01b03191661222b60f21b14155b15612906576040518060200160405280600081525092505050611fb6565b6128586129148660046134fe565b87906014612237565b6001600160e81b031981166205ea4560ea1b036129925785600161294186886134fe565b61294b9190613511565b8151811061295b5761295b613303565b60209101015160f81c608714612984576040518060200160405280600081525092505050611fb6565b6128586129148660036134fe565b5050506040805160208101909152600081529392505050565b60008060006129ba8585612ceb565b9092509050600182016129d35760001992505050611cd3565b806129df8360256134fe565b6129e991906134fe565b6120979060046134fe565b6000611fb68383016020015190565b7f9016d09d72d40fdae2fd8ceac6b6234c7706214fd39c1cd1e609a0528c19930080546001600160a01b031981166001600160a01b03848116918217845560405192169182907f8be0079c531659141344cd1fd0a4f28419497f9722a3daafe3b4186f6b6457e090600090a3505050565b6000806000612a838585612b16565b909250905060018201612a9c5760001992505050611cd3565b600080612aaa8460016134fe565b905060005b83811015612b0b57612ac588612708848a6134fe565b909550925060018301612ae15760001995505050505050611cd3565b82612aed8660016134fe565b612af791906134fe565b612b0190836134fe565b9150600101612aaf565b509695505050505050565b6000806000612b258585612d2d565b90508060ff16600003612b5a576000858581518110612b4657612b46613303565b016020015190935060f81c9150612cb19050565b83612b668260016136ec565b60ff16612b7391906134fe565b85511015612b8a5760001960009250925050612cb1565b60008160ff16600203612bce57612bc3612baf612ba88760016134fe565b88906129f4565b62ffff0060e882901c1660f89190911c1790565b61ffff169050612ca7565b8160ff16600403612c1d57612c10612bea612ba88760016134fe565b60d881901c63ff00ff001662ff00ff60e89290921c9190911617601081811b91901c1790565b63ffffffff169050612ca7565b8160ff16600803612ca757612c9b612c39612ba88760016134fe565b60c01c64ff000000ff600882811c91821665ff000000ff009390911b92831617601090811b6001600160401b031666ff00ff00ff00ff9290921667ff00ff00ff00ff009093169290921790911c65ffff0000ffff1617602081811c91901b1790565b6001600160401b031690505b60ff909116925090505b9250929050565b60006020600083516020850160025afa50602060006020600060025afa5050600051919050565b6000611fb68383612db3565b600080612cf98360256134fe565b84511015612d0e575060001990506000612cb1565b600080612d20866127088760246134fe565b9097909650945050505050565b6000828281518110612d4157612d41613303565b016020015160f81c60ff03612d5857506008611cd3565b828281518110612d6a57612d6a613303565b016020015160f81c60fe03612d8157506004611cd3565b828281518110612d9357612d93613303565b016020015160f81c60fd03612daa57506002611cd3565b50600092915050565b60008260005281602052602060006040600060025afa50602060006020600060025afa505060005192915050565b634e487b7160e01b600052604160045260246000fd5b600082601f830112612e0857600080fd5b81356001600160401b03811115612e2157612e21612de1565b604051601f8201601f19908116603f011681016001600160401b0381118282101715612e4f57612e4f612de1565b604052818152838201602001851015612e6757600080fd5b816020850160208301376000918101602001919091529392505050565b60006101208284031215612e9757600080fd5b50919050565b600080600080600080600060e0888a031215612eb857600080fd5b87356001600160401b03811115612ece57600080fd5b612eda8a828b01612df7565b97505060208801356001600160401b03811115612ef657600080fd5b612f028a828b01612e84565b96505060408801359450606088013593506080880135925060a0880135915060c08801356001600160401b03811115612f3a57600080fd5b612f468a828b01612df7565b91505092959891949750929550565b600060208284031215612f6757600080fd5b5035919050565b60008083601f840112612f8057600080fd5b5081356001600160401b03811115612f9757600080fd5b602083019150836020828501011115612cb157600080fd5b600080600080600060608688031215612fc757600080fd5b85356001600160401b03811115612fdd57600080fd5b612fe988828901612f6e565b90965094505060208601356001600160401b0381111561300857600080fd5b61301488828901612f6e565b96999598509660400135949350505050565b60005b83811015613041578181015183820152602001613029565b50506000910152565b6020815260008251806020840152613069816040850160208701613026565b601f01601f19169190910160400192915050565b6000806000806080858703121561309357600080fd5b84356001600160401b038111156130a957600080fd5b6130b587828801612e84565b97602087013597506040870135966060013595509350505050565b6000602082840312156130e257600080fd5b81356001600160a01b0381168114611fb657600080fd5b60008083601f84011261310b57600080fd5b5081356001600160401b0381111561312257600080fd5b6020830191508360208260051b8501011115612cb157600080fd5b6000806000806040858703121561315357600080fd5b84356001600160401b0381111561316957600080fd5b613175878288016130f9565b90955093505060208501356001600160401b0381111561319457600080fd5b6131a0878288016130f9565b95989497509550505050565b803563ffffffff811681146131c057600080fd5b919050565b600080604083850312156131d857600080fd5b823591506131e8602084016131ac565b90509250929050565b60006020828403121561320357600080fd5b81356001600160401b0381111561321957600080fd5b611b5984828501612e84565b6000806000806040858703121561323b57600080fd5b84356001600160401b0381111561325157600080fd5b61325d87828801612f6e565b90955093505060208501356001600160401b0381111561327c57600080fd5b6131a087828801612f6e565b6000808335601e1984360301811261329f57600080fd5b8301803591506001600160401b038211156132b957600080fd5b602001915036819003821315612cb157600080fd5b600082516132e0818460208701613026565b9190910192915050565b6000602082840312156132fc57600080fd5b5051919050565b634e487b7160e01b600052603260045260246000fd5b600181811c9082168061332d57607f821691505b602082108103612e9757634e487b7160e01b600052602260045260246000fd5b601f82111561339757806000526020600020601f840160051c810160208510156133745750805b601f840160051c820191505b818110156133945760008155600101613380565b50505b505050565b6001600160401b038311156133b3576133b3612de1565b6133c7836133c18354613319565b8361334d565b6000601f8411600181146133fb57600085156133e35750838201355b600019600387901b1c1916600186901b178355613394565b600083815260209020601f19861690835b8281101561342c578685013582556020948501946001909201910161340c565b50868210156134495760001960f88860031b161c19848701351681555b505060018560011b0183555050505050565b81835281816020850137506000828201602090810191909152601f909101601f19169091010190565b60408152600061349860408301868861345b565b82810360208401526134ab81858761345b565b979650505050505050565b634e487b7160e01b600052601160045260246000fd5b8082028115828204841417611cd357611cd36134b6565b6000602082840312156134f557600080fd5b611fb6826131ac565b80820180821115611cd357611cd36134b6565b81810381811115611cd357611cd36134b6565b60006020828403121561353657600080fd5b81356001600160e01b031981168114611fb657600080fd5b60006020828403121561356057600080fd5b81356001600160f01b031981168114611fb657600080fd5b85815284602082015260806040820152600061359860808301858761345b565b90508260608301529695505050505050565b6000602082840312156135bc57600080fd5b81518015158114611fb657600080fd5b60208082526022908201527f52656164206f76657272756e20647572696e6720566172496e742070617273696040820152616e6760f01b606082015260800190565b805160208201516bffffffffffffffffffffffff1981169190601482101561365a576bffffffffffffffffffffffff196bffffffffffffffffffffffff198360140360031b1b82161692505b5050919050565b6001600160e01b03198a1681526001600160f01b031989166004820152868860068301376000878201600681016000815287898237506000908701600601908152848682376001600160e01b031993909316929093019182525060040198975050505050505050565b6000826136e757634e487b7160e01b600052601260045260246000fd5b500690565b60ff8181168382160190811115611cd357611cd36134b6565b60ff8281168282160390811115611cd357611cd36134b656","linkReferences":{}},"methodIdentifiers":{"LIGHT_CLIENT()":"e613ae00","SYSTEM_CALLER()":"d761753e","acceptOwnership()":"79ba5097","batchWithdraw(bytes32[],uint32[])":"d30db949","declareWithdrawFiller((bytes4,bytes2,bytes,bytes,bytes,bytes4,bytes,uint256,uint256),uint256,uint256,uint256)":"9773ea90","deposit((bytes4,bytes2,bytes,bytes,bytes,bytes4,bytes,uint256,uint256))":"dd95c7c6","depositAmount()":"419759f5","depositScript()":"b93780f6","getWithdrawalCount()":"781952a8","initialize(bytes,bytes,uint256)":"41260137","initialized()":"158ef93e","isOperatorMalicious(uint256)":"bafa9eb2","kickoff2AddressRoot()":"0d4a471b","kickoffRoots(uint256)":"8afbfff8","markMaliciousOperator(bytes,(bytes4,bytes2,bytes,bytes,bytes,bytes4,bytes,uint256,uint256),uint256,uint256,uint256,bytes32,bytes)":"03dc1161","operator()":"570ca735","owner()":"8da5cb5b","pendingOwner()":"e30c3978","renounceOwnership()":"715018a6","scriptSuffix()":"87f8bf56","setDepositScript(bytes,bytes)":"f8e655d2","setKickoff2AddressRoot(bytes32)":"1601bb6a","setOperator(address)":"b3ab15fb","spentWtxIds(bytes32)":"5e0e5b3e","transferOwnership(address)":"f2fde38b","withdraw(bytes32,uint32)":"d62239f9","withdrawFillers(uint256)":"c045577b","withdrawalUTXOs(uint256)":"471ba1e3"},"id":48}