{"abi":[{"type":"constructor","inputs":[],"stateMutability":"nonpayable"},{"type":"function","name":"acceptOwnership","inputs":[],"outputs":[],"stateMutability":"nonpayable"},{"type":"function","name":"blockHashes","inputs":[{"name":"","type":"uint256","internalType":"uint256"}],"outputs":[{"name":"","type":"bytes32","internalType":"bytes32"}],"stateMutability":"view"},{"type":"function","name":"blockNumber","inputs":[],"outputs":[{"name":"","type":"uint256","internalType":"uint256"}],"stateMutability":"view"},{"type":"function","name":"getBlockHash","inputs":[{"name":"_blockNumber","type":"uint256","internalType":"uint256"}],"outputs":[{"name":"","type":"bytes32","internalType":"bytes32"}],"stateMutability":"view"},{"type":"function","name":"getWitnessRootByHash","inputs":[{"name":"_blockHash","type":"bytes32","internalType":"bytes32"}],"outputs":[{"name":"","type":"bytes32","internalType":"bytes32"}],"stateMutability":"view"},{"type":"function","name":"getWitnessRootByNumber","inputs":[{"name":"_blockNumber","type":"uint256","internalType":"uint256"}],"outputs":[{"name":"","type":"bytes32","internalType":"bytes32"}],"stateMutability":"view"},{"type":"function","name":"initializeBlockNumber","inputs":[{"name":"_blockNumber","type":"uint256","internalType":"uint256"}],"outputs":[],"stateMutability":"nonpayable"},{"type":"function","name":"owner","inputs":[],"outputs":[{"name":"","type":"address","internalType":"address"}],"stateMutability":"view"},{"type":"function","name":"pendingOwner","inputs":[],"outputs":[{"name":"","type":"address","internalType":"address"}],"stateMutability":"view"},{"type":"function","name":"renounceOwnership","inputs":[],"outputs":[],"stateMutability":"nonpayable"},{"type":"function","name":"setBlockInfo","inputs":[{"name":"_blockHash","type":"bytes32","internalType":"bytes32"},{"name":"_witnessRoot","type":"bytes32","internalType":"bytes32"}],"outputs":[],"stateMutability":"nonpayable"},{"type":"function","name":"transferOwnership","inputs":[{"name":"newOwner","type":"address","internalType":"address"}],"outputs":[],"stateMutability":"nonpayable"},{"type":"function","name":"verifyInclusion","inputs":[{"name":"_blockNumber","type":"uint256","internalType":"uint256"},{"name":"_wtxId","type":"bytes32","internalType":"bytes32"},{"name":"_proof","type":"bytes","internalType":"bytes"},{"name":"_index","type":"uint256","internalType":"uint256"}],"outputs":[{"name":"","type":"bool","internalType":"bool"}],"stateMutability":"view"},{"type":"function","name":"verifyInclusion","inputs":[{"name":"_blockHash","type":"bytes32","internalType":"bytes32"},{"name":"_wtxId","type":"bytes32","internalType":"bytes32"},{"name":"_proof","type":"bytes","internalType":"bytes"},{"name":"_index","type":"uint256","internalType":"uint256"}],"outputs":[{"name":"","type":"bool","internalType":"bool"}],"stateMutability":"view"},{"type":"function","name":"witnessRoots","inputs":[{"name":"","type":"bytes32","internalType":"bytes32"}],"outputs":[{"name":"","type":"bytes32","internalType":"bytes32"}],"stateMutability":"view"},{"type":"event","name":"BlockInfoAdded","inputs":[{"name":"blockNumber","type":"uint256","indexed":false,"internalType":"uint256"},{"name":"blockHash","type":"bytes32","indexed":false,"internalType":"bytes32"},{"name":"merkleRoot","type":"bytes32","indexed":false,"internalType":"bytes32"}],"anonymous":false},{"type":"event","name":"OwnershipTransferRequested","inputs":[{"name":"previousOwner","type":"address","indexed":false,"internalType":"address"},{"name":"newOwner","type":"address","indexed":false,"internalType":"address"}],"anonymous":false},{"type":"event","name":"OwnershipTransferred","inputs":[{"name":"previousOwner","type":"address","indexed":false,"internalType":"address"},{"name":"newOwner","type":"address","indexed":false,"internalType":"address"}],"anonymous":false}],"bytecode":{"object":"0x6080604052348015600f57600080fd5b50600080546001600160a01b0319163317905561091f806100316000396000f3fe608060405234801561001057600080fd5b50600436106100f55760003560e01c8063715018a611610097578063d269a03e11610066578063d269a03e14610229578063e30c39781461023c578063ee82ac5e1461024f578063f2fde38b1461026f57600080fd5b8063715018a6146101ce57806379ba5097146101d65780638da5cb5b146101de578063a91d8b3d1461020957600080fd5b806334cdf78d116100d357806334cdf78d146101555780634ffd344a1461017557806357e871e71461019857806361b207e2146101a157600080fd5b80630466efc4146100fa5780630e27bc111461012d5780631f57833314610142575b600080fd5b61011a61010836600461076a565b60009081526003602052604090205490565b6040519081526020015b60405180910390f35b61014061013b366004610783565b610282565b005b61014061015036600461076a565b610375565b61011a61016336600461076a565b60026020526000908152604090205481565b6101886101833660046107ee565b6103ea565b6040519015158152602001610124565b61011a60045481565b61011a6101af36600461076a565b6000908152600260209081526040808320548352600390915290205490565b610140610410565b610140610486565b6000546101f1906001600160a01b031681565b6040516001600160a01b039091168152602001610124565b61011a61021736600461076a565b60036020526000908152604090205481565b6101886102373660046107ee565b61054c565b6001546101f1906001600160a01b031681565b61011a61025d36600461076a565b60009081526002602052604090205490565b61014061027d366004610849565b61055b565b6000546001600160a01b031633146102b55760405162461bcd60e51b81526004016102ac90610879565b60405180910390fd5b60045460008190036102fb5760405162461bcd60e51b815260206004820152600f60248201526e139bdd081a5b9a5d1a585b1a5e9959608a1b60448201526064016102ac565b60008181526002602052604090208390556103178160016108a6565b60049081556000848152600360209081526040918290208590559154815190815291820185905281018390527f32eff959e2e8d1609edc4b39ccf75900aa6c1da5719f8432752963fdf008234f9060600160405180910390a1505050565b6000546001600160a01b0316331461039f5760405162461bcd60e51b81526004016102ac90610879565b600454156103e55760405162461bcd60e51b8152602060048201526013602482015272105b1c9958591e481a5b9a5d1a585b1a5e9959606a1b60448201526064016102ac565b600455565b60008581526002602052604081205461040690868686866105e1565b9695505050505050565b6000546001600160a01b0316331461043a5760405162461bcd60e51b81526004016102ac90610879565b600080546001600160a01b03191681556040805182815260208101929092527f8be0079c531659141344cd1fd0a4f28419497f9722a3daafe3b4186f6b6457e0910160405180910390a1565b6001546001600160a01b031633146104e05760405162461bcd60e51b815260206004820152601b60248201527f43616c6c6572206973206e6f742070656e64696e67206f776e6572000000000060448201526064016102ac565b60008054600180546001600160a01b03198084166001600160a01b038084169190911786559116909155604080519190921680825260208201939093527f8be0079c531659141344cd1fd0a4f28419497f9722a3daafe3b4186f6b6457e091015b60405180910390a150565b600061040686868686866105e1565b6000546001600160a01b031633146105855760405162461bcd60e51b81526004016102ac90610879565b600180546001600160a01b0319166001600160a01b038381169182179092556000546040805191909316815260208101919091527fed8889f560326eb138920d842192f0eb3dd22b4f139c87a2c57538e05bae12789101610541565b6000858152600360209081526040808320548151601f870184900484028101840190925285825291610634918891849190899089908190840183828082843760009201919091525089925061063f915050565b979650505050505050565b6000838514801561064e575081155b801561065957508251155b1561066657506001610675565b6106728584868561067d565b90505b949350505050565b60006020845161068d91906108c7565b1561069a57506000610675565b83516000036106ab57506000610675565b818560005b865181101561071a576106c46002846108c7565b6001036106e8576106e16106db8883016020015190565b83610727565b9150610701565b6106fe826106f98984016020015190565b610727565b91505b60019290921c916107136020826108a6565b90506106b0565b5090931495945050505050565b6000610733838361073c565b90505b92915050565b60008260005281602052602060006040600060025afa50602060006020600060025afa505060005192915050565b60006020828403121561077c57600080fd5b5035919050565b6000806040838503121561079657600080fd5b50508035926020909101359150565b60008083601f8401126107b757600080fd5b50813567ffffffffffffffff8111156107cf57600080fd5b6020830191508360208285010111156107e757600080fd5b9250929050565b60008060008060006080868803121561080657600080fd5b8535945060208601359350604086013567ffffffffffffffff81111561082b57600080fd5b610837888289016107a5565b96999598509660600135949350505050565b60006020828403121561085b57600080fd5b81356001600160a01b038116811461087257600080fd5b9392505050565b60208082526013908201527221b0b63632b91034b9903737ba1037bbb732b960691b604082015260600190565b8082018082111561073657634e487b7160e01b600052601160045260246000fd5b6000826108e457634e487b7160e01b600052601260045260246000fd5b50069056fea264697066735822122047f87b69f6257337195f178a4f126d7bc4b6097397b529282027d5c023c891e764736f6c63430008190033","linkReferences":{}},"methodIdentifiers":{"acceptOwnership()":"79ba5097","blockHashes(uint256)":"34cdf78d","blockNumber()":"57e871e7","getBlockHash(uint256)":"ee82ac5e","getWitnessRootByHash(bytes32)":"0466efc4","getWitnessRootByNumber(uint256)":"61b207e2","initializeBlockNumber(uint256)":"1f578333","owner()":"8da5cb5b","pendingOwner()":"e30c3978","renounceOwnership()":"715018a6","setBlockInfo(bytes32,bytes32)":"0e27bc11","transferOwnership(address)":"f2fde38b","verifyInclusion(bytes32,bytes32,bytes,uint256)":"d269a03e","verifyInclusion(uint256,bytes32,bytes,uint256)":"4ffd344a","witnessRoots(bytes32)":"a91d8b3d"},"id":29}