{"abi":[{"type":"constructor","inputs":[],"stateMutability":"nonpayable"},{"type":"function","name":"acceptOwnership","inputs":[],"outputs":[],"stateMutability":"nonpayable"},{"type":"function","name":"blockHashes","inputs":[{"name":"","type":"uint256","internalType":"uint256"}],"outputs":[{"name":"","type":"bytes32","internalType":"bytes32"}],"stateMutability":"view"},{"type":"function","name":"blockNumber","inputs":[],"outputs":[{"name":"","type":"uint256","internalType":"uint256"}],"stateMutability":"view"},{"type":"function","name":"getBlockHash","inputs":[{"name":"_blockNumber","type":"uint256","internalType":"uint256"}],"outputs":[{"name":"","type":"bytes32","internalType":"bytes32"}],"stateMutability":"view"},{"type":"function","name":"getMerkleRootByHash","inputs":[{"name":"_blockHash","type":"bytes32","internalType":"bytes32"}],"outputs":[{"name":"","type":"bytes32","internalType":"bytes32"}],"stateMutability":"view"},{"type":"function","name":"getMerkleRootByNumber","inputs":[{"name":"_blockNumber","type":"uint256","internalType":"uint256"}],"outputs":[{"name":"","type":"bytes32","internalType":"bytes32"}],"stateMutability":"view"},{"type":"function","name":"initializeBlockNumber","inputs":[{"name":"_blockNumber","type":"uint256","internalType":"uint256"}],"outputs":[],"stateMutability":"nonpayable"},{"type":"function","name":"merkleRoots","inputs":[{"name":"","type":"bytes32","internalType":"bytes32"}],"outputs":[{"name":"","type":"bytes32","internalType":"bytes32"}],"stateMutability":"view"},{"type":"function","name":"owner","inputs":[],"outputs":[{"name":"","type":"address","internalType":"address"}],"stateMutability":"view"},{"type":"function","name":"pendingOwner","inputs":[],"outputs":[{"name":"","type":"address","internalType":"address"}],"stateMutability":"view"},{"type":"function","name":"renounceOwnership","inputs":[],"outputs":[],"stateMutability":"nonpayable"},{"type":"function","name":"setBlockInfo","inputs":[{"name":"_blockHash","type":"bytes32","internalType":"bytes32"},{"name":"_merkleRoot","type":"bytes32","internalType":"bytes32"}],"outputs":[],"stateMutability":"nonpayable"},{"type":"function","name":"transferOwnership","inputs":[{"name":"newOwner","type":"address","internalType":"address"}],"outputs":[],"stateMutability":"nonpayable"},{"type":"event","name":"BlockInfoAdded","inputs":[{"name":"blockNumber","type":"uint256","indexed":false,"internalType":"uint256"},{"name":"blockHash","type":"bytes32","indexed":false,"internalType":"bytes32"},{"name":"merkleRoot","type":"bytes32","indexed":false,"internalType":"bytes32"}],"anonymous":false},{"type":"event","name":"OwnershipTransferRequested","inputs":[{"name":"previousOwner","type":"address","indexed":false,"internalType":"address"},{"name":"newOwner","type":"address","indexed":false,"internalType":"address"}],"anonymous":false},{"type":"event","name":"OwnershipTransferred","inputs":[{"name":"previousOwner","type":"address","indexed":false,"internalType":"address"},{"name":"newOwner","type":"address","indexed":false,"internalType":"address"}],"anonymous":false}],"bytecode":{"object":"0x6080604052348015600f57600080fd5b50600080546001600160a01b03191633179055610645806100316000396000f3fe608060405234801561001057600080fd5b50600436106100cf5760003560e01c806379ba50971161008c578063e30c397811610066578063e30c3978146101c0578063ee82ac5e146101d3578063f2fde38b146101f3578063fe5a53771461020657600080fd5b806379ba50971461016d5780638da5cb5b14610175578063be7d4fb1146101a057600080fd5b80630e27bc11146100d45780631f578333146100e957806334cdf78d146100fc5780633dc090b31461012f57806357e871e71461015c578063715018a614610165575b600080fd5b6100e76100e2366004610550565b610226565b005b6100e76100f7366004610572565b610319565b61011c61010a366004610572565b60026020526000908152604090205481565b6040519081526020015b60405180910390f35b61011c61013d366004610572565b6000908152600260209081526040808320548352600390915290205490565b61011c60045481565b6100e761038e565b6100e7610404565b600054610188906001600160a01b031681565b6040516001600160a01b039091168152602001610126565b61011c6101ae366004610572565b60009081526003602052604090205490565b600154610188906001600160a01b031681565b61011c6101e1366004610572565b60009081526002602052604090205490565b6100e761020136600461058b565b6104ca565b61011c610214366004610572565b60036020526000908152604090205481565b6000546001600160a01b031633146102595760405162461bcd60e51b8152600401610250906105bb565b60405180910390fd5b600454600081900361029f5760405162461bcd60e51b815260206004820152600f60248201526e139bdd081a5b9a5d1a585b1a5e9959608a1b6044820152606401610250565b60008181526002602052604090208390556102bb8160016105e8565b60049081556000848152600360209081526040918290208590559154815190815291820185905281018390527f32eff959e2e8d1609edc4b39ccf75900aa6c1da5719f8432752963fdf008234f9060600160405180910390a1505050565b6000546001600160a01b031633146103435760405162461bcd60e51b8152600401610250906105bb565b600454156103895760405162461bcd60e51b8152602060048201526013602482015272105b1c9958591e481a5b9a5d1a585b1a5e9959606a1b6044820152606401610250565b600455565b6000546001600160a01b031633146103b85760405162461bcd60e51b8152600401610250906105bb565b600080546001600160a01b03191681556040805182815260208101929092527f8be0079c531659141344cd1fd0a4f28419497f9722a3daafe3b4186f6b6457e0910160405180910390a1565b6001546001600160a01b0316331461045e5760405162461bcd60e51b815260206004820152601b60248201527f43616c6c6572206973206e6f742070656e64696e67206f776e657200000000006044820152606401610250565b60008054600180546001600160a01b03198084166001600160a01b038084169190911786559116909155604080519190921680825260208201939093527f8be0079c531659141344cd1fd0a4f28419497f9722a3daafe3b4186f6b6457e091015b60405180910390a150565b6000546001600160a01b031633146104f45760405162461bcd60e51b8152600401610250906105bb565b600180546001600160a01b0319166001600160a01b038381169182179092556000546040805191909316815260208101919091527fed8889f560326eb138920d842192f0eb3dd22b4f139c87a2c57538e05bae127891016104bf565b6000806040838503121561056357600080fd5b50508035926020909101359150565b60006020828403121561058457600080fd5b5035919050565b60006020828403121561059d57600080fd5b81356001600160a01b03811681146105b457600080fd5b9392505050565b60208082526013908201527221b0b63632b91034b9903737ba1037bbb732b960691b604082015260600190565b8082018082111561060957634e487b7160e01b600052601160045260246000fd5b9291505056fea26469706673582212205dfa4db05d69b0ec5242ffb4b3b1827ebae2a2d822480dd81d73892aca15054264736f6c63430008190033","linkReferences":{}},"methodIdentifiers":{"acceptOwnership()":"79ba5097","blockHashes(uint256)":"34cdf78d","blockNumber()":"57e871e7","getBlockHash(uint256)":"ee82ac5e","getMerkleRootByHash(bytes32)":"be7d4fb1","getMerkleRootByNumber(uint256)":"3dc090b3","initializeBlockNumber(uint256)":"1f578333","merkleRoots(bytes32)":"fe5a5377","owner()":"8da5cb5b","pendingOwner()":"e30c3978","renounceOwnership()":"715018a6","setBlockInfo(bytes32,bytes32)":"0e27bc11","transferOwnership(address)":"f2fde38b"},"id":24}