{"abi":[{"type":"function","name":"SYSTEM_CALLER","inputs":[],"outputs":[{"name":"","type":"address","internalType":"address"}],"stateMutability":"view"},{"type":"function","name":"blockHashes","inputs":[{"name":"","type":"uint256","internalType":"uint256"}],"outputs":[{"name":"","type":"bytes32","internalType":"bytes32"}],"stateMutability":"view"},{"type":"function","name":"blockNumber","inputs":[],"outputs":[{"name":"","type":"uint256","internalType":"uint256"}],"stateMutability":"view"},{"type":"function","name":"getBlockHash","inputs":[{"name":"_blockNumber","type":"uint256","internalType":"uint256"}],"outputs":[{"name":"","type":"bytes32","internalType":"bytes32"}],"stateMutability":"view"},{"type":"function","name":"getWitnessRootByHash","inputs":[{"name":"_blockHash","type":"bytes32","internalType":"bytes32"}],"outputs":[{"name":"","type":"bytes32","internalType":"bytes32"}],"stateMutability":"view"},{"type":"function","name":"getWitnessRootByNumber","inputs":[{"name":"_blockNumber","type":"uint256","internalType":"uint256"}],"outputs":[{"name":"","type":"bytes32","internalType":"bytes32"}],"stateMutability":"view"},{"type":"function","name":"initializeBlockNumber","inputs":[{"name":"_blockNumber","type":"uint256","internalType":"uint256"}],"outputs":[],"stateMutability":"nonpayable"},{"type":"function","name":"setBlockInfo","inputs":[{"name":"_blockHash","type":"bytes32","internalType":"bytes32"},{"name":"_witnessRoot","type":"bytes32","internalType":"bytes32"}],"outputs":[],"stateMutability":"nonpayable"},{"type":"function","name":"verifyInclusion","inputs":[{"name":"_blockNumber","type":"uint256","internalType":"uint256"},{"name":"_wtxId","type":"bytes32","internalType":"bytes32"},{"name":"_proof","type":"bytes","internalType":"bytes"},{"name":"_index","type":"uint256","internalType":"uint256"}],"outputs":[{"name":"","type":"bool","internalType":"bool"}],"stateMutability":"view"},{"type":"function","name":"verifyInclusion","inputs":[{"name":"_blockHash","type":"bytes32","internalType":"bytes32"},{"name":"_wtxId","type":"bytes32","internalType":"bytes32"},{"name":"_proof","type":"bytes","internalType":"bytes"},{"name":"_index","type":"uint256","internalType":"uint256"}],"outputs":[{"name":"","type":"bool","internalType":"bool"}],"stateMutability":"view"},{"type":"function","name":"witnessRoots","inputs":[{"name":"","type":"bytes32","internalType":"bytes32"}],"outputs":[{"name":"","type":"bytes32","internalType":"bytes32"}],"stateMutability":"view"},{"type":"event","name":"BlockInfoAdded","inputs":[{"name":"blockNumber","type":"uint256","indexed":false,"internalType":"uint256"},{"name":"blockHash","type":"bytes32","indexed":false,"internalType":"bytes32"},{"name":"merkleRoot","type":"bytes32","indexed":false,"internalType":"bytes32"}],"anonymous":false}],"bytecode":{"object":"0x6080604052348015600f57600080fd5b506106f18061001f6000396000f3fe608060405234801561001057600080fd5b50600436106100a95760003560e01c806357e871e71161007157806357e871e71461014c57806361b207e214610155578063a91d8b3d14610182578063d269a03e146101a2578063d761753e146101b5578063ee82ac5e146101e857600080fd5b80630466efc4146100ae5780630e27bc11146100e15780631f578333146100f657806334cdf78d146101095780634ffd344a14610129575b600080fd5b6100ce6100bc366004610599565b60009081526002602052604090205490565b6040519081526020015b60405180910390f35b6100f46100ef3660046105b2565b610208565b005b6100f4610104366004610599565b610331565b6100ce610117366004610599565b60016020526000908152604090205481565b61013c61013736600461061d565b6103df565b60405190151581526020016100d8565b6100ce60005481565b6100ce610163366004610599565b6000908152600160209081526040808320548352600290915290205490565b6100ce610190366004610599565b60026020526000908152604090205481565b61013c6101b036600461061d565b610405565b6101d073deaddeaddeaddeaddeaddeaddeaddeaddeaddead81565b6040516001600160a01b0390911681526020016100d8565b6100ce6101f6366004610599565b60009081526001602052604090205490565b3373deaddeaddeaddeaddeaddeaddeaddeaddeaddead146102705760405162461bcd60e51b815260206004820152601f60248201527f63616c6c6572206973206e6f74207468652073797374656d2063616c6c65720060448201526064015b60405180910390fd5b60008054908190036102b65760405162461bcd60e51b815260206004820152600f60248201526e139bdd081a5b9a5d1a585b1a5e9959608a1b6044820152606401610267565b60008181526001602081905260409091208490556102d5908290610678565b6000908155838152600260209081526040808320859055915482519081529081018590529081018390527f32eff959e2e8d1609edc4b39ccf75900aa6c1da5719f8432752963fdf008234f9060600160405180910390a1505050565b3373deaddeaddeaddeaddeaddeaddeaddeaddeaddead146103945760405162461bcd60e51b815260206004820152601f60248201527f63616c6c6572206973206e6f74207468652073797374656d2063616c6c6572006044820152606401610267565b600054156103da5760405162461bcd60e51b8152602060048201526013602482015272105b1c9958591e481a5b9a5d1a585b1a5e9959606a1b6044820152606401610267565b600055565b6000858152600160205260408120546103fb9086868686610410565b9695505050505050565b60006103fb86868686865b6000858152600260209081526040808320548151601f870184900484028101840190925285825291610463918891849190899089908190840183828082843760009201919091525089925061046e915050565b979650505050505050565b6000838514801561047d575081155b801561048857508251155b15610495575060016104a4565b6104a1858486856104ac565b90505b949350505050565b6000602084516104bc9190610699565b156104c9575060006104a4565b83516000036104da575060006104a4565b818560005b8651811015610549576104f3600284610699565b6001036105175761051061050a8883016020015190565b83610556565b9150610530565b61052d826105288984016020015190565b610556565b91505b60019290921c91610542602082610678565b90506104df565b5090931495945050505050565b6000610562838361056b565b90505b92915050565b60008260005281602052602060006040600060025afa50602060006020600060025afa505060005192915050565b6000602082840312156105ab57600080fd5b5035919050565b600080604083850312156105c557600080fd5b50508035926020909101359150565b60008083601f8401126105e657600080fd5b50813567ffffffffffffffff8111156105fe57600080fd5b60208301915083602082850101111561061657600080fd5b9250929050565b60008060008060006080868803121561063557600080fd5b8535945060208601359350604086013567ffffffffffffffff81111561065a57600080fd5b610666888289016105d4565b96999598509660600135949350505050565b8082018082111561056557634e487b7160e01b600052601160045260246000fd5b6000826106b657634e487b7160e01b600052601260045260246000fd5b50069056fea26469706673582212204355077b88bf45911cde1eacd23a363c6538885c3daee1e20e2adf99b279976564736f6c63430008190033","linkReferences":{}},"methodIdentifiers":{"SYSTEM_CALLER()":"d761753e","blockHashes(uint256)":"34cdf78d","blockNumber()":"57e871e7","getBlockHash(uint256)":"ee82ac5e","getWitnessRootByHash(bytes32)":"0466efc4","getWitnessRootByNumber(uint256)":"61b207e2","initializeBlockNumber(uint256)":"1f578333","setBlockInfo(bytes32,bytes32)":"0e27bc11","verifyInclusion(bytes32,bytes32,bytes,uint256)":"d269a03e","verifyInclusion(uint256,bytes32,bytes,uint256)":"4ffd344a","witnessRoots(bytes32)":"a91d8b3d"},"id":44}